{
  "_format": "hh-sol-artifact-1",
  "contractName": "FractionalToken",
  "sourceName": "contracts/MarketAsset.sol",
  "abi": [
    {
      "inputs": [
        {
          "internalType": "string",
          "name": "name_",
          "type": "string"
        },
        {
          "internalType": "string",
          "name": "symbol_",
          "type": "string"
        },
        {
          "internalType": "uint256",
          "name": "totalSupply_",
          "type": "uint256"
        },
        {
          "internalType": "address",
          "name": "to_",
          "type": "address"
        },
        {
          "internalType": "address",
          "name": "fractionalizer_",
          "type": "address"
        },
        {
          "internalType": "uint256",
          "name": "assetId_",
          "type": "uint256"
        }
      ],
      "stateMutability": "nonpayable",
      "type": "constructor"
    },
    {
      "inputs": [
        {
          "internalType": "address",
          "name": "spender",
          "type": "address"
        },
        {
          "internalType": "uint256",
          "name": "allowance",
          "type": "uint256"
        },
        {
          "internalType": "uint256",
          "name": "needed",
          "type": "uint256"
        }
      ],
      "name": "ERC20InsufficientAllowance",
      "type": "error"
    },
    {
      "inputs": [
        {
          "internalType": "address",
          "name": "sender",
          "type": "address"
        },
        {
          "internalType": "uint256",
          "name": "balance",
          "type": "uint256"
        },
        {
          "internalType": "uint256",
          "name": "needed",
          "type": "uint256"
        }
      ],
      "name": "ERC20InsufficientBalance",
      "type": "error"
    },
    {
      "inputs": [
        {
          "internalType": "address",
          "name": "approver",
          "type": "address"
        }
      ],
      "name": "ERC20InvalidApprover",
      "type": "error"
    },
    {
      "inputs": [
        {
          "internalType": "address",
          "name": "receiver",
          "type": "address"
        }
      ],
      "name": "ERC20InvalidReceiver",
      "type": "error"
    },
    {
      "inputs": [
        {
          "internalType": "address",
          "name": "sender",
          "type": "address"
        }
      ],
      "name": "ERC20InvalidSender",
      "type": "error"
    },
    {
      "inputs": [
        {
          "internalType": "address",
          "name": "spender",
          "type": "address"
        }
      ],
      "name": "ERC20InvalidSpender",
      "type": "error"
    },
    {
      "anonymous": false,
      "inputs": [
        {
          "indexed": true,
          "internalType": "address",
          "name": "owner",
          "type": "address"
        },
        {
          "indexed": true,
          "internalType": "address",
          "name": "spender",
          "type": "address"
        },
        {
          "indexed": false,
          "internalType": "uint256",
          "name": "value",
          "type": "uint256"
        }
      ],
      "name": "Approval",
      "type": "event"
    },
    {
      "anonymous": false,
      "inputs": [
        {
          "indexed": true,
          "internalType": "address",
          "name": "from",
          "type": "address"
        },
        {
          "indexed": true,
          "internalType": "address",
          "name": "to",
          "type": "address"
        },
        {
          "indexed": false,
          "internalType": "uint256",
          "name": "value",
          "type": "uint256"
        }
      ],
      "name": "Transfer",
      "type": "event"
    },
    {
      "inputs": [
        {
          "internalType": "address",
          "name": "owner",
          "type": "address"
        },
        {
          "internalType": "address",
          "name": "spender",
          "type": "address"
        }
      ],
      "name": "allowance",
      "outputs": [
        {
          "internalType": "uint256",
          "name": "",
          "type": "uint256"
        }
      ],
      "stateMutability": "view",
      "type": "function"
    },
    {
      "inputs": [
        {
          "internalType": "address",
          "name": "spender",
          "type": "address"
        },
        {
          "internalType": "uint256",
          "name": "value",
          "type": "uint256"
        }
      ],
      "name": "approve",
      "outputs": [
        {
          "internalType": "bool",
          "name": "",
          "type": "bool"
        }
      ],
      "stateMutability": "nonpayable",
      "type": "function"
    },
    {
      "inputs": [
        {
          "internalType": "address",
          "name": "account",
          "type": "address"
        }
      ],
      "name": "balanceOf",
      "outputs": [
        {
          "internalType": "uint256",
          "name": "",
          "type": "uint256"
        }
      ],
      "stateMutability": "view",
      "type": "function"
    },
    {
      "inputs": [
        {
          "internalType": "uint256",
          "name": "value",
          "type": "uint256"
        }
      ],
      "name": "burn",
      "outputs": [],
      "stateMutability": "nonpayable",
      "type": "function"
    },
    {
      "inputs": [
        {
          "internalType": "address",
          "name": "account",
          "type": "address"
        },
        {
          "internalType": "uint256",
          "name": "value",
          "type": "uint256"
        }
      ],
      "name": "burnFrom",
      "outputs": [],
      "stateMutability": "nonpayable",
      "type": "function"
    },
    {
      "inputs": [],
      "name": "decimals",
      "outputs": [
        {
          "internalType": "uint8",
          "name": "",
          "type": "uint8"
        }
      ],
      "stateMutability": "view",
      "type": "function"
    },
    {
      "inputs": [],
      "name": "fractionalizer",
      "outputs": [
        {
          "internalType": "address",
          "name": "",
          "type": "address"
        }
      ],
      "stateMutability": "view",
      "type": "function"
    },
    {
      "inputs": [
        {
          "internalType": "address",
          "name": "to",
          "type": "address"
        },
        {
          "internalType": "uint256",
          "name": "amount",
          "type": "uint256"
        }
      ],
      "name": "mintByFractionalizer",
      "outputs": [],
      "stateMutability": "nonpayable",
      "type": "function"
    },
    {
      "inputs": [],
      "name": "name",
      "outputs": [
        {
          "internalType": "string",
          "name": "",
          "type": "string"
        }
      ],
      "stateMutability": "view",
      "type": "function"
    },
    {
      "inputs": [],
      "name": "originAssetId",
      "outputs": [
        {
          "internalType": "uint256",
          "name": "",
          "type": "uint256"
        }
      ],
      "stateMutability": "view",
      "type": "function"
    },
    {
      "inputs": [],
      "name": "symbol",
      "outputs": [
        {
          "internalType": "string",
          "name": "",
          "type": "string"
        }
      ],
      "stateMutability": "view",
      "type": "function"
    },
    {
      "inputs": [],
      "name": "totalSupply",
      "outputs": [
        {
          "internalType": "uint256",
          "name": "",
          "type": "uint256"
        }
      ],
      "stateMutability": "view",
      "type": "function"
    },
    {
      "inputs": [
        {
          "internalType": "address",
          "name": "to",
          "type": "address"
        },
        {
          "internalType": "uint256",
          "name": "value",
          "type": "uint256"
        }
      ],
      "name": "transfer",
      "outputs": [
        {
          "internalType": "bool",
          "name": "",
          "type": "bool"
        }
      ],
      "stateMutability": "nonpayable",
      "type": "function"
    },
    {
      "inputs": [
        {
          "internalType": "address",
          "name": "from",
          "type": "address"
        },
        {
          "internalType": "address",
          "name": "to",
          "type": "address"
        },
        {
          "internalType": "uint256",
          "name": "value",
          "type": "uint256"
        }
      ],
      "name": "transferFrom",
      "outputs": [
        {
          "internalType": "bool",
          "name": "",
          "type": "bool"
        }
      ],
      "stateMutability": "nonpayable",
      "type": "function"
    }
  ],
  "bytecode": "0x60806040523461040a57610d5c803803806100198161040f565b928339810160c08282031261040a5781516001600160401b03811161040a5781610044918401610434565b602083015190916001600160401b03821161040a57610064918401610434565b906040830151926100776060820161049f565b9260a06100866080840161049f565b920151835190936001600160401b0382116103075760035490600182811c92168015610400575b60208310146102e75781601f849311610390575b50602090601f83116001146103285760009261031d575b50508160011b916000199060031b1c1916176003555b8051906001600160401b0382116103075760045490600182811c921680156102fd575b60208310146102e75781601f849311610277575b50602090601f831160011461020f57600092610204575b50508160011b916000199060031b1c1916176004555b600580546001600160a01b0319166001600160a01b03928316179055600691909155169081156101ee576002548181018091116101d8576002557fddf252ad1be2c89b69c2b068fc378daa952ba7f163c4a11628f55a4df523b3ef602060009284845283825260408420818154019055604051908152a36040516108a890816104b48239f35b634e487b7160e01b600052601160045260246000fd5b63ec442f0560e01b600052600060045260246000fd5b01519050388061013c565b600460009081528281209350601f198516905b81811061025f5750908460019594939210610246575b505050811b01600455610152565b015160001960f88460031b161c19169055388080610238565b92936020600181928786015181550195019301610222565b60046000529091507f8a35acfbc15ff81a39ae7d344fd709f28e8600b4aa8c65c6b64bfe7fe36bd19b601f840160051c810191602085106102dd575b90601f859493920160051c01905b8181106102ce5750610125565b600081558493506001016102c1565b90915081906102b3565b634e487b7160e01b600052602260045260246000fd5b91607f1691610111565b634e487b7160e01b600052604160045260246000fd5b0151905038806100d8565b600360009081528281209350601f198516905b818110610378575090846001959493921061035f575b505050811b016003556100ee565b015160001960f88460031b161c19169055388080610351565b9293602060018192878601518155019501930161033b565b60036000529091507fc2575a0e9e593c00f959f8c92f12db2869c3395a3b0502d05e2516446f71f85b601f840160051c810191602085106103f6575b90601f859493920160051c01905b8181106103e757506100c1565b600081558493506001016103da565b90915081906103cc565b91607f16916100ad565b600080fd5b6040519190601f01601f191682016001600160401b0381118382101761030757604052565b81601f8201121561040a578051906001600160401b03821161030757610463601f8301601f191660200161040f565b928284526020838301011161040a5760005b82811061048a57505060206000918301015290565b80602080928401015182828701015201610475565b51906001600160a01b038216820361040a5756fe608080604052600436101561001357600080fd5b60003560e01c90816306fdde031461054f57508063095ea7b31461049d578063138bbdc71461047f57806318160ddd1461046157806323b872dd14610429578063313ce5671461040d57806342966c68146103f057806348b40561146102f657806370a08231146102bc57806379cc67901461028a57806395d89b4114610169578063a9059cbb14610138578063d03b0e491461010f5763dd62ed3e146100b957600080fd5b3461010a57604036600319011261010a576100d261066b565b6100da610681565b6001600160a01b039182166000908152600160209081526040808320949093168252928352819020549051908152f35b600080fd5b3461010a57600036600319011261010a576005546040516001600160a01b039091168152602090f35b3461010a57604036600319011261010a5761015e61015461066b565b6024359033610742565b602060405160018152f35b3461010a57600036600319011261010a5760405160006004548060011c90600181168015610280575b60208310811461026c5782855290811561025057506001146101f9575b50819003601f01601f191681019067ffffffffffffffff8211818310176101e3576101df82918260405282610622565b0390f35b634e487b7160e01b600052604160045260246000fd5b905060046000527f8a35acfbc15ff81a39ae7d344fd709f28e8600b4aa8c65c6b64bfe7fe36bd19b6000905b82821061023a575060209150820101826101af565b6001816020925483858801015201910190610225565b90506020925060ff191682840152151560051b820101826101af565b634e487b7160e01b84526022600452602484fd5b91607f1691610192565b3461010a57604036600319011261010a576102ba6102a661066b565b602435906102b5823383610697565b6107f1565b005b3461010a57602036600319011261010a576001600160a01b036102dd61066b565b1660005260006020526020604060002054604051908152f35b3461010a57604036600319011261010a5761030f61066b565b60055460243591906001600160a01b031633036103b5576001600160a01b0316801561039f5760025491808301809311610389576020926002557fddf252ad1be2c89b69c2b068fc378daa952ba7f163c4a11628f55a4df523b3ef600093849284845283825260408420818154019055604051908152a380f35b634e487b7160e01b600052601160045260246000fd5b63ec442f0560e01b600052600060045260246000fd5b60405162461bcd60e51b815260206004820152601360248201527227b7363c90333930b1ba34b7b730b634bd32b960691b6044820152606490fd5b3461010a57602036600319011261010a576102ba600435336107f1565b3461010a57600036600319011261010a57602060405160128152f35b3461010a57606036600319011261010a5761015e61044561066b565b61044d610681565b6044359161045c833383610697565b610742565b3461010a57600036600319011261010a576020600254604051908152f35b3461010a57600036600319011261010a576020600654604051908152f35b3461010a57604036600319011261010a576104b661066b565b602435903315610539576001600160a01b031690811561052357336000526001602052604060002082600052602052806040600020556040519081527f8c5be1e5ebec7d5bd14f71427d1e84f3dd0314c0f7b2291e5b200ac8c7c3b92560203392a3602060405160018152f35b634a1406b160e11b600052600060045260246000fd5b63e602df0560e01b600052600060045260246000fd5b3461010a57600036600319011261010a5760006003548060011c90600181168015610618575b60208310811461026c5782855290811561025057506001146105c15750819003601f01601f191681019067ffffffffffffffff8211818310176101e3576101df82918260405282610622565b905060036000527fc2575a0e9e593c00f959f8c92f12db2869c3395a3b0502d05e2516446f71f85b6000905b828210610602575060209150820101826101af565b60018160209254838588010152019101906105ed565b91607f1691610575565b91909160208152825180602083015260005b818110610655575060409293506000838284010152601f8019910116010190565b8060208092870101516040828601015201610634565b600435906001600160a01b038216820361010a57565b602435906001600160a01b038216820361010a57565b6001600160a01b0390811660008181526001602090815260408083209486168352939052919091205492919060001984106106d3575b50505050565b82841061071d578015610539576001600160a01b0382161561052357600052600160205260406000209060018060a01b0316600052602052604060002091039055388080806106cd565b508290637dc7a0d960e11b60005260018060a01b031660045260245260445260646000fd5b6001600160a01b03169081156107db576001600160a01b031691821561039f5760008281528060205260408120548281106107c15791604082827fddf252ad1be2c89b69c2b068fc378daa952ba7f163c4a11628f55a4df523b3ef958760209652828652038282205586815280845220818154019055604051908152a3565b916064928463391434e360e21b8452600452602452604452fd5b634b637e8f60e11b600052600060045260246000fd5b6001600160a01b031680156107db5760009181835282602052604083205481811061085957817fddf252ad1be2c89b69c2b068fc378daa952ba7f163c4a11628f55a4df523b3ef926020928587528684520360408620558060025403600255604051908152a3565b6064939263391434e360e21b8452600452602452604452fdfea26469706673582212206ad9d38ef6a5e94b677164402b63089036955eb87fba13085d5e8bd724156d1264736f6c634300081c0033",
  "linkReferences": {},
  "deployedLinkReferences": {}
}