{
  "_format": "hh-sol-artifact-1",
  "contractName": "GameAssetIP",
  "sourceName": "contracts/GameAssetIP.sol",
  "abi": [
    {
      "inputs": [],
      "stateMutability": "nonpayable",
      "type": "constructor"
    },
    {
      "inputs": [
        {
          "internalType": "address",
          "name": "sender",
          "type": "address"
        },
        {
          "internalType": "uint256",
          "name": "tokenId",
          "type": "uint256"
        },
        {
          "internalType": "address",
          "name": "owner",
          "type": "address"
        }
      ],
      "name": "ERC721IncorrectOwner",
      "type": "error"
    },
    {
      "inputs": [
        {
          "internalType": "address",
          "name": "operator",
          "type": "address"
        },
        {
          "internalType": "uint256",
          "name": "tokenId",
          "type": "uint256"
        }
      ],
      "name": "ERC721InsufficientApproval",
      "type": "error"
    },
    {
      "inputs": [
        {
          "internalType": "address",
          "name": "approver",
          "type": "address"
        }
      ],
      "name": "ERC721InvalidApprover",
      "type": "error"
    },
    {
      "inputs": [
        {
          "internalType": "address",
          "name": "operator",
          "type": "address"
        }
      ],
      "name": "ERC721InvalidOperator",
      "type": "error"
    },
    {
      "inputs": [
        {
          "internalType": "address",
          "name": "owner",
          "type": "address"
        }
      ],
      "name": "ERC721InvalidOwner",
      "type": "error"
    },
    {
      "inputs": [
        {
          "internalType": "address",
          "name": "receiver",
          "type": "address"
        }
      ],
      "name": "ERC721InvalidReceiver",
      "type": "error"
    },
    {
      "inputs": [
        {
          "internalType": "address",
          "name": "sender",
          "type": "address"
        }
      ],
      "name": "ERC721InvalidSender",
      "type": "error"
    },
    {
      "inputs": [
        {
          "internalType": "uint256",
          "name": "tokenId",
          "type": "uint256"
        }
      ],
      "name": "ERC721NonexistentToken",
      "type": "error"
    },
    {
      "inputs": [
        {
          "internalType": "address",
          "name": "owner",
          "type": "address"
        }
      ],
      "name": "OwnableInvalidOwner",
      "type": "error"
    },
    {
      "inputs": [
        {
          "internalType": "address",
          "name": "account",
          "type": "address"
        }
      ],
      "name": "OwnableUnauthorizedAccount",
      "type": "error"
    },
    {
      "inputs": [],
      "name": "ReentrancyGuardReentrantCall",
      "type": "error"
    },
    {
      "anonymous": false,
      "inputs": [
        {
          "indexed": true,
          "internalType": "address",
          "name": "owner",
          "type": "address"
        },
        {
          "indexed": true,
          "internalType": "address",
          "name": "approved",
          "type": "address"
        },
        {
          "indexed": true,
          "internalType": "uint256",
          "name": "tokenId",
          "type": "uint256"
        }
      ],
      "name": "Approval",
      "type": "event"
    },
    {
      "anonymous": false,
      "inputs": [
        {
          "indexed": true,
          "internalType": "address",
          "name": "owner",
          "type": "address"
        },
        {
          "indexed": true,
          "internalType": "address",
          "name": "operator",
          "type": "address"
        },
        {
          "indexed": false,
          "internalType": "bool",
          "name": "approved",
          "type": "bool"
        }
      ],
      "name": "ApprovalForAll",
      "type": "event"
    },
    {
      "anonymous": false,
      "inputs": [
        {
          "indexed": true,
          "internalType": "uint256",
          "name": "tokenId",
          "type": "uint256"
        },
        {
          "indexed": false,
          "internalType": "uint256",
          "name": "price",
          "type": "uint256"
        }
      ],
      "name": "AssetListed",
      "type": "event"
    },
    {
      "anonymous": false,
      "inputs": [
        {
          "indexed": true,
          "internalType": "uint256",
          "name": "tokenId",
          "type": "uint256"
        },
        {
          "indexed": true,
          "internalType": "address",
          "name": "creator",
          "type": "address"
        },
        {
          "indexed": false,
          "internalType": "string",
          "name": "uri",
          "type": "string"
        }
      ],
      "name": "AssetMinted",
      "type": "event"
    },
    {
      "anonymous": false,
      "inputs": [
        {
          "indexed": true,
          "internalType": "uint256",
          "name": "tokenId",
          "type": "uint256"
        },
        {
          "indexed": true,
          "internalType": "address",
          "name": "from",
          "type": "address"
        },
        {
          "indexed": true,
          "internalType": "address",
          "name": "to",
          "type": "address"
        },
        {
          "indexed": false,
          "internalType": "uint256",
          "name": "price",
          "type": "uint256"
        }
      ],
      "name": "AssetSold",
      "type": "event"
    },
    {
      "anonymous": false,
      "inputs": [
        {
          "indexed": false,
          "internalType": "uint256",
          "name": "_fromTokenId",
          "type": "uint256"
        },
        {
          "indexed": false,
          "internalType": "uint256",
          "name": "_toTokenId",
          "type": "uint256"
        }
      ],
      "name": "BatchMetadataUpdate",
      "type": "event"
    },
    {
      "anonymous": false,
      "inputs": [
        {
          "indexed": false,
          "internalType": "uint256",
          "name": "_tokenId",
          "type": "uint256"
        }
      ],
      "name": "MetadataUpdate",
      "type": "event"
    },
    {
      "anonymous": false,
      "inputs": [
        {
          "indexed": true,
          "internalType": "address",
          "name": "previousOwner",
          "type": "address"
        },
        {
          "indexed": true,
          "internalType": "address",
          "name": "newOwner",
          "type": "address"
        }
      ],
      "name": "OwnershipTransferred",
      "type": "event"
    },
    {
      "anonymous": false,
      "inputs": [
        {
          "indexed": true,
          "internalType": "address",
          "name": "from",
          "type": "address"
        },
        {
          "indexed": true,
          "internalType": "address",
          "name": "to",
          "type": "address"
        },
        {
          "indexed": true,
          "internalType": "uint256",
          "name": "tokenId",
          "type": "uint256"
        }
      ],
      "name": "Transfer",
      "type": "event"
    },
    {
      "inputs": [
        {
          "internalType": "address",
          "name": "to",
          "type": "address"
        },
        {
          "internalType": "uint256",
          "name": "tokenId",
          "type": "uint256"
        }
      ],
      "name": "approve",
      "outputs": [],
      "stateMutability": "nonpayable",
      "type": "function"
    },
    {
      "inputs": [
        {
          "internalType": "address",
          "name": "owner",
          "type": "address"
        }
      ],
      "name": "balanceOf",
      "outputs": [
        {
          "internalType": "uint256",
          "name": "",
          "type": "uint256"
        }
      ],
      "stateMutability": "view",
      "type": "function"
    },
    {
      "inputs": [
        {
          "internalType": "uint256",
          "name": "tokenId",
          "type": "uint256"
        }
      ],
      "name": "buy",
      "outputs": [],
      "stateMutability": "payable",
      "type": "function"
    },
    {
      "inputs": [
        {
          "internalType": "uint256",
          "name": "",
          "type": "uint256"
        }
      ],
      "name": "creator",
      "outputs": [
        {
          "internalType": "address",
          "name": "",
          "type": "address"
        }
      ],
      "stateMutability": "view",
      "type": "function"
    },
    {
      "inputs": [
        {
          "internalType": "uint256",
          "name": "tokenId",
          "type": "uint256"
        }
      ],
      "name": "getApproved",
      "outputs": [
        {
          "internalType": "address",
          "name": "",
          "type": "address"
        }
      ],
      "stateMutability": "view",
      "type": "function"
    },
    {
      "inputs": [
        {
          "internalType": "address",
          "name": "owner",
          "type": "address"
        },
        {
          "internalType": "address",
          "name": "operator",
          "type": "address"
        }
      ],
      "name": "isApprovedForAll",
      "outputs": [
        {
          "internalType": "bool",
          "name": "",
          "type": "bool"
        }
      ],
      "stateMutability": "view",
      "type": "function"
    },
    {
      "inputs": [
        {
          "internalType": "string",
          "name": "uri",
          "type": "string"
        },
        {
          "internalType": "uint96",
          "name": "_royaltyBps",
          "type": "uint96"
        },
        {
          "internalType": "uint256",
          "name": "_price",
          "type": "uint256"
        }
      ],
      "name": "mintAsset",
      "outputs": [],
      "stateMutability": "nonpayable",
      "type": "function"
    },
    {
      "inputs": [],
      "name": "name",
      "outputs": [
        {
          "internalType": "string",
          "name": "",
          "type": "string"
        }
      ],
      "stateMutability": "view",
      "type": "function"
    },
    {
      "inputs": [],
      "name": "nextId",
      "outputs": [
        {
          "internalType": "uint256",
          "name": "",
          "type": "uint256"
        }
      ],
      "stateMutability": "view",
      "type": "function"
    },
    {
      "inputs": [],
      "name": "owner",
      "outputs": [
        {
          "internalType": "address",
          "name": "",
          "type": "address"
        }
      ],
      "stateMutability": "view",
      "type": "function"
    },
    {
      "inputs": [
        {
          "internalType": "uint256",
          "name": "tokenId",
          "type": "uint256"
        }
      ],
      "name": "ownerOf",
      "outputs": [
        {
          "internalType": "address",
          "name": "",
          "type": "address"
        }
      ],
      "stateMutability": "view",
      "type": "function"
    },
    {
      "inputs": [
        {
          "internalType": "uint256",
          "name": "",
          "type": "uint256"
        }
      ],
      "name": "price",
      "outputs": [
        {
          "internalType": "uint256",
          "name": "",
          "type": "uint256"
        }
      ],
      "stateMutability": "view",
      "type": "function"
    },
    {
      "inputs": [],
      "name": "renounceOwnership",
      "outputs": [],
      "stateMutability": "nonpayable",
      "type": "function"
    },
    {
      "inputs": [
        {
          "internalType": "uint256",
          "name": "",
          "type": "uint256"
        }
      ],
      "name": "royaltyBps",
      "outputs": [
        {
          "internalType": "uint96",
          "name": "",
          "type": "uint96"
        }
      ],
      "stateMutability": "view",
      "type": "function"
    },
    {
      "inputs": [
        {
          "internalType": "address",
          "name": "from",
          "type": "address"
        },
        {
          "internalType": "address",
          "name": "to",
          "type": "address"
        },
        {
          "internalType": "uint256",
          "name": "tokenId",
          "type": "uint256"
        }
      ],
      "name": "safeTransferFrom",
      "outputs": [],
      "stateMutability": "nonpayable",
      "type": "function"
    },
    {
      "inputs": [
        {
          "internalType": "address",
          "name": "from",
          "type": "address"
        },
        {
          "internalType": "address",
          "name": "to",
          "type": "address"
        },
        {
          "internalType": "uint256",
          "name": "tokenId",
          "type": "uint256"
        },
        {
          "internalType": "bytes",
          "name": "data",
          "type": "bytes"
        }
      ],
      "name": "safeTransferFrom",
      "outputs": [],
      "stateMutability": "nonpayable",
      "type": "function"
    },
    {
      "inputs": [
        {
          "internalType": "address",
          "name": "operator",
          "type": "address"
        },
        {
          "internalType": "bool",
          "name": "approved",
          "type": "bool"
        }
      ],
      "name": "setApprovalForAll",
      "outputs": [],
      "stateMutability": "nonpayable",
      "type": "function"
    },
    {
      "inputs": [
        {
          "internalType": "uint256",
          "name": "tokenId",
          "type": "uint256"
        },
        {
          "internalType": "uint256",
          "name": "_price",
          "type": "uint256"
        }
      ],
      "name": "setPrice",
      "outputs": [],
      "stateMutability": "nonpayable",
      "type": "function"
    },
    {
      "inputs": [
        {
          "internalType": "bytes4",
          "name": "interfaceId",
          "type": "bytes4"
        }
      ],
      "name": "supportsInterface",
      "outputs": [
        {
          "internalType": "bool",
          "name": "",
          "type": "bool"
        }
      ],
      "stateMutability": "view",
      "type": "function"
    },
    {
      "inputs": [],
      "name": "symbol",
      "outputs": [
        {
          "internalType": "string",
          "name": "",
          "type": "string"
        }
      ],
      "stateMutability": "view",
      "type": "function"
    },
    {
      "inputs": [
        {
          "internalType": "uint256",
          "name": "tokenId",
          "type": "uint256"
        }
      ],
      "name": "tokenURI",
      "outputs": [
        {
          "internalType": "string",
          "name": "",
          "type": "string"
        }
      ],
      "stateMutability": "view",
      "type": "function"
    },
    {
      "inputs": [
        {
          "internalType": "address",
          "name": "from",
          "type": "address"
        },
        {
          "internalType": "address",
          "name": "to",
          "type": "address"
        },
        {
          "internalType": "uint256",
          "name": "tokenId",
          "type": "uint256"
        }
      ],
      "name": "transferFrom",
      "outputs": [],
      "stateMutability": "nonpayable",
      "type": "function"
    },
    {
      "inputs": [
        {
          "internalType": "address",
          "name": "newOwner",
          "type": "address"
        }
      ],
      "name": "transferOwnership",
      "outputs": [],
      "stateMutability": "nonpayable",
      "type": "function"
    }
  ],
  "bytecode": "0x60806040523461038c57604080519081016001600160401b03811182821017610299576040908152600b82526a047616d65417373657449560ac1b602083015280519081016001600160401b0381118282101761029957604052600381526204749560ec1b602082015281516001600160401b03811161029957600054600181811c91168015610382575b602082101461027957601f811161031e575b50602092601f82116001146102ba57928192936000926102af575b50508160011b916000199060031b1c1916176000555b80516001600160401b03811161029957600154600181811c9116801561028f575b602082101461027957601f8111610214575b50602091601f82116001146101b0579181926000926101a5575b50508160011b916000199060031b1c1916176001555b331561018f5760078054336001600160a01b03198216811790925560405191906001600160a01b03167f8be0079c531659141344cd1fd0a4f28419497f9722a3daafe3b4186f6b6457e0600080a3600160085561166890816103928239f35b631e4fbdf760e01b600052600060045260246000fd5b01519050388061011a565b601f198216926001600052806000209160005b8581106101fc575083600195106101e3575b505050811b01600155610130565b015160001960f88460031b161c191690553880806101d5565b919260206001819286850151815501940192016101c3565b60016000527fb10e2d527612073b26eecdfd717e6a320cf44b4afac2b0732d9fcbe2b7fa0cf6601f830160051c8101916020841061026f575b601f0160051c01905b8181106102635750610100565b60008155600101610256565b909150819061024d565b634e487b7160e01b600052602260045260246000fd5b90607f16906100ee565b634e487b7160e01b600052604160045260246000fd5b0151905038806100b7565b601f1982169360008052806000209160005b86811061030657508360019596106102ed575b505050811b016000556100cd565b015160001960f88460031b161c191690553880806102df565b919260206001819286850151815501940192016102cc565b600080527f290decd9548b62a8d60345a988386fc84ba6bc95484008f6362f93160ef3e563601f830160051c81019160208410610378575b601f0160051c01905b81811061036c575061009c565b6000815560010161035f565b9091508190610356565b90607f169061008a565b600080fdfe608080604052600436101561001357600080fd5b60003560e01c90816301ffc9a714610f8e5750806306fdde0314610ee9578063081812fc14610eab578063095ea7b314610dbc57806323b872dd14610da557806326a49e3714610d795780632bc911e514610d4457806342842e0e14610d14578063510b515814610ce057806361b8ce8c14610cc25780636352211e14610c925780636812f52a1461087057806370a082311461081a578063715018a6146107bd5780638da5cb5b1461079457806395d89b41146106c6578063a22cb46514610625578063b88d4fde146105b7578063c87b56dd14610580578063d96a094a146102a4578063e985e9c514610249578063f2fde38b146101bf5763f7d975771461011c57600080fd5b346101ba5760403660031901126101ba5760043560243561013c826113f4565b336001600160a01b03909116036101895760207fc5f070c186c1b761efa79fbedff80ad25d70c5a58fd310776cea62b265d485459183600052600a825280604060002055604051908152a2005b60405162461bcd60e51b81526020600482015260096024820152683737ba1037bbb732b960b91b6044820152606490fd5b600080fd5b346101ba5760203660031901126101ba576101d8611052565b6101e06114f4565b6001600160a01b0316801561023357600780546001600160a01b0319811683179091556001600160a01b03167f8be0079c531659141344cd1fd0a4f28419497f9722a3daafe3b4186f6b6457e0600080a3005b631e4fbdf760e01b600052600060045260246000fd5b346101ba5760403660031901126101ba57610262611052565b61026a611068565b9060018060a01b0316600052600560205260406000209060018060a01b0316600052602052602060ff604060002054166040519015158152f35b60203660031901126101ba5760043560026008541461056f57600260085580600052600a602052604060002054801561053b573410610509576001600160a01b036102ee826113f4565b16903382146104cf5780600052600b60205260018060a01b03604060002054169181600052600c6020526001600160601b036040600020541680340290348204143415171561041b57612710900433156104b9576001600160a01b03610354843361142b565b1693846103705783637e27328960e01b60005260045260246000fd5b82850361049d57819081151580610494575b610431575b5050340334811161041b57600080808093855af16103a36113c4565b50156103dd57604051913483527fbd84de8648d5a34ed2f1ec8d7590fbba09a77253e443372a22d9df70c8c1289060203394a46001600855005b60405162461bcd60e51b81526020600482015260166024820152751cd95b1b195c881d1c985b9cd9995c8819985a5b195960521b6044820152606490fd5b634e487b7160e01b600052601160045260246000fd5b600080809381935af16104426113c4565b501561044f578084610387565b60405162461bcd60e51b815260206004820152601760248201527f726f79616c7479207472616e73666572206661696c65640000000000000000006044820152606490fd5b50801515610382565b50506364283d7b60e01b60005260045260245260445260646000fd5b633250574960e11b600052600060045260246000fd5b60405162461bcd60e51b81526020600482015260126024820152711e5bdd48185b1c9958591e481bdddb881a5d60721b6044820152606490fd5b60405162461bcd60e51b815260206004820152600a6024820152690dcdee840cadcdeeaced60b31b6044820152606490fd5b60405162461bcd60e51b815260206004820152600c60248201526b6e6f7420666f722073616c6560a01b6044820152606490fd5b633ee5aeb560e01b60005260046000fd5b346101ba5760203660031901126101ba576105b361059f6004356112f8565b604051918291602083526020830190611013565b0390f35b346101ba5760803660031901126101ba576105d0611052565b6105d8611068565b906044356064359267ffffffffffffffff84116101ba57366023850112156101ba576106116106239436906024816004013591016110f6565b9261061d838383611167565b3361151d565b005b346101ba5760403660031901126101ba5761063e611052565b602435908115158092036101ba576001600160a01b03169081156106b157336000526005602052604060002082600052602052604060002060ff1981541660ff83161790556040519081527f17307eab39ab6107e8899845ad3d59bd9653f200f220920489ca2b5937696c3160203392a3005b50630b61174360e31b60005260045260246000fd5b346101ba5760003660031901126101ba5760405160006001546106e88161112d565b80845290600181169081156107705750600114610710575b6105b38361059f818503826110b8565b91905060016000527fb10e2d527612073b26eecdfd717e6a320cf44b4afac2b0732d9fcbe2b7fa0cf6916000905b8082106107565750909150810160200161059f610700565b91926001816020925483858801015201910190929161073e565b60ff191660208086019190915291151560051b8401909101915061059f9050610700565b346101ba5760003660031901126101ba576007546040516001600160a01b039091168152602090f35b346101ba5760003660031901126101ba576107d66114f4565b600780546001600160a01b031981169091556000906001600160a01b03167f8be0079c531659141344cd1fd0a4f28419497f9722a3daafe3b4186f6b6457e08280a3005b346101ba5760203660031901126101ba576001600160a01b0361083b611052565b16801561085a5760005260036020526020604060002054604051908152f35b6322718ad960e21b600052600060045260246000fd5b346101ba5760603660031901126101ba5760043567ffffffffffffffff81116101ba57366023820112156101ba576108b29036906024816004013591016110f6565b602435906001600160601b0382168092036101ba57604435906127108311610c5a57600954916001830180841161041b576009556020916040516108f684826110b8565b6000815233156104b9576001600160a01b03610912863361142b565b16610c4457333b610b4a575b50836000526006835260406000209481519567ffffffffffffffff8711610b3457610949815461112d565b601f8111610aee575b508496601f8111600114610a6a57807fc5f070c186c1b761efa79fbedff80ad25d70c5a58fd310776cea62b265d485459798600091610a5f575b508160011b916000199060031b1c19161790555b7ff8e1a15aba9398e019f0b49df1a4fde98ee17ae345cb5f6b5e2c27f5033e8ce784604051888152a185600052600b8452604060002060018060a01b0333166001600160601b0360a01b82541617905585600052600c84526040600020906001600160601b031982541617905584600052600a835281604060002055847fa30dd43fc057b356acd774161b6c8743df78c9bd58d7f492dd56d00121dda6b560405185815280610a53339588830190611013565b0390a3604051908152a2005b90508401518961098c565b601f19811682600052866000209060005b818110610ad75750907fc5f070c186c1b761efa79fbedff80ad25d70c5a58fd310776cea62b265d485459899836001949310610abe575b5050811b0190556109a0565b86015160001960f88460031b161c191690558980610ab2565b868b01518355998801996001909201918801610a7b565b8160005285600020601f890160051c810191878a10610b2a575b601f0160051c01905b818110610b1e5750610952565b60008155600101610b11565b9091508190610b08565b634e487b7160e01b600052604160045260246000fd5b83610b88916040979695975180938192630a85bd0160e11b835233600484015260006024840152886044840152608060648401526084830190611013565b03816000335af18091600091610bff575b5090610bc95785610ba86113c4565b8051919082610bc657633250574960e11b6000523360045260246000fd5b01fd5b939492936001600160e01b03191663757a42ff60e11b01610bea578561091e565b633250574960e11b6000523360045260246000fd5b8781813d8311610c3d575b610c1481836110b8565b81010312610c395751906001600160e01b031982168203610c36575087610b99565b80fd5b5080fd5b503d610c0a565b6339e3563760e11b600052600060045260246000fd5b60405162461bcd60e51b815260206004820152601060248201526f0e4def2c2d8e8f240e8dede40d0d2ced60831b6044820152606490fd5b346101ba5760203660031901126101ba576020610cb06004356113f4565b6040516001600160a01b039091168152f35b346101ba5760003660031901126101ba576020600954604051908152f35b346101ba5760203660031901126101ba57600435600052600b602052602060018060a01b0360406000205416604051908152f35b346101ba57610623610d253661107e565b9060405192610d356020856110b8565b6000845261061d838383611167565b346101ba5760203660031901126101ba57600435600052600c60205260206001600160601b0360406000205416604051908152f35b346101ba5760203660031901126101ba57600435600052600a6020526020604060002054604051908152f35b346101ba57610623610db63661107e565b91611167565b346101ba5760403660031901126101ba57610dd5611052565b602435610de1816113f4565b33151580610e98575b80610e6a575b610e555781906001600160a01b0384811691167f8c5be1e5ebec7d5bd14f71427d1e84f3dd0314c0f7b2291e5b200ac8c7c3b925600080a4600090815260046020526040902080546001600160a01b0319166001600160a01b03909216919091179055005b63a9fbf51f60e01b6000523360045260246000fd5b506001600160a01b038116600090815260056020908152604080832033845290915290205460ff1615610df0565b506001600160a01b038116331415610dea565b346101ba5760203660031901126101ba57600435610ec8816113f4565b506000526004602052602060018060a01b0360406000205416604051908152f35b346101ba5760003660031901126101ba5760405160008054610f0a8161112d565b80845290600181169081156107705750600114610f31576105b38361059f818503826110b8565b60008080527f290decd9548b62a8d60345a988386fc84ba6bc95484008f6362f93160ef3e563939250905b808210610f745750909150810160200161059f610700565b919260018160209254838588010152019101909291610f5c565b346101ba5760203660031901126101ba576004359063ffffffff60e01b82168092036101ba57602091632483248360e11b8114908115610fd0575b5015158152f35b6380ac58cd60e01b811491508115611002575b8115610ff1575b5083610fc9565b6301ffc9a760e01b14905083610fea565b635b5e139f60e01b81149150610fe3565b919082518082526020808301940160005b828110611042575050600081602094950152601f8019910116010190565b8181015186820152602001611024565b600435906001600160a01b03821682036101ba57565b602435906001600160a01b03821682036101ba57565b60609060031901126101ba576004356001600160a01b03811681036101ba57906024356001600160a01b03811681036101ba579060443590565b90601f8019910116810190811067ffffffffffffffff821117610b3457604052565b67ffffffffffffffff8111610b3457601f01601f191660200190565b929192611102826110da565b9161111060405193846110b8565b8294818452818301116101ba578281602093846000960137010152565b90600182811c9216801561115d575b602083101461114757565b634e487b7160e01b600052602260045260246000fd5b91607f169161113c565b6001600160a01b03909116919082156104b9576000828152600260205260408120546001600160a01b0316938391859033151580611260575b507fddf252ad1be2c89b69c2b068fc378daa952ba7f163c4a11628f55a4df523b3ef908261122b575b83815260036020526040812060018154019055848152600260205260408120846001600160601b0360a01b82541617905580a46001600160a01b031680830361121157505050565b6364283d7b60e01b60005260045260245260445260646000fd5b600085815260046020526040902080546001600160a01b031916905582815260036020526040812080546000190190556111c9565b9150919250806112a9575b1561127a5790848492386111a0565b83908561129357602491637e27328960e01b8252600452fd5b60449163177e802f60e01b825233600452602452fd5b5033851480156112d7575b8061126b5750838152600460205260408120546001600160a01b0316331461126b565b5084815260056020908152604080832033845290915281205460ff166112b4565b611301816113f4565b5060005260066020526040600020604051908160008254926113228461112d565b80845293600181169081156113a2575060011461135b575b50611347925003826110b8565b60006040516113576020826110b8565b5290565b90506000929192526020600020906000915b818310611386575050906020611347928201013861133a565b602091935080600191548385880101520191019091839261136d565b90506020925061134794915060ff191682840152151560051b8201013861133a565b3d156113ef573d906113d5826110da565b916113e360405193846110b8565b82523d6000602084013e565b606090565b6000818152600260205260409020546001600160a01b0316908115611417575090565b637e27328960e01b60005260045260246000fd5b6000828152600260205260409020546001600160a01b03169190826114bd575b6001600160a01b0316806114a3575b8160005260026020526040600020816001600160601b0360a01b825416179055827fddf252ad1be2c89b69c2b068fc378daa952ba7f163c4a11628f55a4df523b3ef600080a490565b80600052600360205260406000206001815401905561145a565b600082815260046020526040902080546001600160a01b03191690558260005260036020526040600020600019815401905561144b565b6007546001600160a01b0316330361150857565b63118cdaa760e01b6000523360045260246000fd5b823b61152b575b5050505050565b604051630a85bd0160e11b81526001600160a01b039182166004820152918116602483015260448201939093526080606482015291169160209082908190611577906084830190611013565b03816000865af180916000916115ef575b50906115b957506115976113c4565b805190816115b45782633250574960e11b60005260045260246000fd5b602001fd5b6001600160e01b03191663757a42ff60e11b016115db57503880808080611524565b633250574960e11b60005260045260246000fd5b6020813d60201161162a575b81611608602093836110b8565b81010312610c395751906001600160e01b031982168203610c36575038611588565b3d91506115fb56fea26469706673582212200cb5618f686a6e42cd4cb1d03d2b08f58ec81c1ec3aff0cf70942d2ec76f1a0b64736f6c634300081c0033",
  "linkReferences": {},
  "deployedLinkReferences": {}
}