{"contracts/MarketAsset.sol":{"LicenseManager":{"abi":[{"inputs":[{"internalType":"address","name":"_assetRegistry","type":"address"},{"internalType":"address","name":"_licenseNft","type":"address"},{"internalType":"address","name":"_fractionalizer","type":"address"}],"stateMutability":"nonpayable","type":"constructor"},{"inputs":[{"internalType":"address","name":"owner","type":"address"}],"name":"OwnableInvalidOwner","type":"error"},{"inputs":[{"internalType":"address","name":"account","type":"address"}],"name":"OwnableUnauthorizedAccount","type":"error"},{"inputs":[],"name":"ReentrancyGuardReentrantCall","type":"error"},{"anonymous":false,"inputs":[{"indexed":true,"internalType":"uint256","name":"offerId","type":"uint256"},{"indexed":true,"internalType":"uint256","name":"assetId","type":"uint256"},{"indexed":false,"internalType":"address","name":"seller","type":"address"},{"indexed":false,"internalType":"uint256","name":"price","type":"uint256"},{"indexed":false,"internalType":"enum LicenseManager.LicenseType","name":"ltype","type":"uint8"},{"indexed":false,"internalType":"uint256","name":"maxSupply","type":"uint256"}],"name":"LicenseOfferCreated","type":"event"},{"anonymous":false,"inputs":[{"indexed":true,"internalType":"uint256","name":"offerId","type":"uint256"},{"indexed":true,"internalType":"uint256","name":"licenseTokenId","type":"uint256"},{"indexed":false,"internalType":"address","name":"buyer","type":"address"},{"indexed":false,"internalType":"uint256","name":"price","type":"uint256"}],"name":"LicensePurchased","type":"event"},{"anonymous":false,"inputs":[{"indexed":true,"internalType":"address","name":"previousOwner","type":"address"},{"indexed":true,"internalType":"address","name":"newOwner","type":"address"}],"name":"OwnershipTransferred","type":"event"},{"inputs":[{"internalType":"uint256","name":"offerId","type":"uint256"}],"name":"buyLicense","outputs":[{"internalType":"uint256","name":"","type":"uint256"}],"stateMutability":"payable","type":"function"},{"inputs":[{"internalType":"uint256","name":"offerId","type":"uint256"}],"name":"cancelOffer","outputs":[],"stateMutability":"nonpayable","type":"function"},{"inputs":[{"internalType":"uint256","name":"assetId","type":"uint256"},{"internalType":"uint256","name":"price","type":"uint256"},{"internalType":"uint16","name":"royaltyBPS","type":"uint16"},{"internalType":"enum LicenseManager.LicenseType","name":"ltype","type":"uint8"},{"internalType":"uint256","name":"maxSupply","type":"uint256"},{"internalType":"uint256","name":"duration","type":"uint256"},{"internalType":"string","name":"uri","type":"string"}],"name":"createOffer","outputs":[{"internalType":"uint256","name":"","type":"uint256"}],"stateMutability":"nonpayable","type":"function"},{"inputs":[{"internalType":"uint256","name":"","type":"uint256"}],"name":"exclusiveExpiry","outputs":[{"internalType":"uint256","name":"","type":"uint256"}],"stateMutability":"view","type":"function"},{"inputs":[],"name":"fractionalizer","outputs":[{"internalType":"contract Fractionalizer","name":"","type":"address"}],"stateMutability":"view","type":"function"},{"inputs":[],"name":"licenseNft","outputs":[{"internalType":"contract LicenseNFT","name":"","type":"address"}],"stateMutability":"view","type":"function"},{"inputs":[{"internalType":"uint256","name":"","type":"uint256"}],"name":"offers","outputs":[{"internalType":"uint256","name":"offerId","type":"uint256"},{"internalType":"uint256","name":"assetId","type":"uint256"},{"internalType":"address","name":"seller","type":"address"},{"internalType":"uint256","name":"price","type":"uint256"},{"internalType":"uint16","name":"royaltyBPS","type":"uint16"},{"internalType":"enum LicenseManager.LicenseType","name":"ltype","type":"uint8"},{"internalType":"uint256","name":"maxSupply","type":"uint256"},{"internalType":"uint256","name":"sold","type":"uint256"},{"internalType":"uint256","name":"duration","type":"uint256"},{"internalType":"bool","name":"active","type":"bool"},{"internalType":"string","name":"uri","type":"string"}],"stateMutability":"view","type":"function"},{"inputs":[],"name":"owner","outputs":[{"internalType":"address","name":"","type":"address"}],"stateMutability":"view","type":"function"},{"inputs":[],"name":"registry","outputs":[{"internalType":"contract AssetRegistry","name":"","type":"address"}],"stateMutability":"view","type":"function"},{"inputs":[],"name":"renounceOwnership","outputs":[],"stateMutability":"nonpayable","type":"function"},{"inputs":[],"name":"totalOffers","outputs":[{"internalType":"uint256","name":"","type":"uint256"}],"stateMutability":"view","type":"function"},{"inputs":[{"internalType":"address","name":"newOwner","type":"address"}],"name":"transferOwnership","outputs":[],"stateMutability":"nonpayable","type":"function"}],"evm":{"bytecode":{"linkReferences":{},"object":"60803461011457601f6112cc38819003918201601f19168301916001600160401b0383118484101761011957808492606094604052833981010312610114576100478161012f565b9061006060406100596020840161012f565b920161012f565b9033156100fe5760008054336001600160a01b0319821681178355604051959290916001600160a01b0316907f8be0079c531659141344cd1fd0a4f28419497f9722a3daafe3b4186f6b6457e09080a360018055600580546001600160a01b03199081166001600160a01b03938416179091556006805482169383169390931790925560078054909216921691909117905561118890816101448239f35b631e4fbdf760e01b600052600060045260246000fd5b600080fd5b634e487b7160e01b600052604160045260246000fd5b51906001600160a01b03821682036101145756fe608080604052600436101561001357600080fd5b60003560e01c90816309de38541461099d575080635eb0508714610971578063715018a6146109185780637b103999146108ef5780638a72ea6a146107715780638da5cb5b14610748578063a9fd8ed11461072a578063cae1a69c1461021a578063d03b0e49146101f1578063db50389e146101c8578063ef706adf146101355763f2fde38b146100a357600080fd5b34610130576020366003190112610130576004356001600160a01b03811690819003610130576100d1611129565b801561011a57600080546001600160a01b03198116831782556001600160a01b0316907f8be0079c531659141344cd1fd0a4f28419497f9722a3daafe3b4186f6b6457e09080a3005b631e4fbdf760e01b600052600060045260246000fd5b600080fd5b34610130576020366003190112610130576004356000526003602052604060002060018060a01b03600282015416331480156101b4575b1561017e57600801805460ff19169055005b60405162461bcd60e51b815260206004820152600e60248201526d1b9bdd08185d5d1a1bdc9a5e995960921b6044820152606490fd5b506000546001600160a01b0316331461016c565b34610130576000366003190112610130576006546040516001600160a01b039091168152602090f35b34610130576000366003190112610130576007546040516001600160a01b039091168152602090f35b6020366003190112610130576004356002600154146107195760026001558060005260036020526040600020600881019060ff825416156106e7576003810190815434106106af57600581019283548061066e575b5060ff600483015460101c166003811015610658576001146105f1575b60065460408051634806c79d60e11b815233600482015260248101919091526009840180549196926001600160a01b0316918791600091906102cd82610fe8565b918260448601526001811690816000146105cb575060011461058e575b5050918160008160209503925af19485156105405760009561055a575b50600683019081546001810180911161045b5760019255541461054c575b5060018060a01b036007541690602060018201546024604051809581936223718f60e71b835260048301525afa91821561054057600092610508575b50600091829181156104a7575060018060a01b0360075416908454604051602081019263068b0e0760e41b84526024820152602481526103a2604482611022565b51925af16103ae6110f9565b5015610471575b8054803411610400575b506020927f09ff28da0bf2009cff3b4ec31215473ab1bc2f66a54cf6cd4969c4ccddd4ff60604084935481519033825287820152a360018055604051908152f35b340334811161045b57600080808093335af161041a6110f9565b501561042657836103bf565b60405162461bcd60e51b815260206004820152600d60248201526c1c99599d5b990819985a5b1959609a1b6044820152606490fd5b634e487b7160e01b600052601160045260246000fd5b60405162461bcd60e51b815260206004820152600e60248201526d19195c1bdcda5d0819985a5b195960921b6044820152606490fd5b60020154845483925082916001600160a01b03165af16104c56110f9565b506103b55760405162461bcd60e51b81526020600482015260166024820152751cd95b1b195c881d1c985b9cd9995c8819985a5b195960521b6044820152606490fd5b90916020823d602011610538575b8161052360209383611022565b81010312610535575051906000610361565b80fd5b3d9150610516565b6040513d6000823e3d90fd5b805460ff1916905584610325565b90946020823d602011610586575b8161057560209383611022565b810103126105355750519386610307565b3d9150610568565b6000908152602081209092505b8183106105b157505081016064018160006102ea565b80546064848c01015289935060209092019160010161059b565b60ff191660648087019190915292151560051b85019092019250839150600090506102ea565b6001820180548060005260046020526106116040600020544210156110ba565b6007840180549091901561063f57505442019081421161045b5754600052600460205260406000205561028c565b915050600052600460205260001960406000205561028c565b634e487b7160e01b600052602160045260246000fd5b6006830154101561067f578561026f565b60405162461bcd60e51b81526020600482015260086024820152671cdbdb19081bdd5d60c21b6044820152606490fd5b60405162461bcd60e51b815260206004820152601060248201526f696e73756666696369656e742070617960801b6044820152606490fd5b60405162461bcd60e51b815260206004820152600a6024820152696e6f742061637469766560b01b6044820152606490fd5b633ee5aeb560e01b60005260046000fd5b34610130576000366003190112610130576020600254604051908152f35b34610130576000366003190112610130576000546040516001600160a01b039091168152602090f35b346101305760203660031901126101305760043560005260036020526040600020805460018201549060018060a01b036002840154169260038101549060048101546005820154600683015490600784015492600960ff6008870154169501956040519960008b89549960206107e68c610fe8565b80845292019a600181169081156108d25750600114610893575b5050928b969492610851926108206101809d9e6108859b9997038a611022565b6040519d8e9c8d5260208d015260408c015260608b015261ffff811660808b015260ff60a08b019160101c1661105a565b60c088015260e087015261010086015215156101208501526101606101408501525180928161016086015285850190611067565b601f01601f19168101030190f35b6000908152602081209092505b8183106108b75750508b0160200182610851610800565b6001818f6020868195979697549201015201910191906108a0565b60ff19168c525050151560051b8c01602001905082610851610800565b34610130576000366003190112610130576005546040516001600160a01b039091168152602090f35b3461013057600036600319011261013057610931611129565b600080546001600160a01b0319811682556001600160a01b03167f8be0079c531659141344cd1fd0a4f28419497f9722a3daafe3b4186f6b6457e08280a3005b346101305760203660031901126101305760043560005260046020526020604060002054604051908152f35b346101305760e0366003190112610130576044359061ffff821680920361013057600360643510156101305767ffffffffffffffff60c435116101305736602360c4350112156101305767ffffffffffffffff60c43560040135116101305736602460c4356004013560c43501011161013057600554631d591eb760e31b82526004803590830152600090829060249082906001600160a01b03165afa90811561054057600091610eac575b5060c081015115610e755760018060a01b0360a08201511690602060808201516024604051809581936331a9108f60e11b835260048301525afa91821561054057600092610e39575b50602001516001600160a01b03163314908115610e26575b5015610ded576000600160643514610dce575b600160025401908160025560405192610160840184811067ffffffffffffffff821117610dba576040528284526004356020850152336040850152602435606085015260808401525060643560a083015260843560c0830152600060e083015260a4356101008301526001610120830152610b3d60c4356004013561109e565b610b4a6040519182611022565b60c435600481013580835260009391602401602084013782602060c4356004013584010152610140840191825280835260036020526040832084518155602085015160018201556002810160018060a01b036040870151166bffffffffffffffffffffffff60a01b82541617905560608501516003820155600481019461ffff60808201511695805460a0830151976003891015610da65762ff0000889960099798995060101b169162ffffff19161717905560c0810151600583015560e08101516006830155610100810151600783015561012060088301910151151560ff8019835416911617905501915191825167ffffffffffffffff8111610d9257610c538254610fe8565b601f8111610d4d575b5060209485906001601f841114610ced57948293949592610ce2575b50508160011b916000199060031b1c19161790555b60405133815260243583820152610ca96040820160643561105a565b6084356060820152817fc4781997d23ada25a0cdcee50d2dd985de16265e2e5034d2d727e978636e95ee608060043593a3604051908152f35b015190508580610c78565b90601f19831695848352818320925b878110610d36575083600195969710610d1d575b505050811b019055610c8d565b015160001960f88460031b161c19169055858080610d10565b919288600181928685015181550194019201610cfc565b82865260208620601f830160051c81019160208410610d88575b601f0160051c01905b818110610d7d5750610c5c565b868155600101610d70565b9091508190610d67565b634e487b7160e01b85526041600452602485fd5b634e487b7160e01b88526021600452602488fd5b634e487b7160e01b83526041600452602483fd5b60043581526004602052610de860408220544210156110ba565b610abd565b60405162461bcd60e51b81526020600482015260116024820152703737ba1031b932b0ba37b917b7bbb732b960791b6044820152606490fd5b6001600160a01b03163314905082610aaa565b9091506020813d602011610e6d575b81610e5560209383611022565b8101031261013057610e669061108a565b9083610a92565b3d9150610e48565b60405162461bcd60e51b815260206004820152600f60248201526e185cdcd95d081b9bdd08199bdd5b99608a1b6044820152606490fd5b903d8082843e610ebc8184611022565b820191602081840312610fe45780519067ffffffffffffffff8211610fc4570160e081840312610fe4576040519260e0840184811067ffffffffffffffff821117610fd05760405281518452610f146020830161108a565b6020850152604082015167ffffffffffffffff8111610fcc57820181601f82011215610fcc57805190610f468261109e565b92610f546040519485611022565b82845260208383010111610fc85790610f739160208085019101611067565b6040840152606081015161ffff81168103610fc4579060c091606085015260808101516080850152610fa760a0820161108a565b60a08501520151908115158203610535575060c082015282610a49565b8280fd5b8480fd5b8380fd5b634e487b7160e01b84526041600452602484fd5b5080fd5b90600182811c92168015611018575b602083101461100257565b634e487b7160e01b600052602260045260246000fd5b91607f1691610ff7565b90601f8019910116810190811067ffffffffffffffff82111761104457604052565b634e487b7160e01b600052604160045260246000fd5b9060038210156106585752565b60005b83811061107a5750506000910152565b818101518382015260200161106a565b51906001600160a01b038216820361013057565b67ffffffffffffffff811161104457601f01601f191660200190565b156110c157565b60405162461bcd60e51b815260206004820152601060248201526f6578636c75736976652061637469766560801b6044820152606490fd5b3d15611124573d9061110a8261109e565b916111186040519384611022565b82523d6000602084013e565b606090565b6000546001600160a01b0316330361113d57565b63118cdaa760e01b6000523360045260246000fdfea26469706673582212200b0c1b80ff53a7282fe8c751bda554892df89024a75cf0b61b3707d06fe1153764736f6c634300081c0033","opcodes":"PUSH1 0x80 CALLVALUE PUSH2 0x114 JUMPI PUSH1 0x1F PUSH2 0x12CC CODESIZE DUP2 SWAP1 SUB SWAP2 DUP3 ADD PUSH1 0x1F NOT AND DUP4 ADD SWAP2 PUSH1 0x1 PUSH1 0x1 PUSH1 0x40 SHL SUB DUP4 GT DUP5 DUP5 LT OR PUSH2 0x119 JUMPI DUP1 DUP5 SWAP3 PUSH1 0x60 SWAP5 PUSH1 0x40 MSTORE DUP4 CODECOPY DUP2 ADD SUB SLT PUSH2 0x114 JUMPI PUSH2 0x47 DUP2 PUSH2 0x12F JUMP JUMPDEST SWAP1 PUSH2 0x60 PUSH1 0x40 PUSH2 0x59 PUSH1 0x20 DUP5 ADD PUSH2 0x12F JUMP JUMPDEST SWAP3 ADD PUSH2 0x12F JUMP JUMPDEST SWAP1 CALLER ISZERO PUSH2 0xFE JUMPI PUSH1 0x0 DUP1 SLOAD CALLER PUSH1 0x1 PUSH1 0x1 PUSH1 0xA0 SHL SUB NOT DUP3 AND DUP2 OR DUP4 SSTORE PUSH1 0x40 MLOAD SWAP6 SWAP3 SWAP1 SWAP2 PUSH1 0x1 PUSH1 0x1 PUSH1 0xA0 SHL SUB AND SWAP1 PUSH32 0x8BE0079C531659141344CD1FD0A4F28419497F9722A3DAAFE3B4186F6B6457E0 SWAP1 DUP1 LOG3 PUSH1 0x1 DUP1 SSTORE PUSH1 0x5 DUP1 SLOAD PUSH1 0x1 PUSH1 0x1 PUSH1 0xA0 SHL SUB NOT SWAP1 DUP2 AND PUSH1 0x1 PUSH1 0x1 PUSH1 0xA0 SHL SUB SWAP4 DUP5 AND OR SWAP1 SWAP2 SSTORE PUSH1 0x6 DUP1 SLOAD DUP3 AND SWAP4 DUP4 AND SWAP4 SWAP1 SWAP4 OR SWAP1 SWAP3 SSTORE PUSH1 0x7 DUP1 SLOAD SWAP1 SWAP3 AND SWAP3 AND SWAP2 SWAP1 SWAP2 OR SWAP1 SSTORE PUSH2 0x1188 SWAP1 DUP2 PUSH2 0x144 DUP3 CODECOPY RETURN JUMPDEST PUSH4 0x1E4FBDF7 PUSH1 0xE0 SHL PUSH1 0x0 MSTORE PUSH1 0x0 PUSH1 0x4 MSTORE PUSH1 0x24 PUSH1 0x0 REVERT JUMPDEST PUSH1 0x0 DUP1 REVERT JUMPDEST PUSH4 0x4E487B71 PUSH1 0xE0 SHL PUSH1 0x0 MSTORE PUSH1 0x41 PUSH1 0x4 MSTORE PUSH1 0x24 PUSH1 0x0 REVERT JUMPDEST MLOAD SWAP1 PUSH1 0x1 PUSH1 0x1 PUSH1 0xA0 SHL SUB DUP3 AND DUP3 SUB PUSH2 0x114 JUMPI JUMP INVALID PUSH1 0x80 DUP1 PUSH1 0x40 MSTORE PUSH1 0x4 CALLDATASIZE LT ISZERO PUSH2 0x13 JUMPI PUSH1 0x0 DUP1 REVERT JUMPDEST PUSH1 0x0 CALLDATALOAD PUSH1 0xE0 SHR SWAP1 DUP2 PUSH4 0x9DE3854 EQ PUSH2 0x99D JUMPI POP DUP1 PUSH4 0x5EB05087 EQ PUSH2 0x971 JUMPI DUP1 PUSH4 0x715018A6 EQ PUSH2 0x918 JUMPI DUP1 PUSH4 0x7B103999 EQ PUSH2 0x8EF JUMPI DUP1 PUSH4 0x8A72EA6A EQ PUSH2 0x771 JUMPI DUP1 PUSH4 0x8DA5CB5B EQ PUSH2 0x748 JUMPI DUP1 PUSH4 0xA9FD8ED1 EQ PUSH2 0x72A JUMPI DUP1 PUSH4 0xCAE1A69C EQ PUSH2 0x21A JUMPI DUP1 PUSH4 0xD03B0E49 EQ PUSH2 0x1F1 JUMPI DUP1 PUSH4 0xDB50389E EQ PUSH2 0x1C8 JUMPI DUP1 PUSH4 0xEF706ADF EQ PUSH2 0x135 JUMPI PUSH4 0xF2FDE38B EQ PUSH2 0xA3 JUMPI PUSH1 0x0 DUP1 REVERT JUMPDEST CALLVALUE PUSH2 0x130 JUMPI PUSH1 0x20 CALLDATASIZE PUSH1 0x3 NOT ADD SLT PUSH2 0x130 JUMPI PUSH1 0x4 CALLDATALOAD PUSH1 0x1 PUSH1 0x1 PUSH1 0xA0 SHL SUB DUP2 AND SWAP1 DUP2 SWAP1 SUB PUSH2 0x130 JUMPI PUSH2 0xD1 PUSH2 0x1129 JUMP JUMPDEST DUP1 ISZERO PUSH2 0x11A JUMPI PUSH1 0x0 DUP1 SLOAD PUSH1 0x1 PUSH1 0x1 PUSH1 0xA0 SHL SUB NOT DUP2 AND DUP4 OR DUP3 SSTORE PUSH1 0x1 PUSH1 0x1 PUSH1 0xA0 SHL SUB AND SWAP1 PUSH32 0x8BE0079C531659141344CD1FD0A4F28419497F9722A3DAAFE3B4186F6B6457E0 SWAP1 DUP1 LOG3 STOP JUMPDEST PUSH4 0x1E4FBDF7 PUSH1 0xE0 SHL PUSH1 0x0 MSTORE PUSH1 0x0 PUSH1 0x4 MSTORE PUSH1 0x24 PUSH1 0x0 REVERT JUMPDEST PUSH1 0x0 DUP1 REVERT JUMPDEST CALLVALUE PUSH2 0x130 JUMPI PUSH1 0x20 CALLDATASIZE PUSH1 0x3 NOT ADD SLT PUSH2 0x130 JUMPI PUSH1 0x4 CALLDATALOAD PUSH1 0x0 MSTORE PUSH1 0x3 PUSH1 0x20 MSTORE PUSH1 0x40 PUSH1 0x0 KECCAK256 PUSH1 0x1 DUP1 PUSH1 0xA0 SHL SUB PUSH1 0x2 DUP3 ADD SLOAD AND CALLER EQ DUP1 ISZERO PUSH2 0x1B4 JUMPI JUMPDEST ISZERO PUSH2 0x17E JUMPI PUSH1 0x8 ADD DUP1 SLOAD PUSH1 0xFF NOT AND SWAP1 SSTORE STOP JUMPDEST PUSH1 0x40 MLOAD PUSH3 0x461BCD PUSH1 0xE5 SHL DUP2 MSTORE PUSH1 0x20 PUSH1 0x4 DUP3 ADD MSTORE PUSH1 0xE PUSH1 0x24 DUP3 ADD MSTORE PUSH14 0x1B9BDD08185D5D1A1BDC9A5E9959 PUSH1 0x92 SHL PUSH1 0x44 DUP3 ADD MSTORE PUSH1 0x64 SWAP1 REVERT JUMPDEST POP PUSH1 0x0 SLOAD PUSH1 0x1 PUSH1 0x1 PUSH1 0xA0 SHL SUB AND CALLER EQ PUSH2 0x16C JUMP JUMPDEST CALLVALUE PUSH2 0x130 JUMPI PUSH1 0x0 CALLDATASIZE PUSH1 0x3 NOT ADD SLT PUSH2 0x130 JUMPI PUSH1 0x6 SLOAD PUSH1 0x40 MLOAD PUSH1 0x1 PUSH1 0x1 PUSH1 0xA0 SHL SUB SWAP1 SWAP2 AND DUP2 MSTORE PUSH1 0x20 SWAP1 RETURN JUMPDEST CALLVALUE PUSH2 0x130 JUMPI PUSH1 0x0 CALLDATASIZE PUSH1 0x3 NOT ADD SLT PUSH2 0x130 JUMPI PUSH1 0x7 SLOAD PUSH1 0x40 MLOAD PUSH1 0x1 PUSH1 0x1 PUSH1 0xA0 SHL SUB SWAP1 SWAP2 AND DUP2 MSTORE PUSH1 0x20 SWAP1 RETURN JUMPDEST PUSH1 0x20 CALLDATASIZE PUSH1 0x3 NOT ADD SLT PUSH2 0x130 JUMPI PUSH1 0x4 CALLDATALOAD PUSH1 0x2 PUSH1 0x1 SLOAD EQ PUSH2 0x719 JUMPI PUSH1 0x2 PUSH1 0x1 SSTORE DUP1 PUSH1 0x0 MSTORE PUSH1 0x3 PUSH1 0x20 MSTORE PUSH1 0x40 PUSH1 0x0 KECCAK256 PUSH1 0x8 DUP2 ADD SWAP1 PUSH1 0xFF DUP3 SLOAD AND ISZERO PUSH2 0x6E7 JUMPI PUSH1 0x3 DUP2 ADD SWAP1 DUP2 SLOAD CALLVALUE LT PUSH2 0x6AF JUMPI PUSH1 0x5 DUP2 ADD SWAP3 DUP4 SLOAD DUP1 PUSH2 0x66E JUMPI JUMPDEST POP PUSH1 0xFF PUSH1 0x4 DUP4 ADD SLOAD PUSH1 0x10 SHR AND PUSH1 0x3 DUP2 LT ISZERO PUSH2 0x658 JUMPI PUSH1 0x1 EQ PUSH2 0x5F1 JUMPI JUMPDEST PUSH1 0x6 SLOAD PUSH1 0x40 DUP1 MLOAD PUSH4 0x4806C79D PUSH1 0xE1 SHL DUP2 MSTORE CALLER PUSH1 0x4 DUP3 ADD MSTORE PUSH1 0x24 DUP2 ADD SWAP2 SWAP1 SWAP2 MSTORE PUSH1 0x9 DUP5 ADD DUP1 SLOAD SWAP2 SWAP7 SWAP3 PUSH1 0x1 PUSH1 0x1 PUSH1 0xA0 SHL SUB AND SWAP2 DUP8 SWAP2 PUSH1 0x0 SWAP2 SWAP1 PUSH2 0x2CD DUP3 PUSH2 0xFE8 JUMP JUMPDEST SWAP2 DUP3 PUSH1 0x44 DUP7 ADD MSTORE PUSH1 0x1 DUP2 AND SWAP1 DUP2 PUSH1 0x0 EQ PUSH2 0x5CB JUMPI POP PUSH1 0x1 EQ PUSH2 0x58E JUMPI JUMPDEST POP POP SWAP2 DUP2 PUSH1 0x0 DUP2 PUSH1 0x20 SWAP6 SUB SWAP3 GAS CALL SWAP5 DUP6 ISZERO PUSH2 0x540 JUMPI PUSH1 0x0 SWAP6 PUSH2 0x55A JUMPI JUMPDEST POP PUSH1 0x6 DUP4 ADD SWAP1 DUP2 SLOAD PUSH1 0x1 DUP2 ADD DUP1 SWAP2 GT PUSH2 0x45B JUMPI PUSH1 0x1 SWAP3 SSTORE SLOAD EQ PUSH2 0x54C JUMPI JUMPDEST POP PUSH1 0x1 DUP1 PUSH1 0xA0 SHL SUB PUSH1 0x7 SLOAD AND SWAP1 PUSH1 0x20 PUSH1 0x1 DUP3 ADD SLOAD PUSH1 0x24 PUSH1 0x40 MLOAD DUP1 SWAP6 DUP2 SWAP4 PUSH3 0x23718F PUSH1 0xE7 SHL DUP4 MSTORE PUSH1 0x4 DUP4 ADD MSTORE GAS STATICCALL SWAP2 DUP3 ISZERO PUSH2 0x540 JUMPI PUSH1 0x0 SWAP3 PUSH2 0x508 JUMPI JUMPDEST POP PUSH1 0x0 SWAP2 DUP3 SWAP2 DUP2 ISZERO PUSH2 0x4A7 JUMPI POP PUSH1 0x1 DUP1 PUSH1 0xA0 SHL SUB PUSH1 0x7 SLOAD AND SWAP1 DUP5 SLOAD PUSH1 0x40 MLOAD PUSH1 0x20 DUP2 ADD SWAP3 PUSH4 0x68B0E07 PUSH1 0xE4 SHL DUP5 MSTORE PUSH1 0x24 DUP3 ADD MSTORE PUSH1 0x24 DUP2 MSTORE PUSH2 0x3A2 PUSH1 0x44 DUP3 PUSH2 0x1022 JUMP JUMPDEST MLOAD SWAP3 GAS CALL PUSH2 0x3AE PUSH2 0x10F9 JUMP JUMPDEST POP ISZERO PUSH2 0x471 JUMPI JUMPDEST DUP1 SLOAD DUP1 CALLVALUE GT PUSH2 0x400 JUMPI JUMPDEST POP PUSH1 0x20 SWAP3 PUSH32 0x9FF28DA0BF2009CFF3B4EC31215473AB1BC2F66A54CF6CD4969C4CCDDD4FF60 PUSH1 0x40 DUP5 SWAP4 SLOAD DUP2 MLOAD SWAP1 CALLER DUP3 MSTORE DUP8 DUP3 ADD MSTORE LOG3 PUSH1 0x1 DUP1 SSTORE PUSH1 0x40 MLOAD SWAP1 DUP2 MSTORE RETURN JUMPDEST CALLVALUE SUB CALLVALUE DUP2 GT PUSH2 0x45B JUMPI PUSH1 0x0 DUP1 DUP1 DUP1 SWAP4 CALLER GAS CALL PUSH2 0x41A PUSH2 0x10F9 JUMP JUMPDEST POP ISZERO PUSH2 0x426 JUMPI DUP4 PUSH2 0x3BF JUMP JUMPDEST PUSH1 0x40 MLOAD PUSH3 0x461BCD PUSH1 0xE5 SHL DUP2 MSTORE PUSH1 0x20 PUSH1 0x4 DUP3 ADD MSTORE PUSH1 0xD PUSH1 0x24 DUP3 ADD MSTORE PUSH13 0x1C99599D5B990819985A5B1959 PUSH1 0x9A SHL PUSH1 0x44 DUP3 ADD MSTORE PUSH1 0x64 SWAP1 REVERT JUMPDEST PUSH4 0x4E487B71 PUSH1 0xE0 SHL PUSH1 0x0 MSTORE PUSH1 0x11 PUSH1 0x4 MSTORE PUSH1 0x24 PUSH1 0x0 REVERT JUMPDEST PUSH1 0x40 MLOAD PUSH3 0x461BCD PUSH1 0xE5 SHL DUP2 MSTORE PUSH1 0x20 PUSH1 0x4 DUP3 ADD MSTORE PUSH1 0xE PUSH1 0x24 DUP3 ADD MSTORE PUSH14 0x19195C1BDCDA5D0819985A5B1959 PUSH1 0x92 SHL PUSH1 0x44 DUP3 ADD MSTORE PUSH1 0x64 SWAP1 REVERT JUMPDEST PUSH1 0x2 ADD SLOAD DUP5 SLOAD DUP4 SWAP3 POP DUP3 SWAP2 PUSH1 0x1 PUSH1 0x1 PUSH1 0xA0 SHL SUB AND GAS CALL PUSH2 0x4C5 PUSH2 0x10F9 JUMP JUMPDEST POP PUSH2 0x3B5 JUMPI PUSH1 0x40 MLOAD PUSH3 0x461BCD PUSH1 0xE5 SHL DUP2 MSTORE PUSH1 0x20 PUSH1 0x4 DUP3 ADD MSTORE PUSH1 0x16 PUSH1 0x24 DUP3 ADD MSTORE PUSH22 0x1CD95B1B195C881D1C985B9CD9995C8819985A5B1959 PUSH1 0x52 SHL PUSH1 0x44 DUP3 ADD MSTORE PUSH1 0x64 SWAP1 REVERT JUMPDEST SWAP1 SWAP2 PUSH1 0x20 DUP3 RETURNDATASIZE PUSH1 0x20 GT PUSH2 0x538 JUMPI JUMPDEST DUP2 PUSH2 0x523 PUSH1 0x20 SWAP4 DUP4 PUSH2 0x1022 JUMP JUMPDEST DUP2 ADD SUB SLT PUSH2 0x535 JUMPI POP MLOAD SWAP1 PUSH1 0x0 PUSH2 0x361 JUMP JUMPDEST DUP1 REVERT JUMPDEST RETURNDATASIZE SWAP2 POP PUSH2 0x516 JUMP JUMPDEST PUSH1 0x40 MLOAD RETURNDATASIZE PUSH1 0x0 DUP3 RETURNDATACOPY RETURNDATASIZE SWAP1 REVERT JUMPDEST DUP1 SLOAD PUSH1 0xFF NOT AND SWAP1 SSTORE DUP5 PUSH2 0x325 JUMP JUMPDEST SWAP1 SWAP5 PUSH1 0x20 DUP3 RETURNDATASIZE PUSH1 0x20 GT PUSH2 0x586 JUMPI JUMPDEST DUP2 PUSH2 0x575 PUSH1 0x20 SWAP4 DUP4 PUSH2 0x1022 JUMP JUMPDEST DUP2 ADD SUB SLT PUSH2 0x535 JUMPI POP MLOAD SWAP4 DUP7 PUSH2 0x307 JUMP JUMPDEST RETURNDATASIZE SWAP2 POP PUSH2 0x568 JUMP JUMPDEST PUSH1 0x0 SWAP1 DUP2 MSTORE PUSH1 0x20 DUP2 KECCAK256 SWAP1 SWAP3 POP JUMPDEST DUP2 DUP4 LT PUSH2 0x5B1 JUMPI POP POP DUP2 ADD PUSH1 0x64 ADD DUP2 PUSH1 0x0 PUSH2 0x2EA JUMP JUMPDEST DUP1 SLOAD PUSH1 0x64 DUP5 DUP13 ADD ADD MSTORE DUP10 SWAP4 POP PUSH1 0x20 SWAP1 SWAP3 ADD SWAP2 PUSH1 0x1 ADD PUSH2 0x59B JUMP JUMPDEST PUSH1 0xFF NOT AND PUSH1 0x64 DUP1 DUP8 ADD SWAP2 SWAP1 SWAP2 MSTORE SWAP3 ISZERO ISZERO PUSH1 0x5 SHL DUP6 ADD SWAP1 SWAP3 ADD SWAP3 POP DUP4 SWAP2 POP PUSH1 0x0 SWAP1 POP PUSH2 0x2EA JUMP JUMPDEST PUSH1 0x1 DUP3 ADD DUP1 SLOAD DUP1 PUSH1 0x0 MSTORE PUSH1 0x4 PUSH1 0x20 MSTORE PUSH2 0x611 PUSH1 0x40 PUSH1 0x0 KECCAK256 SLOAD TIMESTAMP LT ISZERO PUSH2 0x10BA JUMP JUMPDEST PUSH1 0x7 DUP5 ADD DUP1 SLOAD SWAP1 SWAP2 SWAP1 ISZERO PUSH2 0x63F JUMPI POP SLOAD TIMESTAMP ADD SWAP1 DUP2 TIMESTAMP GT PUSH2 0x45B JUMPI SLOAD PUSH1 0x0 MSTORE PUSH1 0x4 PUSH1 0x20 MSTORE PUSH1 0x40 PUSH1 0x0 KECCAK256 SSTORE PUSH2 0x28C JUMP JUMPDEST SWAP2 POP POP PUSH1 0x0 MSTORE PUSH1 0x4 PUSH1 0x20 MSTORE PUSH1 0x0 NOT PUSH1 0x40 PUSH1 0x0 KECCAK256 SSTORE PUSH2 0x28C JUMP JUMPDEST PUSH4 0x4E487B71 PUSH1 0xE0 SHL PUSH1 0x0 MSTORE PUSH1 0x21 PUSH1 0x4 MSTORE PUSH1 0x24 PUSH1 0x0 REVERT JUMPDEST PUSH1 0x6 DUP4 ADD SLOAD LT ISZERO PUSH2 0x67F JUMPI DUP6 PUSH2 0x26F JUMP JUMPDEST PUSH1 0x40 MLOAD PUSH3 0x461BCD PUSH1 0xE5 SHL DUP2 MSTORE PUSH1 0x20 PUSH1 0x4 DUP3 ADD MSTORE PUSH1 0x8 PUSH1 0x24 DUP3 ADD MSTORE PUSH8 0x1CDBDB19081BDD5D PUSH1 0xC2 SHL PUSH1 0x44 DUP3 ADD MSTORE PUSH1 0x64 SWAP1 REVERT JUMPDEST PUSH1 0x40 MLOAD PUSH3 0x461BCD PUSH1 0xE5 SHL DUP2 MSTORE PUSH1 0x20 PUSH1 0x4 DUP3 ADD MSTORE PUSH1 0x10 PUSH1 0x24 DUP3 ADD MSTORE PUSH16 0x696E73756666696369656E7420706179 PUSH1 0x80 SHL PUSH1 0x44 DUP3 ADD MSTORE PUSH1 0x64 SWAP1 REVERT JUMPDEST PUSH1 0x40 MLOAD PUSH3 0x461BCD PUSH1 0xE5 SHL DUP2 MSTORE PUSH1 0x20 PUSH1 0x4 DUP3 ADD MSTORE PUSH1 0xA PUSH1 0x24 DUP3 ADD MSTORE PUSH10 0x6E6F7420616374697665 PUSH1 0xB0 SHL PUSH1 0x44 DUP3 ADD MSTORE PUSH1 0x64 SWAP1 REVERT JUMPDEST PUSH4 0x3EE5AEB5 PUSH1 0xE0 SHL PUSH1 0x0 MSTORE PUSH1 0x4 PUSH1 0x0 REVERT JUMPDEST CALLVALUE PUSH2 0x130 JUMPI PUSH1 0x0 CALLDATASIZE PUSH1 0x3 NOT ADD SLT PUSH2 0x130 JUMPI PUSH1 0x20 PUSH1 0x2 SLOAD PUSH1 0x40 MLOAD SWAP1 DUP2 MSTORE RETURN JUMPDEST CALLVALUE PUSH2 0x130 JUMPI PUSH1 0x0 CALLDATASIZE PUSH1 0x3 NOT ADD SLT PUSH2 0x130 JUMPI PUSH1 0x0 SLOAD PUSH1 0x40 MLOAD PUSH1 0x1 PUSH1 0x1 PUSH1 0xA0 SHL SUB SWAP1 SWAP2 AND DUP2 MSTORE PUSH1 0x20 SWAP1 RETURN JUMPDEST CALLVALUE PUSH2 0x130 JUMPI PUSH1 0x20 CALLDATASIZE PUSH1 0x3 NOT ADD SLT PUSH2 0x130 JUMPI PUSH1 0x4 CALLDATALOAD PUSH1 0x0 MSTORE PUSH1 0x3 PUSH1 0x20 MSTORE PUSH1 0x40 PUSH1 0x0 KECCAK256 DUP1 SLOAD PUSH1 0x1 DUP3 ADD SLOAD SWAP1 PUSH1 0x1 DUP1 PUSH1 0xA0 SHL SUB PUSH1 0x2 DUP5 ADD SLOAD AND SWAP3 PUSH1 0x3 DUP2 ADD SLOAD SWAP1 PUSH1 0x4 DUP2 ADD SLOAD PUSH1 0x5 DUP3 ADD SLOAD PUSH1 0x6 DUP4 ADD SLOAD SWAP1 PUSH1 0x7 DUP5 ADD SLOAD SWAP3 PUSH1 0x9 PUSH1 0xFF PUSH1 0x8 DUP8 ADD SLOAD AND SWAP6 ADD SWAP6 PUSH1 0x40 MLOAD SWAP10 PUSH1 0x0 DUP12 DUP10 SLOAD SWAP10 PUSH1 0x20 PUSH2 0x7E6 DUP13 PUSH2 0xFE8 JUMP JUMPDEST DUP1 DUP5 MSTORE SWAP3 ADD SWAP11 PUSH1 0x1 DUP2 AND SWAP1 DUP2 ISZERO PUSH2 0x8D2 JUMPI POP PUSH1 0x1 EQ PUSH2 0x893 JUMPI JUMPDEST POP POP SWAP3 DUP12 SWAP7 SWAP5 SWAP3 PUSH2 0x851 SWAP3 PUSH2 0x820 PUSH2 0x180 SWAP14 SWAP15 PUSH2 0x885 SWAP12 SWAP10 SWAP8 SUB DUP11 PUSH2 0x1022 JUMP JUMPDEST PUSH1 0x40 MLOAD SWAP14 DUP15 SWAP13 DUP14 MSTORE PUSH1 0x20 DUP14 ADD MSTORE PUSH1 0x40 DUP13 ADD MSTORE PUSH1 0x60 DUP12 ADD MSTORE PUSH2 0xFFFF DUP2 AND PUSH1 0x80 DUP12 ADD MSTORE PUSH1 0xFF PUSH1 0xA0 DUP12 ADD SWAP2 PUSH1 0x10 SHR AND PUSH2 0x105A JUMP JUMPDEST PUSH1 0xC0 DUP9 ADD MSTORE PUSH1 0xE0 DUP8 ADD MSTORE PUSH2 0x100 DUP7 ADD MSTORE ISZERO ISZERO PUSH2 0x120 DUP6 ADD MSTORE PUSH2 0x160 PUSH2 0x140 DUP6 ADD MSTORE MLOAD DUP1 SWAP3 DUP2 PUSH2 0x160 DUP7 ADD MSTORE DUP6 DUP6 ADD SWAP1 PUSH2 0x1067 JUMP JUMPDEST PUSH1 0x1F ADD PUSH1 0x1F NOT AND DUP2 ADD SUB ADD SWAP1 RETURN JUMPDEST PUSH1 0x0 SWAP1 DUP2 MSTORE PUSH1 0x20 DUP2 KECCAK256 SWAP1 SWAP3 POP JUMPDEST DUP2 DUP4 LT PUSH2 0x8B7 JUMPI POP POP DUP12 ADD PUSH1 0x20 ADD DUP3 PUSH2 0x851 PUSH2 0x800 JUMP JUMPDEST PUSH1 0x1 DUP2 DUP16 PUSH1 0x20 DUP7 DUP2 SWAP6 SWAP8 SWAP7 SWAP8 SLOAD SWAP3 ADD ADD MSTORE ADD SWAP2 ADD SWAP2 SWAP1 PUSH2 0x8A0 JUMP JUMPDEST PUSH1 0xFF NOT AND DUP13 MSTORE POP POP ISZERO ISZERO PUSH1 0x5 SHL DUP13 ADD PUSH1 0x20 ADD SWAP1 POP DUP3 PUSH2 0x851 PUSH2 0x800 JUMP JUMPDEST CALLVALUE PUSH2 0x130 JUMPI PUSH1 0x0 CALLDATASIZE PUSH1 0x3 NOT ADD SLT PUSH2 0x130 JUMPI PUSH1 0x5 SLOAD PUSH1 0x40 MLOAD PUSH1 0x1 PUSH1 0x1 PUSH1 0xA0 SHL SUB SWAP1 SWAP2 AND DUP2 MSTORE PUSH1 0x20 SWAP1 RETURN JUMPDEST CALLVALUE PUSH2 0x130 JUMPI PUSH1 0x0 CALLDATASIZE PUSH1 0x3 NOT ADD SLT PUSH2 0x130 JUMPI PUSH2 0x931 PUSH2 0x1129 JUMP JUMPDEST PUSH1 0x0 DUP1 SLOAD PUSH1 0x1 PUSH1 0x1 PUSH1 0xA0 SHL SUB NOT DUP2 AND DUP3 SSTORE PUSH1 0x1 PUSH1 0x1 PUSH1 0xA0 SHL SUB AND PUSH32 0x8BE0079C531659141344CD1FD0A4F28419497F9722A3DAAFE3B4186F6B6457E0 DUP3 DUP1 LOG3 STOP JUMPDEST CALLVALUE PUSH2 0x130 JUMPI PUSH1 0x20 CALLDATASIZE PUSH1 0x3 NOT ADD SLT PUSH2 0x130 JUMPI PUSH1 0x4 CALLDATALOAD PUSH1 0x0 MSTORE PUSH1 0x4 PUSH1 0x20 MSTORE PUSH1 0x20 PUSH1 0x40 PUSH1 0x0 KECCAK256 SLOAD PUSH1 0x40 MLOAD SWAP1 DUP2 MSTORE RETURN JUMPDEST CALLVALUE PUSH2 0x130 JUMPI PUSH1 0xE0 CALLDATASIZE PUSH1 0x3 NOT ADD SLT PUSH2 0x130 JUMPI PUSH1 0x44 CALLDATALOAD SWAP1 PUSH2 0xFFFF DUP3 AND DUP1 SWAP3 SUB PUSH2 0x130 JUMPI PUSH1 0x3 PUSH1 0x64 CALLDATALOAD LT ISZERO PUSH2 0x130 JUMPI PUSH8 0xFFFFFFFFFFFFFFFF PUSH1 0xC4 CALLDATALOAD GT PUSH2 0x130 JUMPI CALLDATASIZE PUSH1 0x23 PUSH1 0xC4 CALLDATALOAD ADD SLT ISZERO PUSH2 0x130 JUMPI PUSH8 0xFFFFFFFFFFFFFFFF PUSH1 0xC4 CALLDATALOAD PUSH1 0x4 ADD CALLDATALOAD GT PUSH2 0x130 JUMPI CALLDATASIZE PUSH1 0x24 PUSH1 0xC4 CALLDATALOAD PUSH1 0x4 ADD CALLDATALOAD PUSH1 0xC4 CALLDATALOAD ADD ADD GT PUSH2 0x130 JUMPI PUSH1 0x5 SLOAD PUSH4 0x1D591EB7 PUSH1 0xE3 SHL DUP3 MSTORE PUSH1 0x4 DUP1 CALLDATALOAD SWAP1 DUP4 ADD MSTORE PUSH1 0x0 SWAP1 DUP3 SWAP1 PUSH1 0x24 SWAP1 DUP3 SWAP1 PUSH1 0x1 PUSH1 0x1 PUSH1 0xA0 SHL SUB AND GAS STATICCALL SWAP1 DUP2 ISZERO PUSH2 0x540 JUMPI PUSH1 0x0 SWAP2 PUSH2 0xEAC JUMPI JUMPDEST POP PUSH1 0xC0 DUP2 ADD MLOAD ISZERO PUSH2 0xE75 JUMPI PUSH1 0x1 DUP1 PUSH1 0xA0 SHL SUB PUSH1 0xA0 DUP3 ADD MLOAD AND SWAP1 PUSH1 0x20 PUSH1 0x80 DUP3 ADD MLOAD PUSH1 0x24 PUSH1 0x40 MLOAD DUP1 SWAP6 DUP2 SWAP4 PUSH4 0x31A9108F PUSH1 0xE1 SHL DUP4 MSTORE PUSH1 0x4 DUP4 ADD MSTORE GAS STATICCALL SWAP2 DUP3 ISZERO PUSH2 0x540 JUMPI PUSH1 0x0 SWAP3 PUSH2 0xE39 JUMPI JUMPDEST POP PUSH1 0x20 ADD MLOAD PUSH1 0x1 PUSH1 0x1 PUSH1 0xA0 SHL SUB AND CALLER EQ SWAP1 DUP2 ISZERO PUSH2 0xE26 JUMPI JUMPDEST POP ISZERO PUSH2 0xDED JUMPI PUSH1 0x0 PUSH1 0x1 PUSH1 0x64 CALLDATALOAD EQ PUSH2 0xDCE JUMPI JUMPDEST PUSH1 0x1 PUSH1 0x2 SLOAD ADD SWAP1 DUP2 PUSH1 0x2 SSTORE PUSH1 0x40 MLOAD SWAP3 PUSH2 0x160 DUP5 ADD DUP5 DUP2 LT PUSH8 0xFFFFFFFFFFFFFFFF DUP3 GT OR PUSH2 0xDBA JUMPI PUSH1 0x40 MSTORE DUP3 DUP5 MSTORE PUSH1 0x4 CALLDATALOAD PUSH1 0x20 DUP6 ADD MSTORE CALLER PUSH1 0x40 DUP6 ADD MSTORE PUSH1 0x24 CALLDATALOAD PUSH1 0x60 DUP6 ADD MSTORE PUSH1 0x80 DUP5 ADD MSTORE POP PUSH1 0x64 CALLDATALOAD PUSH1 0xA0 DUP4 ADD MSTORE PUSH1 0x84 CALLDATALOAD PUSH1 0xC0 DUP4 ADD MSTORE PUSH1 0x0 PUSH1 0xE0 DUP4 ADD MSTORE PUSH1 0xA4 CALLDATALOAD PUSH2 0x100 DUP4 ADD MSTORE PUSH1 0x1 PUSH2 0x120 DUP4 ADD MSTORE PUSH2 0xB3D PUSH1 0xC4 CALLDATALOAD PUSH1 0x4 ADD CALLDATALOAD PUSH2 0x109E JUMP JUMPDEST PUSH2 0xB4A PUSH1 0x40 MLOAD SWAP2 DUP3 PUSH2 0x1022 JUMP JUMPDEST PUSH1 0xC4 CALLDATALOAD PUSH1 0x4 DUP2 ADD CALLDATALOAD DUP1 DUP4 MSTORE PUSH1 0x0 SWAP4 SWAP2 PUSH1 0x24 ADD PUSH1 0x20 DUP5 ADD CALLDATACOPY DUP3 PUSH1 0x20 PUSH1 0xC4 CALLDATALOAD PUSH1 0x4 ADD CALLDATALOAD DUP5 ADD ADD MSTORE PUSH2 0x140 DUP5 ADD SWAP2 DUP3 MSTORE DUP1 DUP4 MSTORE PUSH1 0x3 PUSH1 0x20 MSTORE PUSH1 0x40 DUP4 KECCAK256 DUP5 MLOAD DUP2 SSTORE PUSH1 0x20 DUP6 ADD MLOAD PUSH1 0x1 DUP3 ADD SSTORE PUSH1 0x2 DUP2 ADD PUSH1 0x1 DUP1 PUSH1 0xA0 SHL SUB PUSH1 0x40 DUP8 ADD MLOAD AND PUSH12 0xFFFFFFFFFFFFFFFFFFFFFFFF PUSH1 0xA0 SHL DUP3 SLOAD AND OR SWAP1 SSTORE PUSH1 0x60 DUP6 ADD MLOAD PUSH1 0x3 DUP3 ADD SSTORE PUSH1 0x4 DUP2 ADD SWAP5 PUSH2 0xFFFF PUSH1 0x80 DUP3 ADD MLOAD AND SWAP6 DUP1 SLOAD PUSH1 0xA0 DUP4 ADD MLOAD SWAP8 PUSH1 0x3 DUP10 LT ISZERO PUSH2 0xDA6 JUMPI PUSH3 0xFF0000 DUP9 SWAP10 PUSH1 0x9 SWAP8 SWAP9 SWAP10 POP PUSH1 0x10 SHL AND SWAP2 PUSH3 0xFFFFFF NOT AND OR OR SWAP1 SSTORE PUSH1 0xC0 DUP2 ADD MLOAD PUSH1 0x5 DUP4 ADD SSTORE PUSH1 0xE0 DUP2 ADD MLOAD PUSH1 0x6 DUP4 ADD SSTORE PUSH2 0x100 DUP2 ADD MLOAD PUSH1 0x7 DUP4 ADD SSTORE PUSH2 0x120 PUSH1 0x8 DUP4 ADD SWAP2 ADD MLOAD ISZERO ISZERO PUSH1 0xFF DUP1 NOT DUP4 SLOAD AND SWAP2 AND OR SWAP1 SSTORE ADD SWAP2 MLOAD SWAP2 DUP3 MLOAD PUSH8 0xFFFFFFFFFFFFFFFF DUP2 GT PUSH2 0xD92 JUMPI PUSH2 0xC53 DUP3 SLOAD PUSH2 0xFE8 JUMP JUMPDEST PUSH1 0x1F DUP2 GT PUSH2 0xD4D JUMPI JUMPDEST POP PUSH1 0x20 SWAP5 DUP6 SWAP1 PUSH1 0x1 PUSH1 0x1F DUP5 GT EQ PUSH2 0xCED JUMPI SWAP5 DUP3 SWAP4 SWAP5 SWAP6 SWAP3 PUSH2 0xCE2 JUMPI JUMPDEST POP POP DUP2 PUSH1 0x1 SHL SWAP2 PUSH1 0x0 NOT SWAP1 PUSH1 0x3 SHL SHR NOT AND OR SWAP1 SSTORE JUMPDEST PUSH1 0x40 MLOAD CALLER DUP2 MSTORE PUSH1 0x24 CALLDATALOAD DUP4 DUP3 ADD MSTORE PUSH2 0xCA9 PUSH1 0x40 DUP3 ADD PUSH1 0x64 CALLDATALOAD PUSH2 0x105A JUMP JUMPDEST PUSH1 0x84 CALLDATALOAD PUSH1 0x60 DUP3 ADD MSTORE DUP2 PUSH32 0xC4781997D23ADA25A0CDCEE50D2DD985DE16265E2E5034D2D727E978636E95EE PUSH1 0x80 PUSH1 0x4 CALLDATALOAD SWAP4 LOG3 PUSH1 0x40 MLOAD SWAP1 DUP2 MSTORE RETURN JUMPDEST ADD MLOAD SWAP1 POP DUP6 DUP1 PUSH2 0xC78 JUMP JUMPDEST SWAP1 PUSH1 0x1F NOT DUP4 AND SWAP6 DUP5 DUP4 MSTORE DUP2 DUP4 KECCAK256 SWAP3 JUMPDEST DUP8 DUP2 LT PUSH2 0xD36 JUMPI POP DUP4 PUSH1 0x1 SWAP6 SWAP7 SWAP8 LT PUSH2 0xD1D JUMPI JUMPDEST POP POP POP DUP2 SHL ADD SWAP1 SSTORE PUSH2 0xC8D JUMP JUMPDEST ADD MLOAD PUSH1 0x0 NOT PUSH1 0xF8 DUP5 PUSH1 0x3 SHL AND SHR NOT AND SWAP1 SSTORE DUP6 DUP1 DUP1 PUSH2 0xD10 JUMP JUMPDEST SWAP2 SWAP3 DUP9 PUSH1 0x1 DUP2 SWAP3 DUP7 DUP6 ADD MLOAD DUP2 SSTORE ADD SWAP5 ADD SWAP3 ADD PUSH2 0xCFC JUMP JUMPDEST DUP3 DUP7 MSTORE PUSH1 0x20 DUP7 KECCAK256 PUSH1 0x1F DUP4 ADD PUSH1 0x5 SHR DUP2 ADD SWAP2 PUSH1 0x20 DUP5 LT PUSH2 0xD88 JUMPI JUMPDEST PUSH1 0x1F ADD PUSH1 0x5 SHR ADD SWAP1 JUMPDEST DUP2 DUP2 LT PUSH2 0xD7D JUMPI POP PUSH2 0xC5C JUMP JUMPDEST DUP7 DUP2 SSTORE PUSH1 0x1 ADD PUSH2 0xD70 JUMP JUMPDEST SWAP1 SWAP2 POP DUP2 SWAP1 PUSH2 0xD67 JUMP JUMPDEST PUSH4 0x4E487B71 PUSH1 0xE0 SHL DUP6 MSTORE PUSH1 0x41 PUSH1 0x4 MSTORE PUSH1 0x24 DUP6 REVERT JUMPDEST PUSH4 0x4E487B71 PUSH1 0xE0 SHL DUP9 MSTORE PUSH1 0x21 PUSH1 0x4 MSTORE PUSH1 0x24 DUP9 REVERT JUMPDEST PUSH4 0x4E487B71 PUSH1 0xE0 SHL DUP4 MSTORE PUSH1 0x41 PUSH1 0x4 MSTORE PUSH1 0x24 DUP4 REVERT JUMPDEST PUSH1 0x4 CALLDATALOAD DUP2 MSTORE PUSH1 0x4 PUSH1 0x20 MSTORE PUSH2 0xDE8 PUSH1 0x40 DUP3 KECCAK256 SLOAD TIMESTAMP LT ISZERO PUSH2 0x10BA JUMP JUMPDEST PUSH2 0xABD JUMP JUMPDEST PUSH1 0x40 MLOAD PUSH3 0x461BCD PUSH1 0xE5 SHL DUP2 MSTORE PUSH1 0x20 PUSH1 0x4 DUP3 ADD MSTORE PUSH1 0x11 PUSH1 0x24 DUP3 ADD MSTORE PUSH17 0x3737BA1031B932B0BA37B917B7BBB732B9 PUSH1 0x79 SHL PUSH1 0x44 DUP3 ADD MSTORE PUSH1 0x64 SWAP1 REVERT JUMPDEST PUSH1 0x1 PUSH1 0x1 PUSH1 0xA0 SHL SUB AND CALLER EQ SWAP1 POP DUP3 PUSH2 0xAAA JUMP JUMPDEST SWAP1 SWAP2 POP PUSH1 0x20 DUP2 RETURNDATASIZE PUSH1 0x20 GT PUSH2 0xE6D JUMPI JUMPDEST DUP2 PUSH2 0xE55 PUSH1 0x20 SWAP4 DUP4 PUSH2 0x1022 JUMP JUMPDEST DUP2 ADD SUB SLT PUSH2 0x130 JUMPI PUSH2 0xE66 SWAP1 PUSH2 0x108A JUMP JUMPDEST SWAP1 DUP4 PUSH2 0xA92 JUMP JUMPDEST RETURNDATASIZE SWAP2 POP PUSH2 0xE48 JUMP JUMPDEST PUSH1 0x40 MLOAD PUSH3 0x461BCD PUSH1 0xE5 SHL DUP2 MSTORE PUSH1 0x20 PUSH1 0x4 DUP3 ADD MSTORE PUSH1 0xF PUSH1 0x24 DUP3 ADD MSTORE PUSH15 0x185CDCD95D081B9BDD08199BDD5B99 PUSH1 0x8A SHL PUSH1 0x44 DUP3 ADD MSTORE PUSH1 0x64 SWAP1 REVERT JUMPDEST SWAP1 RETURNDATASIZE DUP1 DUP3 DUP5 RETURNDATACOPY PUSH2 0xEBC DUP2 DUP5 PUSH2 0x1022 JUMP JUMPDEST DUP3 ADD SWAP2 PUSH1 0x20 DUP2 DUP5 SUB SLT PUSH2 0xFE4 JUMPI DUP1 MLOAD SWAP1 PUSH8 0xFFFFFFFFFFFFFFFF DUP3 GT PUSH2 0xFC4 JUMPI ADD PUSH1 0xE0 DUP2 DUP5 SUB SLT PUSH2 0xFE4 JUMPI PUSH1 0x40 MLOAD SWAP3 PUSH1 0xE0 DUP5 ADD DUP5 DUP2 LT PUSH8 0xFFFFFFFFFFFFFFFF DUP3 GT OR PUSH2 0xFD0 JUMPI PUSH1 0x40 MSTORE DUP2 MLOAD DUP5 MSTORE PUSH2 0xF14 PUSH1 0x20 DUP4 ADD PUSH2 0x108A JUMP JUMPDEST PUSH1 0x20 DUP6 ADD MSTORE PUSH1 0x40 DUP3 ADD MLOAD PUSH8 0xFFFFFFFFFFFFFFFF DUP2 GT PUSH2 0xFCC JUMPI DUP3 ADD DUP2 PUSH1 0x1F DUP3 ADD SLT ISZERO PUSH2 0xFCC JUMPI DUP1 MLOAD SWAP1 PUSH2 0xF46 DUP3 PUSH2 0x109E JUMP JUMPDEST SWAP3 PUSH2 0xF54 PUSH1 0x40 MLOAD SWAP5 DUP6 PUSH2 0x1022 JUMP JUMPDEST DUP3 DUP5 MSTORE PUSH1 0x20 DUP4 DUP4 ADD ADD GT PUSH2 0xFC8 JUMPI SWAP1 PUSH2 0xF73 SWAP2 PUSH1 0x20 DUP1 DUP6 ADD SWAP2 ADD PUSH2 0x1067 JUMP JUMPDEST PUSH1 0x40 DUP5 ADD MSTORE PUSH1 0x60 DUP2 ADD MLOAD PUSH2 0xFFFF DUP2 AND DUP2 SUB PUSH2 0xFC4 JUMPI SWAP1 PUSH1 0xC0 SWAP2 PUSH1 0x60 DUP6 ADD MSTORE PUSH1 0x80 DUP2 ADD MLOAD PUSH1 0x80 DUP6 ADD MSTORE PUSH2 0xFA7 PUSH1 0xA0 DUP3 ADD PUSH2 0x108A JUMP JUMPDEST PUSH1 0xA0 DUP6 ADD MSTORE ADD MLOAD SWAP1 DUP2 ISZERO ISZERO DUP3 SUB PUSH2 0x535 JUMPI POP PUSH1 0xC0 DUP3 ADD MSTORE DUP3 PUSH2 0xA49 JUMP JUMPDEST DUP3 DUP1 REVERT JUMPDEST DUP5 DUP1 REVERT JUMPDEST DUP4 DUP1 REVERT JUMPDEST PUSH4 0x4E487B71 PUSH1 0xE0 SHL DUP5 MSTORE PUSH1 0x41 PUSH1 0x4 MSTORE PUSH1 0x24 DUP5 REVERT JUMPDEST POP DUP1 REVERT JUMPDEST SWAP1 PUSH1 0x1 DUP3 DUP2 SHR SWAP3 AND DUP1 ISZERO PUSH2 0x1018 JUMPI JUMPDEST PUSH1 0x20 DUP4 LT EQ PUSH2 0x1002 JUMPI JUMP JUMPDEST PUSH4 0x4E487B71 PUSH1 0xE0 SHL PUSH1 0x0 MSTORE PUSH1 0x22 PUSH1 0x4 MSTORE PUSH1 0x24 PUSH1 0x0 REVERT JUMPDEST SWAP2 PUSH1 0x7F AND SWAP2 PUSH2 0xFF7 JUMP JUMPDEST SWAP1 PUSH1 0x1F DUP1 NOT SWAP2 ADD AND DUP2 ADD SWAP1 DUP2 LT PUSH8 0xFFFFFFFFFFFFFFFF DUP3 GT OR PUSH2 0x1044 JUMPI PUSH1 0x40 MSTORE JUMP JUMPDEST PUSH4 0x4E487B71 PUSH1 0xE0 SHL PUSH1 0x0 MSTORE PUSH1 0x41 PUSH1 0x4 MSTORE PUSH1 0x24 PUSH1 0x0 REVERT JUMPDEST SWAP1 PUSH1 0x3 DUP3 LT ISZERO PUSH2 0x658 JUMPI MSTORE JUMP JUMPDEST PUSH1 0x0 JUMPDEST DUP4 DUP2 LT PUSH2 0x107A JUMPI POP POP PUSH1 0x0 SWAP2 ADD MSTORE JUMP JUMPDEST DUP2 DUP2 ADD MLOAD DUP4 DUP3 ADD MSTORE PUSH1 0x20 ADD PUSH2 0x106A JUMP JUMPDEST MLOAD SWAP1 PUSH1 0x1 PUSH1 0x1 PUSH1 0xA0 SHL SUB DUP3 AND DUP3 SUB PUSH2 0x130 JUMPI JUMP JUMPDEST PUSH8 0xFFFFFFFFFFFFFFFF DUP2 GT PUSH2 0x1044 JUMPI PUSH1 0x1F ADD PUSH1 0x1F NOT AND PUSH1 0x20 ADD SWAP1 JUMP JUMPDEST ISZERO PUSH2 0x10C1 JUMPI JUMP JUMPDEST PUSH1 0x40 MLOAD PUSH3 0x461BCD PUSH1 0xE5 SHL DUP2 MSTORE PUSH1 0x20 PUSH1 0x4 DUP3 ADD MSTORE PUSH1 0x10 PUSH1 0x24 DUP3 ADD MSTORE PUSH16 0x6578636C757369766520616374697665 PUSH1 0x80 SHL PUSH1 0x44 DUP3 ADD MSTORE PUSH1 0x64 SWAP1 REVERT JUMPDEST RETURNDATASIZE ISZERO PUSH2 0x1124 JUMPI RETURNDATASIZE SWAP1 PUSH2 0x110A DUP3 PUSH2 0x109E JUMP JUMPDEST SWAP2 PUSH2 0x1118 PUSH1 0x40 MLOAD SWAP4 DUP5 PUSH2 0x1022 JUMP JUMPDEST DUP3 MSTORE RETURNDATASIZE PUSH1 0x0 PUSH1 0x20 DUP5 ADD RETURNDATACOPY JUMP JUMPDEST PUSH1 0x60 SWAP1 JUMP JUMPDEST PUSH1 0x0 SLOAD PUSH1 0x1 PUSH1 0x1 PUSH1 0xA0 SHL SUB AND CALLER SUB PUSH2 0x113D JUMPI JUMP JUMPDEST PUSH4 0x118CDAA7 PUSH1 0xE0 SHL PUSH1 0x0 MSTORE CALLER PUSH1 0x4 MSTORE PUSH1 0x24 PUSH1 0x0 REVERT INVALID LOG2 PUSH5 0x6970667358 0x22 SLT KECCAK256 SIGNEXTEND 0xC SHL DUP1 SELFDESTRUCT MSTORE8 0xA7 0x28 0x2F 0xE8 0xC7 MLOAD 0xBD 0xA5 SLOAD DUP10 0x2D 0xF8 SWAP1 0x24 0xA7 TLOAD CREATE 0xB6 SHL CALLDATACOPY SMOD 0xD0 PUSH16 0xE1153764736F6C634300081C00330000 "},"methodIdentifiers":{"buyLicense(uint256)":"cae1a69c","cancelOffer(uint256)":"ef706adf","createOffer(uint256,uint256,uint16,uint8,uint256,uint256,string)":"09de3854","exclusiveExpiry(uint256)":"5eb05087","fractionalizer()":"d03b0e49","licenseNft()":"db50389e","offers(uint256)":"8a72ea6a","owner()":"8da5cb5b","registry()":"7b103999","renounceOwnership()":"715018a6","totalOffers()":"a9fd8ed1","transferOwnership(address)":"f2fde38b"}}}}}