{"contracts/MarketAsset.sol":{"AssetNFT":{"abi":[{"inputs":[{"internalType":"string","name":"name_","type":"string"},{"internalType":"string","name":"symbol_","type":"string"}],"stateMutability":"nonpayable","type":"constructor"},{"inputs":[{"internalType":"address","name":"sender","type":"address"},{"internalType":"uint256","name":"tokenId","type":"uint256"},{"internalType":"address","name":"owner","type":"address"}],"name":"ERC721IncorrectOwner","type":"error"},{"inputs":[{"internalType":"address","name":"operator","type":"address"},{"internalType":"uint256","name":"tokenId","type":"uint256"}],"name":"ERC721InsufficientApproval","type":"error"},{"inputs":[{"internalType":"address","name":"approver","type":"address"}],"name":"ERC721InvalidApprover","type":"error"},{"inputs":[{"internalType":"address","name":"operator","type":"address"}],"name":"ERC721InvalidOperator","type":"error"},{"inputs":[{"internalType":"address","name":"owner","type":"address"}],"name":"ERC721InvalidOwner","type":"error"},{"inputs":[{"internalType":"address","name":"receiver","type":"address"}],"name":"ERC721InvalidReceiver","type":"error"},{"inputs":[{"internalType":"address","name":"sender","type":"address"}],"name":"ERC721InvalidSender","type":"error"},{"inputs":[{"internalType":"uint256","name":"tokenId","type":"uint256"}],"name":"ERC721NonexistentToken","type":"error"},{"inputs":[{"internalType":"address","name":"owner","type":"address"}],"name":"OwnableInvalidOwner","type":"error"},{"inputs":[{"internalType":"address","name":"account","type":"address"}],"name":"OwnableUnauthorizedAccount","type":"error"},{"anonymous":false,"inputs":[{"indexed":true,"internalType":"address","name":"owner","type":"address"},{"indexed":true,"internalType":"address","name":"approved","type":"address"},{"indexed":true,"internalType":"uint256","name":"tokenId","type":"uint256"}],"name":"Approval","type":"event"},{"anonymous":false,"inputs":[{"indexed":true,"internalType":"address","name":"owner","type":"address"},{"indexed":true,"internalType":"address","name":"operator","type":"address"},{"indexed":false,"internalType":"bool","name":"approved","type":"bool"}],"name":"ApprovalForAll","type":"event"},{"anonymous":false,"inputs":[{"indexed":false,"internalType":"uint256","name":"_fromTokenId","type":"uint256"},{"indexed":false,"internalType":"uint256","name":"_toTokenId","type":"uint256"}],"name":"BatchMetadataUpdate","type":"event"},{"anonymous":false,"inputs":[{"indexed":false,"internalType":"uint256","name":"_tokenId","type":"uint256"}],"name":"MetadataUpdate","type":"event"},{"anonymous":false,"inputs":[{"indexed":true,"internalType":"address","name":"previousOwner","type":"address"},{"indexed":true,"internalType":"address","name":"newOwner","type":"address"}],"name":"OwnershipTransferred","type":"event"},{"anonymous":false,"inputs":[{"indexed":true,"internalType":"address","name":"from","type":"address"},{"indexed":true,"internalType":"address","name":"to","type":"address"},{"indexed":true,"internalType":"uint256","name":"tokenId","type":"uint256"}],"name":"Transfer","type":"event"},{"inputs":[{"internalType":"address","name":"to","type":"address"},{"internalType":"uint256","name":"tokenId","type":"uint256"}],"name":"approve","outputs":[],"stateMutability":"nonpayable","type":"function"},{"inputs":[{"internalType":"address","name":"owner","type":"address"}],"name":"balanceOf","outputs":[{"internalType":"uint256","name":"","type":"uint256"}],"stateMutability":"view","type":"function"},{"inputs":[{"internalType":"uint256","name":"tokenId","type":"uint256"}],"name":"getApproved","outputs":[{"internalType":"address","name":"","type":"address"}],"stateMutability":"view","type":"function"},{"inputs":[{"internalType":"address","name":"owner","type":"address"},{"internalType":"address","name":"operator","type":"address"}],"name":"isApprovedForAll","outputs":[{"internalType":"bool","name":"","type":"bool"}],"stateMutability":"view","type":"function"},{"inputs":[{"internalType":"address","name":"to","type":"address"},{"internalType":"string","name":"tokenURI_","type":"string"}],"name":"mintFor","outputs":[{"internalType":"uint256","name":"","type":"uint256"}],"stateMutability":"nonpayable","type":"function"},{"inputs":[],"name":"name","outputs":[{"internalType":"string","name":"","type":"string"}],"stateMutability":"view","type":"function"},{"inputs":[],"name":"owner","outputs":[{"internalType":"address","name":"","type":"address"}],"stateMutability":"view","type":"function"},{"inputs":[{"internalType":"uint256","name":"tokenId","type":"uint256"}],"name":"ownerOf","outputs":[{"internalType":"address","name":"","type":"address"}],"stateMutability":"view","type":"function"},{"inputs":[],"name":"registry","outputs":[{"internalType":"address","name":"","type":"address"}],"stateMutability":"view","type":"function"},{"inputs":[],"name":"renounceOwnership","outputs":[],"stateMutability":"nonpayable","type":"function"},{"inputs":[{"internalType":"address","name":"from","type":"address"},{"internalType":"address","name":"to","type":"address"},{"internalType":"uint256","name":"tokenId","type":"uint256"}],"name":"safeTransferFrom","outputs":[],"stateMutability":"nonpayable","type":"function"},{"inputs":[{"internalType":"address","name":"from","type":"address"},{"internalType":"address","name":"to","type":"address"},{"internalType":"uint256","name":"tokenId","type":"uint256"},{"internalType":"bytes","name":"data","type":"bytes"}],"name":"safeTransferFrom","outputs":[],"stateMutability":"nonpayable","type":"function"},{"inputs":[{"internalType":"address","name":"operator","type":"address"},{"internalType":"bool","name":"approved","type":"bool"}],"name":"setApprovalForAll","outputs":[],"stateMutability":"nonpayable","type":"function"},{"inputs":[{"internalType":"address","name":"_r","type":"address"}],"name":"setRegistry","outputs":[],"stateMutability":"nonpayable","type":"function"},{"inputs":[{"internalType":"bytes4","name":"interfaceId","type":"bytes4"}],"name":"supportsInterface","outputs":[{"internalType":"bool","name":"","type":"bool"}],"stateMutability":"view","type":"function"},{"inputs":[],"name":"symbol","outputs":[{"internalType":"string","name":"","type":"string"}],"stateMutability":"view","type":"function"},{"inputs":[{"internalType":"uint256","name":"tokenId","type":"uint256"}],"name":"tokenURI","outputs":[{"internalType":"string","name":"","type":"string"}],"stateMutability":"view","type":"function"},{"inputs":[{"internalType":"address","name":"from","type":"address"},{"internalType":"address","name":"to","type":"address"},{"internalType":"uint256","name":"tokenId","type":"uint256"}],"name":"transferFrom","outputs":[],"stateMutability":"nonpayable","type":"function"},{"inputs":[{"internalType":"address","name":"newOwner","type":"address"}],"name":"transferOwnership","outputs":[],"stateMutability":"nonpayable","type":"function"}],"evm":{"bytecode":{"linkReferences":{},"object":"608060405234610395576114c7803803806100198161039a565b9283398101906040818303126103955780516001600160401b03811161039557826100459183016103bf565b60208201519092906001600160401b0381116103955761006592016103bf565b81516001600160401b0381116102a257600054600181811c9116801561038b575b602082101461028257601f8111610327575b50602092601f82116001146102c357928192936000926102b8575b50508160011b916000199060031b1c1916176000555b80516001600160401b0381116102a257600154600181811c91168015610298575b602082101461028257601f811161021d575b50602091601f82116001146101b9579181926000926101ae575b50508160011b916000199060031b1c1916176001555b33156101985760078054336001600160a01b03198216811790925560405191906001600160a01b03167f8be0079c531659141344cd1fd0a4f28419497f9722a3daafe3b4186f6b6457e0600080a3600980546001600160a01b0319163317905561109c908161042b8239f35b631e4fbdf760e01b600052600060045260246000fd5b015190503880610116565b601f198216926001600052806000209160005b858110610205575083600195106101ec575b505050811b0160015561012c565b015160001960f88460031b161c191690553880806101de565b919260206001819286850151815501940192016101cc565b60016000527fb10e2d527612073b26eecdfd717e6a320cf44b4afac2b0732d9fcbe2b7fa0cf6601f830160051c81019160208410610278575b601f0160051c01905b81811061026c57506100fc565b6000815560010161025f565b9091508190610256565b634e487b7160e01b600052602260045260246000fd5b90607f16906100ea565b634e487b7160e01b600052604160045260246000fd5b0151905038806100b3565b601f1982169360008052806000209160005b86811061030f57508360019596106102f6575b505050811b016000556100c9565b015160001960f88460031b161c191690553880806102e8565b919260206001819286850151815501940192016102d5565b600080527f290decd9548b62a8d60345a988386fc84ba6bc95484008f6362f93160ef3e563601f830160051c81019160208410610381575b601f0160051c01905b8181106103755750610098565b60008155600101610368565b909150819061035f565b90607f1690610086565b600080fd5b6040519190601f01601f191682016001600160401b038111838210176102a257604052565b81601f82011215610395578051906001600160401b0382116102a2576103ee601f8301601f191660200161039a565b92828452602083830101116103955760005b82811061041557505060206000918301015290565b8060208092840101518282870101520161040056fe608080604052600436101561001357600080fd5b60003560e01c90816301ffc9a714610a7d5750806306fdde03146109d8578063081812fc1461099a578063095ea7b3146108ab57806323b872dd1461089457806342842e0e1461086a5780634ed6a5f71461055a5780636352211e1461052a57806370a08231146104d4578063715018a6146104775780637b1039991461044e5780638da5cb5b1461042557806395d89b4114610357578063a22cb465146102b6578063a91ee0dc14610273578063b88d4fde14610211578063c87b56dd146101da578063e985e9c51461017f5763f2fde38b146100f057600080fd5b3461017a57602036600319011261017a57610109610b41565b61011161103d565b6001600160a01b0316801561016457600780546001600160a01b0319811683179091556001600160a01b03167f8be0079c531659141344cd1fd0a4f28419497f9722a3daafe3b4186f6b6457e0600080a3005b631e4fbdf760e01b600052600060045260246000fd5b600080fd5b3461017a57604036600319011261017a57610198610b41565b6101a0610b57565b9060018060a01b0316600052600560205260406000209060018060a01b0316600052602052602060ff604060002054166040519015158152f35b3461017a57602036600319011261017a5761020d6101f9600435610f3a565b604051918291602083526020830190610b02565b0390f35b3461017a57608036600319011261017a5761022a610b41565b610232610b57565b6064359167ffffffffffffffff831161017a573660238401121561017a57610267610271933690602481600401359101610be5565b9160443591610dec565b005b3461017a57602036600319011261017a5761028c610b41565b61029461103d565b600980546001600160a01b0319166001600160a01b0392909216919091179055005b3461017a57604036600319011261017a576102cf610b41565b6024359081151580920361017a576001600160a01b031690811561034257336000526005602052604060002082600052602052604060002060ff1981541660ff83161790556040519081527f17307eab39ab6107e8899845ad3d59bd9653f200f220920489ca2b5937696c3160203392a3005b50630b61174360e31b60005260045260246000fd5b3461017a57600036600319011261017a57604051600060015461037981610c1c565b808452906001811690811561040157506001146103a1575b61020d836101f981850382610ba7565b91905060016000527fb10e2d527612073b26eecdfd717e6a320cf44b4afac2b0732d9fcbe2b7fa0cf6916000905b8082106103e7575090915081016020016101f9610391565b9192600181602092548385880101520191019092916103cf565b60ff191660208086019190915291151560051b840190910191506101f99050610391565b3461017a57600036600319011261017a576007546040516001600160a01b039091168152602090f35b3461017a57600036600319011261017a576009546040516001600160a01b039091168152602090f35b3461017a57600036600319011261017a5761049061103d565b600780546001600160a01b031981169091556000906001600160a01b03167f8be0079c531659141344cd1fd0a4f28419497f9722a3daafe3b4186f6b6457e08280a3005b3461017a57602036600319011261017a576001600160a01b036104f5610b41565b1680156105145760005260036020526020604060002054604051908152f35b6322718ad960e21b600052600060045260246000fd5b3461017a57602036600319011261017a576020610548600435611006565b6040516001600160a01b039091168152f35b3461017a57604036600319011261017a57610573610b41565b60243567ffffffffffffffff811161017a573660238201121561017a5780600401359067ffffffffffffffff821161017a57366024838301011161017a576009546001600160a01b03163303610835576008805460010190819055926001600160a01b0316801561081f5760009084825260026020528460018060a01b0360408420541691827fddf252ad1be2c89b69c2b068fc378daa952ba7f163c4a11628f55a4df523b3ef81151595866107ea575b83815260036020526040812060018154019055848152600260205260408120846bffffffffffffffffffffffff60a01b82541617905580a4506107d45761066f916024369201610be5565b81600052600660205260406000209181519267ffffffffffffffff84116107be5761069a8154610c1c565b93601f8511610776575b602094508493601f8211600114610713579381929394600092610708575b50508160011b916000199060031b1c19161790555b7ff8e1a15aba9398e019f0b49df1a4fde98ee17ae345cb5f6b5e2c27f5033e8ce782604051838152a1604051908152f35b0151905085806106c2565b601f1982169483600052806000209160005b87811061075f575083600195969710610746575b505050811b0190556106d7565b015160001960f88460031b161c19169055858080610739565b919288600181928685015181550194019201610725565b816000526020600020601f820160051c810195602083106107b4575b601f0160051c01945b8581106107a857506106a4565b6000815560010161079b565b9095508590610792565b634e487b7160e01b600052604160045260246000fd5b6339e3563760e11b600052600060045260246000fd5b600085815260046020526040902080546001600160a01b03191690558281526003602052604081208054600019019055610624565b633250574960e11b600052600060045260246000fd5b60405162461bcd60e51b815260206004820152600d60248201526c4f6e6c7920726567697374727960981b6044820152606490fd5b3461017a5761027161087b36610b6d565b906040519261088b602085610ba7565b60008452610dec565b3461017a576102716108a536610b6d565b91610c56565b3461017a57604036600319011261017a576108c4610b41565b6024356108d081611006565b33151580610987575b80610959575b6109445781906001600160a01b0384811691167f8c5be1e5ebec7d5bd14f71427d1e84f3dd0314c0f7b2291e5b200ac8c7c3b925600080a4600090815260046020526040902080546001600160a01b0319166001600160a01b03909216919091179055005b63a9fbf51f60e01b6000523360045260246000fd5b506001600160a01b038116600090815260056020908152604080832033845290915290205460ff16156108df565b506001600160a01b0381163314156108d9565b3461017a57602036600319011261017a576004356109b781611006565b506000526004602052602060018060a01b0360406000205416604051908152f35b3461017a57600036600319011261017a57604051600080546109f981610c1c565b80845290600181169081156104015750600114610a205761020d836101f981850382610ba7565b60008080527f290decd9548b62a8d60345a988386fc84ba6bc95484008f6362f93160ef3e563939250905b808210610a63575090915081016020016101f9610391565b919260018160209254838588010152019101909291610a4b565b3461017a57602036600319011261017a576004359063ffffffff60e01b821680920361017a57602091632483248360e11b8114908115610abf575b5015158152f35b6380ac58cd60e01b811491508115610af1575b8115610ae0575b5083610ab8565b6301ffc9a760e01b14905083610ad9565b635b5e139f60e01b81149150610ad2565b919082518082526020808301940160005b828110610b31575050600081602094950152601f8019910116010190565b8181015186820152602001610b13565b600435906001600160a01b038216820361017a57565b602435906001600160a01b038216820361017a57565b606090600319011261017a576004356001600160a01b038116810361017a57906024356001600160a01b038116810361017a579060443590565b90601f8019910116810190811067ffffffffffffffff8211176107be57604052565b67ffffffffffffffff81116107be57601f01601f191660200190565b929192610bf182610bc9565b91610bff6040519384610ba7565b82948184528183011161017a578281602093846000960137010152565b90600182811c92168015610c4c575b6020831014610c3657565b634e487b7160e01b600052602260045260246000fd5b91607f1691610c2b565b6001600160a01b039091169190821561081f576000828152600260205260408120546001600160a01b0316938391859033151580610d54575b507fddf252ad1be2c89b69c2b068fc378daa952ba7f163c4a11628f55a4df523b3ef9082610d1f575b83815260036020526040812060018154019055848152600260205260408120846bffffffffffffffffffffffff60a01b82541617905580a46001600160a01b0316808303610d0557505050565b6364283d7b60e01b60005260045260245260445260646000fd5b600085815260046020526040902080546001600160a01b03191690558281526003602052604081208054600019019055610cb8565b915091925080610d9d575b15610d6e579084849238610c8f565b839085610d8757602491637e27328960e01b8252600452fd5b60449163177e802f60e01b825233600452602452fd5b503385148015610dcb575b80610d5f5750838152600460205260408120546001600160a01b03163314610d5f565b5084815260056020908152604080832033845290915281205460ff16610da8565b9291610df9818386610c56565b813b610e06575b50505050565b604051630a85bd0160e11b81523360048201526001600160a01b0394851660248201526044810191909152608060648201529216919060209082908190610e51906084830190610b02565b03816000865af18091600091610ef0575b5090610ebb57503d15610eb4573d610e7981610bc9565b90610e876040519283610ba7565b81523d6000602083013e5b80519081610eaf5782633250574960e11b60005260045260246000fd5b602001fd5b6060610e92565b6001600160e01b03191663757a42ff60e11b01610edc575038808080610e00565b633250574960e11b60005260045260246000fd5b6020813d602011610f32575b81610f0960209383610ba7565b81010312610f2e5751906001600160e01b031982168203610f2b575038610e62565b80fd5b5080fd5b3d9150610efc565b610f4381611006565b506000526006602052604060002060405190816000825492610f6484610c1c565b8084529360018116908115610fe45750600114610f9d575b50610f8992500382610ba7565b6000604051610f99602082610ba7565b5290565b90506000929192526020600020906000915b818310610fc8575050906020610f899282010138610f7c565b6020919350806001915483858801015201910190918392610faf565b905060209250610f8994915060ff191682840152151560051b82010138610f7c565b6000818152600260205260409020546001600160a01b0316908115611029575090565b637e27328960e01b60005260045260246000fd5b6007546001600160a01b0316330361105157565b63118cdaa760e01b6000523360045260246000fdfea2646970667358221220fc2135422e79bb29e35d814a953747db3d3af166ec644497e99ed95fdb6bd20364736f6c634300081c0033","opcodes":"PUSH1 0x80 PUSH1 0x40 MSTORE CALLVALUE PUSH2 0x395 JUMPI PUSH2 0x14C7 DUP1 CODESIZE SUB DUP1 PUSH2 0x19 DUP2 PUSH2 0x39A JUMP JUMPDEST SWAP3 DUP4 CODECOPY DUP2 ADD SWAP1 PUSH1 0x40 DUP2 DUP4 SUB SLT PUSH2 0x395 JUMPI DUP1 MLOAD PUSH1 0x1 PUSH1 0x1 PUSH1 0x40 SHL SUB DUP2 GT PUSH2 0x395 JUMPI DUP3 PUSH2 0x45 SWAP2 DUP4 ADD PUSH2 0x3BF JUMP JUMPDEST PUSH1 0x20 DUP3 ADD MLOAD SWAP1 SWAP3 SWAP1 PUSH1 0x1 PUSH1 0x1 PUSH1 0x40 SHL SUB DUP2 GT PUSH2 0x395 JUMPI PUSH2 0x65 SWAP3 ADD PUSH2 0x3BF JUMP JUMPDEST DUP2 MLOAD PUSH1 0x1 PUSH1 0x1 PUSH1 0x40 SHL SUB DUP2 GT PUSH2 0x2A2 JUMPI PUSH1 0x0 SLOAD PUSH1 0x1 DUP2 DUP2 SHR SWAP2 AND DUP1 ISZERO PUSH2 0x38B JUMPI JUMPDEST PUSH1 0x20 DUP3 LT EQ PUSH2 0x282 JUMPI PUSH1 0x1F DUP2 GT PUSH2 0x327 JUMPI JUMPDEST POP PUSH1 0x20 SWAP3 PUSH1 0x1F DUP3 GT PUSH1 0x1 EQ PUSH2 0x2C3 JUMPI SWAP3 DUP2 SWAP3 SWAP4 PUSH1 0x0 SWAP3 PUSH2 0x2B8 JUMPI JUMPDEST POP POP DUP2 PUSH1 0x1 SHL SWAP2 PUSH1 0x0 NOT SWAP1 PUSH1 0x3 SHL SHR NOT AND OR PUSH1 0x0 SSTORE JUMPDEST DUP1 MLOAD PUSH1 0x1 PUSH1 0x1 PUSH1 0x40 SHL SUB DUP2 GT PUSH2 0x2A2 JUMPI PUSH1 0x1 SLOAD PUSH1 0x1 DUP2 DUP2 SHR SWAP2 AND DUP1 ISZERO PUSH2 0x298 JUMPI JUMPDEST PUSH1 0x20 DUP3 LT EQ PUSH2 0x282 JUMPI PUSH1 0x1F DUP2 GT PUSH2 0x21D JUMPI JUMPDEST POP PUSH1 0x20 SWAP2 PUSH1 0x1F DUP3 GT PUSH1 0x1 EQ PUSH2 0x1B9 JUMPI SWAP2 DUP2 SWAP3 PUSH1 0x0 SWAP3 PUSH2 0x1AE JUMPI JUMPDEST POP POP DUP2 PUSH1 0x1 SHL SWAP2 PUSH1 0x0 NOT SWAP1 PUSH1 0x3 SHL SHR NOT AND OR PUSH1 0x1 SSTORE JUMPDEST CALLER ISZERO PUSH2 0x198 JUMPI PUSH1 0x7 DUP1 SLOAD CALLER PUSH1 0x1 PUSH1 0x1 PUSH1 0xA0 SHL SUB NOT DUP3 AND DUP2 OR SWAP1 SWAP3 SSTORE PUSH1 0x40 MLOAD SWAP2 SWAP1 PUSH1 0x1 PUSH1 0x1 PUSH1 0xA0 SHL SUB AND PUSH32 0x8BE0079C531659141344CD1FD0A4F28419497F9722A3DAAFE3B4186F6B6457E0 PUSH1 0x0 DUP1 LOG3 PUSH1 0x9 DUP1 SLOAD PUSH1 0x1 PUSH1 0x1 PUSH1 0xA0 SHL SUB NOT AND CALLER OR SWAP1 SSTORE PUSH2 0x109C SWAP1 DUP2 PUSH2 0x42B DUP3 CODECOPY RETURN JUMPDEST PUSH4 0x1E4FBDF7 PUSH1 0xE0 SHL PUSH1 0x0 MSTORE PUSH1 0x0 PUSH1 0x4 MSTORE PUSH1 0x24 PUSH1 0x0 REVERT JUMPDEST ADD MLOAD SWAP1 POP CODESIZE DUP1 PUSH2 0x116 JUMP JUMPDEST PUSH1 0x1F NOT DUP3 AND SWAP3 PUSH1 0x1 PUSH1 0x0 MSTORE DUP1 PUSH1 0x0 KECCAK256 SWAP2 PUSH1 0x0 JUMPDEST DUP6 DUP2 LT PUSH2 0x205 JUMPI POP DUP4 PUSH1 0x1 SWAP6 LT PUSH2 0x1EC JUMPI JUMPDEST POP POP POP DUP2 SHL ADD PUSH1 0x1 SSTORE PUSH2 0x12C JUMP JUMPDEST ADD MLOAD PUSH1 0x0 NOT PUSH1 0xF8 DUP5 PUSH1 0x3 SHL AND SHR NOT AND SWAP1 SSTORE CODESIZE DUP1 DUP1 PUSH2 0x1DE JUMP JUMPDEST SWAP2 SWAP3 PUSH1 0x20 PUSH1 0x1 DUP2 SWAP3 DUP7 DUP6 ADD MLOAD DUP2 SSTORE ADD SWAP5 ADD SWAP3 ADD PUSH2 0x1CC JUMP JUMPDEST PUSH1 0x1 PUSH1 0x0 MSTORE PUSH32 0xB10E2D527612073B26EECDFD717E6A320CF44B4AFAC2B0732D9FCBE2B7FA0CF6 PUSH1 0x1F DUP4 ADD PUSH1 0x5 SHR DUP2 ADD SWAP2 PUSH1 0x20 DUP5 LT PUSH2 0x278 JUMPI JUMPDEST PUSH1 0x1F ADD PUSH1 0x5 SHR ADD SWAP1 JUMPDEST DUP2 DUP2 LT PUSH2 0x26C JUMPI POP PUSH2 0xFC JUMP JUMPDEST PUSH1 0x0 DUP2 SSTORE PUSH1 0x1 ADD PUSH2 0x25F JUMP JUMPDEST SWAP1 SWAP2 POP DUP2 SWAP1 PUSH2 0x256 JUMP JUMPDEST PUSH4 0x4E487B71 PUSH1 0xE0 SHL PUSH1 0x0 MSTORE PUSH1 0x22 PUSH1 0x4 MSTORE PUSH1 0x24 PUSH1 0x0 REVERT JUMPDEST SWAP1 PUSH1 0x7F AND SWAP1 PUSH2 0xEA JUMP JUMPDEST PUSH4 0x4E487B71 PUSH1 0xE0 SHL PUSH1 0x0 MSTORE PUSH1 0x41 PUSH1 0x4 MSTORE PUSH1 0x24 PUSH1 0x0 REVERT JUMPDEST ADD MLOAD SWAP1 POP CODESIZE DUP1 PUSH2 0xB3 JUMP JUMPDEST PUSH1 0x1F NOT DUP3 AND SWAP4 PUSH1 0x0 DUP1 MSTORE DUP1 PUSH1 0x0 KECCAK256 SWAP2 PUSH1 0x0 JUMPDEST DUP7 DUP2 LT PUSH2 0x30F JUMPI POP DUP4 PUSH1 0x1 SWAP6 SWAP7 LT PUSH2 0x2F6 JUMPI JUMPDEST POP POP POP DUP2 SHL ADD PUSH1 0x0 SSTORE PUSH2 0xC9 JUMP JUMPDEST ADD MLOAD PUSH1 0x0 NOT PUSH1 0xF8 DUP5 PUSH1 0x3 SHL AND SHR NOT AND SWAP1 SSTORE CODESIZE DUP1 DUP1 PUSH2 0x2E8 JUMP JUMPDEST SWAP2 SWAP3 PUSH1 0x20 PUSH1 0x1 DUP2 SWAP3 DUP7 DUP6 ADD MLOAD DUP2 SSTORE ADD SWAP5 ADD SWAP3 ADD PUSH2 0x2D5 JUMP JUMPDEST PUSH1 0x0 DUP1 MSTORE PUSH32 0x290DECD9548B62A8D60345A988386FC84BA6BC95484008F6362F93160EF3E563 PUSH1 0x1F DUP4 ADD PUSH1 0x5 SHR DUP2 ADD SWAP2 PUSH1 0x20 DUP5 LT PUSH2 0x381 JUMPI JUMPDEST PUSH1 0x1F ADD PUSH1 0x5 SHR ADD SWAP1 JUMPDEST DUP2 DUP2 LT PUSH2 0x375 JUMPI POP PUSH2 0x98 JUMP JUMPDEST PUSH1 0x0 DUP2 SSTORE PUSH1 0x1 ADD PUSH2 0x368 JUMP JUMPDEST SWAP1 SWAP2 POP DUP2 SWAP1 PUSH2 0x35F JUMP JUMPDEST SWAP1 PUSH1 0x7F AND SWAP1 PUSH2 0x86 JUMP JUMPDEST PUSH1 0x0 DUP1 REVERT JUMPDEST PUSH1 0x40 MLOAD SWAP2 SWAP1 PUSH1 0x1F ADD PUSH1 0x1F NOT AND DUP3 ADD PUSH1 0x1 PUSH1 0x1 PUSH1 0x40 SHL SUB DUP2 GT DUP4 DUP3 LT OR PUSH2 0x2A2 JUMPI PUSH1 0x40 MSTORE JUMP JUMPDEST DUP2 PUSH1 0x1F DUP3 ADD SLT ISZERO PUSH2 0x395 JUMPI DUP1 MLOAD SWAP1 PUSH1 0x1 PUSH1 0x1 PUSH1 0x40 SHL SUB DUP3 GT PUSH2 0x2A2 JUMPI PUSH2 0x3EE PUSH1 0x1F DUP4 ADD PUSH1 0x1F NOT AND PUSH1 0x20 ADD PUSH2 0x39A JUMP JUMPDEST SWAP3 DUP3 DUP5 MSTORE PUSH1 0x20 DUP4 DUP4 ADD ADD GT PUSH2 0x395 JUMPI PUSH1 0x0 JUMPDEST DUP3 DUP2 LT PUSH2 0x415 JUMPI POP POP PUSH1 0x20 PUSH1 0x0 SWAP2 DUP4 ADD ADD MSTORE SWAP1 JUMP JUMPDEST DUP1 PUSH1 0x20 DUP1 SWAP3 DUP5 ADD ADD MLOAD DUP3 DUP3 DUP8 ADD ADD MSTORE ADD PUSH2 0x400 JUMP INVALID PUSH1 0x80 DUP1 PUSH1 0x40 MSTORE PUSH1 0x4 CALLDATASIZE LT ISZERO PUSH2 0x13 JUMPI PUSH1 0x0 DUP1 REVERT JUMPDEST PUSH1 0x0 CALLDATALOAD PUSH1 0xE0 SHR SWAP1 DUP2 PUSH4 0x1FFC9A7 EQ PUSH2 0xA7D JUMPI POP DUP1 PUSH4 0x6FDDE03 EQ PUSH2 0x9D8 JUMPI DUP1 PUSH4 0x81812FC EQ PUSH2 0x99A JUMPI DUP1 PUSH4 0x95EA7B3 EQ PUSH2 0x8AB JUMPI DUP1 PUSH4 0x23B872DD EQ PUSH2 0x894 JUMPI DUP1 PUSH4 0x42842E0E EQ PUSH2 0x86A JUMPI DUP1 PUSH4 0x4ED6A5F7 EQ PUSH2 0x55A JUMPI DUP1 PUSH4 0x6352211E EQ PUSH2 0x52A JUMPI DUP1 PUSH4 0x70A08231 EQ PUSH2 0x4D4 JUMPI DUP1 PUSH4 0x715018A6 EQ PUSH2 0x477 JUMPI DUP1 PUSH4 0x7B103999 EQ PUSH2 0x44E JUMPI DUP1 PUSH4 0x8DA5CB5B EQ PUSH2 0x425 JUMPI DUP1 PUSH4 0x95D89B41 EQ PUSH2 0x357 JUMPI DUP1 PUSH4 0xA22CB465 EQ PUSH2 0x2B6 JUMPI DUP1 PUSH4 0xA91EE0DC EQ PUSH2 0x273 JUMPI DUP1 PUSH4 0xB88D4FDE EQ PUSH2 0x211 JUMPI DUP1 PUSH4 0xC87B56DD EQ PUSH2 0x1DA JUMPI DUP1 PUSH4 0xE985E9C5 EQ PUSH2 0x17F JUMPI PUSH4 0xF2FDE38B EQ PUSH2 0xF0 JUMPI PUSH1 0x0 DUP1 REVERT JUMPDEST CALLVALUE PUSH2 0x17A JUMPI PUSH1 0x20 CALLDATASIZE PUSH1 0x3 NOT ADD SLT PUSH2 0x17A JUMPI PUSH2 0x109 PUSH2 0xB41 JUMP JUMPDEST PUSH2 0x111 PUSH2 0x103D JUMP JUMPDEST PUSH1 0x1 PUSH1 0x1 PUSH1 0xA0 SHL SUB AND DUP1 ISZERO PUSH2 0x164 JUMPI PUSH1 0x7 DUP1 SLOAD PUSH1 0x1 PUSH1 0x1 PUSH1 0xA0 SHL SUB NOT DUP2 AND DUP4 OR SWAP1 SWAP2 SSTORE PUSH1 0x1 PUSH1 0x1 PUSH1 0xA0 SHL SUB AND PUSH32 0x8BE0079C531659141344CD1FD0A4F28419497F9722A3DAAFE3B4186F6B6457E0 PUSH1 0x0 DUP1 LOG3 STOP JUMPDEST PUSH4 0x1E4FBDF7 PUSH1 0xE0 SHL PUSH1 0x0 MSTORE PUSH1 0x0 PUSH1 0x4 MSTORE PUSH1 0x24 PUSH1 0x0 REVERT JUMPDEST PUSH1 0x0 DUP1 REVERT JUMPDEST CALLVALUE PUSH2 0x17A JUMPI PUSH1 0x40 CALLDATASIZE PUSH1 0x3 NOT ADD SLT PUSH2 0x17A JUMPI PUSH2 0x198 PUSH2 0xB41 JUMP JUMPDEST PUSH2 0x1A0 PUSH2 0xB57 JUMP JUMPDEST SWAP1 PUSH1 0x1 DUP1 PUSH1 0xA0 SHL SUB AND PUSH1 0x0 MSTORE PUSH1 0x5 PUSH1 0x20 MSTORE PUSH1 0x40 PUSH1 0x0 KECCAK256 SWAP1 PUSH1 0x1 DUP1 PUSH1 0xA0 SHL SUB AND PUSH1 0x0 MSTORE PUSH1 0x20 MSTORE PUSH1 0x20 PUSH1 0xFF PUSH1 0x40 PUSH1 0x0 KECCAK256 SLOAD AND PUSH1 0x40 MLOAD SWAP1 ISZERO ISZERO DUP2 MSTORE RETURN JUMPDEST CALLVALUE PUSH2 0x17A JUMPI PUSH1 0x20 CALLDATASIZE PUSH1 0x3 NOT ADD SLT PUSH2 0x17A JUMPI PUSH2 0x20D PUSH2 0x1F9 PUSH1 0x4 CALLDATALOAD PUSH2 0xF3A JUMP JUMPDEST PUSH1 0x40 MLOAD SWAP2 DUP3 SWAP2 PUSH1 0x20 DUP4 MSTORE PUSH1 0x20 DUP4 ADD SWAP1 PUSH2 0xB02 JUMP JUMPDEST SUB SWAP1 RETURN JUMPDEST CALLVALUE PUSH2 0x17A JUMPI PUSH1 0x80 CALLDATASIZE PUSH1 0x3 NOT ADD SLT PUSH2 0x17A JUMPI PUSH2 0x22A PUSH2 0xB41 JUMP JUMPDEST PUSH2 0x232 PUSH2 0xB57 JUMP JUMPDEST PUSH1 0x64 CALLDATALOAD SWAP2 PUSH8 0xFFFFFFFFFFFFFFFF DUP4 GT PUSH2 0x17A JUMPI CALLDATASIZE PUSH1 0x23 DUP5 ADD SLT ISZERO PUSH2 0x17A JUMPI PUSH2 0x267 PUSH2 0x271 SWAP4 CALLDATASIZE SWAP1 PUSH1 0x24 DUP2 PUSH1 0x4 ADD CALLDATALOAD SWAP2 ADD PUSH2 0xBE5 JUMP JUMPDEST SWAP2 PUSH1 0x44 CALLDATALOAD SWAP2 PUSH2 0xDEC JUMP JUMPDEST STOP JUMPDEST CALLVALUE PUSH2 0x17A JUMPI PUSH1 0x20 CALLDATASIZE PUSH1 0x3 NOT ADD SLT PUSH2 0x17A JUMPI PUSH2 0x28C PUSH2 0xB41 JUMP JUMPDEST PUSH2 0x294 PUSH2 0x103D JUMP JUMPDEST PUSH1 0x9 DUP1 SLOAD PUSH1 0x1 PUSH1 0x1 PUSH1 0xA0 SHL SUB NOT AND PUSH1 0x1 PUSH1 0x1 PUSH1 0xA0 SHL SUB SWAP3 SWAP1 SWAP3 AND SWAP2 SWAP1 SWAP2 OR SWAP1 SSTORE STOP JUMPDEST CALLVALUE PUSH2 0x17A JUMPI PUSH1 0x40 CALLDATASIZE PUSH1 0x3 NOT ADD SLT PUSH2 0x17A JUMPI PUSH2 0x2CF PUSH2 0xB41 JUMP JUMPDEST PUSH1 0x24 CALLDATALOAD SWAP1 DUP2 ISZERO ISZERO DUP1 SWAP3 SUB PUSH2 0x17A JUMPI PUSH1 0x1 PUSH1 0x1 PUSH1 0xA0 SHL SUB AND SWAP1 DUP2 ISZERO PUSH2 0x342 JUMPI CALLER PUSH1 0x0 MSTORE PUSH1 0x5 PUSH1 0x20 MSTORE PUSH1 0x40 PUSH1 0x0 KECCAK256 DUP3 PUSH1 0x0 MSTORE PUSH1 0x20 MSTORE PUSH1 0x40 PUSH1 0x0 KECCAK256 PUSH1 0xFF NOT DUP2 SLOAD AND PUSH1 0xFF DUP4 AND OR SWAP1 SSTORE PUSH1 0x40 MLOAD SWAP1 DUP2 MSTORE PUSH32 0x17307EAB39AB6107E8899845AD3D59BD9653F200F220920489CA2B5937696C31 PUSH1 0x20 CALLER SWAP3 LOG3 STOP JUMPDEST POP PUSH4 0xB611743 PUSH1 0xE3 SHL PUSH1 0x0 MSTORE PUSH1 0x4 MSTORE PUSH1 0x24 PUSH1 0x0 REVERT JUMPDEST CALLVALUE PUSH2 0x17A JUMPI PUSH1 0x0 CALLDATASIZE PUSH1 0x3 NOT ADD SLT PUSH2 0x17A JUMPI PUSH1 0x40 MLOAD PUSH1 0x0 PUSH1 0x1 SLOAD PUSH2 0x379 DUP2 PUSH2 0xC1C JUMP JUMPDEST DUP1 DUP5 MSTORE SWAP1 PUSH1 0x1 DUP2 AND SWAP1 DUP2 ISZERO PUSH2 0x401 JUMPI POP PUSH1 0x1 EQ PUSH2 0x3A1 JUMPI JUMPDEST PUSH2 0x20D DUP4 PUSH2 0x1F9 DUP2 DUP6 SUB DUP3 PUSH2 0xBA7 JUMP JUMPDEST SWAP2 SWAP1 POP PUSH1 0x1 PUSH1 0x0 MSTORE PUSH32 0xB10E2D527612073B26EECDFD717E6A320CF44B4AFAC2B0732D9FCBE2B7FA0CF6 SWAP2 PUSH1 0x0 SWAP1 JUMPDEST DUP1 DUP3 LT PUSH2 0x3E7 JUMPI POP SWAP1 SWAP2 POP DUP2 ADD PUSH1 0x20 ADD PUSH2 0x1F9 PUSH2 0x391 JUMP JUMPDEST SWAP2 SWAP3 PUSH1 0x1 DUP2 PUSH1 0x20 SWAP3 SLOAD DUP4 DUP6 DUP9 ADD ADD MSTORE ADD SWAP2 ADD SWAP1 SWAP3 SWAP2 PUSH2 0x3CF JUMP JUMPDEST PUSH1 0xFF NOT AND PUSH1 0x20 DUP1 DUP7 ADD SWAP2 SWAP1 SWAP2 MSTORE SWAP2 ISZERO ISZERO PUSH1 0x5 SHL DUP5 ADD SWAP1 SWAP2 ADD SWAP2 POP PUSH2 0x1F9 SWAP1 POP PUSH2 0x391 JUMP JUMPDEST CALLVALUE PUSH2 0x17A JUMPI PUSH1 0x0 CALLDATASIZE PUSH1 0x3 NOT ADD SLT PUSH2 0x17A JUMPI PUSH1 0x7 SLOAD PUSH1 0x40 MLOAD PUSH1 0x1 PUSH1 0x1 PUSH1 0xA0 SHL SUB SWAP1 SWAP2 AND DUP2 MSTORE PUSH1 0x20 SWAP1 RETURN JUMPDEST CALLVALUE PUSH2 0x17A JUMPI PUSH1 0x0 CALLDATASIZE PUSH1 0x3 NOT ADD SLT PUSH2 0x17A JUMPI PUSH1 0x9 SLOAD PUSH1 0x40 MLOAD PUSH1 0x1 PUSH1 0x1 PUSH1 0xA0 SHL SUB SWAP1 SWAP2 AND DUP2 MSTORE PUSH1 0x20 SWAP1 RETURN JUMPDEST CALLVALUE PUSH2 0x17A JUMPI PUSH1 0x0 CALLDATASIZE PUSH1 0x3 NOT ADD SLT PUSH2 0x17A JUMPI PUSH2 0x490 PUSH2 0x103D JUMP JUMPDEST PUSH1 0x7 DUP1 SLOAD PUSH1 0x1 PUSH1 0x1 PUSH1 0xA0 SHL SUB NOT DUP2 AND SWAP1 SWAP2 SSTORE PUSH1 0x0 SWAP1 PUSH1 0x1 PUSH1 0x1 PUSH1 0xA0 SHL SUB AND PUSH32 0x8BE0079C531659141344CD1FD0A4F28419497F9722A3DAAFE3B4186F6B6457E0 DUP3 DUP1 LOG3 STOP JUMPDEST CALLVALUE PUSH2 0x17A JUMPI PUSH1 0x20 CALLDATASIZE PUSH1 0x3 NOT ADD SLT PUSH2 0x17A JUMPI PUSH1 0x1 PUSH1 0x1 PUSH1 0xA0 SHL SUB PUSH2 0x4F5 PUSH2 0xB41 JUMP JUMPDEST AND DUP1 ISZERO PUSH2 0x514 JUMPI PUSH1 0x0 MSTORE PUSH1 0x3 PUSH1 0x20 MSTORE PUSH1 0x20 PUSH1 0x40 PUSH1 0x0 KECCAK256 SLOAD PUSH1 0x40 MLOAD SWAP1 DUP2 MSTORE RETURN JUMPDEST PUSH4 0x22718AD9 PUSH1 0xE2 SHL PUSH1 0x0 MSTORE PUSH1 0x0 PUSH1 0x4 MSTORE PUSH1 0x24 PUSH1 0x0 REVERT JUMPDEST CALLVALUE PUSH2 0x17A JUMPI PUSH1 0x20 CALLDATASIZE PUSH1 0x3 NOT ADD SLT PUSH2 0x17A JUMPI PUSH1 0x20 PUSH2 0x548 PUSH1 0x4 CALLDATALOAD PUSH2 0x1006 JUMP JUMPDEST PUSH1 0x40 MLOAD PUSH1 0x1 PUSH1 0x1 PUSH1 0xA0 SHL SUB SWAP1 SWAP2 AND DUP2 MSTORE RETURN JUMPDEST CALLVALUE PUSH2 0x17A JUMPI PUSH1 0x40 CALLDATASIZE PUSH1 0x3 NOT ADD SLT PUSH2 0x17A JUMPI PUSH2 0x573 PUSH2 0xB41 JUMP JUMPDEST PUSH1 0x24 CALLDATALOAD PUSH8 0xFFFFFFFFFFFFFFFF DUP2 GT PUSH2 0x17A JUMPI CALLDATASIZE PUSH1 0x23 DUP3 ADD SLT ISZERO PUSH2 0x17A JUMPI DUP1 PUSH1 0x4 ADD CALLDATALOAD SWAP1 PUSH8 0xFFFFFFFFFFFFFFFF DUP3 GT PUSH2 0x17A JUMPI CALLDATASIZE PUSH1 0x24 DUP4 DUP4 ADD ADD GT PUSH2 0x17A JUMPI PUSH1 0x9 SLOAD PUSH1 0x1 PUSH1 0x1 PUSH1 0xA0 SHL SUB AND CALLER SUB PUSH2 0x835 JUMPI PUSH1 0x8 DUP1 SLOAD PUSH1 0x1 ADD SWAP1 DUP2 SWAP1 SSTORE SWAP3 PUSH1 0x1 PUSH1 0x1 PUSH1 0xA0 SHL SUB AND DUP1 ISZERO PUSH2 0x81F JUMPI PUSH1 0x0 SWAP1 DUP5 DUP3 MSTORE PUSH1 0x2 PUSH1 0x20 MSTORE DUP5 PUSH1 0x1 DUP1 PUSH1 0xA0 SHL SUB PUSH1 0x40 DUP5 KECCAK256 SLOAD AND SWAP2 DUP3 PUSH32 0xDDF252AD1BE2C89B69C2B068FC378DAA952BA7F163C4A11628F55A4DF523B3EF DUP2 ISZERO ISZERO SWAP6 DUP7 PUSH2 0x7EA JUMPI JUMPDEST DUP4 DUP2 MSTORE PUSH1 0x3 PUSH1 0x20 MSTORE PUSH1 0x40 DUP2 KECCAK256 PUSH1 0x1 DUP2 SLOAD ADD SWAP1 SSTORE DUP5 DUP2 MSTORE PUSH1 0x2 PUSH1 0x20 MSTORE PUSH1 0x40 DUP2 KECCAK256 DUP5 PUSH12 0xFFFFFFFFFFFFFFFFFFFFFFFF PUSH1 0xA0 SHL DUP3 SLOAD AND OR SWAP1 SSTORE DUP1 LOG4 POP PUSH2 0x7D4 JUMPI PUSH2 0x66F SWAP2 PUSH1 0x24 CALLDATASIZE SWAP3 ADD PUSH2 0xBE5 JUMP JUMPDEST DUP2 PUSH1 0x0 MSTORE PUSH1 0x6 PUSH1 0x20 MSTORE PUSH1 0x40 PUSH1 0x0 KECCAK256 SWAP2 DUP2 MLOAD SWAP3 PUSH8 0xFFFFFFFFFFFFFFFF DUP5 GT PUSH2 0x7BE JUMPI PUSH2 0x69A DUP2 SLOAD PUSH2 0xC1C JUMP JUMPDEST SWAP4 PUSH1 0x1F DUP6 GT PUSH2 0x776 JUMPI JUMPDEST PUSH1 0x20 SWAP5 POP DUP5 SWAP4 PUSH1 0x1F DUP3 GT PUSH1 0x1 EQ PUSH2 0x713 JUMPI SWAP4 DUP2 SWAP3 SWAP4 SWAP5 PUSH1 0x0 SWAP3 PUSH2 0x708 JUMPI JUMPDEST POP POP DUP2 PUSH1 0x1 SHL SWAP2 PUSH1 0x0 NOT SWAP1 PUSH1 0x3 SHL SHR NOT AND OR SWAP1 SSTORE JUMPDEST PUSH32 0xF8E1A15ABA9398E019F0B49DF1A4FDE98EE17AE345CB5F6B5E2C27F5033E8CE7 DUP3 PUSH1 0x40 MLOAD DUP4 DUP2 MSTORE LOG1 PUSH1 0x40 MLOAD SWAP1 DUP2 MSTORE RETURN JUMPDEST ADD MLOAD SWAP1 POP DUP6 DUP1 PUSH2 0x6C2 JUMP JUMPDEST PUSH1 0x1F NOT DUP3 AND SWAP5 DUP4 PUSH1 0x0 MSTORE DUP1 PUSH1 0x0 KECCAK256 SWAP2 PUSH1 0x0 JUMPDEST DUP8 DUP2 LT PUSH2 0x75F JUMPI POP DUP4 PUSH1 0x1 SWAP6 SWAP7 SWAP8 LT PUSH2 0x746 JUMPI JUMPDEST POP POP POP DUP2 SHL ADD SWAP1 SSTORE PUSH2 0x6D7 JUMP JUMPDEST ADD MLOAD PUSH1 0x0 NOT PUSH1 0xF8 DUP5 PUSH1 0x3 SHL AND SHR NOT AND SWAP1 SSTORE DUP6 DUP1 DUP1 PUSH2 0x739 JUMP JUMPDEST SWAP2 SWAP3 DUP9 PUSH1 0x1 DUP2 SWAP3 DUP7 DUP6 ADD MLOAD DUP2 SSTORE ADD SWAP5 ADD SWAP3 ADD PUSH2 0x725 JUMP JUMPDEST DUP2 PUSH1 0x0 MSTORE PUSH1 0x20 PUSH1 0x0 KECCAK256 PUSH1 0x1F DUP3 ADD PUSH1 0x5 SHR DUP2 ADD SWAP6 PUSH1 0x20 DUP4 LT PUSH2 0x7B4 JUMPI JUMPDEST PUSH1 0x1F ADD PUSH1 0x5 SHR ADD SWAP5 JUMPDEST DUP6 DUP2 LT PUSH2 0x7A8 JUMPI POP PUSH2 0x6A4 JUMP JUMPDEST PUSH1 0x0 DUP2 SSTORE PUSH1 0x1 ADD PUSH2 0x79B JUMP JUMPDEST SWAP1 SWAP6 POP DUP6 SWAP1 PUSH2 0x792 JUMP JUMPDEST PUSH4 0x4E487B71 PUSH1 0xE0 SHL PUSH1 0x0 MSTORE PUSH1 0x41 PUSH1 0x4 MSTORE PUSH1 0x24 PUSH1 0x0 REVERT JUMPDEST PUSH4 0x39E35637 PUSH1 0xE1 SHL PUSH1 0x0 MSTORE PUSH1 0x0 PUSH1 0x4 MSTORE PUSH1 0x24 PUSH1 0x0 REVERT JUMPDEST PUSH1 0x0 DUP6 DUP2 MSTORE PUSH1 0x4 PUSH1 0x20 MSTORE PUSH1 0x40 SWAP1 KECCAK256 DUP1 SLOAD PUSH1 0x1 PUSH1 0x1 PUSH1 0xA0 SHL SUB NOT AND SWAP1 SSTORE DUP3 DUP2 MSTORE PUSH1 0x3 PUSH1 0x20 MSTORE PUSH1 0x40 DUP2 KECCAK256 DUP1 SLOAD PUSH1 0x0 NOT ADD SWAP1 SSTORE PUSH2 0x624 JUMP JUMPDEST PUSH4 0x32505749 PUSH1 0xE1 SHL PUSH1 0x0 MSTORE PUSH1 0x0 PUSH1 0x4 MSTORE PUSH1 0x24 PUSH1 0x0 REVERT JUMPDEST PUSH1 0x40 MLOAD PUSH3 0x461BCD PUSH1 0xE5 SHL DUP2 MSTORE PUSH1 0x20 PUSH1 0x4 DUP3 ADD MSTORE PUSH1 0xD PUSH1 0x24 DUP3 ADD MSTORE PUSH13 0x4F6E6C79207265676973747279 PUSH1 0x98 SHL PUSH1 0x44 DUP3 ADD MSTORE PUSH1 0x64 SWAP1 REVERT JUMPDEST CALLVALUE PUSH2 0x17A JUMPI PUSH2 0x271 PUSH2 0x87B CALLDATASIZE PUSH2 0xB6D JUMP JUMPDEST SWAP1 PUSH1 0x40 MLOAD SWAP3 PUSH2 0x88B PUSH1 0x20 DUP6 PUSH2 0xBA7 JUMP JUMPDEST PUSH1 0x0 DUP5 MSTORE PUSH2 0xDEC JUMP JUMPDEST CALLVALUE PUSH2 0x17A JUMPI PUSH2 0x271 PUSH2 0x8A5 CALLDATASIZE PUSH2 0xB6D JUMP JUMPDEST SWAP2 PUSH2 0xC56 JUMP JUMPDEST CALLVALUE PUSH2 0x17A JUMPI PUSH1 0x40 CALLDATASIZE PUSH1 0x3 NOT ADD SLT PUSH2 0x17A JUMPI PUSH2 0x8C4 PUSH2 0xB41 JUMP JUMPDEST PUSH1 0x24 CALLDATALOAD PUSH2 0x8D0 DUP2 PUSH2 0x1006 JUMP JUMPDEST CALLER ISZERO ISZERO DUP1 PUSH2 0x987 JUMPI JUMPDEST DUP1 PUSH2 0x959 JUMPI JUMPDEST PUSH2 0x944 JUMPI DUP2 SWAP1 PUSH1 0x1 PUSH1 0x1 PUSH1 0xA0 SHL SUB DUP5 DUP2 AND SWAP2 AND PUSH32 0x8C5BE1E5EBEC7D5BD14F71427D1E84F3DD0314C0F7B2291E5B200AC8C7C3B925 PUSH1 0x0 DUP1 LOG4 PUSH1 0x0 SWAP1 DUP2 MSTORE PUSH1 0x4 PUSH1 0x20 MSTORE PUSH1 0x40 SWAP1 KECCAK256 DUP1 SLOAD PUSH1 0x1 PUSH1 0x1 PUSH1 0xA0 SHL SUB NOT AND PUSH1 0x1 PUSH1 0x1 PUSH1 0xA0 SHL SUB SWAP1 SWAP3 AND SWAP2 SWAP1 SWAP2 OR SWAP1 SSTORE STOP JUMPDEST PUSH4 0xA9FBF51F PUSH1 0xE0 SHL PUSH1 0x0 MSTORE CALLER PUSH1 0x4 MSTORE PUSH1 0x24 PUSH1 0x0 REVERT JUMPDEST POP PUSH1 0x1 PUSH1 0x1 PUSH1 0xA0 SHL SUB DUP2 AND PUSH1 0x0 SWAP1 DUP2 MSTORE PUSH1 0x5 PUSH1 0x20 SWAP1 DUP2 MSTORE PUSH1 0x40 DUP1 DUP4 KECCAK256 CALLER DUP5 MSTORE SWAP1 SWAP2 MSTORE SWAP1 KECCAK256 SLOAD PUSH1 0xFF AND ISZERO PUSH2 0x8DF JUMP JUMPDEST POP PUSH1 0x1 PUSH1 0x1 PUSH1 0xA0 SHL SUB DUP2 AND CALLER EQ ISZERO PUSH2 0x8D9 JUMP JUMPDEST CALLVALUE PUSH2 0x17A JUMPI PUSH1 0x20 CALLDATASIZE PUSH1 0x3 NOT ADD SLT PUSH2 0x17A JUMPI PUSH1 0x4 CALLDATALOAD PUSH2 0x9B7 DUP2 PUSH2 0x1006 JUMP JUMPDEST POP PUSH1 0x0 MSTORE PUSH1 0x4 PUSH1 0x20 MSTORE PUSH1 0x20 PUSH1 0x1 DUP1 PUSH1 0xA0 SHL SUB PUSH1 0x40 PUSH1 0x0 KECCAK256 SLOAD AND PUSH1 0x40 MLOAD SWAP1 DUP2 MSTORE RETURN JUMPDEST CALLVALUE PUSH2 0x17A JUMPI PUSH1 0x0 CALLDATASIZE PUSH1 0x3 NOT ADD SLT PUSH2 0x17A JUMPI PUSH1 0x40 MLOAD PUSH1 0x0 DUP1 SLOAD PUSH2 0x9F9 DUP2 PUSH2 0xC1C JUMP JUMPDEST DUP1 DUP5 MSTORE SWAP1 PUSH1 0x1 DUP2 AND SWAP1 DUP2 ISZERO PUSH2 0x401 JUMPI POP PUSH1 0x1 EQ PUSH2 0xA20 JUMPI PUSH2 0x20D DUP4 PUSH2 0x1F9 DUP2 DUP6 SUB DUP3 PUSH2 0xBA7 JUMP JUMPDEST PUSH1 0x0 DUP1 DUP1 MSTORE PUSH32 0x290DECD9548B62A8D60345A988386FC84BA6BC95484008F6362F93160EF3E563 SWAP4 SWAP3 POP SWAP1 JUMPDEST DUP1 DUP3 LT PUSH2 0xA63 JUMPI POP SWAP1 SWAP2 POP DUP2 ADD PUSH1 0x20 ADD PUSH2 0x1F9 PUSH2 0x391 JUMP JUMPDEST SWAP2 SWAP3 PUSH1 0x1 DUP2 PUSH1 0x20 SWAP3 SLOAD DUP4 DUP6 DUP9 ADD ADD MSTORE ADD SWAP2 ADD SWAP1 SWAP3 SWAP2 PUSH2 0xA4B JUMP JUMPDEST CALLVALUE PUSH2 0x17A JUMPI PUSH1 0x20 CALLDATASIZE PUSH1 0x3 NOT ADD SLT PUSH2 0x17A JUMPI PUSH1 0x4 CALLDATALOAD SWAP1 PUSH4 0xFFFFFFFF PUSH1 0xE0 SHL DUP3 AND DUP1 SWAP3 SUB PUSH2 0x17A JUMPI PUSH1 0x20 SWAP2 PUSH4 0x24832483 PUSH1 0xE1 SHL DUP2 EQ SWAP1 DUP2 ISZERO PUSH2 0xABF JUMPI JUMPDEST POP ISZERO ISZERO DUP2 MSTORE RETURN JUMPDEST PUSH4 0x80AC58CD PUSH1 0xE0 SHL DUP2 EQ SWAP2 POP DUP2 ISZERO PUSH2 0xAF1 JUMPI JUMPDEST DUP2 ISZERO PUSH2 0xAE0 JUMPI JUMPDEST POP DUP4 PUSH2 0xAB8 JUMP JUMPDEST PUSH4 0x1FFC9A7 PUSH1 0xE0 SHL EQ SWAP1 POP DUP4 PUSH2 0xAD9 JUMP JUMPDEST PUSH4 0x5B5E139F PUSH1 0xE0 SHL DUP2 EQ SWAP2 POP PUSH2 0xAD2 JUMP JUMPDEST SWAP2 SWAP1 DUP3 MLOAD DUP1 DUP3 MSTORE PUSH1 0x20 DUP1 DUP4 ADD SWAP5 ADD PUSH1 0x0 JUMPDEST DUP3 DUP2 LT PUSH2 0xB31 JUMPI POP POP PUSH1 0x0 DUP2 PUSH1 0x20 SWAP5 SWAP6 ADD MSTORE PUSH1 0x1F DUP1 NOT SWAP2 ADD AND ADD ADD SWAP1 JUMP JUMPDEST DUP2 DUP2 ADD MLOAD DUP7 DUP3 ADD MSTORE PUSH1 0x20 ADD PUSH2 0xB13 JUMP JUMPDEST PUSH1 0x4 CALLDATALOAD SWAP1 PUSH1 0x1 PUSH1 0x1 PUSH1 0xA0 SHL SUB DUP3 AND DUP3 SUB PUSH2 0x17A JUMPI JUMP JUMPDEST PUSH1 0x24 CALLDATALOAD SWAP1 PUSH1 0x1 PUSH1 0x1 PUSH1 0xA0 SHL SUB DUP3 AND DUP3 SUB PUSH2 0x17A JUMPI JUMP JUMPDEST PUSH1 0x60 SWAP1 PUSH1 0x3 NOT ADD SLT PUSH2 0x17A JUMPI PUSH1 0x4 CALLDATALOAD PUSH1 0x1 PUSH1 0x1 PUSH1 0xA0 SHL SUB DUP2 AND DUP2 SUB PUSH2 0x17A JUMPI SWAP1 PUSH1 0x24 CALLDATALOAD PUSH1 0x1 PUSH1 0x1 PUSH1 0xA0 SHL SUB DUP2 AND DUP2 SUB PUSH2 0x17A JUMPI SWAP1 PUSH1 0x44 CALLDATALOAD SWAP1 JUMP JUMPDEST SWAP1 PUSH1 0x1F DUP1 NOT SWAP2 ADD AND DUP2 ADD SWAP1 DUP2 LT PUSH8 0xFFFFFFFFFFFFFFFF DUP3 GT OR PUSH2 0x7BE JUMPI PUSH1 0x40 MSTORE JUMP JUMPDEST PUSH8 0xFFFFFFFFFFFFFFFF DUP2 GT PUSH2 0x7BE JUMPI PUSH1 0x1F ADD PUSH1 0x1F NOT AND PUSH1 0x20 ADD SWAP1 JUMP JUMPDEST SWAP3 SWAP2 SWAP3 PUSH2 0xBF1 DUP3 PUSH2 0xBC9 JUMP JUMPDEST SWAP2 PUSH2 0xBFF PUSH1 0x40 MLOAD SWAP4 DUP5 PUSH2 0xBA7 JUMP JUMPDEST DUP3 SWAP5 DUP2 DUP5 MSTORE DUP2 DUP4 ADD GT PUSH2 0x17A JUMPI DUP3 DUP2 PUSH1 0x20 SWAP4 DUP5 PUSH1 0x0 SWAP7 ADD CALLDATACOPY ADD ADD MSTORE JUMP JUMPDEST SWAP1 PUSH1 0x1 DUP3 DUP2 SHR SWAP3 AND DUP1 ISZERO PUSH2 0xC4C JUMPI JUMPDEST PUSH1 0x20 DUP4 LT EQ PUSH2 0xC36 JUMPI JUMP JUMPDEST PUSH4 0x4E487B71 PUSH1 0xE0 SHL PUSH1 0x0 MSTORE PUSH1 0x22 PUSH1 0x4 MSTORE PUSH1 0x24 PUSH1 0x0 REVERT JUMPDEST SWAP2 PUSH1 0x7F AND SWAP2 PUSH2 0xC2B JUMP JUMPDEST PUSH1 0x1 PUSH1 0x1 PUSH1 0xA0 SHL SUB SWAP1 SWAP2 AND SWAP2 SWAP1 DUP3 ISZERO PUSH2 0x81F JUMPI PUSH1 0x0 DUP3 DUP2 MSTORE PUSH1 0x2 PUSH1 0x20 MSTORE PUSH1 0x40 DUP2 KECCAK256 SLOAD PUSH1 0x1 PUSH1 0x1 PUSH1 0xA0 SHL SUB AND SWAP4 DUP4 SWAP2 DUP6 SWAP1 CALLER ISZERO ISZERO DUP1 PUSH2 0xD54 JUMPI JUMPDEST POP PUSH32 0xDDF252AD1BE2C89B69C2B068FC378DAA952BA7F163C4A11628F55A4DF523B3EF SWAP1 DUP3 PUSH2 0xD1F JUMPI JUMPDEST DUP4 DUP2 MSTORE PUSH1 0x3 PUSH1 0x20 MSTORE PUSH1 0x40 DUP2 KECCAK256 PUSH1 0x1 DUP2 SLOAD ADD SWAP1 SSTORE DUP5 DUP2 MSTORE PUSH1 0x2 PUSH1 0x20 MSTORE PUSH1 0x40 DUP2 KECCAK256 DUP5 PUSH12 0xFFFFFFFFFFFFFFFFFFFFFFFF PUSH1 0xA0 SHL DUP3 SLOAD AND OR SWAP1 SSTORE DUP1 LOG4 PUSH1 0x1 PUSH1 0x1 PUSH1 0xA0 SHL SUB AND DUP1 DUP4 SUB PUSH2 0xD05 JUMPI POP POP POP JUMP JUMPDEST PUSH4 0x64283D7B PUSH1 0xE0 SHL PUSH1 0x0 MSTORE PUSH1 0x4 MSTORE PUSH1 0x24 MSTORE PUSH1 0x44 MSTORE PUSH1 0x64 PUSH1 0x0 REVERT JUMPDEST PUSH1 0x0 DUP6 DUP2 MSTORE PUSH1 0x4 PUSH1 0x20 MSTORE PUSH1 0x40 SWAP1 KECCAK256 DUP1 SLOAD PUSH1 0x1 PUSH1 0x1 PUSH1 0xA0 SHL SUB NOT AND SWAP1 SSTORE DUP3 DUP2 MSTORE PUSH1 0x3 PUSH1 0x20 MSTORE PUSH1 0x40 DUP2 KECCAK256 DUP1 SLOAD PUSH1 0x0 NOT ADD SWAP1 SSTORE PUSH2 0xCB8 JUMP JUMPDEST SWAP2 POP SWAP2 SWAP3 POP DUP1 PUSH2 0xD9D JUMPI JUMPDEST ISZERO PUSH2 0xD6E JUMPI SWAP1 DUP5 DUP5 SWAP3 CODESIZE PUSH2 0xC8F JUMP JUMPDEST DUP4 SWAP1 DUP6 PUSH2 0xD87 JUMPI PUSH1 0x24 SWAP2 PUSH4 0x7E273289 PUSH1 0xE0 SHL DUP3 MSTORE PUSH1 0x4 MSTORE REVERT JUMPDEST PUSH1 0x44 SWAP2 PUSH4 0x177E802F PUSH1 0xE0 SHL DUP3 MSTORE CALLER PUSH1 0x4 MSTORE PUSH1 0x24 MSTORE REVERT JUMPDEST POP CALLER DUP6 EQ DUP1 ISZERO PUSH2 0xDCB JUMPI JUMPDEST DUP1 PUSH2 0xD5F JUMPI POP DUP4 DUP2 MSTORE PUSH1 0x4 PUSH1 0x20 MSTORE PUSH1 0x40 DUP2 KECCAK256 SLOAD PUSH1 0x1 PUSH1 0x1 PUSH1 0xA0 SHL SUB AND CALLER EQ PUSH2 0xD5F JUMP JUMPDEST POP DUP5 DUP2 MSTORE PUSH1 0x5 PUSH1 0x20 SWAP1 DUP2 MSTORE PUSH1 0x40 DUP1 DUP4 KECCAK256 CALLER DUP5 MSTORE SWAP1 SWAP2 MSTORE DUP2 KECCAK256 SLOAD PUSH1 0xFF AND PUSH2 0xDA8 JUMP JUMPDEST SWAP3 SWAP2 PUSH2 0xDF9 DUP2 DUP4 DUP7 PUSH2 0xC56 JUMP JUMPDEST DUP2 EXTCODESIZE PUSH2 0xE06 JUMPI JUMPDEST POP POP POP POP JUMP JUMPDEST PUSH1 0x40 MLOAD PUSH4 0xA85BD01 PUSH1 0xE1 SHL DUP2 MSTORE CALLER PUSH1 0x4 DUP3 ADD MSTORE PUSH1 0x1 PUSH1 0x1 PUSH1 0xA0 SHL SUB SWAP5 DUP6 AND PUSH1 0x24 DUP3 ADD MSTORE PUSH1 0x44 DUP2 ADD SWAP2 SWAP1 SWAP2 MSTORE PUSH1 0x80 PUSH1 0x64 DUP3 ADD MSTORE SWAP3 AND SWAP2 SWAP1 PUSH1 0x20 SWAP1 DUP3 SWAP1 DUP2 SWAP1 PUSH2 0xE51 SWAP1 PUSH1 0x84 DUP4 ADD SWAP1 PUSH2 0xB02 JUMP JUMPDEST SUB DUP2 PUSH1 0x0 DUP7 GAS CALL DUP1 SWAP2 PUSH1 0x0 SWAP2 PUSH2 0xEF0 JUMPI JUMPDEST POP SWAP1 PUSH2 0xEBB JUMPI POP RETURNDATASIZE ISZERO PUSH2 0xEB4 JUMPI RETURNDATASIZE PUSH2 0xE79 DUP2 PUSH2 0xBC9 JUMP JUMPDEST SWAP1 PUSH2 0xE87 PUSH1 0x40 MLOAD SWAP3 DUP4 PUSH2 0xBA7 JUMP JUMPDEST DUP2 MSTORE RETURNDATASIZE PUSH1 0x0 PUSH1 0x20 DUP4 ADD RETURNDATACOPY JUMPDEST DUP1 MLOAD SWAP1 DUP2 PUSH2 0xEAF JUMPI DUP3 PUSH4 0x32505749 PUSH1 0xE1 SHL PUSH1 0x0 MSTORE PUSH1 0x4 MSTORE PUSH1 0x24 PUSH1 0x0 REVERT JUMPDEST PUSH1 0x20 ADD REVERT JUMPDEST PUSH1 0x60 PUSH2 0xE92 JUMP JUMPDEST PUSH1 0x1 PUSH1 0x1 PUSH1 0xE0 SHL SUB NOT AND PUSH4 0x757A42FF PUSH1 0xE1 SHL ADD PUSH2 0xEDC JUMPI POP CODESIZE DUP1 DUP1 DUP1 PUSH2 0xE00 JUMP JUMPDEST PUSH4 0x32505749 PUSH1 0xE1 SHL PUSH1 0x0 MSTORE PUSH1 0x4 MSTORE PUSH1 0x24 PUSH1 0x0 REVERT JUMPDEST PUSH1 0x20 DUP2 RETURNDATASIZE PUSH1 0x20 GT PUSH2 0xF32 JUMPI JUMPDEST DUP2 PUSH2 0xF09 PUSH1 0x20 SWAP4 DUP4 PUSH2 0xBA7 JUMP JUMPDEST DUP2 ADD SUB SLT PUSH2 0xF2E JUMPI MLOAD SWAP1 PUSH1 0x1 PUSH1 0x1 PUSH1 0xE0 SHL SUB NOT DUP3 AND DUP3 SUB PUSH2 0xF2B JUMPI POP CODESIZE PUSH2 0xE62 JUMP JUMPDEST DUP1 REVERT JUMPDEST POP DUP1 REVERT JUMPDEST RETURNDATASIZE SWAP2 POP PUSH2 0xEFC JUMP JUMPDEST PUSH2 0xF43 DUP2 PUSH2 0x1006 JUMP JUMPDEST POP PUSH1 0x0 MSTORE PUSH1 0x6 PUSH1 0x20 MSTORE PUSH1 0x40 PUSH1 0x0 KECCAK256 PUSH1 0x40 MLOAD SWAP1 DUP2 PUSH1 0x0 DUP3 SLOAD SWAP3 PUSH2 0xF64 DUP5 PUSH2 0xC1C JUMP JUMPDEST DUP1 DUP5 MSTORE SWAP4 PUSH1 0x1 DUP2 AND SWAP1 DUP2 ISZERO PUSH2 0xFE4 JUMPI POP PUSH1 0x1 EQ PUSH2 0xF9D JUMPI JUMPDEST POP PUSH2 0xF89 SWAP3 POP SUB DUP3 PUSH2 0xBA7 JUMP JUMPDEST PUSH1 0x0 PUSH1 0x40 MLOAD PUSH2 0xF99 PUSH1 0x20 DUP3 PUSH2 0xBA7 JUMP JUMPDEST MSTORE SWAP1 JUMP JUMPDEST SWAP1 POP PUSH1 0x0 SWAP3 SWAP2 SWAP3 MSTORE PUSH1 0x20 PUSH1 0x0 KECCAK256 SWAP1 PUSH1 0x0 SWAP2 JUMPDEST DUP2 DUP4 LT PUSH2 0xFC8 JUMPI POP POP SWAP1 PUSH1 0x20 PUSH2 0xF89 SWAP3 DUP3 ADD ADD CODESIZE PUSH2 0xF7C JUMP JUMPDEST PUSH1 0x20 SWAP2 SWAP4 POP DUP1 PUSH1 0x1 SWAP2 SLOAD DUP4 DUP6 DUP9 ADD ADD MSTORE ADD SWAP2 ADD SWAP1 SWAP2 DUP4 SWAP3 PUSH2 0xFAF JUMP JUMPDEST SWAP1 POP PUSH1 0x20 SWAP3 POP PUSH2 0xF89 SWAP5 SWAP2 POP PUSH1 0xFF NOT AND DUP3 DUP5 ADD MSTORE ISZERO ISZERO PUSH1 0x5 SHL DUP3 ADD ADD CODESIZE PUSH2 0xF7C JUMP JUMPDEST PUSH1 0x0 DUP2 DUP2 MSTORE PUSH1 0x2 PUSH1 0x20 MSTORE PUSH1 0x40 SWAP1 KECCAK256 SLOAD PUSH1 0x1 PUSH1 0x1 PUSH1 0xA0 SHL SUB AND SWAP1 DUP2 ISZERO PUSH2 0x1029 JUMPI POP SWAP1 JUMP JUMPDEST PUSH4 0x7E273289 PUSH1 0xE0 SHL PUSH1 0x0 MSTORE PUSH1 0x4 MSTORE PUSH1 0x24 PUSH1 0x0 REVERT JUMPDEST PUSH1 0x7 SLOAD PUSH1 0x1 PUSH1 0x1 PUSH1 0xA0 SHL SUB AND CALLER SUB PUSH2 0x1051 JUMPI JUMP JUMPDEST PUSH4 0x118CDAA7 PUSH1 0xE0 SHL PUSH1 0x0 MSTORE CALLER PUSH1 0x4 MSTORE PUSH1 0x24 PUSH1 0x0 REVERT INVALID LOG2 PUSH5 0x6970667358 0x22 SLT KECCAK256 0xFC 0x21 CALLDATALOAD TIMESTAMP 0x2E PUSH26 0xBB29E35D814A953747DB3D3AF166EC644497E99ED95FDB6BD203 PUSH5 0x736F6C6343 STOP ADDMOD SHR STOP CALLER "},"methodIdentifiers":{"approve(address,uint256)":"095ea7b3","balanceOf(address)":"70a08231","getApproved(uint256)":"081812fc","isApprovedForAll(address,address)":"e985e9c5","mintFor(address,string)":"4ed6a5f7","name()":"06fdde03","owner()":"8da5cb5b","ownerOf(uint256)":"6352211e","registry()":"7b103999","renounceOwnership()":"715018a6","safeTransferFrom(address,address,uint256)":"42842e0e","safeTransferFrom(address,address,uint256,bytes)":"b88d4fde","setApprovalForAll(address,bool)":"a22cb465","setRegistry(address)":"a91ee0dc","supportsInterface(bytes4)":"01ffc9a7","symbol()":"95d89b41","tokenURI(uint256)":"c87b56dd","transferFrom(address,address,uint256)":"23b872dd","transferOwnership(address)":"f2fde38b"}}}}}