{"contracts/MarketAsset.sol":{"AssetRegistry":{"abi":[{"inputs":[{"internalType":"address","name":"_assetNft","type":"address"}],"stateMutability":"nonpayable","type":"constructor"},{"inputs":[{"internalType":"address","name":"owner","type":"address"}],"name":"OwnableInvalidOwner","type":"error"},{"inputs":[{"internalType":"address","name":"account","type":"address"}],"name":"OwnableUnauthorizedAccount","type":"error"},{"inputs":[],"name":"ReentrancyGuardReentrantCall","type":"error"},{"anonymous":false,"inputs":[{"indexed":true,"internalType":"uint256","name":"assetId","type":"uint256"},{"indexed":true,"internalType":"address","name":"creator","type":"address"},{"indexed":false,"internalType":"address","name":"nftContract","type":"address"},{"indexed":false,"internalType":"uint256","name":"tokenId","type":"uint256"},{"indexed":false,"internalType":"string","name":"metadataURI","type":"string"},{"indexed":false,"internalType":"uint16","name":"royaltyBPS","type":"uint16"}],"name":"AssetRegistered","type":"event"},{"anonymous":false,"inputs":[{"indexed":true,"internalType":"address","name":"previousOwner","type":"address"},{"indexed":true,"internalType":"address","name":"newOwner","type":"address"}],"name":"OwnershipTransferred","type":"event"},{"inputs":[],"name":"assetNFT","outputs":[{"internalType":"contract AssetNFT","name":"","type":"address"}],"stateMutability":"view","type":"function"},{"inputs":[{"internalType":"uint256","name":"","type":"uint256"}],"name":"assets","outputs":[{"internalType":"uint256","name":"assetId","type":"uint256"},{"internalType":"address","name":"creator","type":"address"},{"internalType":"string","name":"metadataURI","type":"string"},{"internalType":"uint16","name":"defaultRoyaltyBPS","type":"uint16"},{"internalType":"uint256","name":"tokenId","type":"uint256"},{"internalType":"address","name":"nftContract","type":"address"},{"internalType":"bool","name":"exists","type":"bool"}],"stateMutability":"view","type":"function"},{"inputs":[{"internalType":"uint256","name":"assetId","type":"uint256"}],"name":"getAsset","outputs":[{"components":[{"internalType":"uint256","name":"assetId","type":"uint256"},{"internalType":"address","name":"creator","type":"address"},{"internalType":"string","name":"metadataURI","type":"string"},{"internalType":"uint16","name":"defaultRoyaltyBPS","type":"uint16"},{"internalType":"uint256","name":"tokenId","type":"uint256"},{"internalType":"address","name":"nftContract","type":"address"},{"internalType":"bool","name":"exists","type":"bool"}],"internalType":"struct AssetRegistry.Asset","name":"","type":"tuple"}],"stateMutability":"view","type":"function"},{"inputs":[],"name":"owner","outputs":[{"internalType":"address","name":"","type":"address"}],"stateMutability":"view","type":"function"},{"inputs":[{"internalType":"string","name":"metadataURI","type":"string"},{"internalType":"uint16","name":"defaultRoyaltyBPS","type":"uint16"}],"name":"registerAsset","outputs":[{"internalType":"uint256","name":"","type":"uint256"}],"stateMutability":"nonpayable","type":"function"},{"inputs":[],"name":"renounceOwnership","outputs":[],"stateMutability":"nonpayable","type":"function"},{"inputs":[],"name":"totalAssets","outputs":[{"internalType":"uint256","name":"","type":"uint256"}],"stateMutability":"view","type":"function"},{"inputs":[{"internalType":"address","name":"newOwner","type":"address"}],"name":"transferOwnership","outputs":[],"stateMutability":"nonpayable","type":"function"}],"evm":{"bytecode":{"linkReferences":{},"object":"60803460d557601f610ae838819003918201601f19168301916001600160401b0383118484101760da5780849260209460405283398101031260d557516001600160a01b0381169081900360d557331560bf5760008054336001600160a01b0319821681178355604051939290916001600160a01b0316907f8be0079c531659141344cd1fd0a4f28419497f9722a3daafe3b4186f6b6457e09080a360018055600480546001600160a01b0319169190911790556109f790816100f18239f35b631e4fbdf760e01b600052600060045260246000fd5b600080fd5b634e487b7160e01b600052604160045260246000fdfe608080604052600436101561001357600080fd5b60003560e01c90816301e1d114146107e957508063715018a6146107905780638805f81c1461032c5780638da5cb5b14610303578063ac6a258d146102da578063cf35bdd01461023b578063eac8f5b8146101095763f2fde38b1461007757600080fd5b34610104576020366003190112610104576004356001600160a01b03811690819003610104576100a5610998565b80156100ee57600080546001600160a01b03198116831782556001600160a01b0316907f8be0079c531659141344cd1fd0a4f28419497f9722a3daafe3b4186f6b6457e09080a3005b631e4fbdf760e01b600052600060045260246000fd5b600080fd5b3461010457602036600319011261010457600060c060405161012a8161083e565b828152826020820152606060408201528260608201528260808201528260a082015201526004356000526003602052604060002060405161016a8161083e565b8154815260018201546001600160a01b0316602082019081529161019060028201610892565b906040830191825261ffff600382015416916060840192835260056004830154926080860193845201549161ffff61021260a087019360018060a01b038616855260ff60c089019660a01c161515865260405198899860208a525160208a015260018060a01b0390511660408901525160e06060890152610100880190610936565b94511660808601525160a0850152516001600160a01b031660c084015251151560e08301520390f35b34610104576020366003190112610104576004356000908152600360205260409020805460018201546001600160a01b03169160ff61027c60028301610892565b61ffff600384015416926102b260056004830154920154926040519788978852602088015260e0604088015260e0870190610936565b936060860152608085015260018060a01b03811660a085015260a01c16151560c08301520390f35b34610104576000366003190112610104576004546040516001600160a01b039091168152602090f35b34610104576000366003190112610104576000546040516001600160a01b039091168152602090f35b346101045760403660031901126101045760043567ffffffffffffffff811161010457366023820112156101045767ffffffffffffffff816004013511610104573660248260040135830101116101045760243561ffff811681036101045760026001541461077f57600260015561271061ffff82161161074b57600160025401908160025560018060a01b036004541660206040518092634ed6a5f760e01b825233600483015260406024830152816000816103f4604482018b6004013560248d01610977565b03925af190811561073f5760009161070d575b5060018060a01b0360045416936040516104208161083e565b84815260208101953387526000966040519161044a6020601f19601f886004013501160184610870565b6004850135808452602486016020850137886020866004013585010152604084019283526060840161ffff88168152608085019187835260a086015260c085019360018552898b52600360205260408b20938651855560018060a01b03905116600185019060018060a01b03166bffffffffffffffffffffffff60a01b8254161790555180519067ffffffffffffffff82116106f9576104ed6002860154610804565b601f81116106b1575b5060209b8b9998979695949392918d916001601f85111461060a5793836005947f2a02f636dc04867741f703dd656f2f88f1ae13b7669d60408c6a8ba9d29a2ed49c9b989461ffff9b98946105e69b98926105ff575b50508160011b916000199060031b1c19161760028401555b516003830180548a1916918a169190911790555160048083019190915560a09485015192909101805493516001600160a81b03199094166001600160a01b039384161793151590941b60ff60a01b16929092179092558054604080519190931681528b8101969096526080918601829052908501919081013590602401610977565b941660608201528033940390a360018055604051908152f35b01519050388061054c565b9a99989796959493929190600286018c52818c209b5b601f19841681106106975750926001837f2a02f636dc04867741f703dd656f2f88f1ae13b7669d60408c6a8ba9d29a2ed49c9d61ffff9b9997946005976105e69c9a97601f1981161061067e575b505050811b016002840155610564565b015160001960f88460031b161c1916905538808061066e565b828201518d556001909c019b8e9b50918f01918f01610620565b600286018d5260208d20601f840160051c810191602085106106ef575b601f0160051c01905b8181106106e457506104f6565b8d81556001016106d7565b90915081906106ce565b634e487b7160e01b8c52604160045260248cfd5b90506020813d602011610737575b8161072860209383610870565b81010312610104575184610407565b3d915061071b565b6040513d6000823e3d90fd5b60405162461bcd60e51b815260206004820152600c60248201526b726f79616c74793e3130302560a01b6044820152606490fd5b633ee5aeb560e01b60005260046000fd5b34610104576000366003190112610104576107a9610998565b600080546001600160a01b0319811682556001600160a01b03167f8be0079c531659141344cd1fd0a4f28419497f9722a3daafe3b4186f6b6457e08280a3005b34610104576000366003190112610104576020906002548152f35b90600182811c92168015610834575b602083101461081e57565b634e487b7160e01b600052602260045260246000fd5b91607f1691610813565b60e0810190811067ffffffffffffffff82111761085a57604052565b634e487b7160e01b600052604160045260246000fd5b90601f8019910116810190811067ffffffffffffffff82111761085a57604052565b90604051918260008254926108a684610804565b808452936001811690811561091457506001146108cd575b506108cb92500383610870565b565b90506000929192526020600020906000915b8183106108f85750509060206108cb92820101386108be565b60209193508060019154838589010152019101909184926108df565b9050602092506108cb94915060ff191682840152151560051b820101386108be565b919082519283825260005b848110610962575050826000602080949584010152601f8019910116010190565b80602080928401015182828601015201610941565b908060209392818452848401376000828201840152601f01601f1916010190565b6000546001600160a01b031633036109ac57565b63118cdaa760e01b6000523360045260246000fdfea26469706673582212200a25383092570c9071940a0e57cef233c15b7d13e37a2e33054509a64661b01064736f6c634300081c0033","opcodes":"PUSH1 0x80 CALLVALUE PUSH1 0xD5 JUMPI PUSH1 0x1F PUSH2 0xAE8 CODESIZE DUP2 SWAP1 SUB SWAP2 DUP3 ADD PUSH1 0x1F NOT AND DUP4 ADD SWAP2 PUSH1 0x1 PUSH1 0x1 PUSH1 0x40 SHL SUB DUP4 GT DUP5 DUP5 LT OR PUSH1 0xDA JUMPI DUP1 DUP5 SWAP3 PUSH1 0x20 SWAP5 PUSH1 0x40 MSTORE DUP4 CODECOPY DUP2 ADD SUB SLT PUSH1 0xD5 JUMPI MLOAD PUSH1 0x1 PUSH1 0x1 PUSH1 0xA0 SHL SUB DUP2 AND SWAP1 DUP2 SWAP1 SUB PUSH1 0xD5 JUMPI CALLER ISZERO PUSH1 0xBF JUMPI PUSH1 0x0 DUP1 SLOAD CALLER PUSH1 0x1 PUSH1 0x1 PUSH1 0xA0 SHL SUB NOT DUP3 AND DUP2 OR DUP4 SSTORE PUSH1 0x40 MLOAD SWAP4 SWAP3 SWAP1 SWAP2 PUSH1 0x1 PUSH1 0x1 PUSH1 0xA0 SHL SUB AND SWAP1 PUSH32 0x8BE0079C531659141344CD1FD0A4F28419497F9722A3DAAFE3B4186F6B6457E0 SWAP1 DUP1 LOG3 PUSH1 0x1 DUP1 SSTORE PUSH1 0x4 DUP1 SLOAD PUSH1 0x1 PUSH1 0x1 PUSH1 0xA0 SHL SUB NOT AND SWAP2 SWAP1 SWAP2 OR SWAP1 SSTORE PUSH2 0x9F7 SWAP1 DUP2 PUSH2 0xF1 DUP3 CODECOPY RETURN JUMPDEST PUSH4 0x1E4FBDF7 PUSH1 0xE0 SHL PUSH1 0x0 MSTORE PUSH1 0x0 PUSH1 0x4 MSTORE PUSH1 0x24 PUSH1 0x0 REVERT JUMPDEST PUSH1 0x0 DUP1 REVERT JUMPDEST PUSH4 0x4E487B71 PUSH1 0xE0 SHL PUSH1 0x0 MSTORE PUSH1 0x41 PUSH1 0x4 MSTORE PUSH1 0x24 PUSH1 0x0 REVERT INVALID PUSH1 0x80 DUP1 PUSH1 0x40 MSTORE PUSH1 0x4 CALLDATASIZE LT ISZERO PUSH2 0x13 JUMPI PUSH1 0x0 DUP1 REVERT JUMPDEST PUSH1 0x0 CALLDATALOAD PUSH1 0xE0 SHR SWAP1 DUP2 PUSH4 0x1E1D114 EQ PUSH2 0x7E9 JUMPI POP DUP1 PUSH4 0x715018A6 EQ PUSH2 0x790 JUMPI DUP1 PUSH4 0x8805F81C EQ PUSH2 0x32C JUMPI DUP1 PUSH4 0x8DA5CB5B EQ PUSH2 0x303 JUMPI DUP1 PUSH4 0xAC6A258D EQ PUSH2 0x2DA JUMPI DUP1 PUSH4 0xCF35BDD0 EQ PUSH2 0x23B JUMPI DUP1 PUSH4 0xEAC8F5B8 EQ PUSH2 0x109 JUMPI PUSH4 0xF2FDE38B EQ PUSH2 0x77 JUMPI PUSH1 0x0 DUP1 REVERT JUMPDEST CALLVALUE PUSH2 0x104 JUMPI PUSH1 0x20 CALLDATASIZE PUSH1 0x3 NOT ADD SLT PUSH2 0x104 JUMPI PUSH1 0x4 CALLDATALOAD PUSH1 0x1 PUSH1 0x1 PUSH1 0xA0 SHL SUB DUP2 AND SWAP1 DUP2 SWAP1 SUB PUSH2 0x104 JUMPI PUSH2 0xA5 PUSH2 0x998 JUMP JUMPDEST DUP1 ISZERO PUSH2 0xEE JUMPI PUSH1 0x0 DUP1 SLOAD PUSH1 0x1 PUSH1 0x1 PUSH1 0xA0 SHL SUB NOT DUP2 AND DUP4 OR DUP3 SSTORE PUSH1 0x1 PUSH1 0x1 PUSH1 0xA0 SHL SUB AND SWAP1 PUSH32 0x8BE0079C531659141344CD1FD0A4F28419497F9722A3DAAFE3B4186F6B6457E0 SWAP1 DUP1 LOG3 STOP JUMPDEST PUSH4 0x1E4FBDF7 PUSH1 0xE0 SHL PUSH1 0x0 MSTORE PUSH1 0x0 PUSH1 0x4 MSTORE PUSH1 0x24 PUSH1 0x0 REVERT JUMPDEST PUSH1 0x0 DUP1 REVERT JUMPDEST CALLVALUE PUSH2 0x104 JUMPI PUSH1 0x20 CALLDATASIZE PUSH1 0x3 NOT ADD SLT PUSH2 0x104 JUMPI PUSH1 0x0 PUSH1 0xC0 PUSH1 0x40 MLOAD PUSH2 0x12A DUP2 PUSH2 0x83E JUMP JUMPDEST DUP3 DUP2 MSTORE DUP3 PUSH1 0x20 DUP3 ADD MSTORE PUSH1 0x60 PUSH1 0x40 DUP3 ADD MSTORE DUP3 PUSH1 0x60 DUP3 ADD MSTORE DUP3 PUSH1 0x80 DUP3 ADD MSTORE DUP3 PUSH1 0xA0 DUP3 ADD MSTORE ADD MSTORE PUSH1 0x4 CALLDATALOAD PUSH1 0x0 MSTORE PUSH1 0x3 PUSH1 0x20 MSTORE PUSH1 0x40 PUSH1 0x0 KECCAK256 PUSH1 0x40 MLOAD PUSH2 0x16A DUP2 PUSH2 0x83E JUMP JUMPDEST DUP2 SLOAD DUP2 MSTORE PUSH1 0x1 DUP3 ADD SLOAD PUSH1 0x1 PUSH1 0x1 PUSH1 0xA0 SHL SUB AND PUSH1 0x20 DUP3 ADD SWAP1 DUP2 MSTORE SWAP2 PUSH2 0x190 PUSH1 0x2 DUP3 ADD PUSH2 0x892 JUMP JUMPDEST SWAP1 PUSH1 0x40 DUP4 ADD SWAP2 DUP3 MSTORE PUSH2 0xFFFF PUSH1 0x3 DUP3 ADD SLOAD AND SWAP2 PUSH1 0x60 DUP5 ADD SWAP3 DUP4 MSTORE PUSH1 0x5 PUSH1 0x4 DUP4 ADD SLOAD SWAP3 PUSH1 0x80 DUP7 ADD SWAP4 DUP5 MSTORE ADD SLOAD SWAP2 PUSH2 0xFFFF PUSH2 0x212 PUSH1 0xA0 DUP8 ADD SWAP4 PUSH1 0x1 DUP1 PUSH1 0xA0 SHL SUB DUP7 AND DUP6 MSTORE PUSH1 0xFF PUSH1 0xC0 DUP10 ADD SWAP7 PUSH1 0xA0 SHR AND ISZERO ISZERO DUP7 MSTORE PUSH1 0x40 MLOAD SWAP9 DUP10 SWAP9 PUSH1 0x20 DUP11 MSTORE MLOAD PUSH1 0x20 DUP11 ADD MSTORE PUSH1 0x1 DUP1 PUSH1 0xA0 SHL SUB SWAP1 MLOAD AND PUSH1 0x40 DUP10 ADD MSTORE MLOAD PUSH1 0xE0 PUSH1 0x60 DUP10 ADD MSTORE PUSH2 0x100 DUP9 ADD SWAP1 PUSH2 0x936 JUMP JUMPDEST SWAP5 MLOAD AND PUSH1 0x80 DUP7 ADD MSTORE MLOAD PUSH1 0xA0 DUP6 ADD MSTORE MLOAD PUSH1 0x1 PUSH1 0x1 PUSH1 0xA0 SHL SUB AND PUSH1 0xC0 DUP5 ADD MSTORE MLOAD ISZERO ISZERO PUSH1 0xE0 DUP4 ADD MSTORE SUB SWAP1 RETURN JUMPDEST CALLVALUE PUSH2 0x104 JUMPI PUSH1 0x20 CALLDATASIZE PUSH1 0x3 NOT ADD SLT PUSH2 0x104 JUMPI PUSH1 0x4 CALLDATALOAD PUSH1 0x0 SWAP1 DUP2 MSTORE PUSH1 0x3 PUSH1 0x20 MSTORE PUSH1 0x40 SWAP1 KECCAK256 DUP1 SLOAD PUSH1 0x1 DUP3 ADD SLOAD PUSH1 0x1 PUSH1 0x1 PUSH1 0xA0 SHL SUB AND SWAP2 PUSH1 0xFF PUSH2 0x27C PUSH1 0x2 DUP4 ADD PUSH2 0x892 JUMP JUMPDEST PUSH2 0xFFFF PUSH1 0x3 DUP5 ADD SLOAD AND SWAP3 PUSH2 0x2B2 PUSH1 0x5 PUSH1 0x4 DUP4 ADD SLOAD SWAP3 ADD SLOAD SWAP3 PUSH1 0x40 MLOAD SWAP8 DUP9 SWAP8 DUP9 MSTORE PUSH1 0x20 DUP9 ADD MSTORE PUSH1 0xE0 PUSH1 0x40 DUP9 ADD MSTORE PUSH1 0xE0 DUP8 ADD SWAP1 PUSH2 0x936 JUMP JUMPDEST SWAP4 PUSH1 0x60 DUP7 ADD MSTORE PUSH1 0x80 DUP6 ADD MSTORE PUSH1 0x1 DUP1 PUSH1 0xA0 SHL SUB DUP2 AND PUSH1 0xA0 DUP6 ADD MSTORE PUSH1 0xA0 SHR AND ISZERO ISZERO PUSH1 0xC0 DUP4 ADD MSTORE SUB SWAP1 RETURN JUMPDEST CALLVALUE PUSH2 0x104 JUMPI PUSH1 0x0 CALLDATASIZE PUSH1 0x3 NOT ADD SLT PUSH2 0x104 JUMPI PUSH1 0x4 SLOAD PUSH1 0x40 MLOAD PUSH1 0x1 PUSH1 0x1 PUSH1 0xA0 SHL SUB SWAP1 SWAP2 AND DUP2 MSTORE PUSH1 0x20 SWAP1 RETURN JUMPDEST CALLVALUE PUSH2 0x104 JUMPI PUSH1 0x0 CALLDATASIZE PUSH1 0x3 NOT ADD SLT PUSH2 0x104 JUMPI PUSH1 0x0 SLOAD PUSH1 0x40 MLOAD PUSH1 0x1 PUSH1 0x1 PUSH1 0xA0 SHL SUB SWAP1 SWAP2 AND DUP2 MSTORE PUSH1 0x20 SWAP1 RETURN JUMPDEST CALLVALUE PUSH2 0x104 JUMPI PUSH1 0x40 CALLDATASIZE PUSH1 0x3 NOT ADD SLT PUSH2 0x104 JUMPI PUSH1 0x4 CALLDATALOAD PUSH8 0xFFFFFFFFFFFFFFFF DUP2 GT PUSH2 0x104 JUMPI CALLDATASIZE PUSH1 0x23 DUP3 ADD SLT ISZERO PUSH2 0x104 JUMPI PUSH8 0xFFFFFFFFFFFFFFFF DUP2 PUSH1 0x4 ADD CALLDATALOAD GT PUSH2 0x104 JUMPI CALLDATASIZE PUSH1 0x24 DUP3 PUSH1 0x4 ADD CALLDATALOAD DUP4 ADD ADD GT PUSH2 0x104 JUMPI PUSH1 0x24 CALLDATALOAD PUSH2 0xFFFF DUP2 AND DUP2 SUB PUSH2 0x104 JUMPI PUSH1 0x2 PUSH1 0x1 SLOAD EQ PUSH2 0x77F JUMPI PUSH1 0x2 PUSH1 0x1 SSTORE PUSH2 0x2710 PUSH2 0xFFFF DUP3 AND GT PUSH2 0x74B JUMPI PUSH1 0x1 PUSH1 0x2 SLOAD ADD SWAP1 DUP2 PUSH1 0x2 SSTORE PUSH1 0x1 DUP1 PUSH1 0xA0 SHL SUB PUSH1 0x4 SLOAD AND PUSH1 0x20 PUSH1 0x40 MLOAD DUP1 SWAP3 PUSH4 0x4ED6A5F7 PUSH1 0xE0 SHL DUP3 MSTORE CALLER PUSH1 0x4 DUP4 ADD MSTORE PUSH1 0x40 PUSH1 0x24 DUP4 ADD MSTORE DUP2 PUSH1 0x0 DUP2 PUSH2 0x3F4 PUSH1 0x44 DUP3 ADD DUP12 PUSH1 0x4 ADD CALLDATALOAD PUSH1 0x24 DUP14 ADD PUSH2 0x977 JUMP JUMPDEST SUB SWAP3 GAS CALL SWAP1 DUP2 ISZERO PUSH2 0x73F JUMPI PUSH1 0x0 SWAP2 PUSH2 0x70D JUMPI JUMPDEST POP PUSH1 0x1 DUP1 PUSH1 0xA0 SHL SUB PUSH1 0x4 SLOAD AND SWAP4 PUSH1 0x40 MLOAD PUSH2 0x420 DUP2 PUSH2 0x83E JUMP JUMPDEST DUP5 DUP2 MSTORE PUSH1 0x20 DUP2 ADD SWAP6 CALLER DUP8 MSTORE PUSH1 0x0 SWAP7 PUSH1 0x40 MLOAD SWAP2 PUSH2 0x44A PUSH1 0x20 PUSH1 0x1F NOT PUSH1 0x1F DUP9 PUSH1 0x4 ADD CALLDATALOAD ADD AND ADD DUP5 PUSH2 0x870 JUMP JUMPDEST PUSH1 0x4 DUP6 ADD CALLDATALOAD DUP1 DUP5 MSTORE PUSH1 0x24 DUP7 ADD PUSH1 0x20 DUP6 ADD CALLDATACOPY DUP9 PUSH1 0x20 DUP7 PUSH1 0x4 ADD CALLDATALOAD DUP6 ADD ADD MSTORE PUSH1 0x40 DUP5 ADD SWAP3 DUP4 MSTORE PUSH1 0x60 DUP5 ADD PUSH2 0xFFFF DUP9 AND DUP2 MSTORE PUSH1 0x80 DUP6 ADD SWAP2 DUP8 DUP4 MSTORE PUSH1 0xA0 DUP7 ADD MSTORE PUSH1 0xC0 DUP6 ADD SWAP4 PUSH1 0x1 DUP6 MSTORE DUP10 DUP12 MSTORE PUSH1 0x3 PUSH1 0x20 MSTORE PUSH1 0x40 DUP12 KECCAK256 SWAP4 DUP7 MLOAD DUP6 SSTORE PUSH1 0x1 DUP1 PUSH1 0xA0 SHL SUB SWAP1 MLOAD AND PUSH1 0x1 DUP6 ADD SWAP1 PUSH1 0x1 DUP1 PUSH1 0xA0 SHL SUB AND PUSH12 0xFFFFFFFFFFFFFFFFFFFFFFFF PUSH1 0xA0 SHL DUP3 SLOAD AND OR SWAP1 SSTORE MLOAD DUP1 MLOAD SWAP1 PUSH8 0xFFFFFFFFFFFFFFFF DUP3 GT PUSH2 0x6F9 JUMPI PUSH2 0x4ED PUSH1 0x2 DUP7 ADD SLOAD PUSH2 0x804 JUMP JUMPDEST PUSH1 0x1F DUP2 GT PUSH2 0x6B1 JUMPI JUMPDEST POP PUSH1 0x20 SWAP12 DUP12 SWAP10 SWAP9 SWAP8 SWAP7 SWAP6 SWAP5 SWAP4 SWAP3 SWAP2 DUP14 SWAP2 PUSH1 0x1 PUSH1 0x1F DUP6 GT EQ PUSH2 0x60A JUMPI SWAP4 DUP4 PUSH1 0x5 SWAP5 PUSH32 0x2A02F636DC04867741F703DD656F2F88F1AE13B7669D60408C6A8BA9D29A2ED4 SWAP13 SWAP12 SWAP9 SWAP5 PUSH2 0xFFFF SWAP12 SWAP9 SWAP5 PUSH2 0x5E6 SWAP12 SWAP9 SWAP3 PUSH2 0x5FF JUMPI JUMPDEST POP POP DUP2 PUSH1 0x1 SHL SWAP2 PUSH1 0x0 NOT SWAP1 PUSH1 0x3 SHL SHR NOT AND OR PUSH1 0x2 DUP5 ADD SSTORE JUMPDEST MLOAD PUSH1 0x3 DUP4 ADD DUP1 SLOAD DUP11 NOT AND SWAP2 DUP11 AND SWAP2 SWAP1 SWAP2 OR SWAP1 SSTORE MLOAD PUSH1 0x4 DUP1 DUP4 ADD SWAP2 SWAP1 SWAP2 SSTORE PUSH1 0xA0 SWAP5 DUP6 ADD MLOAD SWAP3 SWAP1 SWAP2 ADD DUP1 SLOAD SWAP4 MLOAD PUSH1 0x1 PUSH1 0x1 PUSH1 0xA8 SHL SUB NOT SWAP1 SWAP5 AND PUSH1 0x1 PUSH1 0x1 PUSH1 0xA0 SHL SUB SWAP4 DUP5 AND OR SWAP4 ISZERO ISZERO SWAP1 SWAP5 SHL PUSH1 0xFF PUSH1 0xA0 SHL AND SWAP3 SWAP1 SWAP3 OR SWAP1 SWAP3 SSTORE DUP1 SLOAD PUSH1 0x40 DUP1 MLOAD SWAP2 SWAP1 SWAP4 AND DUP2 MSTORE DUP12 DUP2 ADD SWAP7 SWAP1 SWAP7 MSTORE PUSH1 0x80 SWAP2 DUP7 ADD DUP3 SWAP1 MSTORE SWAP1 DUP6 ADD SWAP2 SWAP1 DUP2 ADD CALLDATALOAD SWAP1 PUSH1 0x24 ADD PUSH2 0x977 JUMP JUMPDEST SWAP5 AND PUSH1 0x60 DUP3 ADD MSTORE DUP1 CALLER SWAP5 SUB SWAP1 LOG3 PUSH1 0x1 DUP1 SSTORE PUSH1 0x40 MLOAD SWAP1 DUP2 MSTORE RETURN JUMPDEST ADD MLOAD SWAP1 POP CODESIZE DUP1 PUSH2 0x54C JUMP JUMPDEST SWAP11 SWAP10 SWAP9 SWAP8 SWAP7 SWAP6 SWAP5 SWAP4 SWAP3 SWAP2 SWAP1 PUSH1 0x2 DUP7 ADD DUP13 MSTORE DUP2 DUP13 KECCAK256 SWAP12 JUMPDEST PUSH1 0x1F NOT DUP5 AND DUP2 LT PUSH2 0x697 JUMPI POP SWAP3 PUSH1 0x1 DUP4 PUSH32 0x2A02F636DC04867741F703DD656F2F88F1AE13B7669D60408C6A8BA9D29A2ED4 SWAP13 SWAP14 PUSH2 0xFFFF SWAP12 SWAP10 SWAP8 SWAP5 PUSH1 0x5 SWAP8 PUSH2 0x5E6 SWAP13 SWAP11 SWAP8 PUSH1 0x1F NOT DUP2 AND LT PUSH2 0x67E JUMPI JUMPDEST POP POP POP DUP2 SHL ADD PUSH1 0x2 DUP5 ADD SSTORE PUSH2 0x564 JUMP JUMPDEST ADD MLOAD PUSH1 0x0 NOT PUSH1 0xF8 DUP5 PUSH1 0x3 SHL AND SHR NOT AND SWAP1 SSTORE CODESIZE DUP1 DUP1 PUSH2 0x66E JUMP JUMPDEST DUP3 DUP3 ADD MLOAD DUP14 SSTORE PUSH1 0x1 SWAP1 SWAP13 ADD SWAP12 DUP15 SWAP12 POP SWAP2 DUP16 ADD SWAP2 DUP16 ADD PUSH2 0x620 JUMP JUMPDEST PUSH1 0x2 DUP7 ADD DUP14 MSTORE PUSH1 0x20 DUP14 KECCAK256 PUSH1 0x1F DUP5 ADD PUSH1 0x5 SHR DUP2 ADD SWAP2 PUSH1 0x20 DUP6 LT PUSH2 0x6EF JUMPI JUMPDEST PUSH1 0x1F ADD PUSH1 0x5 SHR ADD SWAP1 JUMPDEST DUP2 DUP2 LT PUSH2 0x6E4 JUMPI POP PUSH2 0x4F6 JUMP JUMPDEST DUP14 DUP2 SSTORE PUSH1 0x1 ADD PUSH2 0x6D7 JUMP JUMPDEST SWAP1 SWAP2 POP DUP2 SWAP1 PUSH2 0x6CE JUMP JUMPDEST PUSH4 0x4E487B71 PUSH1 0xE0 SHL DUP13 MSTORE PUSH1 0x41 PUSH1 0x4 MSTORE PUSH1 0x24 DUP13 REVERT JUMPDEST SWAP1 POP PUSH1 0x20 DUP2 RETURNDATASIZE PUSH1 0x20 GT PUSH2 0x737 JUMPI JUMPDEST DUP2 PUSH2 0x728 PUSH1 0x20 SWAP4 DUP4 PUSH2 0x870 JUMP JUMPDEST DUP2 ADD SUB SLT PUSH2 0x104 JUMPI MLOAD DUP5 PUSH2 0x407 JUMP JUMPDEST RETURNDATASIZE SWAP2 POP PUSH2 0x71B JUMP JUMPDEST PUSH1 0x40 MLOAD RETURNDATASIZE PUSH1 0x0 DUP3 RETURNDATACOPY RETURNDATASIZE SWAP1 REVERT JUMPDEST PUSH1 0x40 MLOAD PUSH3 0x461BCD PUSH1 0xE5 SHL DUP2 MSTORE PUSH1 0x20 PUSH1 0x4 DUP3 ADD MSTORE PUSH1 0xC PUSH1 0x24 DUP3 ADD MSTORE PUSH12 0x726F79616C74793E31303025 PUSH1 0xA0 SHL PUSH1 0x44 DUP3 ADD MSTORE PUSH1 0x64 SWAP1 REVERT JUMPDEST PUSH4 0x3EE5AEB5 PUSH1 0xE0 SHL PUSH1 0x0 MSTORE PUSH1 0x4 PUSH1 0x0 REVERT JUMPDEST CALLVALUE PUSH2 0x104 JUMPI PUSH1 0x0 CALLDATASIZE PUSH1 0x3 NOT ADD SLT PUSH2 0x104 JUMPI PUSH2 0x7A9 PUSH2 0x998 JUMP JUMPDEST PUSH1 0x0 DUP1 SLOAD PUSH1 0x1 PUSH1 0x1 PUSH1 0xA0 SHL SUB NOT DUP2 AND DUP3 SSTORE PUSH1 0x1 PUSH1 0x1 PUSH1 0xA0 SHL SUB AND PUSH32 0x8BE0079C531659141344CD1FD0A4F28419497F9722A3DAAFE3B4186F6B6457E0 DUP3 DUP1 LOG3 STOP JUMPDEST CALLVALUE PUSH2 0x104 JUMPI PUSH1 0x0 CALLDATASIZE PUSH1 0x3 NOT ADD SLT PUSH2 0x104 JUMPI PUSH1 0x20 SWAP1 PUSH1 0x2 SLOAD DUP2 MSTORE RETURN JUMPDEST SWAP1 PUSH1 0x1 DUP3 DUP2 SHR SWAP3 AND DUP1 ISZERO PUSH2 0x834 JUMPI JUMPDEST PUSH1 0x20 DUP4 LT EQ PUSH2 0x81E JUMPI JUMP JUMPDEST PUSH4 0x4E487B71 PUSH1 0xE0 SHL PUSH1 0x0 MSTORE PUSH1 0x22 PUSH1 0x4 MSTORE PUSH1 0x24 PUSH1 0x0 REVERT JUMPDEST SWAP2 PUSH1 0x7F AND SWAP2 PUSH2 0x813 JUMP JUMPDEST PUSH1 0xE0 DUP2 ADD SWAP1 DUP2 LT PUSH8 0xFFFFFFFFFFFFFFFF DUP3 GT OR PUSH2 0x85A JUMPI PUSH1 0x40 MSTORE JUMP JUMPDEST PUSH4 0x4E487B71 PUSH1 0xE0 SHL PUSH1 0x0 MSTORE PUSH1 0x41 PUSH1 0x4 MSTORE PUSH1 0x24 PUSH1 0x0 REVERT JUMPDEST SWAP1 PUSH1 0x1F DUP1 NOT SWAP2 ADD AND DUP2 ADD SWAP1 DUP2 LT PUSH8 0xFFFFFFFFFFFFFFFF DUP3 GT OR PUSH2 0x85A JUMPI PUSH1 0x40 MSTORE JUMP JUMPDEST SWAP1 PUSH1 0x40 MLOAD SWAP2 DUP3 PUSH1 0x0 DUP3 SLOAD SWAP3 PUSH2 0x8A6 DUP5 PUSH2 0x804 JUMP JUMPDEST DUP1 DUP5 MSTORE SWAP4 PUSH1 0x1 DUP2 AND SWAP1 DUP2 ISZERO PUSH2 0x914 JUMPI POP PUSH1 0x1 EQ PUSH2 0x8CD JUMPI JUMPDEST POP PUSH2 0x8CB SWAP3 POP SUB DUP4 PUSH2 0x870 JUMP JUMPDEST JUMP JUMPDEST SWAP1 POP PUSH1 0x0 SWAP3 SWAP2 SWAP3 MSTORE PUSH1 0x20 PUSH1 0x0 KECCAK256 SWAP1 PUSH1 0x0 SWAP2 JUMPDEST DUP2 DUP4 LT PUSH2 0x8F8 JUMPI POP POP SWAP1 PUSH1 0x20 PUSH2 0x8CB SWAP3 DUP3 ADD ADD CODESIZE PUSH2 0x8BE JUMP JUMPDEST PUSH1 0x20 SWAP2 SWAP4 POP DUP1 PUSH1 0x1 SWAP2 SLOAD DUP4 DUP6 DUP10 ADD ADD MSTORE ADD SWAP2 ADD SWAP1 SWAP2 DUP5 SWAP3 PUSH2 0x8DF JUMP JUMPDEST SWAP1 POP PUSH1 0x20 SWAP3 POP PUSH2 0x8CB SWAP5 SWAP2 POP PUSH1 0xFF NOT AND DUP3 DUP5 ADD MSTORE ISZERO ISZERO PUSH1 0x5 SHL DUP3 ADD ADD CODESIZE PUSH2 0x8BE JUMP JUMPDEST SWAP2 SWAP1 DUP3 MLOAD SWAP3 DUP4 DUP3 MSTORE PUSH1 0x0 JUMPDEST DUP5 DUP2 LT PUSH2 0x962 JUMPI POP POP DUP3 PUSH1 0x0 PUSH1 0x20 DUP1 SWAP5 SWAP6 DUP5 ADD ADD MSTORE PUSH1 0x1F DUP1 NOT SWAP2 ADD AND ADD ADD SWAP1 JUMP JUMPDEST DUP1 PUSH1 0x20 DUP1 SWAP3 DUP5 ADD ADD MLOAD DUP3 DUP3 DUP7 ADD ADD MSTORE ADD PUSH2 0x941 JUMP JUMPDEST SWAP1 DUP1 PUSH1 0x20 SWAP4 SWAP3 DUP2 DUP5 MSTORE DUP5 DUP5 ADD CALLDATACOPY PUSH1 0x0 DUP3 DUP3 ADD DUP5 ADD MSTORE PUSH1 0x1F ADD PUSH1 0x1F NOT AND ADD ADD SWAP1 JUMP JUMPDEST PUSH1 0x0 SLOAD PUSH1 0x1 PUSH1 0x1 PUSH1 0xA0 SHL SUB AND CALLER SUB PUSH2 0x9AC JUMPI JUMP JUMPDEST PUSH4 0x118CDAA7 PUSH1 0xE0 SHL PUSH1 0x0 MSTORE CALLER PUSH1 0x4 MSTORE PUSH1 0x24 PUSH1 0x0 REVERT INVALID LOG2 PUSH5 0x6970667358 0x22 SLT KECCAK256 EXP 0x25 CODESIZE ADDRESS SWAP3 JUMPI 0xC SWAP1 PUSH18 0x940A0E57CEF233C15B7D13E37A2E33054509 0xA6 CHAINID PUSH2 0xB010 PUSH5 0x736F6C6343 STOP ADDMOD SHR STOP CALLER "},"methodIdentifiers":{"assetNFT()":"ac6a258d","assets(uint256)":"cf35bdd0","getAsset(uint256)":"eac8f5b8","owner()":"8da5cb5b","registerAsset(string,uint16)":"8805f81c","renounceOwnership()":"715018a6","totalAssets()":"01e1d114","transferOwnership(address)":"f2fde38b"}}}}}