{"contracts/MarketAsset.sol":{"Fractionalizer":{"abi":[{"inputs":[{"internalType":"address","name":"registry_","type":"address"}],"stateMutability":"nonpayable","type":"constructor"},{"inputs":[{"internalType":"address","name":"owner","type":"address"}],"name":"OwnableInvalidOwner","type":"error"},{"inputs":[{"internalType":"address","name":"account","type":"address"}],"name":"OwnableUnauthorizedAccount","type":"error"},{"inputs":[],"name":"ReentrancyGuardReentrantCall","type":"error"},{"anonymous":false,"inputs":[{"indexed":true,"internalType":"uint256","name":"poolId","type":"uint256"},{"indexed":false,"internalType":"address","name":"claimer","type":"address"},{"indexed":false,"internalType":"uint256","name":"amount","type":"uint256"}],"name":"DividendClaimed","type":"event"},{"anonymous":false,"inputs":[{"indexed":true,"internalType":"uint256","name":"poolId","type":"uint256"},{"indexed":false,"internalType":"address","name":"from","type":"address"},{"indexed":false,"internalType":"uint256","name":"amount","type":"uint256"}],"name":"DividendsDeposited","type":"event"},{"anonymous":false,"inputs":[{"indexed":true,"internalType":"uint256","name":"poolId","type":"uint256"},{"indexed":true,"internalType":"uint256","name":"assetId","type":"uint256"},{"indexed":true,"internalType":"address","name":"ft","type":"address"},{"indexed":false,"internalType":"address","name":"owner","type":"address"},{"indexed":false,"internalType":"uint256","name":"totalSupply","type":"uint256"},{"indexed":false,"internalType":"uint256","name":"salePricePerToken","type":"uint256"},{"indexed":false,"internalType":"uint256","name":"amountForSale","type":"uint256"}],"name":"Fractionalized","type":"event"},{"anonymous":false,"inputs":[{"indexed":true,"internalType":"uint256","name":"poolId","type":"uint256"},{"indexed":false,"internalType":"address","name":"buyer","type":"address"},{"indexed":false,"internalType":"uint256","name":"amount","type":"uint256"},{"indexed":false,"internalType":"uint256","name":"paid","type":"uint256"}],"name":"FractionsBought","type":"event"},{"anonymous":false,"inputs":[{"indexed":true,"internalType":"address","name":"previousOwner","type":"address"},{"indexed":true,"internalType":"address","name":"newOwner","type":"address"}],"name":"OwnershipTransferred","type":"event"},{"anonymous":false,"inputs":[{"indexed":true,"internalType":"uint256","name":"poolId","type":"uint256"},{"indexed":false,"internalType":"address","name":"claimer","type":"address"}],"name":"Recombined","type":"event"},{"inputs":[{"internalType":"uint256","name":"","type":"uint256"}],"name":"assetToPool","outputs":[{"internalType":"uint256","name":"","type":"uint256"}],"stateMutability":"view","type":"function"},{"inputs":[{"internalType":"uint256","name":"poolId","type":"uint256"},{"internalType":"uint256","name":"amount","type":"uint256"}],"name":"buyFractions","outputs":[],"stateMutability":"payable","type":"function"},{"inputs":[{"internalType":"uint256","name":"poolId","type":"uint256"}],"name":"claimDividends","outputs":[],"stateMutability":"nonpayable","type":"function"},{"inputs":[{"internalType":"uint256","name":"poolId","type":"uint256"},{"internalType":"address","name":"holder","type":"address"}],"name":"claimableAmount","outputs":[{"internalType":"uint256","name":"","type":"uint256"}],"stateMutability":"view","type":"function"},{"inputs":[{"internalType":"uint256","name":"poolId","type":"uint256"}],"name":"depositToPool","outputs":[],"stateMutability":"payable","type":"function"},{"inputs":[{"internalType":"uint256","name":"assetId","type":"uint256"},{"internalType":"address","name":"nftContract","type":"address"},{"internalType":"uint256","name":"tokenId","type":"uint256"},{"internalType":"string","name":"name_","type":"string"},{"internalType":"string","name":"symbol_","type":"string"},{"internalType":"uint256","name":"totalSupply_","type":"uint256"},{"internalType":"uint256","name":"salePricePerToken_","type":"uint256"},{"internalType":"uint256","name":"amountForSale_","type":"uint256"},{"internalType":"address","name":"toReceiveInitial","type":"address"}],"name":"fractionalize","outputs":[{"internalType":"uint256","name":"","type":"uint256"}],"stateMutability":"nonpayable","type":"function"},{"inputs":[],"name":"owner","outputs":[{"internalType":"address","name":"","type":"address"}],"stateMutability":"view","type":"function"},{"inputs":[{"internalType":"uint256","name":"poolId","type":"uint256"}],"name":"poolInfo","outputs":[{"internalType":"address","name":"nftContract","type":"address"},{"internalType":"uint256","name":"tokenId","type":"uint256"},{"internalType":"address","name":"ftAddress","type":"address"},{"internalType":"uint256","name":"totalFractions","type":"uint256"},{"internalType":"address","name":"originalOwner","type":"address"},{"internalType":"uint256","name":"salePricePerToken","type":"uint256"},{"internalType":"uint256","name":"amountForSale","type":"uint256"},{"internalType":"uint256","name":"sold","type":"uint256"},{"internalType":"bool","name":"active","type":"bool"},{"internalType":"uint256","name":"dividendsPerToken","type":"uint256"}],"stateMutability":"view","type":"function"},{"inputs":[{"internalType":"uint256","name":"poolId","type":"uint256"}],"name":"recombineAndWithdraw","outputs":[],"stateMutability":"nonpayable","type":"function"},{"inputs":[],"name":"registry","outputs":[{"internalType":"contract AssetRegistry","name":"","type":"address"}],"stateMutability":"view","type":"function"},{"inputs":[],"name":"renounceOwnership","outputs":[],"stateMutability":"nonpayable","type":"function"},{"inputs":[{"internalType":"uint256","name":"assetId","type":"uint256"},{"internalType":"uint256","name":"poolId","type":"uint256"}],"name":"setAssetPool","outputs":[],"stateMutability":"nonpayable","type":"function"},{"inputs":[],"name":"totalPools","outputs":[{"internalType":"uint256","name":"","type":"uint256"}],"stateMutability":"view","type":"function"},{"inputs":[{"internalType":"address","name":"newOwner","type":"address"}],"name":"transferOwnership","outputs":[],"stateMutability":"nonpayable","type":"function"},{"stateMutability":"payable","type":"receive"}],"evm":{"bytecode":{"linkReferences":{},"object":"60a03461011757601f6124d738819003918201601f19168301916001600160401b0383118484101761011c5780849260209460405283398101031261011757516001600160a01b038116908190036101175733156101015760008054336001600160a01b03198216811783556040519290916001600160a01b0316907f8be0079c531659141344cd1fd0a4f28419497f9722a3daafe3b4186f6b6457e09080a36001805581156100cc57506080526040516123a4908161013382396080518181816102aa01526110c10152f35b62461bcd60e51b815260206004820152601060248201526f696e76616c696420726567697374727960801b6044820152606490fd5b631e4fbdf760e01b600052600060045260246000fd5b600080fd5b634e487b7160e01b600052604160045260246000fdfe6080806040526004361015610054575b50361561001b57600080fd5b60405162461bcd60e51b81526020600482015260116024820152701d5cd94819195c1bdcda5d151bd41bdbdb607a1b6044820152606490fd5b600090813560e01c90816311b8c7801461131e575080631526fe271461126f57806368b0e0701461114a578063715018a6146110f05780637b103999146110ab5780637b7195c614610e725780638da5cb5b14610e4b578063ab3c7e5214610e2d578063bd7047c414610c24578063ea370276146108c2578063ecbeaac3146101dd578063f2fde38b1461014f578063f311df8e146101205763f998bf810361000f573461011d5761010536611345565b9061010e6115e9565b82526004602052604082205580f35b80fd5b503461011d57604036600319011261011d57602061014761013f61135b565b6004356114e4565b604051908152f35b503461011d57602036600319011261011d576004356001600160a01b038116908190036101d95761017e6115e9565b80156101c55781546001600160a01b03198116821783556001600160a01b03167f8be0079c531659141344cd1fd0a4f28419497f9722a3daafe3b4186f6b6457e08380a380f35b631e4fbdf760e01b82526004829052602482fd5b5080fd5b503461011d5761012036600319011261011d576004356101fb61135b565b9060443560643567ffffffffffffffff81116108be5761021f903690600401611371565b60843567ffffffffffffffff81116108ba5761023f903690600401611371565b92909160a43592610104359460018060a01b03861680960361053e576102636115c7565b871561088357841561084e578460e435116108135785156107db57878a52600460205260408a205461079657604051631d591eb760e31b8152600481018990528a816024817f00000000000000000000000000000000000000000000000000000000000000006001600160a01b03165afa9081156105c0578b91610646575b5060c08101511561060f5760a08101516001600160a01b039a8b169a168a1490889082610601575b5050156105cb576040516331a9108f60e11b8152600481018890526020816024818d5afa9081156105c0578b91610582575b50336001600160a01b039091160361054d57883b1561053e576040516323b872dd60e01b8152336004820152306024820152604481018890528a908181606481838f5af1801561054257610529575b505060405193610d5c938486019486861067ffffffffffffffff871117610515579389936103cf60a0946103dd948a99986116138b3960c0895260c08901916114c3565b9186830360208801526114c3565b928660408201528760608201523060808201520152039087f092831561050a578660025460010197889586938460025584835260036020526040832099858b558960018c015560028b01906001600160601b0360a01b82541617905560038a0155600160a01b60019003169760048101600160a01b600190038a166001600160601b0360a01b82541617905584600582015560068101866001600160601b0360a01b82541617905560c435600782015560e4356008820155816009820155600a810160ff198154166001179055600b015585815260046020526040902055604051918252602082015260c435604082015260e435606082015260807f0c8e9d253d31d247d09c4e7204b81a026746972a80e636d337e8ac71eb68ba3191a460018055604051908152602090f35b6040513d88823e3d90fd5b634e487b7160e01b8d52604160045260248dfd5b8161053391611411565b61053e57893861038b565b8980fd5b6040513d84823e3d90fd5b60405162461bcd60e51b815260206004820152600d60248201526c3737ba1037333a1037bbb732b960991b6044820152606490fd5b90506020813d6020116105b8575b8161059d60209383611411565b810103126105b4576105ae906114af565b3861033c565b8a80fd5b3d9150610590565b6040513d8d823e3d90fd5b60405162461bcd60e51b815260206004820152600e60248201526d0c2e6e6cae840dad2e6dac2e8c6d60931b6044820152606490fd5b60800151149050873861030a565b60405162461bcd60e51b815260206004820152600f60248201526e185cdcd95d081b9bdd08199bdd5b99608a1b6044820152606490fd5b90503d808c833e6106578183611411565b8101906020818303126107925780519067ffffffffffffffff821161075e570160e081830312610792576040519160e0830183811067ffffffffffffffff82111761077e57604052815183526106af602083016114af565b60208401528c604083015167ffffffffffffffff81116101d957830182601f820112156101d9578051916106e283611456565b936106f06040519586611411565b8385526020848401011161011d579190825b8281106107625750508201602001526040830152606081015161ffff8116810361075e576107539160c09160608501526080810151608085015261074860a082016114af565b60a0850152016114a2565b60c0820152386102e2565b8c80fd5b81929350602081819301015182828701015201908f9291610702565b634e487b7160e01b8e52604160045260248efd5b8b80fd5b60405162461bcd60e51b815260206004820152601c60248201527f617373657420616c7265616479206672616374696f6e616c697a6564000000006044820152606490fd5b60405162461bcd60e51b815260206004820152601060248201526f34b73b30b634b2103932b1b2b4bb32b960811b6044820152606490fd5b60405162461bcd60e51b81526020600482015260136024820152721a5b9d985b1a59081cd85b1948185b5bdd5b9d606a1b6044820152606490fd5b60405162461bcd60e51b815260206004820152600d60248201526c0746f74616c537570706c793e3609c1b6044820152606490fd5b60405162461bcd60e51b815260206004820152600f60248201526e1a5b9d985b1a5908185cdcd95d1259608a1b6044820152606490fd5b8680fd5b8480fd5b506108cc36611345565b6108d46115c7565b8183526003602052604083206108f060ff600a8301541661139f565b81151580610c09575b15610bce5760078101548015610b945782610913916113db565b3403610b5b576004818101546006830154604051636eb1769f60e11b81526001600160a01b03918216938101849052306024820152929392911690602081604481855afa8015610b505785918891610b16575b5010610adb576040516323b872dd60e01b81526001600160a01b03841660048201523360248201526044810185905290602090829060649082908a905af190811561050a578691610a9d575b5015610a63578480809360098294016109cc878254611404565b905534905af16109da611472565b5015610a1e5760607f53885d40ac006b0d74bde83ced139f574725027d23e6cb8f1c62bf58f2fdad7091604051903382526020820152346040820152a26001805580f35b60405162461bcd60e51b815260206004820152601760248201527f7061796d656e74207472616e73666572206661696c65640000000000000000006044820152606490fd5b60405162461bcd60e51b8152602060048201526012602482015271199d081d1c985b9cd9995c8819985a5b195960721b6044820152606490fd5b90506020813d602011610ad3575b81610ab860209383611411565b81010312610acf57610ac9906114a2565b386109b2565b8580fd5b3d9150610aab565b60405162461bcd60e51b815260206004820152601360248201527273656c6c6572206d75737420617070726f766560681b6044820152606490fd5b9150506020813d602011610b48575b81610b3260209383611411565b81010312610b435784905138610966565b600080fd5b3d9150610b25565b6040513d89823e3d90fd5b60405162461bcd60e51b81526020600482015260116024820152701a5b98dbdc9c9958dd081c185e5b595b9d607a1b6044820152606490fd5b60405162461bcd60e51b81526020600482015260126024820152711cd85b19481c1c9a58d9481b9bdd081cd95d60721b6044820152606490fd5b60405162461bcd60e51b81526020600482015260136024820152726e6f7420656e6f75676820666f722073616c6560681b6044820152606490fd5b50610c18826009830154611404565b600882015410156108f9565b503461011d57602036600319011261011d57600435610c416115c7565b808252600360205260408220610c5d60ff600a8301541661139f565b6024602060018060a01b03600484015416604051928380926370a0823160e01b82523360048301525afa908115610e22578491610df0575b508015610dbe57670de0b6b3a7640000610cb6600c92600b850154906113db565b0491019060018060a01b0333166000528160205260406000205480821115610d8657610ce29082611449565b9160018060a01b0333166000526020526040600020558280808084335af1610d08611472565b5015610d4f576040805133815260208101929092527fa1594d215a577c1905bcb0b5b186a40a0104714277441d4b2ac428c89bf7f4b19190819081015b0390a26001805580f35b60405162461bcd60e51b815260206004820152600f60248201526e1d1c985b9cd9995c8819985a5b1959608a1b6044820152606490fd5b60405162461bcd60e51b815260206004820152601060248201526f6e6f7468696e6720746f20636c61696d60801b6044820152606490fd5b60405162461bcd60e51b815260206004820152600a6024820152696e6f2062616c616e636560b01b6044820152606490fd5b90506020813d602011610e1a575b81610e0b60209383611411565b81010312610b43575138610c95565b3d9150610dfe565b6040513d86823e3d90fd5b503461011d578060031936011261011d576020600254604051908152f35b503461011d578060031936011261011d57546040516001600160a01b039091168152602090f35b503461011d57602036600319011261011d57600435610e8f6115c7565b808252600360205260408220600a810190610ead60ff83541661139f565b6004818101546040516370a0823160e01b815233928101929092526001600160a01b0316602082602481845afa91821561050a578692611077575b5060058301548203611039578591813b156110165760405163079cc67960e41b8152336004820152602481019190915291908290604490829084905af1801561102e5761101a575b506002810154600382015485916001600160a01b0316803b15611016576040516323b872dd60e01b8152306004820152336024820152604481019290925282908290606490829084905af1801561054257610ffd575b5050815460ff19169091556001015480151580610fe8575b610fd5575b507fe50259b1f22e6ed2fec9e7328b9ac4507d4399360bf7b77bc5660c1a616bc37e6020604051338152a26001805580f35b8252600460205281604081205538610fa3565b50808352600460205281604084205414610f9e565b8161100791611411565b611012578338610f86565b8380fd5b8280fd5b8461102791959295611411565b9238610f30565b6040513d87823e3d90fd5b60405162461bcd60e51b81526020600482015260166024820152756d757374206f776e20616c6c206672616374696f6e7360501b6044820152606490fd5b9091506020813d6020116110a3575b8161109360209383611411565b81010312610acf57519038610ee8565b3d9150611086565b503461011d578060031936011261011d576040517f00000000000000000000000000000000000000000000000000000000000000006001600160a01b03168152602090f35b503461011d578060031936011261011d576111096115e9565b80546001600160a01b03198116825581906001600160a01b03167f8be0079c531659141344cd1fd0a4f28419497f9722a3daafe3b4186f6b6457e08280a380f35b50602036600319011261011d576004356111626115c7565b341561123f5780825260036020526040822061118460ff600a8301541661139f565b6005810154801561120b57670de0b6b3a76400003402348104670de0b6b3a7640000036111f7576111bd91600b91049201918254611404565b9055604080513381523460208201527f907b7d039ee4b25aec570e5c24e750bb4f64ff4c971a7bcdf6acece5e2d562189181908101610d45565b634e487b7160e01b85526011600452602485fd5b60405162461bcd60e51b815260206004820152600c60248201526b6e6f206672616374696f6e7360a01b6044820152606490fd5b60405162461bcd60e51b81526020600482015260086024820152676e6f2066756e647360c01b6044820152606490fd5b503461011d57602036600319011261011d57604061014091600435815260036020522060018060a01b036002820154169060038101549060018060a01b03600482015416600582015460018060a01b03600684015416600784015490600885015492600986015494600b60ff600a8901541697015497604051998a5260208a015260408901526060880152608087015260a086015260c085015260e08401521515610100830152610120820152f35b9050346101d95760203660031901126101d957604060209260043581526004845220548152f35b6040906003190112610b43576004359060243590565b602435906001600160a01b0382168203610b4357565b9181601f84011215610b435782359167ffffffffffffffff8311610b435760208381860195010111610b4357565b156113a657565b60405162461bcd60e51b815260206004820152600d60248201526c706f6f6c20696e61637469766560981b6044820152606490fd5b818102929181159184041417156113ee57565b634e487b7160e01b600052601160045260246000fd5b919082018092116113ee57565b90601f8019910116810190811067ffffffffffffffff82111761143357604052565b634e487b7160e01b600052604160045260246000fd5b919082039182116113ee57565b67ffffffffffffffff811161143357601f01601f191660200190565b3d1561149d573d9061148382611456565b916114916040519384611411565b82523d6000602084013e565b606090565b51908115158203610b4357565b51906001600160a01b0382168203610b4357565b908060209392818452848401376000828201840152601f01601f1916010190565b600052600360205260246040600020602060018060a01b03600483015416604051938480926370a0823160e01b825260018060a01b03881660048301525afa9182156115bb5760009261157f575b50670de0b6b3a764000061154d600c93600b840154906113db565b049260018060a01b031660005201602052604060002054808211156115785761157591611449565b90565b5050600090565b91506020823d6020116115b3575b8161159a60209383611411565b81010312610b4357905190670de0b6b3a7640000611532565b3d915061158d565b6040513d6000823e3d90fd5b6002600154146115d8576002600155565b633ee5aeb560e01b60005260046000fd5b6000546001600160a01b031633036115fd57565b63118cdaa760e01b6000523360045260246000fdfe60806040523461040a57610d5c803803806100198161040f565b928339810160c08282031261040a5781516001600160401b03811161040a5781610044918401610434565b602083015190916001600160401b03821161040a57610064918401610434565b906040830151926100776060820161049f565b9260a06100866080840161049f565b920151835190936001600160401b0382116103075760035490600182811c92168015610400575b60208310146102e75781601f849311610390575b50602090601f83116001146103285760009261031d575b50508160011b916000199060031b1c1916176003555b8051906001600160401b0382116103075760045490600182811c921680156102fd575b60208310146102e75781601f849311610277575b50602090601f831160011461020f57600092610204575b50508160011b916000199060031b1c1916176004555b600580546001600160a01b0319166001600160a01b03928316179055600691909155169081156101ee576002548181018091116101d8576002557fddf252ad1be2c89b69c2b068fc378daa952ba7f163c4a11628f55a4df523b3ef602060009284845283825260408420818154019055604051908152a36040516108a890816104b48239f35b634e487b7160e01b600052601160045260246000fd5b63ec442f0560e01b600052600060045260246000fd5b01519050388061013c565b600460009081528281209350601f198516905b81811061025f5750908460019594939210610246575b505050811b01600455610152565b015160001960f88460031b161c19169055388080610238565b92936020600181928786015181550195019301610222565b60046000529091507f8a35acfbc15ff81a39ae7d344fd709f28e8600b4aa8c65c6b64bfe7fe36bd19b601f840160051c810191602085106102dd575b90601f859493920160051c01905b8181106102ce5750610125565b600081558493506001016102c1565b90915081906102b3565b634e487b7160e01b600052602260045260246000fd5b91607f1691610111565b634e487b7160e01b600052604160045260246000fd5b0151905038806100d8565b600360009081528281209350601f198516905b818110610378575090846001959493921061035f575b505050811b016003556100ee565b015160001960f88460031b161c19169055388080610351565b9293602060018192878601518155019501930161033b565b60036000529091507fc2575a0e9e593c00f959f8c92f12db2869c3395a3b0502d05e2516446f71f85b601f840160051c810191602085106103f6575b90601f859493920160051c01905b8181106103e757506100c1565b600081558493506001016103da565b90915081906103cc565b91607f16916100ad565b600080fd5b6040519190601f01601f191682016001600160401b0381118382101761030757604052565b81601f8201121561040a578051906001600160401b03821161030757610463601f8301601f191660200161040f565b928284526020838301011161040a5760005b82811061048a57505060206000918301015290565b80602080928401015182828701015201610475565b51906001600160a01b038216820361040a5756fe608080604052600436101561001357600080fd5b60003560e01c90816306fdde031461054f57508063095ea7b31461049d578063138bbdc71461047f57806318160ddd1461046157806323b872dd14610429578063313ce5671461040d57806342966c68146103f057806348b40561146102f657806370a08231146102bc57806379cc67901461028a57806395d89b4114610169578063a9059cbb14610138578063d03b0e491461010f5763dd62ed3e146100b957600080fd5b3461010a57604036600319011261010a576100d261066b565b6100da610681565b6001600160a01b039182166000908152600160209081526040808320949093168252928352819020549051908152f35b600080fd5b3461010a57600036600319011261010a576005546040516001600160a01b039091168152602090f35b3461010a57604036600319011261010a5761015e61015461066b565b6024359033610742565b602060405160018152f35b3461010a57600036600319011261010a5760405160006004548060011c90600181168015610280575b60208310811461026c5782855290811561025057506001146101f9575b50819003601f01601f191681019067ffffffffffffffff8211818310176101e3576101df82918260405282610622565b0390f35b634e487b7160e01b600052604160045260246000fd5b905060046000527f8a35acfbc15ff81a39ae7d344fd709f28e8600b4aa8c65c6b64bfe7fe36bd19b6000905b82821061023a575060209150820101826101af565b6001816020925483858801015201910190610225565b90506020925060ff191682840152151560051b820101826101af565b634e487b7160e01b84526022600452602484fd5b91607f1691610192565b3461010a57604036600319011261010a576102ba6102a661066b565b602435906102b5823383610697565b6107f1565b005b3461010a57602036600319011261010a576001600160a01b036102dd61066b565b1660005260006020526020604060002054604051908152f35b3461010a57604036600319011261010a5761030f61066b565b60055460243591906001600160a01b031633036103b5576001600160a01b0316801561039f5760025491808301809311610389576020926002557fddf252ad1be2c89b69c2b068fc378daa952ba7f163c4a11628f55a4df523b3ef600093849284845283825260408420818154019055604051908152a380f35b634e487b7160e01b600052601160045260246000fd5b63ec442f0560e01b600052600060045260246000fd5b60405162461bcd60e51b815260206004820152601360248201527227b7363c90333930b1ba34b7b730b634bd32b960691b6044820152606490fd5b3461010a57602036600319011261010a576102ba600435336107f1565b3461010a57600036600319011261010a57602060405160128152f35b3461010a57606036600319011261010a5761015e61044561066b565b61044d610681565b6044359161045c833383610697565b610742565b3461010a57600036600319011261010a576020600254604051908152f35b3461010a57600036600319011261010a576020600654604051908152f35b3461010a57604036600319011261010a576104b661066b565b602435903315610539576001600160a01b031690811561052357336000526001602052604060002082600052602052806040600020556040519081527f8c5be1e5ebec7d5bd14f71427d1e84f3dd0314c0f7b2291e5b200ac8c7c3b92560203392a3602060405160018152f35b634a1406b160e11b600052600060045260246000fd5b63e602df0560e01b600052600060045260246000fd5b3461010a57600036600319011261010a5760006003548060011c90600181168015610618575b60208310811461026c5782855290811561025057506001146105c15750819003601f01601f191681019067ffffffffffffffff8211818310176101e3576101df82918260405282610622565b905060036000527fc2575a0e9e593c00f959f8c92f12db2869c3395a3b0502d05e2516446f71f85b6000905b828210610602575060209150820101826101af565b60018160209254838588010152019101906105ed565b91607f1691610575565b91909160208152825180602083015260005b818110610655575060409293506000838284010152601f8019910116010190565b8060208092870101516040828601015201610634565b600435906001600160a01b038216820361010a57565b602435906001600160a01b038216820361010a57565b6001600160a01b0390811660008181526001602090815260408083209486168352939052919091205492919060001984106106d3575b50505050565b82841061071d578015610539576001600160a01b0382161561052357600052600160205260406000209060018060a01b0316600052602052604060002091039055388080806106cd565b508290637dc7a0d960e11b60005260018060a01b031660045260245260445260646000fd5b6001600160a01b03169081156107db576001600160a01b031691821561039f5760008281528060205260408120548281106107c15791604082827fddf252ad1be2c89b69c2b068fc378daa952ba7f163c4a11628f55a4df523b3ef958760209652828652038282205586815280845220818154019055604051908152a3565b916064928463391434e360e21b8452600452602452604452fd5b634b637e8f60e11b600052600060045260246000fd5b6001600160a01b031680156107db5760009181835282602052604083205481811061085957817fddf252ad1be2c89b69c2b068fc378daa952ba7f163c4a11628f55a4df523b3ef926020928587528684520360408620558060025403600255604051908152a3565b6064939263391434e360e21b8452600452602452604452fdfea26469706673582212206ad9d38ef6a5e94b677164402b63089036955eb87fba13085d5e8bd724156d1264736f6c634300081c0033a26469706673582212203eda1e66720e002b3b9693690094c5ab668014cb5079c4d0e590ef8a5e7840b864736f6c634300081c0033","opcodes":"PUSH1 0xA0 CALLVALUE PUSH2 0x117 JUMPI PUSH1 0x1F PUSH2 0x24D7 CODESIZE DUP2 SWAP1 SUB SWAP2 DUP3 ADD PUSH1 0x1F NOT AND DUP4 ADD SWAP2 PUSH1 0x1 PUSH1 0x1 PUSH1 0x40 SHL SUB DUP4 GT DUP5 DUP5 LT OR PUSH2 0x11C JUMPI DUP1 DUP5 SWAP3 PUSH1 0x20 SWAP5 PUSH1 0x40 MSTORE DUP4 CODECOPY DUP2 ADD SUB SLT PUSH2 0x117 JUMPI MLOAD PUSH1 0x1 PUSH1 0x1 PUSH1 0xA0 SHL SUB DUP2 AND SWAP1 DUP2 SWAP1 SUB PUSH2 0x117 JUMPI CALLER ISZERO PUSH2 0x101 JUMPI PUSH1 0x0 DUP1 SLOAD CALLER PUSH1 0x1 PUSH1 0x1 PUSH1 0xA0 SHL SUB NOT DUP3 AND DUP2 OR DUP4 SSTORE PUSH1 0x40 MLOAD SWAP3 SWAP1 SWAP2 PUSH1 0x1 PUSH1 0x1 PUSH1 0xA0 SHL SUB AND SWAP1 PUSH32 0x8BE0079C531659141344CD1FD0A4F28419497F9722A3DAAFE3B4186F6B6457E0 SWAP1 DUP1 LOG3 PUSH1 0x1 DUP1 SSTORE DUP2 ISZERO PUSH2 0xCC JUMPI POP PUSH1 0x80 MSTORE PUSH1 0x40 MLOAD PUSH2 0x23A4 SWAP1 DUP2 PUSH2 0x133 DUP3 CODECOPY PUSH1 0x80 MLOAD DUP2 DUP2 DUP2 PUSH2 0x2AA ADD MSTORE PUSH2 0x10C1 ADD MSTORE RETURN JUMPDEST PUSH3 0x461BCD PUSH1 0xE5 SHL DUP2 MSTORE PUSH1 0x20 PUSH1 0x4 DUP3 ADD MSTORE PUSH1 0x10 PUSH1 0x24 DUP3 ADD MSTORE PUSH16 0x696E76616C6964207265676973747279 PUSH1 0x80 SHL PUSH1 0x44 DUP3 ADD MSTORE PUSH1 0x64 SWAP1 REVERT JUMPDEST PUSH4 0x1E4FBDF7 PUSH1 0xE0 SHL PUSH1 0x0 MSTORE PUSH1 0x0 PUSH1 0x4 MSTORE PUSH1 0x24 PUSH1 0x0 REVERT JUMPDEST PUSH1 0x0 DUP1 REVERT JUMPDEST PUSH4 0x4E487B71 PUSH1 0xE0 SHL PUSH1 0x0 MSTORE PUSH1 0x41 PUSH1 0x4 MSTORE PUSH1 0x24 PUSH1 0x0 REVERT INVALID PUSH1 0x80 DUP1 PUSH1 0x40 MSTORE PUSH1 0x4 CALLDATASIZE LT ISZERO PUSH2 0x54 JUMPI JUMPDEST POP CALLDATASIZE ISZERO PUSH2 0x1B JUMPI PUSH1 0x0 DUP1 REVERT JUMPDEST PUSH1 0x40 MLOAD PUSH3 0x461BCD PUSH1 0xE5 SHL DUP2 MSTORE PUSH1 0x20 PUSH1 0x4 DUP3 ADD MSTORE PUSH1 0x11 PUSH1 0x24 DUP3 ADD MSTORE PUSH17 0x1D5CD94819195C1BDCDA5D151BD41BDBDB PUSH1 0x7A SHL PUSH1 0x44 DUP3 ADD MSTORE PUSH1 0x64 SWAP1 REVERT JUMPDEST PUSH1 0x0 SWAP1 DUP2 CALLDATALOAD PUSH1 0xE0 SHR SWAP1 DUP2 PUSH4 0x11B8C780 EQ PUSH2 0x131E JUMPI POP DUP1 PUSH4 0x1526FE27 EQ PUSH2 0x126F JUMPI DUP1 PUSH4 0x68B0E070 EQ PUSH2 0x114A JUMPI DUP1 PUSH4 0x715018A6 EQ PUSH2 0x10F0 JUMPI DUP1 PUSH4 0x7B103999 EQ PUSH2 0x10AB JUMPI DUP1 PUSH4 0x7B7195C6 EQ PUSH2 0xE72 JUMPI DUP1 PUSH4 0x8DA5CB5B EQ PUSH2 0xE4B JUMPI DUP1 PUSH4 0xAB3C7E52 EQ PUSH2 0xE2D JUMPI DUP1 PUSH4 0xBD7047C4 EQ PUSH2 0xC24 JUMPI DUP1 PUSH4 0xEA370276 EQ PUSH2 0x8C2 JUMPI DUP1 PUSH4 0xECBEAAC3 EQ PUSH2 0x1DD JUMPI DUP1 PUSH4 0xF2FDE38B EQ PUSH2 0x14F JUMPI DUP1 PUSH4 0xF311DF8E EQ PUSH2 0x120 JUMPI PUSH4 0xF998BF81 SUB PUSH2 0xF JUMPI CALLVALUE PUSH2 0x11D JUMPI PUSH2 0x105 CALLDATASIZE PUSH2 0x1345 JUMP JUMPDEST SWAP1 PUSH2 0x10E PUSH2 0x15E9 JUMP JUMPDEST DUP3 MSTORE PUSH1 0x4 PUSH1 0x20 MSTORE PUSH1 0x40 DUP3 KECCAK256 SSTORE DUP1 RETURN JUMPDEST DUP1 REVERT JUMPDEST POP CALLVALUE PUSH2 0x11D JUMPI PUSH1 0x40 CALLDATASIZE PUSH1 0x3 NOT ADD SLT PUSH2 0x11D JUMPI PUSH1 0x20 PUSH2 0x147 PUSH2 0x13F PUSH2 0x135B JUMP JUMPDEST PUSH1 0x4 CALLDATALOAD PUSH2 0x14E4 JUMP JUMPDEST PUSH1 0x40 MLOAD SWAP1 DUP2 MSTORE RETURN JUMPDEST POP CALLVALUE PUSH2 0x11D JUMPI PUSH1 0x20 CALLDATASIZE PUSH1 0x3 NOT ADD SLT PUSH2 0x11D JUMPI PUSH1 0x4 CALLDATALOAD PUSH1 0x1 PUSH1 0x1 PUSH1 0xA0 SHL SUB DUP2 AND SWAP1 DUP2 SWAP1 SUB PUSH2 0x1D9 JUMPI PUSH2 0x17E PUSH2 0x15E9 JUMP JUMPDEST DUP1 ISZERO PUSH2 0x1C5 JUMPI DUP2 SLOAD PUSH1 0x1 PUSH1 0x1 PUSH1 0xA0 SHL SUB NOT DUP2 AND DUP3 OR DUP4 SSTORE PUSH1 0x1 PUSH1 0x1 PUSH1 0xA0 SHL SUB AND PUSH32 0x8BE0079C531659141344CD1FD0A4F28419497F9722A3DAAFE3B4186F6B6457E0 DUP4 DUP1 LOG3 DUP1 RETURN JUMPDEST PUSH4 0x1E4FBDF7 PUSH1 0xE0 SHL DUP3 MSTORE PUSH1 0x4 DUP3 SWAP1 MSTORE PUSH1 0x24 DUP3 REVERT JUMPDEST POP DUP1 REVERT JUMPDEST POP CALLVALUE PUSH2 0x11D JUMPI PUSH2 0x120 CALLDATASIZE PUSH1 0x3 NOT ADD SLT PUSH2 0x11D JUMPI PUSH1 0x4 CALLDATALOAD PUSH2 0x1FB PUSH2 0x135B JUMP JUMPDEST SWAP1 PUSH1 0x44 CALLDATALOAD PUSH1 0x64 CALLDATALOAD PUSH8 0xFFFFFFFFFFFFFFFF DUP2 GT PUSH2 0x8BE JUMPI PUSH2 0x21F SWAP1 CALLDATASIZE SWAP1 PUSH1 0x4 ADD PUSH2 0x1371 JUMP JUMPDEST PUSH1 0x84 CALLDATALOAD PUSH8 0xFFFFFFFFFFFFFFFF DUP2 GT PUSH2 0x8BA JUMPI PUSH2 0x23F SWAP1 CALLDATASIZE SWAP1 PUSH1 0x4 ADD PUSH2 0x1371 JUMP JUMPDEST SWAP3 SWAP1 SWAP2 PUSH1 0xA4 CALLDATALOAD SWAP3 PUSH2 0x104 CALLDATALOAD SWAP5 PUSH1 0x1 DUP1 PUSH1 0xA0 SHL SUB DUP7 AND DUP1 SWAP7 SUB PUSH2 0x53E JUMPI PUSH2 0x263 PUSH2 0x15C7 JUMP JUMPDEST DUP8 ISZERO PUSH2 0x883 JUMPI DUP5 ISZERO PUSH2 0x84E JUMPI DUP5 PUSH1 0xE4 CALLDATALOAD GT PUSH2 0x813 JUMPI DUP6 ISZERO PUSH2 0x7DB JUMPI DUP8 DUP11 MSTORE PUSH1 0x4 PUSH1 0x20 MSTORE PUSH1 0x40 DUP11 KECCAK256 SLOAD PUSH2 0x796 JUMPI PUSH1 0x40 MLOAD PUSH4 0x1D591EB7 PUSH1 0xE3 SHL DUP2 MSTORE PUSH1 0x4 DUP2 ADD DUP10 SWAP1 MSTORE DUP11 DUP2 PUSH1 0x24 DUP2 PUSH32 0x0 PUSH1 0x1 PUSH1 0x1 PUSH1 0xA0 SHL SUB AND GAS STATICCALL SWAP1 DUP2 ISZERO PUSH2 0x5C0 JUMPI DUP12 SWAP2 PUSH2 0x646 JUMPI JUMPDEST POP PUSH1 0xC0 DUP2 ADD MLOAD ISZERO PUSH2 0x60F JUMPI PUSH1 0xA0 DUP2 ADD MLOAD PUSH1 0x1 PUSH1 0x1 PUSH1 0xA0 SHL SUB SWAP11 DUP12 AND SWAP11 AND DUP11 EQ SWAP1 DUP9 SWAP1 DUP3 PUSH2 0x601 JUMPI JUMPDEST POP POP ISZERO PUSH2 0x5CB JUMPI PUSH1 0x40 MLOAD PUSH4 0x31A9108F PUSH1 0xE1 SHL DUP2 MSTORE PUSH1 0x4 DUP2 ADD DUP9 SWAP1 MSTORE PUSH1 0x20 DUP2 PUSH1 0x24 DUP2 DUP14 GAS STATICCALL SWAP1 DUP2 ISZERO PUSH2 0x5C0 JUMPI DUP12 SWAP2 PUSH2 0x582 JUMPI JUMPDEST POP CALLER PUSH1 0x1 PUSH1 0x1 PUSH1 0xA0 SHL SUB SWAP1 SWAP2 AND SUB PUSH2 0x54D JUMPI DUP9 EXTCODESIZE ISZERO PUSH2 0x53E JUMPI PUSH1 0x40 MLOAD PUSH4 0x23B872DD PUSH1 0xE0 SHL DUP2 MSTORE CALLER PUSH1 0x4 DUP3 ADD MSTORE ADDRESS PUSH1 0x24 DUP3 ADD MSTORE PUSH1 0x44 DUP2 ADD DUP9 SWAP1 MSTORE DUP11 SWAP1 DUP2 DUP2 PUSH1 0x64 DUP2 DUP4 DUP16 GAS CALL DUP1 ISZERO PUSH2 0x542 JUMPI PUSH2 0x529 JUMPI JUMPDEST POP POP PUSH1 0x40 MLOAD SWAP4 PUSH2 0xD5C SWAP4 DUP5 DUP7 ADD SWAP5 DUP7 DUP7 LT PUSH8 0xFFFFFFFFFFFFFFFF DUP8 GT OR PUSH2 0x515 JUMPI SWAP4 DUP10 SWAP4 PUSH2 0x3CF PUSH1 0xA0 SWAP5 PUSH2 0x3DD SWAP5 DUP11 SWAP10 SWAP9 PUSH2 0x1613 DUP12 CODECOPY PUSH1 0xC0 DUP10 MSTORE PUSH1 0xC0 DUP10 ADD SWAP2 PUSH2 0x14C3 JUMP JUMPDEST SWAP2 DUP7 DUP4 SUB PUSH1 0x20 DUP9 ADD MSTORE PUSH2 0x14C3 JUMP JUMPDEST SWAP3 DUP7 PUSH1 0x40 DUP3 ADD MSTORE DUP8 PUSH1 0x60 DUP3 ADD MSTORE ADDRESS PUSH1 0x80 DUP3 ADD MSTORE ADD MSTORE SUB SWAP1 DUP8 CREATE SWAP3 DUP4 ISZERO PUSH2 0x50A JUMPI DUP7 PUSH1 0x2 SLOAD PUSH1 0x1 ADD SWAP8 DUP9 SWAP6 DUP7 SWAP4 DUP5 PUSH1 0x2 SSTORE DUP5 DUP4 MSTORE PUSH1 0x3 PUSH1 0x20 MSTORE PUSH1 0x40 DUP4 KECCAK256 SWAP10 DUP6 DUP12 SSTORE DUP10 PUSH1 0x1 DUP13 ADD SSTORE PUSH1 0x2 DUP12 ADD SWAP1 PUSH1 0x1 PUSH1 0x1 PUSH1 0x60 SHL SUB PUSH1 0xA0 SHL DUP3 SLOAD AND OR SWAP1 SSTORE PUSH1 0x3 DUP11 ADD SSTORE PUSH1 0x1 PUSH1 0xA0 SHL PUSH1 0x1 SWAP1 SUB AND SWAP8 PUSH1 0x4 DUP2 ADD PUSH1 0x1 PUSH1 0xA0 SHL PUSH1 0x1 SWAP1 SUB DUP11 AND PUSH1 0x1 PUSH1 0x1 PUSH1 0x60 SHL SUB PUSH1 0xA0 SHL DUP3 SLOAD AND OR SWAP1 SSTORE DUP5 PUSH1 0x5 DUP3 ADD SSTORE PUSH1 0x6 DUP2 ADD DUP7 PUSH1 0x1 PUSH1 0x1 PUSH1 0x60 SHL SUB PUSH1 0xA0 SHL DUP3 SLOAD AND OR SWAP1 SSTORE PUSH1 0xC4 CALLDATALOAD PUSH1 0x7 DUP3 ADD SSTORE PUSH1 0xE4 CALLDATALOAD PUSH1 0x8 DUP3 ADD SSTORE DUP2 PUSH1 0x9 DUP3 ADD SSTORE PUSH1 0xA DUP2 ADD PUSH1 0xFF NOT DUP2 SLOAD AND PUSH1 0x1 OR SWAP1 SSTORE PUSH1 0xB ADD SSTORE DUP6 DUP2 MSTORE PUSH1 0x4 PUSH1 0x20 MSTORE PUSH1 0x40 SWAP1 KECCAK256 SSTORE PUSH1 0x40 MLOAD SWAP2 DUP3 MSTORE PUSH1 0x20 DUP3 ADD MSTORE PUSH1 0xC4 CALLDATALOAD PUSH1 0x40 DUP3 ADD MSTORE PUSH1 0xE4 CALLDATALOAD PUSH1 0x60 DUP3 ADD MSTORE PUSH1 0x80 PUSH32 0xC8E9D253D31D247D09C4E7204B81A026746972A80E636D337E8AC71EB68BA31 SWAP2 LOG4 PUSH1 0x1 DUP1 SSTORE PUSH1 0x40 MLOAD SWAP1 DUP2 MSTORE PUSH1 0x20 SWAP1 RETURN JUMPDEST PUSH1 0x40 MLOAD RETURNDATASIZE DUP9 DUP3 RETURNDATACOPY RETURNDATASIZE SWAP1 REVERT JUMPDEST PUSH4 0x4E487B71 PUSH1 0xE0 SHL DUP14 MSTORE PUSH1 0x41 PUSH1 0x4 MSTORE PUSH1 0x24 DUP14 REVERT JUMPDEST DUP2 PUSH2 0x533 SWAP2 PUSH2 0x1411 JUMP JUMPDEST PUSH2 0x53E JUMPI DUP10 CODESIZE PUSH2 0x38B JUMP JUMPDEST DUP10 DUP1 REVERT JUMPDEST PUSH1 0x40 MLOAD RETURNDATASIZE DUP5 DUP3 RETURNDATACOPY RETURNDATASIZE SWAP1 REVERT JUMPDEST PUSH1 0x40 MLOAD PUSH3 0x461BCD PUSH1 0xE5 SHL DUP2 MSTORE PUSH1 0x20 PUSH1 0x4 DUP3 ADD MSTORE PUSH1 0xD PUSH1 0x24 DUP3 ADD MSTORE PUSH13 0x3737BA1037333A1037BBB732B9 PUSH1 0x99 SHL PUSH1 0x44 DUP3 ADD MSTORE PUSH1 0x64 SWAP1 REVERT JUMPDEST SWAP1 POP PUSH1 0x20 DUP2 RETURNDATASIZE PUSH1 0x20 GT PUSH2 0x5B8 JUMPI JUMPDEST DUP2 PUSH2 0x59D PUSH1 0x20 SWAP4 DUP4 PUSH2 0x1411 JUMP JUMPDEST DUP2 ADD SUB SLT PUSH2 0x5B4 JUMPI PUSH2 0x5AE SWAP1 PUSH2 0x14AF JUMP JUMPDEST CODESIZE PUSH2 0x33C JUMP JUMPDEST DUP11 DUP1 REVERT JUMPDEST RETURNDATASIZE SWAP2 POP PUSH2 0x590 JUMP JUMPDEST PUSH1 0x40 MLOAD RETURNDATASIZE DUP14 DUP3 RETURNDATACOPY RETURNDATASIZE SWAP1 REVERT JUMPDEST PUSH1 0x40 MLOAD PUSH3 0x461BCD PUSH1 0xE5 SHL DUP2 MSTORE PUSH1 0x20 PUSH1 0x4 DUP3 ADD MSTORE PUSH1 0xE PUSH1 0x24 DUP3 ADD MSTORE PUSH14 0xC2E6E6CAE840DAD2E6DAC2E8C6D PUSH1 0x93 SHL PUSH1 0x44 DUP3 ADD MSTORE PUSH1 0x64 SWAP1 REVERT JUMPDEST PUSH1 0x80 ADD MLOAD EQ SWAP1 POP DUP8 CODESIZE PUSH2 0x30A JUMP JUMPDEST PUSH1 0x40 MLOAD PUSH3 0x461BCD PUSH1 0xE5 SHL DUP2 MSTORE PUSH1 0x20 PUSH1 0x4 DUP3 ADD MSTORE PUSH1 0xF PUSH1 0x24 DUP3 ADD MSTORE PUSH15 0x185CDCD95D081B9BDD08199BDD5B99 PUSH1 0x8A SHL PUSH1 0x44 DUP3 ADD MSTORE PUSH1 0x64 SWAP1 REVERT JUMPDEST SWAP1 POP RETURNDATASIZE DUP1 DUP13 DUP4 RETURNDATACOPY PUSH2 0x657 DUP2 DUP4 PUSH2 0x1411 JUMP JUMPDEST DUP2 ADD SWAP1 PUSH1 0x20 DUP2 DUP4 SUB SLT PUSH2 0x792 JUMPI DUP1 MLOAD SWAP1 PUSH8 0xFFFFFFFFFFFFFFFF DUP3 GT PUSH2 0x75E JUMPI ADD PUSH1 0xE0 DUP2 DUP4 SUB SLT PUSH2 0x792 JUMPI PUSH1 0x40 MLOAD SWAP2 PUSH1 0xE0 DUP4 ADD DUP4 DUP2 LT PUSH8 0xFFFFFFFFFFFFFFFF DUP3 GT OR PUSH2 0x77E JUMPI PUSH1 0x40 MSTORE DUP2 MLOAD DUP4 MSTORE PUSH2 0x6AF PUSH1 0x20 DUP4 ADD PUSH2 0x14AF JUMP JUMPDEST PUSH1 0x20 DUP5 ADD MSTORE DUP13 PUSH1 0x40 DUP4 ADD MLOAD PUSH8 0xFFFFFFFFFFFFFFFF DUP2 GT PUSH2 0x1D9 JUMPI DUP4 ADD DUP3 PUSH1 0x1F DUP3 ADD SLT ISZERO PUSH2 0x1D9 JUMPI DUP1 MLOAD SWAP2 PUSH2 0x6E2 DUP4 PUSH2 0x1456 JUMP JUMPDEST SWAP4 PUSH2 0x6F0 PUSH1 0x40 MLOAD SWAP6 DUP7 PUSH2 0x1411 JUMP JUMPDEST DUP4 DUP6 MSTORE PUSH1 0x20 DUP5 DUP5 ADD ADD GT PUSH2 0x11D JUMPI SWAP2 SWAP1 DUP3 JUMPDEST DUP3 DUP2 LT PUSH2 0x762 JUMPI POP POP DUP3 ADD PUSH1 0x20 ADD MSTORE PUSH1 0x40 DUP4 ADD MSTORE PUSH1 0x60 DUP2 ADD MLOAD PUSH2 0xFFFF DUP2 AND DUP2 SUB PUSH2 0x75E JUMPI PUSH2 0x753 SWAP2 PUSH1 0xC0 SWAP2 PUSH1 0x60 DUP6 ADD MSTORE PUSH1 0x80 DUP2 ADD MLOAD PUSH1 0x80 DUP6 ADD MSTORE PUSH2 0x748 PUSH1 0xA0 DUP3 ADD PUSH2 0x14AF JUMP JUMPDEST PUSH1 0xA0 DUP6 ADD MSTORE ADD PUSH2 0x14A2 JUMP JUMPDEST PUSH1 0xC0 DUP3 ADD MSTORE CODESIZE PUSH2 0x2E2 JUMP JUMPDEST DUP13 DUP1 REVERT JUMPDEST DUP2 SWAP3 SWAP4 POP PUSH1 0x20 DUP2 DUP2 SWAP4 ADD ADD MLOAD DUP3 DUP3 DUP8 ADD ADD MSTORE ADD SWAP1 DUP16 SWAP3 SWAP2 PUSH2 0x702 JUMP JUMPDEST PUSH4 0x4E487B71 PUSH1 0xE0 SHL DUP15 MSTORE PUSH1 0x41 PUSH1 0x4 MSTORE PUSH1 0x24 DUP15 REVERT JUMPDEST DUP12 DUP1 REVERT JUMPDEST PUSH1 0x40 MLOAD PUSH3 0x461BCD PUSH1 0xE5 SHL DUP2 MSTORE PUSH1 0x20 PUSH1 0x4 DUP3 ADD MSTORE PUSH1 0x1C PUSH1 0x24 DUP3 ADD MSTORE PUSH32 0x617373657420616C7265616479206672616374696F6E616C697A656400000000 PUSH1 0x44 DUP3 ADD MSTORE PUSH1 0x64 SWAP1 REVERT JUMPDEST PUSH1 0x40 MLOAD PUSH3 0x461BCD PUSH1 0xE5 SHL DUP2 MSTORE PUSH1 0x20 PUSH1 0x4 DUP3 ADD MSTORE PUSH1 0x10 PUSH1 0x24 DUP3 ADD MSTORE PUSH16 0x34B73B30B634B2103932B1B2B4BB32B9 PUSH1 0x81 SHL PUSH1 0x44 DUP3 ADD MSTORE PUSH1 0x64 SWAP1 REVERT JUMPDEST PUSH1 0x40 MLOAD PUSH3 0x461BCD PUSH1 0xE5 SHL DUP2 MSTORE PUSH1 0x20 PUSH1 0x4 DUP3 ADD MSTORE PUSH1 0x13 PUSH1 0x24 DUP3 ADD MSTORE PUSH19 0x1A5B9D985B1A59081CD85B1948185B5BDD5B9D PUSH1 0x6A SHL PUSH1 0x44 DUP3 ADD MSTORE PUSH1 0x64 SWAP1 REVERT JUMPDEST PUSH1 0x40 MLOAD PUSH3 0x461BCD PUSH1 0xE5 SHL DUP2 MSTORE PUSH1 0x20 PUSH1 0x4 DUP3 ADD MSTORE PUSH1 0xD PUSH1 0x24 DUP3 ADD MSTORE PUSH13 0x746F74616C537570706C793E3 PUSH1 0x9C SHL PUSH1 0x44 DUP3 ADD MSTORE PUSH1 0x64 SWAP1 REVERT JUMPDEST PUSH1 0x40 MLOAD PUSH3 0x461BCD PUSH1 0xE5 SHL DUP2 MSTORE PUSH1 0x20 PUSH1 0x4 DUP3 ADD MSTORE PUSH1 0xF PUSH1 0x24 DUP3 ADD MSTORE PUSH15 0x1A5B9D985B1A5908185CDCD95D1259 PUSH1 0x8A SHL PUSH1 0x44 DUP3 ADD MSTORE PUSH1 0x64 SWAP1 REVERT JUMPDEST DUP7 DUP1 REVERT JUMPDEST DUP5 DUP1 REVERT JUMPDEST POP PUSH2 0x8CC CALLDATASIZE PUSH2 0x1345 JUMP JUMPDEST PUSH2 0x8D4 PUSH2 0x15C7 JUMP JUMPDEST DUP2 DUP4 MSTORE PUSH1 0x3 PUSH1 0x20 MSTORE PUSH1 0x40 DUP4 KECCAK256 PUSH2 0x8F0 PUSH1 0xFF PUSH1 0xA DUP4 ADD SLOAD AND PUSH2 0x139F JUMP JUMPDEST DUP2 ISZERO ISZERO DUP1 PUSH2 0xC09 JUMPI JUMPDEST ISZERO PUSH2 0xBCE JUMPI PUSH1 0x7 DUP2 ADD SLOAD DUP1 ISZERO PUSH2 0xB94 JUMPI DUP3 PUSH2 0x913 SWAP2 PUSH2 0x13DB JUMP JUMPDEST CALLVALUE SUB PUSH2 0xB5B JUMPI PUSH1 0x4 DUP2 DUP2 ADD SLOAD PUSH1 0x6 DUP4 ADD SLOAD PUSH1 0x40 MLOAD PUSH4 0x6EB1769F PUSH1 0xE1 SHL DUP2 MSTORE PUSH1 0x1 PUSH1 0x1 PUSH1 0xA0 SHL SUB SWAP2 DUP3 AND SWAP4 DUP2 ADD DUP5 SWAP1 MSTORE ADDRESS PUSH1 0x24 DUP3 ADD MSTORE SWAP3 SWAP4 SWAP3 SWAP2 AND SWAP1 PUSH1 0x20 DUP2 PUSH1 0x44 DUP2 DUP6 GAS STATICCALL DUP1 ISZERO PUSH2 0xB50 JUMPI DUP6 SWAP2 DUP9 SWAP2 PUSH2 0xB16 JUMPI JUMPDEST POP LT PUSH2 0xADB JUMPI PUSH1 0x40 MLOAD PUSH4 0x23B872DD PUSH1 0xE0 SHL DUP2 MSTORE PUSH1 0x1 PUSH1 0x1 PUSH1 0xA0 SHL SUB DUP5 AND PUSH1 0x4 DUP3 ADD MSTORE CALLER PUSH1 0x24 DUP3 ADD MSTORE PUSH1 0x44 DUP2 ADD DUP6 SWAP1 MSTORE SWAP1 PUSH1 0x20 SWAP1 DUP3 SWAP1 PUSH1 0x64 SWAP1 DUP3 SWAP1 DUP11 SWAP1 GAS CALL SWAP1 DUP2 ISZERO PUSH2 0x50A JUMPI DUP7 SWAP2 PUSH2 0xA9D JUMPI JUMPDEST POP ISZERO PUSH2 0xA63 JUMPI DUP5 DUP1 DUP1 SWAP4 PUSH1 0x9 DUP3 SWAP5 ADD PUSH2 0x9CC DUP8 DUP3 SLOAD PUSH2 0x1404 JUMP JUMPDEST SWAP1 SSTORE CALLVALUE SWAP1 GAS CALL PUSH2 0x9DA PUSH2 0x1472 JUMP JUMPDEST POP ISZERO PUSH2 0xA1E JUMPI PUSH1 0x60 PUSH32 0x53885D40AC006B0D74BDE83CED139F574725027D23E6CB8F1C62BF58F2FDAD70 SWAP2 PUSH1 0x40 MLOAD SWAP1 CALLER DUP3 MSTORE PUSH1 0x20 DUP3 ADD MSTORE CALLVALUE PUSH1 0x40 DUP3 ADD MSTORE LOG2 PUSH1 0x1 DUP1 SSTORE DUP1 RETURN JUMPDEST PUSH1 0x40 MLOAD PUSH3 0x461BCD PUSH1 0xE5 SHL DUP2 MSTORE PUSH1 0x20 PUSH1 0x4 DUP3 ADD MSTORE PUSH1 0x17 PUSH1 0x24 DUP3 ADD MSTORE PUSH32 0x7061796D656E74207472616E73666572206661696C6564000000000000000000 PUSH1 0x44 DUP3 ADD MSTORE PUSH1 0x64 SWAP1 REVERT JUMPDEST PUSH1 0x40 MLOAD PUSH3 0x461BCD PUSH1 0xE5 SHL DUP2 MSTORE PUSH1 0x20 PUSH1 0x4 DUP3 ADD MSTORE PUSH1 0x12 PUSH1 0x24 DUP3 ADD MSTORE PUSH18 0x199D081D1C985B9CD9995C8819985A5B1959 PUSH1 0x72 SHL PUSH1 0x44 DUP3 ADD MSTORE PUSH1 0x64 SWAP1 REVERT JUMPDEST SWAP1 POP PUSH1 0x20 DUP2 RETURNDATASIZE PUSH1 0x20 GT PUSH2 0xAD3 JUMPI JUMPDEST DUP2 PUSH2 0xAB8 PUSH1 0x20 SWAP4 DUP4 PUSH2 0x1411 JUMP JUMPDEST DUP2 ADD SUB SLT PUSH2 0xACF JUMPI PUSH2 0xAC9 SWAP1 PUSH2 0x14A2 JUMP JUMPDEST CODESIZE PUSH2 0x9B2 JUMP JUMPDEST DUP6 DUP1 REVERT JUMPDEST RETURNDATASIZE SWAP2 POP PUSH2 0xAAB JUMP JUMPDEST PUSH1 0x40 MLOAD PUSH3 0x461BCD PUSH1 0xE5 SHL DUP2 MSTORE PUSH1 0x20 PUSH1 0x4 DUP3 ADD MSTORE PUSH1 0x13 PUSH1 0x24 DUP3 ADD MSTORE PUSH19 0x73656C6C6572206D75737420617070726F7665 PUSH1 0x68 SHL PUSH1 0x44 DUP3 ADD MSTORE PUSH1 0x64 SWAP1 REVERT JUMPDEST SWAP2 POP POP PUSH1 0x20 DUP2 RETURNDATASIZE PUSH1 0x20 GT PUSH2 0xB48 JUMPI JUMPDEST DUP2 PUSH2 0xB32 PUSH1 0x20 SWAP4 DUP4 PUSH2 0x1411 JUMP JUMPDEST DUP2 ADD SUB SLT PUSH2 0xB43 JUMPI DUP5 SWAP1 MLOAD CODESIZE PUSH2 0x966 JUMP JUMPDEST PUSH1 0x0 DUP1 REVERT JUMPDEST RETURNDATASIZE SWAP2 POP PUSH2 0xB25 JUMP JUMPDEST PUSH1 0x40 MLOAD RETURNDATASIZE DUP10 DUP3 RETURNDATACOPY RETURNDATASIZE SWAP1 REVERT JUMPDEST PUSH1 0x40 MLOAD PUSH3 0x461BCD PUSH1 0xE5 SHL DUP2 MSTORE PUSH1 0x20 PUSH1 0x4 DUP3 ADD MSTORE PUSH1 0x11 PUSH1 0x24 DUP3 ADD MSTORE PUSH17 0x1A5B98DBDC9C9958DD081C185E5B595B9D PUSH1 0x7A SHL PUSH1 0x44 DUP3 ADD MSTORE PUSH1 0x64 SWAP1 REVERT JUMPDEST PUSH1 0x40 MLOAD PUSH3 0x461BCD PUSH1 0xE5 SHL DUP2 MSTORE PUSH1 0x20 PUSH1 0x4 DUP3 ADD MSTORE PUSH1 0x12 PUSH1 0x24 DUP3 ADD MSTORE PUSH18 0x1CD85B19481C1C9A58D9481B9BDD081CD95D PUSH1 0x72 SHL PUSH1 0x44 DUP3 ADD MSTORE PUSH1 0x64 SWAP1 REVERT JUMPDEST PUSH1 0x40 MLOAD PUSH3 0x461BCD PUSH1 0xE5 SHL DUP2 MSTORE PUSH1 0x20 PUSH1 0x4 DUP3 ADD MSTORE PUSH1 0x13 PUSH1 0x24 DUP3 ADD MSTORE PUSH19 0x6E6F7420656E6F75676820666F722073616C65 PUSH1 0x68 SHL PUSH1 0x44 DUP3 ADD MSTORE PUSH1 0x64 SWAP1 REVERT JUMPDEST POP PUSH2 0xC18 DUP3 PUSH1 0x9 DUP4 ADD SLOAD PUSH2 0x1404 JUMP JUMPDEST PUSH1 0x8 DUP3 ADD SLOAD LT ISZERO PUSH2 0x8F9 JUMP JUMPDEST POP CALLVALUE PUSH2 0x11D JUMPI PUSH1 0x20 CALLDATASIZE PUSH1 0x3 NOT ADD SLT PUSH2 0x11D JUMPI PUSH1 0x4 CALLDATALOAD PUSH2 0xC41 PUSH2 0x15C7 JUMP JUMPDEST DUP1 DUP3 MSTORE PUSH1 0x3 PUSH1 0x20 MSTORE PUSH1 0x40 DUP3 KECCAK256 PUSH2 0xC5D PUSH1 0xFF PUSH1 0xA DUP4 ADD SLOAD AND PUSH2 0x139F JUMP JUMPDEST PUSH1 0x24 PUSH1 0x20 PUSH1 0x1 DUP1 PUSH1 0xA0 SHL SUB PUSH1 0x4 DUP5 ADD SLOAD AND PUSH1 0x40 MLOAD SWAP3 DUP4 DUP1 SWAP3 PUSH4 0x70A08231 PUSH1 0xE0 SHL DUP3 MSTORE CALLER PUSH1 0x4 DUP4 ADD MSTORE GAS STATICCALL SWAP1 DUP2 ISZERO PUSH2 0xE22 JUMPI DUP5 SWAP2 PUSH2 0xDF0 JUMPI JUMPDEST POP DUP1 ISZERO PUSH2 0xDBE JUMPI PUSH8 0xDE0B6B3A7640000 PUSH2 0xCB6 PUSH1 0xC SWAP3 PUSH1 0xB DUP6 ADD SLOAD SWAP1 PUSH2 0x13DB JUMP JUMPDEST DIV SWAP2 ADD SWAP1 PUSH1 0x1 DUP1 PUSH1 0xA0 SHL SUB CALLER AND PUSH1 0x0 MSTORE DUP2 PUSH1 0x20 MSTORE PUSH1 0x40 PUSH1 0x0 KECCAK256 SLOAD DUP1 DUP3 GT ISZERO PUSH2 0xD86 JUMPI PUSH2 0xCE2 SWAP1 DUP3 PUSH2 0x1449 JUMP JUMPDEST SWAP2 PUSH1 0x1 DUP1 PUSH1 0xA0 SHL SUB CALLER AND PUSH1 0x0 MSTORE PUSH1 0x20 MSTORE PUSH1 0x40 PUSH1 0x0 KECCAK256 SSTORE DUP3 DUP1 DUP1 DUP1 DUP5 CALLER GAS CALL PUSH2 0xD08 PUSH2 0x1472 JUMP JUMPDEST POP ISZERO PUSH2 0xD4F JUMPI PUSH1 0x40 DUP1 MLOAD CALLER DUP2 MSTORE PUSH1 0x20 DUP2 ADD SWAP3 SWAP1 SWAP3 MSTORE PUSH32 0xA1594D215A577C1905BCB0B5B186A40A0104714277441D4B2AC428C89BF7F4B1 SWAP2 SWAP1 DUP2 SWAP1 DUP2 ADD JUMPDEST SUB SWAP1 LOG2 PUSH1 0x1 DUP1 SSTORE DUP1 RETURN JUMPDEST PUSH1 0x40 MLOAD PUSH3 0x461BCD PUSH1 0xE5 SHL DUP2 MSTORE PUSH1 0x20 PUSH1 0x4 DUP3 ADD MSTORE PUSH1 0xF PUSH1 0x24 DUP3 ADD MSTORE PUSH15 0x1D1C985B9CD9995C8819985A5B1959 PUSH1 0x8A SHL PUSH1 0x44 DUP3 ADD MSTORE PUSH1 0x64 SWAP1 REVERT JUMPDEST PUSH1 0x40 MLOAD PUSH3 0x461BCD PUSH1 0xE5 SHL DUP2 MSTORE PUSH1 0x20 PUSH1 0x4 DUP3 ADD MSTORE PUSH1 0x10 PUSH1 0x24 DUP3 ADD MSTORE PUSH16 0x6E6F7468696E6720746F20636C61696D PUSH1 0x80 SHL PUSH1 0x44 DUP3 ADD MSTORE PUSH1 0x64 SWAP1 REVERT JUMPDEST PUSH1 0x40 MLOAD PUSH3 0x461BCD PUSH1 0xE5 SHL DUP2 MSTORE PUSH1 0x20 PUSH1 0x4 DUP3 ADD MSTORE PUSH1 0xA PUSH1 0x24 DUP3 ADD MSTORE PUSH10 0x6E6F2062616C616E6365 PUSH1 0xB0 SHL PUSH1 0x44 DUP3 ADD MSTORE PUSH1 0x64 SWAP1 REVERT JUMPDEST SWAP1 POP PUSH1 0x20 DUP2 RETURNDATASIZE PUSH1 0x20 GT PUSH2 0xE1A JUMPI JUMPDEST DUP2 PUSH2 0xE0B PUSH1 0x20 SWAP4 DUP4 PUSH2 0x1411 JUMP JUMPDEST DUP2 ADD SUB SLT PUSH2 0xB43 JUMPI MLOAD CODESIZE PUSH2 0xC95 JUMP JUMPDEST RETURNDATASIZE SWAP2 POP PUSH2 0xDFE JUMP JUMPDEST PUSH1 0x40 MLOAD RETURNDATASIZE DUP7 DUP3 RETURNDATACOPY RETURNDATASIZE SWAP1 REVERT JUMPDEST POP CALLVALUE PUSH2 0x11D JUMPI DUP1 PUSH1 0x3 NOT CALLDATASIZE ADD SLT PUSH2 0x11D JUMPI PUSH1 0x20 PUSH1 0x2 SLOAD PUSH1 0x40 MLOAD SWAP1 DUP2 MSTORE RETURN JUMPDEST POP CALLVALUE PUSH2 0x11D JUMPI DUP1 PUSH1 0x3 NOT CALLDATASIZE ADD SLT PUSH2 0x11D JUMPI SLOAD PUSH1 0x40 MLOAD PUSH1 0x1 PUSH1 0x1 PUSH1 0xA0 SHL SUB SWAP1 SWAP2 AND DUP2 MSTORE PUSH1 0x20 SWAP1 RETURN JUMPDEST POP CALLVALUE PUSH2 0x11D JUMPI PUSH1 0x20 CALLDATASIZE PUSH1 0x3 NOT ADD SLT PUSH2 0x11D JUMPI PUSH1 0x4 CALLDATALOAD PUSH2 0xE8F PUSH2 0x15C7 JUMP JUMPDEST DUP1 DUP3 MSTORE PUSH1 0x3 PUSH1 0x20 MSTORE PUSH1 0x40 DUP3 KECCAK256 PUSH1 0xA DUP2 ADD SWAP1 PUSH2 0xEAD PUSH1 0xFF DUP4 SLOAD AND PUSH2 0x139F JUMP JUMPDEST PUSH1 0x4 DUP2 DUP2 ADD SLOAD PUSH1 0x40 MLOAD PUSH4 0x70A08231 PUSH1 0xE0 SHL DUP2 MSTORE CALLER SWAP3 DUP2 ADD SWAP3 SWAP1 SWAP3 MSTORE PUSH1 0x1 PUSH1 0x1 PUSH1 0xA0 SHL SUB AND PUSH1 0x20 DUP3 PUSH1 0x24 DUP2 DUP5 GAS STATICCALL SWAP2 DUP3 ISZERO PUSH2 0x50A JUMPI DUP7 SWAP3 PUSH2 0x1077 JUMPI JUMPDEST POP PUSH1 0x5 DUP4 ADD SLOAD DUP3 SUB PUSH2 0x1039 JUMPI DUP6 SWAP2 DUP2 EXTCODESIZE ISZERO PUSH2 0x1016 JUMPI PUSH1 0x40 MLOAD PUSH4 0x79CC679 PUSH1 0xE4 SHL DUP2 MSTORE CALLER PUSH1 0x4 DUP3 ADD MSTORE PUSH1 0x24 DUP2 ADD SWAP2 SWAP1 SWAP2 MSTORE SWAP2 SWAP1 DUP3 SWAP1 PUSH1 0x44 SWAP1 DUP3 SWAP1 DUP5 SWAP1 GAS CALL DUP1 ISZERO PUSH2 0x102E JUMPI PUSH2 0x101A JUMPI JUMPDEST POP PUSH1 0x2 DUP2 ADD SLOAD PUSH1 0x3 DUP3 ADD SLOAD DUP6 SWAP2 PUSH1 0x1 PUSH1 0x1 PUSH1 0xA0 SHL SUB AND DUP1 EXTCODESIZE ISZERO PUSH2 0x1016 JUMPI PUSH1 0x40 MLOAD PUSH4 0x23B872DD PUSH1 0xE0 SHL DUP2 MSTORE ADDRESS PUSH1 0x4 DUP3 ADD MSTORE CALLER PUSH1 0x24 DUP3 ADD MSTORE PUSH1 0x44 DUP2 ADD SWAP3 SWAP1 SWAP3 MSTORE DUP3 SWAP1 DUP3 SWAP1 PUSH1 0x64 SWAP1 DUP3 SWAP1 DUP5 SWAP1 GAS CALL DUP1 ISZERO PUSH2 0x542 JUMPI PUSH2 0xFFD JUMPI JUMPDEST POP POP DUP2 SLOAD PUSH1 0xFF NOT AND SWAP1 SWAP2 SSTORE PUSH1 0x1 ADD SLOAD DUP1 ISZERO ISZERO DUP1 PUSH2 0xFE8 JUMPI JUMPDEST PUSH2 0xFD5 JUMPI JUMPDEST POP PUSH32 0xE50259B1F22E6ED2FEC9E7328B9AC4507D4399360BF7B77BC5660C1A616BC37E PUSH1 0x20 PUSH1 0x40 MLOAD CALLER DUP2 MSTORE LOG2 PUSH1 0x1 DUP1 SSTORE DUP1 RETURN JUMPDEST DUP3 MSTORE PUSH1 0x4 PUSH1 0x20 MSTORE DUP2 PUSH1 0x40 DUP2 KECCAK256 SSTORE CODESIZE PUSH2 0xFA3 JUMP JUMPDEST POP DUP1 DUP4 MSTORE PUSH1 0x4 PUSH1 0x20 MSTORE DUP2 PUSH1 0x40 DUP5 KECCAK256 SLOAD EQ PUSH2 0xF9E JUMP JUMPDEST DUP2 PUSH2 0x1007 SWAP2 PUSH2 0x1411 JUMP JUMPDEST PUSH2 0x1012 JUMPI DUP4 CODESIZE PUSH2 0xF86 JUMP JUMPDEST DUP4 DUP1 REVERT JUMPDEST DUP3 DUP1 REVERT JUMPDEST DUP5 PUSH2 0x1027 SWAP2 SWAP6 SWAP3 SWAP6 PUSH2 0x1411 JUMP JUMPDEST SWAP3 CODESIZE PUSH2 0xF30 JUMP JUMPDEST PUSH1 0x40 MLOAD RETURNDATASIZE DUP8 DUP3 RETURNDATACOPY RETURNDATASIZE SWAP1 REVERT JUMPDEST PUSH1 0x40 MLOAD PUSH3 0x461BCD PUSH1 0xE5 SHL DUP2 MSTORE PUSH1 0x20 PUSH1 0x4 DUP3 ADD MSTORE PUSH1 0x16 PUSH1 0x24 DUP3 ADD MSTORE PUSH22 0x6D757374206F776E20616C6C206672616374696F6E73 PUSH1 0x50 SHL PUSH1 0x44 DUP3 ADD MSTORE PUSH1 0x64 SWAP1 REVERT JUMPDEST SWAP1 SWAP2 POP PUSH1 0x20 DUP2 RETURNDATASIZE PUSH1 0x20 GT PUSH2 0x10A3 JUMPI JUMPDEST DUP2 PUSH2 0x1093 PUSH1 0x20 SWAP4 DUP4 PUSH2 0x1411 JUMP JUMPDEST DUP2 ADD SUB SLT PUSH2 0xACF JUMPI MLOAD SWAP1 CODESIZE PUSH2 0xEE8 JUMP JUMPDEST RETURNDATASIZE SWAP2 POP PUSH2 0x1086 JUMP JUMPDEST POP CALLVALUE PUSH2 0x11D JUMPI DUP1 PUSH1 0x3 NOT CALLDATASIZE ADD SLT PUSH2 0x11D JUMPI PUSH1 0x40 MLOAD PUSH32 0x0 PUSH1 0x1 PUSH1 0x1 PUSH1 0xA0 SHL SUB AND DUP2 MSTORE PUSH1 0x20 SWAP1 RETURN JUMPDEST POP CALLVALUE PUSH2 0x11D JUMPI DUP1 PUSH1 0x3 NOT CALLDATASIZE ADD SLT PUSH2 0x11D JUMPI PUSH2 0x1109 PUSH2 0x15E9 JUMP JUMPDEST DUP1 SLOAD PUSH1 0x1 PUSH1 0x1 PUSH1 0xA0 SHL SUB NOT DUP2 AND DUP3 SSTORE DUP2 SWAP1 PUSH1 0x1 PUSH1 0x1 PUSH1 0xA0 SHL SUB AND PUSH32 0x8BE0079C531659141344CD1FD0A4F28419497F9722A3DAAFE3B4186F6B6457E0 DUP3 DUP1 LOG3 DUP1 RETURN JUMPDEST POP PUSH1 0x20 CALLDATASIZE PUSH1 0x3 NOT ADD SLT PUSH2 0x11D JUMPI PUSH1 0x4 CALLDATALOAD PUSH2 0x1162 PUSH2 0x15C7 JUMP JUMPDEST CALLVALUE ISZERO PUSH2 0x123F JUMPI DUP1 DUP3 MSTORE PUSH1 0x3 PUSH1 0x20 MSTORE PUSH1 0x40 DUP3 KECCAK256 PUSH2 0x1184 PUSH1 0xFF PUSH1 0xA DUP4 ADD SLOAD AND PUSH2 0x139F JUMP JUMPDEST PUSH1 0x5 DUP2 ADD SLOAD DUP1 ISZERO PUSH2 0x120B JUMPI PUSH8 0xDE0B6B3A7640000 CALLVALUE MUL CALLVALUE DUP2 DIV PUSH8 0xDE0B6B3A7640000 SUB PUSH2 0x11F7 JUMPI PUSH2 0x11BD SWAP2 PUSH1 0xB SWAP2 DIV SWAP3 ADD SWAP2 DUP3 SLOAD PUSH2 0x1404 JUMP JUMPDEST SWAP1 SSTORE PUSH1 0x40 DUP1 MLOAD CALLER DUP2 MSTORE CALLVALUE PUSH1 0x20 DUP3 ADD MSTORE PUSH32 0x907B7D039EE4B25AEC570E5C24E750BB4F64FF4C971A7BCDF6ACECE5E2D56218 SWAP2 DUP2 SWAP1 DUP2 ADD PUSH2 0xD45 JUMP JUMPDEST PUSH4 0x4E487B71 PUSH1 0xE0 SHL DUP6 MSTORE PUSH1 0x11 PUSH1 0x4 MSTORE PUSH1 0x24 DUP6 REVERT JUMPDEST PUSH1 0x40 MLOAD PUSH3 0x461BCD PUSH1 0xE5 SHL DUP2 MSTORE PUSH1 0x20 PUSH1 0x4 DUP3 ADD MSTORE PUSH1 0xC PUSH1 0x24 DUP3 ADD MSTORE PUSH12 0x6E6F206672616374696F6E73 PUSH1 0xA0 SHL PUSH1 0x44 DUP3 ADD MSTORE PUSH1 0x64 SWAP1 REVERT JUMPDEST PUSH1 0x40 MLOAD PUSH3 0x461BCD PUSH1 0xE5 SHL DUP2 MSTORE PUSH1 0x20 PUSH1 0x4 DUP3 ADD MSTORE PUSH1 0x8 PUSH1 0x24 DUP3 ADD MSTORE PUSH8 0x6E6F2066756E6473 PUSH1 0xC0 SHL PUSH1 0x44 DUP3 ADD MSTORE PUSH1 0x64 SWAP1 REVERT JUMPDEST POP CALLVALUE PUSH2 0x11D JUMPI PUSH1 0x20 CALLDATASIZE PUSH1 0x3 NOT ADD SLT PUSH2 0x11D JUMPI PUSH1 0x40 PUSH2 0x140 SWAP2 PUSH1 0x4 CALLDATALOAD DUP2 MSTORE PUSH1 0x3 PUSH1 0x20 MSTORE KECCAK256 PUSH1 0x1 DUP1 PUSH1 0xA0 SHL SUB PUSH1 0x2 DUP3 ADD SLOAD AND SWAP1 PUSH1 0x3 DUP2 ADD SLOAD SWAP1 PUSH1 0x1 DUP1 PUSH1 0xA0 SHL SUB PUSH1 0x4 DUP3 ADD SLOAD AND PUSH1 0x5 DUP3 ADD SLOAD PUSH1 0x1 DUP1 PUSH1 0xA0 SHL SUB PUSH1 0x6 DUP5 ADD SLOAD AND PUSH1 0x7 DUP5 ADD SLOAD SWAP1 PUSH1 0x8 DUP6 ADD SLOAD SWAP3 PUSH1 0x9 DUP7 ADD SLOAD SWAP5 PUSH1 0xB PUSH1 0xFF PUSH1 0xA DUP10 ADD SLOAD AND SWAP8 ADD SLOAD SWAP8 PUSH1 0x40 MLOAD SWAP10 DUP11 MSTORE PUSH1 0x20 DUP11 ADD MSTORE PUSH1 0x40 DUP10 ADD MSTORE PUSH1 0x60 DUP9 ADD MSTORE PUSH1 0x80 DUP8 ADD MSTORE PUSH1 0xA0 DUP7 ADD MSTORE PUSH1 0xC0 DUP6 ADD MSTORE PUSH1 0xE0 DUP5 ADD MSTORE ISZERO ISZERO PUSH2 0x100 DUP4 ADD MSTORE PUSH2 0x120 DUP3 ADD MSTORE RETURN JUMPDEST SWAP1 POP CALLVALUE PUSH2 0x1D9 JUMPI PUSH1 0x20 CALLDATASIZE PUSH1 0x3 NOT ADD SLT PUSH2 0x1D9 JUMPI PUSH1 0x40 PUSH1 0x20 SWAP3 PUSH1 0x4 CALLDATALOAD DUP2 MSTORE PUSH1 0x4 DUP5 MSTORE KECCAK256 SLOAD DUP2 MSTORE RETURN JUMPDEST PUSH1 0x40 SWAP1 PUSH1 0x3 NOT ADD SLT PUSH2 0xB43 JUMPI PUSH1 0x4 CALLDATALOAD SWAP1 PUSH1 0x24 CALLDATALOAD SWAP1 JUMP JUMPDEST PUSH1 0x24 CALLDATALOAD SWAP1 PUSH1 0x1 PUSH1 0x1 PUSH1 0xA0 SHL SUB DUP3 AND DUP3 SUB PUSH2 0xB43 JUMPI JUMP JUMPDEST SWAP2 DUP2 PUSH1 0x1F DUP5 ADD SLT ISZERO PUSH2 0xB43 JUMPI DUP3 CALLDATALOAD SWAP2 PUSH8 0xFFFFFFFFFFFFFFFF DUP4 GT PUSH2 0xB43 JUMPI PUSH1 0x20 DUP4 DUP2 DUP7 ADD SWAP6 ADD ADD GT PUSH2 0xB43 JUMPI JUMP JUMPDEST ISZERO PUSH2 0x13A6 JUMPI JUMP JUMPDEST PUSH1 0x40 MLOAD PUSH3 0x461BCD PUSH1 0xE5 SHL DUP2 MSTORE PUSH1 0x20 PUSH1 0x4 DUP3 ADD MSTORE PUSH1 0xD PUSH1 0x24 DUP3 ADD MSTORE PUSH13 0x706F6F6C20696E616374697665 PUSH1 0x98 SHL PUSH1 0x44 DUP3 ADD MSTORE PUSH1 0x64 SWAP1 REVERT JUMPDEST DUP2 DUP2 MUL SWAP3 SWAP2 DUP2 ISZERO SWAP2 DUP5 DIV EQ OR ISZERO PUSH2 0x13EE JUMPI JUMP JUMPDEST PUSH4 0x4E487B71 PUSH1 0xE0 SHL PUSH1 0x0 MSTORE PUSH1 0x11 PUSH1 0x4 MSTORE PUSH1 0x24 PUSH1 0x0 REVERT JUMPDEST SWAP2 SWAP1 DUP3 ADD DUP1 SWAP3 GT PUSH2 0x13EE JUMPI JUMP JUMPDEST SWAP1 PUSH1 0x1F DUP1 NOT SWAP2 ADD AND DUP2 ADD SWAP1 DUP2 LT PUSH8 0xFFFFFFFFFFFFFFFF DUP3 GT OR PUSH2 0x1433 JUMPI PUSH1 0x40 MSTORE JUMP JUMPDEST PUSH4 0x4E487B71 PUSH1 0xE0 SHL PUSH1 0x0 MSTORE PUSH1 0x41 PUSH1 0x4 MSTORE PUSH1 0x24 PUSH1 0x0 REVERT JUMPDEST SWAP2 SWAP1 DUP3 SUB SWAP2 DUP3 GT PUSH2 0x13EE JUMPI JUMP JUMPDEST PUSH8 0xFFFFFFFFFFFFFFFF DUP2 GT PUSH2 0x1433 JUMPI PUSH1 0x1F ADD PUSH1 0x1F NOT AND PUSH1 0x20 ADD SWAP1 JUMP JUMPDEST RETURNDATASIZE ISZERO PUSH2 0x149D JUMPI RETURNDATASIZE SWAP1 PUSH2 0x1483 DUP3 PUSH2 0x1456 JUMP JUMPDEST SWAP2 PUSH2 0x1491 PUSH1 0x40 MLOAD SWAP4 DUP5 PUSH2 0x1411 JUMP JUMPDEST DUP3 MSTORE RETURNDATASIZE PUSH1 0x0 PUSH1 0x20 DUP5 ADD RETURNDATACOPY JUMP JUMPDEST PUSH1 0x60 SWAP1 JUMP JUMPDEST MLOAD SWAP1 DUP2 ISZERO ISZERO DUP3 SUB PUSH2 0xB43 JUMPI JUMP JUMPDEST MLOAD SWAP1 PUSH1 0x1 PUSH1 0x1 PUSH1 0xA0 SHL SUB DUP3 AND DUP3 SUB PUSH2 0xB43 JUMPI JUMP JUMPDEST SWAP1 DUP1 PUSH1 0x20 SWAP4 SWAP3 DUP2 DUP5 MSTORE DUP5 DUP5 ADD CALLDATACOPY PUSH1 0x0 DUP3 DUP3 ADD DUP5 ADD MSTORE PUSH1 0x1F ADD PUSH1 0x1F NOT AND ADD ADD SWAP1 JUMP JUMPDEST PUSH1 0x0 MSTORE PUSH1 0x3 PUSH1 0x20 MSTORE PUSH1 0x24 PUSH1 0x40 PUSH1 0x0 KECCAK256 PUSH1 0x20 PUSH1 0x1 DUP1 PUSH1 0xA0 SHL SUB PUSH1 0x4 DUP4 ADD SLOAD AND PUSH1 0x40 MLOAD SWAP4 DUP5 DUP1 SWAP3 PUSH4 0x70A08231 PUSH1 0xE0 SHL DUP3 MSTORE PUSH1 0x1 DUP1 PUSH1 0xA0 SHL SUB DUP9 AND PUSH1 0x4 DUP4 ADD MSTORE GAS STATICCALL SWAP2 DUP3 ISZERO PUSH2 0x15BB JUMPI PUSH1 0x0 SWAP3 PUSH2 0x157F JUMPI JUMPDEST POP PUSH8 0xDE0B6B3A7640000 PUSH2 0x154D PUSH1 0xC SWAP4 PUSH1 0xB DUP5 ADD SLOAD SWAP1 PUSH2 0x13DB JUMP JUMPDEST DIV SWAP3 PUSH1 0x1 DUP1 PUSH1 0xA0 SHL SUB AND PUSH1 0x0 MSTORE ADD PUSH1 0x20 MSTORE PUSH1 0x40 PUSH1 0x0 KECCAK256 SLOAD DUP1 DUP3 GT ISZERO PUSH2 0x1578 JUMPI PUSH2 0x1575 SWAP2 PUSH2 0x1449 JUMP JUMPDEST SWAP1 JUMP JUMPDEST POP POP PUSH1 0x0 SWAP1 JUMP JUMPDEST SWAP2 POP PUSH1 0x20 DUP3 RETURNDATASIZE PUSH1 0x20 GT PUSH2 0x15B3 JUMPI JUMPDEST DUP2 PUSH2 0x159A PUSH1 0x20 SWAP4 DUP4 PUSH2 0x1411 JUMP JUMPDEST DUP2 ADD SUB SLT PUSH2 0xB43 JUMPI SWAP1 MLOAD SWAP1 PUSH8 0xDE0B6B3A7640000 PUSH2 0x1532 JUMP JUMPDEST RETURNDATASIZE SWAP2 POP PUSH2 0x158D JUMP JUMPDEST PUSH1 0x40 MLOAD RETURNDATASIZE PUSH1 0x0 DUP3 RETURNDATACOPY RETURNDATASIZE SWAP1 REVERT JUMPDEST PUSH1 0x2 PUSH1 0x1 SLOAD EQ PUSH2 0x15D8 JUMPI PUSH1 0x2 PUSH1 0x1 SSTORE JUMP JUMPDEST PUSH4 0x3EE5AEB5 PUSH1 0xE0 SHL PUSH1 0x0 MSTORE PUSH1 0x4 PUSH1 0x0 REVERT JUMPDEST PUSH1 0x0 SLOAD PUSH1 0x1 PUSH1 0x1 PUSH1 0xA0 SHL SUB AND CALLER SUB PUSH2 0x15FD JUMPI JUMP JUMPDEST PUSH4 0x118CDAA7 PUSH1 0xE0 SHL PUSH1 0x0 MSTORE CALLER PUSH1 0x4 MSTORE PUSH1 0x24 PUSH1 0x0 REVERT INVALID PUSH1 0x80 PUSH1 0x40 MSTORE CALLVALUE PUSH2 0x40A JUMPI PUSH2 0xD5C DUP1 CODESIZE SUB DUP1 PUSH2 0x19 DUP2 PUSH2 0x40F JUMP JUMPDEST SWAP3 DUP4 CODECOPY DUP2 ADD PUSH1 0xC0 DUP3 DUP3 SUB SLT PUSH2 0x40A JUMPI DUP2 MLOAD PUSH1 0x1 PUSH1 0x1 PUSH1 0x40 SHL SUB DUP2 GT PUSH2 0x40A JUMPI DUP2 PUSH2 0x44 SWAP2 DUP5 ADD PUSH2 0x434 JUMP JUMPDEST PUSH1 0x20 DUP4 ADD MLOAD SWAP1 SWAP2 PUSH1 0x1 PUSH1 0x1 PUSH1 0x40 SHL SUB DUP3 GT PUSH2 0x40A JUMPI PUSH2 0x64 SWAP2 DUP5 ADD PUSH2 0x434 JUMP JUMPDEST SWAP1 PUSH1 0x40 DUP4 ADD MLOAD SWAP3 PUSH2 0x77 PUSH1 0x60 DUP3 ADD PUSH2 0x49F JUMP JUMPDEST SWAP3 PUSH1 0xA0 PUSH2 0x86 PUSH1 0x80 DUP5 ADD PUSH2 0x49F JUMP JUMPDEST SWAP3 ADD MLOAD DUP4 MLOAD SWAP1 SWAP4 PUSH1 0x1 PUSH1 0x1 PUSH1 0x40 SHL SUB DUP3 GT PUSH2 0x307 JUMPI PUSH1 0x3 SLOAD SWAP1 PUSH1 0x1 DUP3 DUP2 SHR SWAP3 AND DUP1 ISZERO PUSH2 0x400 JUMPI JUMPDEST PUSH1 0x20 DUP4 LT EQ PUSH2 0x2E7 JUMPI DUP2 PUSH1 0x1F DUP5 SWAP4 GT PUSH2 0x390 JUMPI JUMPDEST POP PUSH1 0x20 SWAP1 PUSH1 0x1F DUP4 GT PUSH1 0x1 EQ PUSH2 0x328 JUMPI PUSH1 0x0 SWAP3 PUSH2 0x31D JUMPI JUMPDEST POP POP DUP2 PUSH1 0x1 SHL SWAP2 PUSH1 0x0 NOT SWAP1 PUSH1 0x3 SHL SHR NOT AND OR PUSH1 0x3 SSTORE JUMPDEST DUP1 MLOAD SWAP1 PUSH1 0x1 PUSH1 0x1 PUSH1 0x40 SHL SUB DUP3 GT PUSH2 0x307 JUMPI PUSH1 0x4 SLOAD SWAP1 PUSH1 0x1 DUP3 DUP2 SHR SWAP3 AND DUP1 ISZERO PUSH2 0x2FD JUMPI JUMPDEST PUSH1 0x20 DUP4 LT EQ PUSH2 0x2E7 JUMPI DUP2 PUSH1 0x1F DUP5 SWAP4 GT PUSH2 0x277 JUMPI JUMPDEST POP PUSH1 0x20 SWAP1 PUSH1 0x1F DUP4 GT PUSH1 0x1 EQ PUSH2 0x20F JUMPI PUSH1 0x0 SWAP3 PUSH2 0x204 JUMPI JUMPDEST POP POP DUP2 PUSH1 0x1 SHL SWAP2 PUSH1 0x0 NOT SWAP1 PUSH1 0x3 SHL SHR NOT AND OR PUSH1 0x4 SSTORE JUMPDEST PUSH1 0x5 DUP1 SLOAD PUSH1 0x1 PUSH1 0x1 PUSH1 0xA0 SHL SUB NOT AND PUSH1 0x1 PUSH1 0x1 PUSH1 0xA0 SHL SUB SWAP3 DUP4 AND OR SWAP1 SSTORE PUSH1 0x6 SWAP2 SWAP1 SWAP2 SSTORE AND SWAP1 DUP2 ISZERO PUSH2 0x1EE JUMPI PUSH1 0x2 SLOAD DUP2 DUP2 ADD DUP1 SWAP2 GT PUSH2 0x1D8 JUMPI PUSH1 0x2 SSTORE PUSH32 0xDDF252AD1BE2C89B69C2B068FC378DAA952BA7F163C4A11628F55A4DF523B3EF PUSH1 0x20 PUSH1 0x0 SWAP3 DUP5 DUP5 MSTORE DUP4 DUP3 MSTORE PUSH1 0x40 DUP5 KECCAK256 DUP2 DUP2 SLOAD ADD SWAP1 SSTORE PUSH1 0x40 MLOAD SWAP1 DUP2 MSTORE LOG3 PUSH1 0x40 MLOAD PUSH2 0x8A8 SWAP1 DUP2 PUSH2 0x4B4 DUP3 CODECOPY RETURN JUMPDEST PUSH4 0x4E487B71 PUSH1 0xE0 SHL PUSH1 0x0 MSTORE PUSH1 0x11 PUSH1 0x4 MSTORE PUSH1 0x24 PUSH1 0x0 REVERT JUMPDEST PUSH4 0xEC442F05 PUSH1 0xE0 SHL PUSH1 0x0 MSTORE PUSH1 0x0 PUSH1 0x4 MSTORE PUSH1 0x24 PUSH1 0x0 REVERT JUMPDEST ADD MLOAD SWAP1 POP CODESIZE DUP1 PUSH2 0x13C JUMP JUMPDEST PUSH1 0x4 PUSH1 0x0 SWAP1 DUP2 MSTORE DUP3 DUP2 KECCAK256 SWAP4 POP PUSH1 0x1F NOT DUP6 AND SWAP1 JUMPDEST DUP2 DUP2 LT PUSH2 0x25F JUMPI POP SWAP1 DUP5 PUSH1 0x1 SWAP6 SWAP5 SWAP4 SWAP3 LT PUSH2 0x246 JUMPI JUMPDEST POP POP POP DUP2 SHL ADD PUSH1 0x4 SSTORE PUSH2 0x152 JUMP JUMPDEST ADD MLOAD PUSH1 0x0 NOT PUSH1 0xF8 DUP5 PUSH1 0x3 SHL AND SHR NOT AND SWAP1 SSTORE CODESIZE DUP1 DUP1 PUSH2 0x238 JUMP JUMPDEST SWAP3 SWAP4 PUSH1 0x20 PUSH1 0x1 DUP2 SWAP3 DUP8 DUP7 ADD MLOAD DUP2 SSTORE ADD SWAP6 ADD SWAP4 ADD PUSH2 0x222 JUMP JUMPDEST PUSH1 0x4 PUSH1 0x0 MSTORE SWAP1 SWAP2 POP PUSH32 0x8A35ACFBC15FF81A39AE7D344FD709F28E8600B4AA8C65C6B64BFE7FE36BD19B PUSH1 0x1F DUP5 ADD PUSH1 0x5 SHR DUP2 ADD SWAP2 PUSH1 0x20 DUP6 LT PUSH2 0x2DD JUMPI JUMPDEST SWAP1 PUSH1 0x1F DUP6 SWAP5 SWAP4 SWAP3 ADD PUSH1 0x5 SHR ADD SWAP1 JUMPDEST DUP2 DUP2 LT PUSH2 0x2CE JUMPI POP PUSH2 0x125 JUMP JUMPDEST PUSH1 0x0 DUP2 SSTORE DUP5 SWAP4 POP PUSH1 0x1 ADD PUSH2 0x2C1 JUMP JUMPDEST SWAP1 SWAP2 POP DUP2 SWAP1 PUSH2 0x2B3 JUMP JUMPDEST PUSH4 0x4E487B71 PUSH1 0xE0 SHL PUSH1 0x0 MSTORE PUSH1 0x22 PUSH1 0x4 MSTORE PUSH1 0x24 PUSH1 0x0 REVERT JUMPDEST SWAP2 PUSH1 0x7F AND SWAP2 PUSH2 0x111 JUMP JUMPDEST PUSH4 0x4E487B71 PUSH1 0xE0 SHL PUSH1 0x0 MSTORE PUSH1 0x41 PUSH1 0x4 MSTORE PUSH1 0x24 PUSH1 0x0 REVERT JUMPDEST ADD MLOAD SWAP1 POP CODESIZE DUP1 PUSH2 0xD8 JUMP JUMPDEST PUSH1 0x3 PUSH1 0x0 SWAP1 DUP2 MSTORE DUP3 DUP2 KECCAK256 SWAP4 POP PUSH1 0x1F NOT DUP6 AND SWAP1 JUMPDEST DUP2 DUP2 LT PUSH2 0x378 JUMPI POP SWAP1 DUP5 PUSH1 0x1 SWAP6 SWAP5 SWAP4 SWAP3 LT PUSH2 0x35F JUMPI JUMPDEST POP POP POP DUP2 SHL ADD PUSH1 0x3 SSTORE PUSH2 0xEE JUMP JUMPDEST ADD MLOAD PUSH1 0x0 NOT PUSH1 0xF8 DUP5 PUSH1 0x3 SHL AND SHR NOT AND SWAP1 SSTORE CODESIZE DUP1 DUP1 PUSH2 0x351 JUMP JUMPDEST SWAP3 SWAP4 PUSH1 0x20 PUSH1 0x1 DUP2 SWAP3 DUP8 DUP7 ADD MLOAD DUP2 SSTORE ADD SWAP6 ADD SWAP4 ADD PUSH2 0x33B JUMP JUMPDEST PUSH1 0x3 PUSH1 0x0 MSTORE SWAP1 SWAP2 POP PUSH32 0xC2575A0E9E593C00F959F8C92F12DB2869C3395A3B0502D05E2516446F71F85B PUSH1 0x1F DUP5 ADD PUSH1 0x5 SHR DUP2 ADD SWAP2 PUSH1 0x20 DUP6 LT PUSH2 0x3F6 JUMPI JUMPDEST SWAP1 PUSH1 0x1F DUP6 SWAP5 SWAP4 SWAP3 ADD PUSH1 0x5 SHR ADD SWAP1 JUMPDEST DUP2 DUP2 LT PUSH2 0x3E7 JUMPI POP PUSH2 0xC1 JUMP JUMPDEST PUSH1 0x0 DUP2 SSTORE DUP5 SWAP4 POP PUSH1 0x1 ADD PUSH2 0x3DA JUMP JUMPDEST SWAP1 SWAP2 POP DUP2 SWAP1 PUSH2 0x3CC JUMP JUMPDEST SWAP2 PUSH1 0x7F AND SWAP2 PUSH2 0xAD JUMP JUMPDEST PUSH1 0x0 DUP1 REVERT JUMPDEST PUSH1 0x40 MLOAD SWAP2 SWAP1 PUSH1 0x1F ADD PUSH1 0x1F NOT AND DUP3 ADD PUSH1 0x1 PUSH1 0x1 PUSH1 0x40 SHL SUB DUP2 GT DUP4 DUP3 LT OR PUSH2 0x307 JUMPI PUSH1 0x40 MSTORE JUMP JUMPDEST DUP2 PUSH1 0x1F DUP3 ADD SLT ISZERO PUSH2 0x40A JUMPI DUP1 MLOAD SWAP1 PUSH1 0x1 PUSH1 0x1 PUSH1 0x40 SHL SUB DUP3 GT PUSH2 0x307 JUMPI PUSH2 0x463 PUSH1 0x1F DUP4 ADD PUSH1 0x1F NOT AND PUSH1 0x20 ADD PUSH2 0x40F JUMP JUMPDEST SWAP3 DUP3 DUP5 MSTORE PUSH1 0x20 DUP4 DUP4 ADD ADD GT PUSH2 0x40A JUMPI PUSH1 0x0 JUMPDEST DUP3 DUP2 LT PUSH2 0x48A JUMPI POP POP PUSH1 0x20 PUSH1 0x0 SWAP2 DUP4 ADD ADD MSTORE SWAP1 JUMP JUMPDEST DUP1 PUSH1 0x20 DUP1 SWAP3 DUP5 ADD ADD MLOAD DUP3 DUP3 DUP8 ADD ADD MSTORE ADD PUSH2 0x475 JUMP JUMPDEST MLOAD SWAP1 PUSH1 0x1 PUSH1 0x1 PUSH1 0xA0 SHL SUB DUP3 AND DUP3 SUB PUSH2 0x40A JUMPI JUMP INVALID PUSH1 0x80 DUP1 PUSH1 0x40 MSTORE PUSH1 0x4 CALLDATASIZE LT ISZERO PUSH2 0x13 JUMPI PUSH1 0x0 DUP1 REVERT JUMPDEST PUSH1 0x0 CALLDATALOAD PUSH1 0xE0 SHR SWAP1 DUP2 PUSH4 0x6FDDE03 EQ PUSH2 0x54F JUMPI POP DUP1 PUSH4 0x95EA7B3 EQ PUSH2 0x49D JUMPI DUP1 PUSH4 0x138BBDC7 EQ PUSH2 0x47F JUMPI DUP1 PUSH4 0x18160DDD EQ PUSH2 0x461 JUMPI DUP1 PUSH4 0x23B872DD EQ PUSH2 0x429 JUMPI DUP1 PUSH4 0x313CE567 EQ PUSH2 0x40D JUMPI DUP1 PUSH4 0x42966C68 EQ PUSH2 0x3F0 JUMPI DUP1 PUSH4 0x48B40561 EQ PUSH2 0x2F6 JUMPI DUP1 PUSH4 0x70A08231 EQ PUSH2 0x2BC JUMPI DUP1 PUSH4 0x79CC6790 EQ PUSH2 0x28A JUMPI DUP1 PUSH4 0x95D89B41 EQ PUSH2 0x169 JUMPI DUP1 PUSH4 0xA9059CBB EQ PUSH2 0x138 JUMPI DUP1 PUSH4 0xD03B0E49 EQ PUSH2 0x10F JUMPI PUSH4 0xDD62ED3E EQ PUSH2 0xB9 JUMPI PUSH1 0x0 DUP1 REVERT JUMPDEST CALLVALUE PUSH2 0x10A JUMPI PUSH1 0x40 CALLDATASIZE PUSH1 0x3 NOT ADD SLT PUSH2 0x10A JUMPI PUSH2 0xD2 PUSH2 0x66B JUMP JUMPDEST PUSH2 0xDA PUSH2 0x681 JUMP JUMPDEST PUSH1 0x1 PUSH1 0x1 PUSH1 0xA0 SHL SUB SWAP2 DUP3 AND PUSH1 0x0 SWAP1 DUP2 MSTORE PUSH1 0x1 PUSH1 0x20 SWAP1 DUP2 MSTORE PUSH1 0x40 DUP1 DUP4 KECCAK256 SWAP5 SWAP1 SWAP4 AND DUP3 MSTORE SWAP3 DUP4 MSTORE DUP2 SWAP1 KECCAK256 SLOAD SWAP1 MLOAD SWAP1 DUP2 MSTORE RETURN JUMPDEST PUSH1 0x0 DUP1 REVERT JUMPDEST CALLVALUE PUSH2 0x10A JUMPI PUSH1 0x0 CALLDATASIZE PUSH1 0x3 NOT ADD SLT PUSH2 0x10A JUMPI PUSH1 0x5 SLOAD PUSH1 0x40 MLOAD PUSH1 0x1 PUSH1 0x1 PUSH1 0xA0 SHL SUB SWAP1 SWAP2 AND DUP2 MSTORE PUSH1 0x20 SWAP1 RETURN JUMPDEST CALLVALUE PUSH2 0x10A JUMPI PUSH1 0x40 CALLDATASIZE PUSH1 0x3 NOT ADD SLT PUSH2 0x10A JUMPI PUSH2 0x15E PUSH2 0x154 PUSH2 0x66B JUMP JUMPDEST PUSH1 0x24 CALLDATALOAD SWAP1 CALLER PUSH2 0x742 JUMP JUMPDEST PUSH1 0x20 PUSH1 0x40 MLOAD PUSH1 0x1 DUP2 MSTORE RETURN JUMPDEST CALLVALUE PUSH2 0x10A JUMPI PUSH1 0x0 CALLDATASIZE PUSH1 0x3 NOT ADD SLT PUSH2 0x10A JUMPI PUSH1 0x40 MLOAD PUSH1 0x0 PUSH1 0x4 SLOAD DUP1 PUSH1 0x1 SHR SWAP1 PUSH1 0x1 DUP2 AND DUP1 ISZERO PUSH2 0x280 JUMPI JUMPDEST PUSH1 0x20 DUP4 LT DUP2 EQ PUSH2 0x26C JUMPI DUP3 DUP6 MSTORE SWAP1 DUP2 ISZERO PUSH2 0x250 JUMPI POP PUSH1 0x1 EQ PUSH2 0x1F9 JUMPI JUMPDEST POP DUP2 SWAP1 SUB PUSH1 0x1F ADD PUSH1 0x1F NOT AND DUP2 ADD SWAP1 PUSH8 0xFFFFFFFFFFFFFFFF DUP3 GT DUP2 DUP4 LT OR PUSH2 0x1E3 JUMPI PUSH2 0x1DF DUP3 SWAP2 DUP3 PUSH1 0x40 MSTORE DUP3 PUSH2 0x622 JUMP JUMPDEST SUB SWAP1 RETURN JUMPDEST PUSH4 0x4E487B71 PUSH1 0xE0 SHL PUSH1 0x0 MSTORE PUSH1 0x41 PUSH1 0x4 MSTORE PUSH1 0x24 PUSH1 0x0 REVERT JUMPDEST SWAP1 POP PUSH1 0x4 PUSH1 0x0 MSTORE PUSH32 0x8A35ACFBC15FF81A39AE7D344FD709F28E8600B4AA8C65C6B64BFE7FE36BD19B PUSH1 0x0 SWAP1 JUMPDEST DUP3 DUP3 LT PUSH2 0x23A JUMPI POP PUSH1 0x20 SWAP2 POP DUP3 ADD ADD DUP3 PUSH2 0x1AF JUMP JUMPDEST PUSH1 0x1 DUP2 PUSH1 0x20 SWAP3 SLOAD DUP4 DUP6 DUP9 ADD ADD MSTORE ADD SWAP2 ADD SWAP1 PUSH2 0x225 JUMP JUMPDEST SWAP1 POP PUSH1 0x20 SWAP3 POP PUSH1 0xFF NOT AND DUP3 DUP5 ADD MSTORE ISZERO ISZERO PUSH1 0x5 SHL DUP3 ADD ADD DUP3 PUSH2 0x1AF JUMP JUMPDEST PUSH4 0x4E487B71 PUSH1 0xE0 SHL DUP5 MSTORE PUSH1 0x22 PUSH1 0x4 MSTORE PUSH1 0x24 DUP5 REVERT JUMPDEST SWAP2 PUSH1 0x7F AND SWAP2 PUSH2 0x192 JUMP JUMPDEST CALLVALUE PUSH2 0x10A JUMPI PUSH1 0x40 CALLDATASIZE PUSH1 0x3 NOT ADD SLT PUSH2 0x10A JUMPI PUSH2 0x2BA PUSH2 0x2A6 PUSH2 0x66B JUMP JUMPDEST PUSH1 0x24 CALLDATALOAD SWAP1 PUSH2 0x2B5 DUP3 CALLER DUP4 PUSH2 0x697 JUMP JUMPDEST PUSH2 0x7F1 JUMP JUMPDEST STOP JUMPDEST CALLVALUE PUSH2 0x10A JUMPI PUSH1 0x20 CALLDATASIZE PUSH1 0x3 NOT ADD SLT PUSH2 0x10A JUMPI PUSH1 0x1 PUSH1 0x1 PUSH1 0xA0 SHL SUB PUSH2 0x2DD PUSH2 0x66B JUMP JUMPDEST AND PUSH1 0x0 MSTORE PUSH1 0x0 PUSH1 0x20 MSTORE PUSH1 0x20 PUSH1 0x40 PUSH1 0x0 KECCAK256 SLOAD PUSH1 0x40 MLOAD SWAP1 DUP2 MSTORE RETURN JUMPDEST CALLVALUE PUSH2 0x10A JUMPI PUSH1 0x40 CALLDATASIZE PUSH1 0x3 NOT ADD SLT PUSH2 0x10A JUMPI PUSH2 0x30F PUSH2 0x66B JUMP JUMPDEST PUSH1 0x5 SLOAD PUSH1 0x24 CALLDATALOAD SWAP2 SWAP1 PUSH1 0x1 PUSH1 0x1 PUSH1 0xA0 SHL SUB AND CALLER SUB PUSH2 0x3B5 JUMPI PUSH1 0x1 PUSH1 0x1 PUSH1 0xA0 SHL SUB AND DUP1 ISZERO PUSH2 0x39F JUMPI PUSH1 0x2 SLOAD SWAP2 DUP1 DUP4 ADD DUP1 SWAP4 GT PUSH2 0x389 JUMPI PUSH1 0x20 SWAP3 PUSH1 0x2 SSTORE PUSH32 0xDDF252AD1BE2C89B69C2B068FC378DAA952BA7F163C4A11628F55A4DF523B3EF PUSH1 0x0 SWAP4 DUP5 SWAP3 DUP5 DUP5 MSTORE DUP4 DUP3 MSTORE PUSH1 0x40 DUP5 KECCAK256 DUP2 DUP2 SLOAD ADD SWAP1 SSTORE PUSH1 0x40 MLOAD SWAP1 DUP2 MSTORE LOG3 DUP1 RETURN JUMPDEST PUSH4 0x4E487B71 PUSH1 0xE0 SHL PUSH1 0x0 MSTORE PUSH1 0x11 PUSH1 0x4 MSTORE PUSH1 0x24 PUSH1 0x0 REVERT JUMPDEST PUSH4 0xEC442F05 PUSH1 0xE0 SHL PUSH1 0x0 MSTORE PUSH1 0x0 PUSH1 0x4 MSTORE PUSH1 0x24 PUSH1 0x0 REVERT JUMPDEST PUSH1 0x40 MLOAD PUSH3 0x461BCD PUSH1 0xE5 SHL DUP2 MSTORE PUSH1 0x20 PUSH1 0x4 DUP3 ADD MSTORE PUSH1 0x13 PUSH1 0x24 DUP3 ADD MSTORE PUSH19 0x27B7363C90333930B1BA34B7B730B634BD32B9 PUSH1 0x69 SHL PUSH1 0x44 DUP3 ADD MSTORE PUSH1 0x64 SWAP1 REVERT JUMPDEST CALLVALUE PUSH2 0x10A JUMPI PUSH1 0x20 CALLDATASIZE PUSH1 0x3 NOT ADD SLT PUSH2 0x10A JUMPI PUSH2 0x2BA PUSH1 0x4 CALLDATALOAD CALLER PUSH2 0x7F1 JUMP JUMPDEST CALLVALUE PUSH2 0x10A JUMPI PUSH1 0x0 CALLDATASIZE PUSH1 0x3 NOT ADD SLT PUSH2 0x10A JUMPI PUSH1 0x20 PUSH1 0x40 MLOAD PUSH1 0x12 DUP2 MSTORE RETURN JUMPDEST CALLVALUE PUSH2 0x10A JUMPI PUSH1 0x60 CALLDATASIZE PUSH1 0x3 NOT ADD SLT PUSH2 0x10A JUMPI PUSH2 0x15E PUSH2 0x445 PUSH2 0x66B JUMP JUMPDEST PUSH2 0x44D PUSH2 0x681 JUMP JUMPDEST PUSH1 0x44 CALLDATALOAD SWAP2 PUSH2 0x45C DUP4 CALLER DUP4 PUSH2 0x697 JUMP JUMPDEST PUSH2 0x742 JUMP JUMPDEST CALLVALUE PUSH2 0x10A JUMPI PUSH1 0x0 CALLDATASIZE PUSH1 0x3 NOT ADD SLT PUSH2 0x10A JUMPI PUSH1 0x20 PUSH1 0x2 SLOAD PUSH1 0x40 MLOAD SWAP1 DUP2 MSTORE RETURN JUMPDEST CALLVALUE PUSH2 0x10A JUMPI PUSH1 0x0 CALLDATASIZE PUSH1 0x3 NOT ADD SLT PUSH2 0x10A JUMPI PUSH1 0x20 PUSH1 0x6 SLOAD PUSH1 0x40 MLOAD SWAP1 DUP2 MSTORE RETURN JUMPDEST CALLVALUE PUSH2 0x10A JUMPI PUSH1 0x40 CALLDATASIZE PUSH1 0x3 NOT ADD SLT PUSH2 0x10A JUMPI PUSH2 0x4B6 PUSH2 0x66B JUMP JUMPDEST PUSH1 0x24 CALLDATALOAD SWAP1 CALLER ISZERO PUSH2 0x539 JUMPI PUSH1 0x1 PUSH1 0x1 PUSH1 0xA0 SHL SUB AND SWAP1 DUP2 ISZERO PUSH2 0x523 JUMPI CALLER PUSH1 0x0 MSTORE PUSH1 0x1 PUSH1 0x20 MSTORE PUSH1 0x40 PUSH1 0x0 KECCAK256 DUP3 PUSH1 0x0 MSTORE PUSH1 0x20 MSTORE DUP1 PUSH1 0x40 PUSH1 0x0 KECCAK256 SSTORE PUSH1 0x40 MLOAD SWAP1 DUP2 MSTORE PUSH32 0x8C5BE1E5EBEC7D5BD14F71427D1E84F3DD0314C0F7B2291E5B200AC8C7C3B925 PUSH1 0x20 CALLER SWAP3 LOG3 PUSH1 0x20 PUSH1 0x40 MLOAD PUSH1 0x1 DUP2 MSTORE RETURN JUMPDEST PUSH4 0x4A1406B1 PUSH1 0xE1 SHL PUSH1 0x0 MSTORE PUSH1 0x0 PUSH1 0x4 MSTORE PUSH1 0x24 PUSH1 0x0 REVERT JUMPDEST PUSH4 0xE602DF05 PUSH1 0xE0 SHL PUSH1 0x0 MSTORE PUSH1 0x0 PUSH1 0x4 MSTORE PUSH1 0x24 PUSH1 0x0 REVERT JUMPDEST CALLVALUE PUSH2 0x10A JUMPI PUSH1 0x0 CALLDATASIZE PUSH1 0x3 NOT ADD SLT PUSH2 0x10A JUMPI PUSH1 0x0 PUSH1 0x3 SLOAD DUP1 PUSH1 0x1 SHR SWAP1 PUSH1 0x1 DUP2 AND DUP1 ISZERO PUSH2 0x618 JUMPI JUMPDEST PUSH1 0x20 DUP4 LT DUP2 EQ PUSH2 0x26C JUMPI DUP3 DUP6 MSTORE SWAP1 DUP2 ISZERO PUSH2 0x250 JUMPI POP PUSH1 0x1 EQ PUSH2 0x5C1 JUMPI POP DUP2 SWAP1 SUB PUSH1 0x1F ADD PUSH1 0x1F NOT AND DUP2 ADD SWAP1 PUSH8 0xFFFFFFFFFFFFFFFF DUP3 GT DUP2 DUP4 LT OR PUSH2 0x1E3 JUMPI PUSH2 0x1DF DUP3 SWAP2 DUP3 PUSH1 0x40 MSTORE DUP3 PUSH2 0x622 JUMP JUMPDEST SWAP1 POP PUSH1 0x3 PUSH1 0x0 MSTORE PUSH32 0xC2575A0E9E593C00F959F8C92F12DB2869C3395A3B0502D05E2516446F71F85B PUSH1 0x0 SWAP1 JUMPDEST DUP3 DUP3 LT PUSH2 0x602 JUMPI POP PUSH1 0x20 SWAP2 POP DUP3 ADD ADD DUP3 PUSH2 0x1AF JUMP JUMPDEST PUSH1 0x1 DUP2 PUSH1 0x20 SWAP3 SLOAD DUP4 DUP6 DUP9 ADD ADD MSTORE ADD SWAP2 ADD SWAP1 PUSH2 0x5ED JUMP JUMPDEST SWAP2 PUSH1 0x7F AND SWAP2 PUSH2 0x575 JUMP JUMPDEST SWAP2 SWAP1 SWAP2 PUSH1 0x20 DUP2 MSTORE DUP3 MLOAD DUP1 PUSH1 0x20 DUP4 ADD MSTORE PUSH1 0x0 JUMPDEST DUP2 DUP2 LT PUSH2 0x655 JUMPI POP PUSH1 0x40 SWAP3 SWAP4 POP PUSH1 0x0 DUP4 DUP3 DUP5 ADD ADD MSTORE PUSH1 0x1F DUP1 NOT SWAP2 ADD AND ADD ADD SWAP1 JUMP JUMPDEST DUP1 PUSH1 0x20 DUP1 SWAP3 DUP8 ADD ADD MLOAD PUSH1 0x40 DUP3 DUP7 ADD ADD MSTORE ADD PUSH2 0x634 JUMP JUMPDEST PUSH1 0x4 CALLDATALOAD SWAP1 PUSH1 0x1 PUSH1 0x1 PUSH1 0xA0 SHL SUB DUP3 AND DUP3 SUB PUSH2 0x10A JUMPI JUMP JUMPDEST PUSH1 0x24 CALLDATALOAD SWAP1 PUSH1 0x1 PUSH1 0x1 PUSH1 0xA0 SHL SUB DUP3 AND DUP3 SUB PUSH2 0x10A JUMPI JUMP JUMPDEST PUSH1 0x1 PUSH1 0x1 PUSH1 0xA0 SHL SUB SWAP1 DUP2 AND PUSH1 0x0 DUP2 DUP2 MSTORE PUSH1 0x1 PUSH1 0x20 SWAP1 DUP2 MSTORE PUSH1 0x40 DUP1 DUP4 KECCAK256 SWAP5 DUP7 AND DUP4 MSTORE SWAP4 SWAP1 MSTORE SWAP2 SWAP1 SWAP2 KECCAK256 SLOAD SWAP3 SWAP2 SWAP1 PUSH1 0x0 NOT DUP5 LT PUSH2 0x6D3 JUMPI JUMPDEST POP POP POP POP JUMP JUMPDEST DUP3 DUP5 LT PUSH2 0x71D JUMPI DUP1 ISZERO PUSH2 0x539 JUMPI PUSH1 0x1 PUSH1 0x1 PUSH1 0xA0 SHL SUB DUP3 AND ISZERO PUSH2 0x523 JUMPI PUSH1 0x0 MSTORE PUSH1 0x1 PUSH1 0x20 MSTORE PUSH1 0x40 PUSH1 0x0 KECCAK256 SWAP1 PUSH1 0x1 DUP1 PUSH1 0xA0 SHL SUB AND PUSH1 0x0 MSTORE PUSH1 0x20 MSTORE PUSH1 0x40 PUSH1 0x0 KECCAK256 SWAP2 SUB SWAP1 SSTORE CODESIZE DUP1 DUP1 DUP1 PUSH2 0x6CD JUMP JUMPDEST POP DUP3 SWAP1 PUSH4 0x7DC7A0D9 PUSH1 0xE1 SHL PUSH1 0x0 MSTORE PUSH1 0x1 DUP1 PUSH1 0xA0 SHL SUB AND PUSH1 0x4 MSTORE PUSH1 0x24 MSTORE PUSH1 0x44 MSTORE PUSH1 0x64 PUSH1 0x0 REVERT JUMPDEST PUSH1 0x1 PUSH1 0x1 PUSH1 0xA0 SHL SUB AND SWAP1 DUP2 ISZERO PUSH2 0x7DB JUMPI PUSH1 0x1 PUSH1 0x1 PUSH1 0xA0 SHL SUB AND SWAP2 DUP3 ISZERO PUSH2 0x39F JUMPI PUSH1 0x0 DUP3 DUP2 MSTORE DUP1 PUSH1 0x20 MSTORE PUSH1 0x40 DUP2 KECCAK256 SLOAD DUP3 DUP2 LT PUSH2 0x7C1 JUMPI SWAP2 PUSH1 0x40 DUP3 DUP3 PUSH32 0xDDF252AD1BE2C89B69C2B068FC378DAA952BA7F163C4A11628F55A4DF523B3EF SWAP6 DUP8 PUSH1 0x20 SWAP7 MSTORE DUP3 DUP7 MSTORE SUB DUP3 DUP3 KECCAK256 SSTORE DUP7 DUP2 MSTORE DUP1 DUP5 MSTORE KECCAK256 DUP2 DUP2 SLOAD ADD SWAP1 SSTORE PUSH1 0x40 MLOAD SWAP1 DUP2 MSTORE LOG3 JUMP JUMPDEST SWAP2 PUSH1 0x64 SWAP3 DUP5 PUSH4 0x391434E3 PUSH1 0xE2 SHL DUP5 MSTORE PUSH1 0x4 MSTORE PUSH1 0x24 MSTORE PUSH1 0x44 MSTORE REVERT JUMPDEST PUSH4 0x4B637E8F PUSH1 0xE1 SHL PUSH1 0x0 MSTORE PUSH1 0x0 PUSH1 0x4 MSTORE PUSH1 0x24 PUSH1 0x0 REVERT JUMPDEST PUSH1 0x1 PUSH1 0x1 PUSH1 0xA0 SHL SUB AND DUP1 ISZERO PUSH2 0x7DB JUMPI PUSH1 0x0 SWAP2 DUP2 DUP4 MSTORE DUP3 PUSH1 0x20 MSTORE PUSH1 0x40 DUP4 KECCAK256 SLOAD DUP2 DUP2 LT PUSH2 0x859 JUMPI DUP2 PUSH32 0xDDF252AD1BE2C89B69C2B068FC378DAA952BA7F163C4A11628F55A4DF523B3EF SWAP3 PUSH1 0x20 SWAP3 DUP6 DUP8 MSTORE DUP7 DUP5 MSTORE SUB PUSH1 0x40 DUP7 KECCAK256 SSTORE DUP1 PUSH1 0x2 SLOAD SUB PUSH1 0x2 SSTORE PUSH1 0x40 MLOAD SWAP1 DUP2 MSTORE LOG3 JUMP JUMPDEST PUSH1 0x64 SWAP4 SWAP3 PUSH4 0x391434E3 PUSH1 0xE2 SHL DUP5 MSTORE PUSH1 0x4 MSTORE PUSH1 0x24 MSTORE PUSH1 0x44 MSTORE REVERT INVALID LOG2 PUSH5 0x6970667358 0x22 SLT KECCAK256 PUSH11 0xD9D38EF6A5E94B67716440 0x2B PUSH4 0x8903695 MCOPY 0xB8 PUSH32 0xBA13085D5E8BD724156D1264736F6C634300081C0033A2646970667358221220 RETURNDATACOPY 0xDA 0x1E PUSH7 0x720E002B3B9693 PUSH10 0x94C5AB668014CB5079 0xC4 0xD0 0xE5 SWAP1 0xEF DUP11 MCOPY PUSH25 0x40B864736F6C634300081C0033000000000000000000000000 "},"methodIdentifiers":{"assetToPool(uint256)":"11b8c780","buyFractions(uint256,uint256)":"ea370276","claimDividends(uint256)":"bd7047c4","claimableAmount(uint256,address)":"f311df8e","depositToPool(uint256)":"68b0e070","fractionalize(uint256,address,uint256,string,string,uint256,uint256,uint256,address)":"ecbeaac3","owner()":"8da5cb5b","poolInfo(uint256)":"1526fe27","recombineAndWithdraw(uint256)":"7b7195c6","registry()":"7b103999","renounceOwnership()":"715018a6","setAssetPool(uint256,uint256)":"f998bf81","totalPools()":"ab3c7e52","transferOwnership(address)":"f2fde38b"}}}}}