{
  "_format": "hh-sol-artifact-1",
  "contractName": "AssetRegistry",
  "sourceName": "contracts/MarketAsset.sol",
  "abi": [
    {
      "inputs": [
        {
          "internalType": "address",
          "name": "_assetNft",
          "type": "address"
        }
      ],
      "stateMutability": "nonpayable",
      "type": "constructor"
    },
    {
      "inputs": [
        {
          "internalType": "address",
          "name": "owner",
          "type": "address"
        }
      ],
      "name": "OwnableInvalidOwner",
      "type": "error"
    },
    {
      "inputs": [
        {
          "internalType": "address",
          "name": "account",
          "type": "address"
        }
      ],
      "name": "OwnableUnauthorizedAccount",
      "type": "error"
    },
    {
      "inputs": [],
      "name": "ReentrancyGuardReentrantCall",
      "type": "error"
    },
    {
      "anonymous": false,
      "inputs": [
        {
          "indexed": true,
          "internalType": "uint256",
          "name": "assetId",
          "type": "uint256"
        },
        {
          "indexed": true,
          "internalType": "address",
          "name": "creator",
          "type": "address"
        },
        {
          "indexed": false,
          "internalType": "address",
          "name": "nftContract",
          "type": "address"
        },
        {
          "indexed": false,
          "internalType": "uint256",
          "name": "tokenId",
          "type": "uint256"
        },
        {
          "indexed": false,
          "internalType": "string",
          "name": "metadataURI",
          "type": "string"
        },
        {
          "indexed": false,
          "internalType": "uint16",
          "name": "royaltyBPS",
          "type": "uint16"
        }
      ],
      "name": "AssetRegistered",
      "type": "event"
    },
    {
      "anonymous": false,
      "inputs": [
        {
          "indexed": true,
          "internalType": "address",
          "name": "previousOwner",
          "type": "address"
        },
        {
          "indexed": true,
          "internalType": "address",
          "name": "newOwner",
          "type": "address"
        }
      ],
      "name": "OwnershipTransferred",
      "type": "event"
    },
    {
      "inputs": [],
      "name": "assetNFT",
      "outputs": [
        {
          "internalType": "contract AssetNFT",
          "name": "",
          "type": "address"
        }
      ],
      "stateMutability": "view",
      "type": "function"
    },
    {
      "inputs": [
        {
          "internalType": "uint256",
          "name": "",
          "type": "uint256"
        }
      ],
      "name": "assets",
      "outputs": [
        {
          "internalType": "uint256",
          "name": "assetId",
          "type": "uint256"
        },
        {
          "internalType": "address",
          "name": "creator",
          "type": "address"
        },
        {
          "internalType": "string",
          "name": "metadataURI",
          "type": "string"
        },
        {
          "internalType": "uint16",
          "name": "defaultRoyaltyBPS",
          "type": "uint16"
        },
        {
          "internalType": "uint256",
          "name": "tokenId",
          "type": "uint256"
        },
        {
          "internalType": "address",
          "name": "nftContract",
          "type": "address"
        },
        {
          "internalType": "bool",
          "name": "exists",
          "type": "bool"
        }
      ],
      "stateMutability": "view",
      "type": "function"
    },
    {
      "inputs": [
        {
          "internalType": "uint256",
          "name": "assetId",
          "type": "uint256"
        }
      ],
      "name": "getAsset",
      "outputs": [
        {
          "components": [
            {
              "internalType": "uint256",
              "name": "assetId",
              "type": "uint256"
            },
            {
              "internalType": "address",
              "name": "creator",
              "type": "address"
            },
            {
              "internalType": "string",
              "name": "metadataURI",
              "type": "string"
            },
            {
              "internalType": "uint16",
              "name": "defaultRoyaltyBPS",
              "type": "uint16"
            },
            {
              "internalType": "uint256",
              "name": "tokenId",
              "type": "uint256"
            },
            {
              "internalType": "address",
              "name": "nftContract",
              "type": "address"
            },
            {
              "internalType": "bool",
              "name": "exists",
              "type": "bool"
            }
          ],
          "internalType": "struct AssetRegistry.Asset",
          "name": "",
          "type": "tuple"
        }
      ],
      "stateMutability": "view",
      "type": "function"
    },
    {
      "inputs": [],
      "name": "owner",
      "outputs": [
        {
          "internalType": "address",
          "name": "",
          "type": "address"
        }
      ],
      "stateMutability": "view",
      "type": "function"
    },
    {
      "inputs": [
        {
          "internalType": "string",
          "name": "metadataURI",
          "type": "string"
        },
        {
          "internalType": "uint16",
          "name": "defaultRoyaltyBPS",
          "type": "uint16"
        }
      ],
      "name": "registerAsset",
      "outputs": [
        {
          "internalType": "uint256",
          "name": "",
          "type": "uint256"
        }
      ],
      "stateMutability": "nonpayable",
      "type": "function"
    },
    {
      "inputs": [],
      "name": "renounceOwnership",
      "outputs": [],
      "stateMutability": "nonpayable",
      "type": "function"
    },
    {
      "inputs": [],
      "name": "totalAssets",
      "outputs": [
        {
          "internalType": "uint256",
          "name": "",
          "type": "uint256"
        }
      ],
      "stateMutability": "view",
      "type": "function"
    },
    {
      "inputs": [
        {
          "internalType": "address",
          "name": "newOwner",
          "type": "address"
        }
      ],
      "name": "transferOwnership",
      "outputs": [],
      "stateMutability": "nonpayable",
      "type": "function"
    }
  ],
  "bytecode": "0x60803460d557601f610ae838819003918201601f19168301916001600160401b0383118484101760da5780849260209460405283398101031260d557516001600160a01b0381169081900360d557331560bf5760008054336001600160a01b0319821681178355604051939290916001600160a01b0316907f8be0079c531659141344cd1fd0a4f28419497f9722a3daafe3b4186f6b6457e09080a360018055600480546001600160a01b0319169190911790556109f790816100f18239f35b631e4fbdf760e01b600052600060045260246000fd5b600080fd5b634e487b7160e01b600052604160045260246000fdfe608080604052600436101561001357600080fd5b60003560e01c90816301e1d114146107e957508063715018a6146107905780638805f81c1461032c5780638da5cb5b14610303578063ac6a258d146102da578063cf35bdd01461023b578063eac8f5b8146101095763f2fde38b1461007757600080fd5b34610104576020366003190112610104576004356001600160a01b03811690819003610104576100a5610998565b80156100ee57600080546001600160a01b03198116831782556001600160a01b0316907f8be0079c531659141344cd1fd0a4f28419497f9722a3daafe3b4186f6b6457e09080a3005b631e4fbdf760e01b600052600060045260246000fd5b600080fd5b3461010457602036600319011261010457600060c060405161012a8161083e565b828152826020820152606060408201528260608201528260808201528260a082015201526004356000526003602052604060002060405161016a8161083e565b8154815260018201546001600160a01b0316602082019081529161019060028201610892565b906040830191825261ffff600382015416916060840192835260056004830154926080860193845201549161ffff61021260a087019360018060a01b038616855260ff60c089019660a01c161515865260405198899860208a525160208a015260018060a01b0390511660408901525160e06060890152610100880190610936565b94511660808601525160a0850152516001600160a01b031660c084015251151560e08301520390f35b34610104576020366003190112610104576004356000908152600360205260409020805460018201546001600160a01b03169160ff61027c60028301610892565b61ffff600384015416926102b260056004830154920154926040519788978852602088015260e0604088015260e0870190610936565b936060860152608085015260018060a01b03811660a085015260a01c16151560c08301520390f35b34610104576000366003190112610104576004546040516001600160a01b039091168152602090f35b34610104576000366003190112610104576000546040516001600160a01b039091168152602090f35b346101045760403660031901126101045760043567ffffffffffffffff811161010457366023820112156101045767ffffffffffffffff816004013511610104573660248260040135830101116101045760243561ffff811681036101045760026001541461077f57600260015561271061ffff82161161074b57600160025401908160025560018060a01b036004541660206040518092634ed6a5f760e01b825233600483015260406024830152816000816103f4604482018b6004013560248d01610977565b03925af190811561073f5760009161070d575b5060018060a01b0360045416936040516104208161083e565b84815260208101953387526000966040519161044a6020601f19601f886004013501160184610870565b6004850135808452602486016020850137886020866004013585010152604084019283526060840161ffff88168152608085019187835260a086015260c085019360018552898b52600360205260408b20938651855560018060a01b03905116600185019060018060a01b03166bffffffffffffffffffffffff60a01b8254161790555180519067ffffffffffffffff82116106f9576104ed6002860154610804565b601f81116106b1575b5060209b8b9998979695949392918d916001601f85111461060a5793836005947f2a02f636dc04867741f703dd656f2f88f1ae13b7669d60408c6a8ba9d29a2ed49c9b989461ffff9b98946105e69b98926105ff575b50508160011b916000199060031b1c19161760028401555b516003830180548a1916918a169190911790555160048083019190915560a09485015192909101805493516001600160a81b03199094166001600160a01b039384161793151590941b60ff60a01b16929092179092558054604080519190931681528b8101969096526080918601829052908501919081013590602401610977565b941660608201528033940390a360018055604051908152f35b01519050388061054c565b9a99989796959493929190600286018c52818c209b5b601f19841681106106975750926001837f2a02f636dc04867741f703dd656f2f88f1ae13b7669d60408c6a8ba9d29a2ed49c9d61ffff9b9997946005976105e69c9a97601f1981161061067e575b505050811b016002840155610564565b015160001960f88460031b161c1916905538808061066e565b828201518d556001909c019b8e9b50918f01918f01610620565b600286018d5260208d20601f840160051c810191602085106106ef575b601f0160051c01905b8181106106e457506104f6565b8d81556001016106d7565b90915081906106ce565b634e487b7160e01b8c52604160045260248cfd5b90506020813d602011610737575b8161072860209383610870565b81010312610104575184610407565b3d915061071b565b6040513d6000823e3d90fd5b60405162461bcd60e51b815260206004820152600c60248201526b726f79616c74793e3130302560a01b6044820152606490fd5b633ee5aeb560e01b60005260046000fd5b34610104576000366003190112610104576107a9610998565b600080546001600160a01b0319811682556001600160a01b03167f8be0079c531659141344cd1fd0a4f28419497f9722a3daafe3b4186f6b6457e08280a3005b34610104576000366003190112610104576020906002548152f35b90600182811c92168015610834575b602083101461081e57565b634e487b7160e01b600052602260045260246000fd5b91607f1691610813565b60e0810190811067ffffffffffffffff82111761085a57604052565b634e487b7160e01b600052604160045260246000fd5b90601f8019910116810190811067ffffffffffffffff82111761085a57604052565b90604051918260008254926108a684610804565b808452936001811690811561091457506001146108cd575b506108cb92500383610870565b565b90506000929192526020600020906000915b8183106108f85750509060206108cb92820101386108be565b60209193508060019154838589010152019101909184926108df565b9050602092506108cb94915060ff191682840152151560051b820101386108be565b919082519283825260005b848110610962575050826000602080949584010152601f8019910116010190565b80602080928401015182828601015201610941565b908060209392818452848401376000828201840152601f01601f1916010190565b6000546001600160a01b031633036109ac57565b63118cdaa760e01b6000523360045260246000fdfea26469706673582212200a25383092570c9071940a0e57cef233c15b7d13e37a2e33054509a64661b01064736f6c634300081c0033",
  "linkReferences": {},
  "deployedLinkReferences": {}
}