{
  "_format": "hh-sol-artifact-1",
  "contractName": "Fractionalizer",
  "sourceName": "contracts/MarketAsset.sol",
  "abi": [
    {
      "inputs": [
        {
          "internalType": "address",
          "name": "registry_",
          "type": "address"
        }
      ],
      "stateMutability": "nonpayable",
      "type": "constructor"
    },
    {
      "inputs": [
        {
          "internalType": "address",
          "name": "owner",
          "type": "address"
        }
      ],
      "name": "OwnableInvalidOwner",
      "type": "error"
    },
    {
      "inputs": [
        {
          "internalType": "address",
          "name": "account",
          "type": "address"
        }
      ],
      "name": "OwnableUnauthorizedAccount",
      "type": "error"
    },
    {
      "inputs": [],
      "name": "ReentrancyGuardReentrantCall",
      "type": "error"
    },
    {
      "anonymous": false,
      "inputs": [
        {
          "indexed": true,
          "internalType": "uint256",
          "name": "poolId",
          "type": "uint256"
        },
        {
          "indexed": false,
          "internalType": "address",
          "name": "claimer",
          "type": "address"
        },
        {
          "indexed": false,
          "internalType": "uint256",
          "name": "amount",
          "type": "uint256"
        }
      ],
      "name": "DividendClaimed",
      "type": "event"
    },
    {
      "anonymous": false,
      "inputs": [
        {
          "indexed": true,
          "internalType": "uint256",
          "name": "poolId",
          "type": "uint256"
        },
        {
          "indexed": false,
          "internalType": "address",
          "name": "from",
          "type": "address"
        },
        {
          "indexed": false,
          "internalType": "uint256",
          "name": "amount",
          "type": "uint256"
        }
      ],
      "name": "DividendsDeposited",
      "type": "event"
    },
    {
      "anonymous": false,
      "inputs": [
        {
          "indexed": true,
          "internalType": "uint256",
          "name": "poolId",
          "type": "uint256"
        },
        {
          "indexed": true,
          "internalType": "uint256",
          "name": "assetId",
          "type": "uint256"
        },
        {
          "indexed": true,
          "internalType": "address",
          "name": "ft",
          "type": "address"
        },
        {
          "indexed": false,
          "internalType": "address",
          "name": "owner",
          "type": "address"
        },
        {
          "indexed": false,
          "internalType": "uint256",
          "name": "totalSupply",
          "type": "uint256"
        },
        {
          "indexed": false,
          "internalType": "uint256",
          "name": "salePricePerToken",
          "type": "uint256"
        },
        {
          "indexed": false,
          "internalType": "uint256",
          "name": "amountForSale",
          "type": "uint256"
        }
      ],
      "name": "Fractionalized",
      "type": "event"
    },
    {
      "anonymous": false,
      "inputs": [
        {
          "indexed": true,
          "internalType": "uint256",
          "name": "poolId",
          "type": "uint256"
        },
        {
          "indexed": false,
          "internalType": "address",
          "name": "buyer",
          "type": "address"
        },
        {
          "indexed": false,
          "internalType": "uint256",
          "name": "amount",
          "type": "uint256"
        },
        {
          "indexed": false,
          "internalType": "uint256",
          "name": "paid",
          "type": "uint256"
        }
      ],
      "name": "FractionsBought",
      "type": "event"
    },
    {
      "anonymous": false,
      "inputs": [
        {
          "indexed": true,
          "internalType": "address",
          "name": "previousOwner",
          "type": "address"
        },
        {
          "indexed": true,
          "internalType": "address",
          "name": "newOwner",
          "type": "address"
        }
      ],
      "name": "OwnershipTransferred",
      "type": "event"
    },
    {
      "anonymous": false,
      "inputs": [
        {
          "indexed": true,
          "internalType": "uint256",
          "name": "poolId",
          "type": "uint256"
        },
        {
          "indexed": false,
          "internalType": "address",
          "name": "claimer",
          "type": "address"
        }
      ],
      "name": "Recombined",
      "type": "event"
    },
    {
      "inputs": [
        {
          "internalType": "uint256",
          "name": "",
          "type": "uint256"
        }
      ],
      "name": "assetToPool",
      "outputs": [
        {
          "internalType": "uint256",
          "name": "",
          "type": "uint256"
        }
      ],
      "stateMutability": "view",
      "type": "function"
    },
    {
      "inputs": [
        {
          "internalType": "uint256",
          "name": "poolId",
          "type": "uint256"
        },
        {
          "internalType": "uint256",
          "name": "amount",
          "type": "uint256"
        }
      ],
      "name": "buyFractions",
      "outputs": [],
      "stateMutability": "payable",
      "type": "function"
    },
    {
      "inputs": [
        {
          "internalType": "uint256",
          "name": "poolId",
          "type": "uint256"
        }
      ],
      "name": "claimDividends",
      "outputs": [],
      "stateMutability": "nonpayable",
      "type": "function"
    },
    {
      "inputs": [
        {
          "internalType": "uint256",
          "name": "poolId",
          "type": "uint256"
        },
        {
          "internalType": "address",
          "name": "holder",
          "type": "address"
        }
      ],
      "name": "claimableAmount",
      "outputs": [
        {
          "internalType": "uint256",
          "name": "",
          "type": "uint256"
        }
      ],
      "stateMutability": "view",
      "type": "function"
    },
    {
      "inputs": [
        {
          "internalType": "uint256",
          "name": "poolId",
          "type": "uint256"
        }
      ],
      "name": "depositToPool",
      "outputs": [],
      "stateMutability": "payable",
      "type": "function"
    },
    {
      "inputs": [
        {
          "internalType": "uint256",
          "name": "assetId",
          "type": "uint256"
        },
        {
          "internalType": "address",
          "name": "nftContract",
          "type": "address"
        },
        {
          "internalType": "uint256",
          "name": "tokenId",
          "type": "uint256"
        },
        {
          "internalType": "string",
          "name": "name_",
          "type": "string"
        },
        {
          "internalType": "string",
          "name": "symbol_",
          "type": "string"
        },
        {
          "internalType": "uint256",
          "name": "totalSupply_",
          "type": "uint256"
        },
        {
          "internalType": "uint256",
          "name": "salePricePerToken_",
          "type": "uint256"
        },
        {
          "internalType": "uint256",
          "name": "amountForSale_",
          "type": "uint256"
        },
        {
          "internalType": "address",
          "name": "toReceiveInitial",
          "type": "address"
        }
      ],
      "name": "fractionalize",
      "outputs": [
        {
          "internalType": "uint256",
          "name": "",
          "type": "uint256"
        }
      ],
      "stateMutability": "nonpayable",
      "type": "function"
    },
    {
      "inputs": [],
      "name": "owner",
      "outputs": [
        {
          "internalType": "address",
          "name": "",
          "type": "address"
        }
      ],
      "stateMutability": "view",
      "type": "function"
    },
    {
      "inputs": [
        {
          "internalType": "uint256",
          "name": "poolId",
          "type": "uint256"
        }
      ],
      "name": "poolInfo",
      "outputs": [
        {
          "internalType": "address",
          "name": "nftContract",
          "type": "address"
        },
        {
          "internalType": "uint256",
          "name": "tokenId",
          "type": "uint256"
        },
        {
          "internalType": "address",
          "name": "ftAddress",
          "type": "address"
        },
        {
          "internalType": "uint256",
          "name": "totalFractions",
          "type": "uint256"
        },
        {
          "internalType": "address",
          "name": "originalOwner",
          "type": "address"
        },
        {
          "internalType": "uint256",
          "name": "salePricePerToken",
          "type": "uint256"
        },
        {
          "internalType": "uint256",
          "name": "amountForSale",
          "type": "uint256"
        },
        {
          "internalType": "uint256",
          "name": "sold",
          "type": "uint256"
        },
        {
          "internalType": "bool",
          "name": "active",
          "type": "bool"
        },
        {
          "internalType": "uint256",
          "name": "dividendsPerToken",
          "type": "uint256"
        }
      ],
      "stateMutability": "view",
      "type": "function"
    },
    {
      "inputs": [
        {
          "internalType": "uint256",
          "name": "poolId",
          "type": "uint256"
        }
      ],
      "name": "recombineAndWithdraw",
      "outputs": [],
      "stateMutability": "nonpayable",
      "type": "function"
    },
    {
      "inputs": [],
      "name": "registry",
      "outputs": [
        {
          "internalType": "contract AssetRegistry",
          "name": "",
          "type": "address"
        }
      ],
      "stateMutability": "view",
      "type": "function"
    },
    {
      "inputs": [],
      "name": "renounceOwnership",
      "outputs": [],
      "stateMutability": "nonpayable",
      "type": "function"
    },
    {
      "inputs": [
        {
          "internalType": "uint256",
          "name": "assetId",
          "type": "uint256"
        },
        {
          "internalType": "uint256",
          "name": "poolId",
          "type": "uint256"
        }
      ],
      "name": "setAssetPool",
      "outputs": [],
      "stateMutability": "nonpayable",
      "type": "function"
    },
    {
      "inputs": [],
      "name": "totalPools",
      "outputs": [
        {
          "internalType": "uint256",
          "name": "",
          "type": "uint256"
        }
      ],
      "stateMutability": "view",
      "type": "function"
    },
    {
      "inputs": [
        {
          "internalType": "address",
          "name": "newOwner",
          "type": "address"
        }
      ],
      "name": "transferOwnership",
      "outputs": [],
      "stateMutability": "nonpayable",
      "type": "function"
    },
    {
      "stateMutability": "payable",
      "type": "receive"
    }
  ],
  "bytecode": "0x60a03461011757601f6124d738819003918201601f19168301916001600160401b0383118484101761011c5780849260209460405283398101031261011757516001600160a01b038116908190036101175733156101015760008054336001600160a01b03198216811783556040519290916001600160a01b0316907f8be0079c531659141344cd1fd0a4f28419497f9722a3daafe3b4186f6b6457e09080a36001805581156100cc57506080526040516123a4908161013382396080518181816102aa01526110c10152f35b62461bcd60e51b815260206004820152601060248201526f696e76616c696420726567697374727960801b6044820152606490fd5b631e4fbdf760e01b600052600060045260246000fd5b600080fd5b634e487b7160e01b600052604160045260246000fdfe6080806040526004361015610054575b50361561001b57600080fd5b60405162461bcd60e51b81526020600482015260116024820152701d5cd94819195c1bdcda5d151bd41bdbdb607a1b6044820152606490fd5b600090813560e01c90816311b8c7801461131e575080631526fe271461126f57806368b0e0701461114a578063715018a6146110f05780637b103999146110ab5780637b7195c614610e725780638da5cb5b14610e4b578063ab3c7e5214610e2d578063bd7047c414610c24578063ea370276146108c2578063ecbeaac3146101dd578063f2fde38b1461014f578063f311df8e146101205763f998bf810361000f573461011d5761010536611345565b9061010e6115e9565b82526004602052604082205580f35b80fd5b503461011d57604036600319011261011d57602061014761013f61135b565b6004356114e4565b604051908152f35b503461011d57602036600319011261011d576004356001600160a01b038116908190036101d95761017e6115e9565b80156101c55781546001600160a01b03198116821783556001600160a01b03167f8be0079c531659141344cd1fd0a4f28419497f9722a3daafe3b4186f6b6457e08380a380f35b631e4fbdf760e01b82526004829052602482fd5b5080fd5b503461011d5761012036600319011261011d576004356101fb61135b565b9060443560643567ffffffffffffffff81116108be5761021f903690600401611371565b60843567ffffffffffffffff81116108ba5761023f903690600401611371565b92909160a43592610104359460018060a01b03861680960361053e576102636115c7565b871561088357841561084e578460e435116108135785156107db57878a52600460205260408a205461079657604051631d591eb760e31b8152600481018990528a816024817f00000000000000000000000000000000000000000000000000000000000000006001600160a01b03165afa9081156105c0578b91610646575b5060c08101511561060f5760a08101516001600160a01b039a8b169a168a1490889082610601575b5050156105cb576040516331a9108f60e11b8152600481018890526020816024818d5afa9081156105c0578b91610582575b50336001600160a01b039091160361054d57883b1561053e576040516323b872dd60e01b8152336004820152306024820152604481018890528a908181606481838f5af1801561054257610529575b505060405193610d5c938486019486861067ffffffffffffffff871117610515579389936103cf60a0946103dd948a99986116138b3960c0895260c08901916114c3565b9186830360208801526114c3565b928660408201528760608201523060808201520152039087f092831561050a578660025460010197889586938460025584835260036020526040832099858b558960018c015560028b01906001600160601b0360a01b82541617905560038a0155600160a01b60019003169760048101600160a01b600190038a166001600160601b0360a01b82541617905584600582015560068101866001600160601b0360a01b82541617905560c435600782015560e4356008820155816009820155600a810160ff198154166001179055600b015585815260046020526040902055604051918252602082015260c435604082015260e435606082015260807f0c8e9d253d31d247d09c4e7204b81a026746972a80e636d337e8ac71eb68ba3191a460018055604051908152602090f35b6040513d88823e3d90fd5b634e487b7160e01b8d52604160045260248dfd5b8161053391611411565b61053e57893861038b565b8980fd5b6040513d84823e3d90fd5b60405162461bcd60e51b815260206004820152600d60248201526c3737ba1037333a1037bbb732b960991b6044820152606490fd5b90506020813d6020116105b8575b8161059d60209383611411565b810103126105b4576105ae906114af565b3861033c565b8a80fd5b3d9150610590565b6040513d8d823e3d90fd5b60405162461bcd60e51b815260206004820152600e60248201526d0c2e6e6cae840dad2e6dac2e8c6d60931b6044820152606490fd5b60800151149050873861030a565b60405162461bcd60e51b815260206004820152600f60248201526e185cdcd95d081b9bdd08199bdd5b99608a1b6044820152606490fd5b90503d808c833e6106578183611411565b8101906020818303126107925780519067ffffffffffffffff821161075e570160e081830312610792576040519160e0830183811067ffffffffffffffff82111761077e57604052815183526106af602083016114af565b60208401528c604083015167ffffffffffffffff81116101d957830182601f820112156101d9578051916106e283611456565b936106f06040519586611411565b8385526020848401011161011d579190825b8281106107625750508201602001526040830152606081015161ffff8116810361075e576107539160c09160608501526080810151608085015261074860a082016114af565b60a0850152016114a2565b60c0820152386102e2565b8c80fd5b81929350602081819301015182828701015201908f9291610702565b634e487b7160e01b8e52604160045260248efd5b8b80fd5b60405162461bcd60e51b815260206004820152601c60248201527f617373657420616c7265616479206672616374696f6e616c697a6564000000006044820152606490fd5b60405162461bcd60e51b815260206004820152601060248201526f34b73b30b634b2103932b1b2b4bb32b960811b6044820152606490fd5b60405162461bcd60e51b81526020600482015260136024820152721a5b9d985b1a59081cd85b1948185b5bdd5b9d606a1b6044820152606490fd5b60405162461bcd60e51b815260206004820152600d60248201526c0746f74616c537570706c793e3609c1b6044820152606490fd5b60405162461bcd60e51b815260206004820152600f60248201526e1a5b9d985b1a5908185cdcd95d1259608a1b6044820152606490fd5b8680fd5b8480fd5b506108cc36611345565b6108d46115c7565b8183526003602052604083206108f060ff600a8301541661139f565b81151580610c09575b15610bce5760078101548015610b945782610913916113db565b3403610b5b576004818101546006830154604051636eb1769f60e11b81526001600160a01b03918216938101849052306024820152929392911690602081604481855afa8015610b505785918891610b16575b5010610adb576040516323b872dd60e01b81526001600160a01b03841660048201523360248201526044810185905290602090829060649082908a905af190811561050a578691610a9d575b5015610a63578480809360098294016109cc878254611404565b905534905af16109da611472565b5015610a1e5760607f53885d40ac006b0d74bde83ced139f574725027d23e6cb8f1c62bf58f2fdad7091604051903382526020820152346040820152a26001805580f35b60405162461bcd60e51b815260206004820152601760248201527f7061796d656e74207472616e73666572206661696c65640000000000000000006044820152606490fd5b60405162461bcd60e51b8152602060048201526012602482015271199d081d1c985b9cd9995c8819985a5b195960721b6044820152606490fd5b90506020813d602011610ad3575b81610ab860209383611411565b81010312610acf57610ac9906114a2565b386109b2565b8580fd5b3d9150610aab565b60405162461bcd60e51b815260206004820152601360248201527273656c6c6572206d75737420617070726f766560681b6044820152606490fd5b9150506020813d602011610b48575b81610b3260209383611411565b81010312610b435784905138610966565b600080fd5b3d9150610b25565b6040513d89823e3d90fd5b60405162461bcd60e51b81526020600482015260116024820152701a5b98dbdc9c9958dd081c185e5b595b9d607a1b6044820152606490fd5b60405162461bcd60e51b81526020600482015260126024820152711cd85b19481c1c9a58d9481b9bdd081cd95d60721b6044820152606490fd5b60405162461bcd60e51b81526020600482015260136024820152726e6f7420656e6f75676820666f722073616c6560681b6044820152606490fd5b50610c18826009830154611404565b600882015410156108f9565b503461011d57602036600319011261011d57600435610c416115c7565b808252600360205260408220610c5d60ff600a8301541661139f565b6024602060018060a01b03600484015416604051928380926370a0823160e01b82523360048301525afa908115610e22578491610df0575b508015610dbe57670de0b6b3a7640000610cb6600c92600b850154906113db565b0491019060018060a01b0333166000528160205260406000205480821115610d8657610ce29082611449565b9160018060a01b0333166000526020526040600020558280808084335af1610d08611472565b5015610d4f576040805133815260208101929092527fa1594d215a577c1905bcb0b5b186a40a0104714277441d4b2ac428c89bf7f4b19190819081015b0390a26001805580f35b60405162461bcd60e51b815260206004820152600f60248201526e1d1c985b9cd9995c8819985a5b1959608a1b6044820152606490fd5b60405162461bcd60e51b815260206004820152601060248201526f6e6f7468696e6720746f20636c61696d60801b6044820152606490fd5b60405162461bcd60e51b815260206004820152600a6024820152696e6f2062616c616e636560b01b6044820152606490fd5b90506020813d602011610e1a575b81610e0b60209383611411565b81010312610b43575138610c95565b3d9150610dfe565b6040513d86823e3d90fd5b503461011d578060031936011261011d576020600254604051908152f35b503461011d578060031936011261011d57546040516001600160a01b039091168152602090f35b503461011d57602036600319011261011d57600435610e8f6115c7565b808252600360205260408220600a810190610ead60ff83541661139f565b6004818101546040516370a0823160e01b815233928101929092526001600160a01b0316602082602481845afa91821561050a578692611077575b5060058301548203611039578591813b156110165760405163079cc67960e41b8152336004820152602481019190915291908290604490829084905af1801561102e5761101a575b506002810154600382015485916001600160a01b0316803b15611016576040516323b872dd60e01b8152306004820152336024820152604481019290925282908290606490829084905af1801561054257610ffd575b5050815460ff19169091556001015480151580610fe8575b610fd5575b507fe50259b1f22e6ed2fec9e7328b9ac4507d4399360bf7b77bc5660c1a616bc37e6020604051338152a26001805580f35b8252600460205281604081205538610fa3565b50808352600460205281604084205414610f9e565b8161100791611411565b611012578338610f86565b8380fd5b8280fd5b8461102791959295611411565b9238610f30565b6040513d87823e3d90fd5b60405162461bcd60e51b81526020600482015260166024820152756d757374206f776e20616c6c206672616374696f6e7360501b6044820152606490fd5b9091506020813d6020116110a3575b8161109360209383611411565b81010312610acf57519038610ee8565b3d9150611086565b503461011d578060031936011261011d576040517f00000000000000000000000000000000000000000000000000000000000000006001600160a01b03168152602090f35b503461011d578060031936011261011d576111096115e9565b80546001600160a01b03198116825581906001600160a01b03167f8be0079c531659141344cd1fd0a4f28419497f9722a3daafe3b4186f6b6457e08280a380f35b50602036600319011261011d576004356111626115c7565b341561123f5780825260036020526040822061118460ff600a8301541661139f565b6005810154801561120b57670de0b6b3a76400003402348104670de0b6b3a7640000036111f7576111bd91600b91049201918254611404565b9055604080513381523460208201527f907b7d039ee4b25aec570e5c24e750bb4f64ff4c971a7bcdf6acece5e2d562189181908101610d45565b634e487b7160e01b85526011600452602485fd5b60405162461bcd60e51b815260206004820152600c60248201526b6e6f206672616374696f6e7360a01b6044820152606490fd5b60405162461bcd60e51b81526020600482015260086024820152676e6f2066756e647360c01b6044820152606490fd5b503461011d57602036600319011261011d57604061014091600435815260036020522060018060a01b036002820154169060038101549060018060a01b03600482015416600582015460018060a01b03600684015416600784015490600885015492600986015494600b60ff600a8901541697015497604051998a5260208a015260408901526060880152608087015260a086015260c085015260e08401521515610100830152610120820152f35b9050346101d95760203660031901126101d957604060209260043581526004845220548152f35b6040906003190112610b43576004359060243590565b602435906001600160a01b0382168203610b4357565b9181601f84011215610b435782359167ffffffffffffffff8311610b435760208381860195010111610b4357565b156113a657565b60405162461bcd60e51b815260206004820152600d60248201526c706f6f6c20696e61637469766560981b6044820152606490fd5b818102929181159184041417156113ee57565b634e487b7160e01b600052601160045260246000fd5b919082018092116113ee57565b90601f8019910116810190811067ffffffffffffffff82111761143357604052565b634e487b7160e01b600052604160045260246000fd5b919082039182116113ee57565b67ffffffffffffffff811161143357601f01601f191660200190565b3d1561149d573d9061148382611456565b916114916040519384611411565b82523d6000602084013e565b606090565b51908115158203610b4357565b51906001600160a01b0382168203610b4357565b908060209392818452848401376000828201840152601f01601f1916010190565b600052600360205260246040600020602060018060a01b03600483015416604051938480926370a0823160e01b825260018060a01b03881660048301525afa9182156115bb5760009261157f575b50670de0b6b3a764000061154d600c93600b840154906113db565b049260018060a01b031660005201602052604060002054808211156115785761157591611449565b90565b5050600090565b91506020823d6020116115b3575b8161159a60209383611411565b81010312610b4357905190670de0b6b3a7640000611532565b3d915061158d565b6040513d6000823e3d90fd5b6002600154146115d8576002600155565b633ee5aeb560e01b60005260046000fd5b6000546001600160a01b031633036115fd57565b63118cdaa760e01b6000523360045260246000fdfe60806040523461040a57610d5c803803806100198161040f565b928339810160c08282031261040a5781516001600160401b03811161040a5781610044918401610434565b602083015190916001600160401b03821161040a57610064918401610434565b906040830151926100776060820161049f565b9260a06100866080840161049f565b920151835190936001600160401b0382116103075760035490600182811c92168015610400575b60208310146102e75781601f849311610390575b50602090601f83116001146103285760009261031d575b50508160011b916000199060031b1c1916176003555b8051906001600160401b0382116103075760045490600182811c921680156102fd575b60208310146102e75781601f849311610277575b50602090601f831160011461020f57600092610204575b50508160011b916000199060031b1c1916176004555b600580546001600160a01b0319166001600160a01b03928316179055600691909155169081156101ee576002548181018091116101d8576002557fddf252ad1be2c89b69c2b068fc378daa952ba7f163c4a11628f55a4df523b3ef602060009284845283825260408420818154019055604051908152a36040516108a890816104b48239f35b634e487b7160e01b600052601160045260246000fd5b63ec442f0560e01b600052600060045260246000fd5b01519050388061013c565b600460009081528281209350601f198516905b81811061025f5750908460019594939210610246575b505050811b01600455610152565b015160001960f88460031b161c19169055388080610238565b92936020600181928786015181550195019301610222565b60046000529091507f8a35acfbc15ff81a39ae7d344fd709f28e8600b4aa8c65c6b64bfe7fe36bd19b601f840160051c810191602085106102dd575b90601f859493920160051c01905b8181106102ce5750610125565b600081558493506001016102c1565b90915081906102b3565b634e487b7160e01b600052602260045260246000fd5b91607f1691610111565b634e487b7160e01b600052604160045260246000fd5b0151905038806100d8565b600360009081528281209350601f198516905b818110610378575090846001959493921061035f575b505050811b016003556100ee565b015160001960f88460031b161c19169055388080610351565b9293602060018192878601518155019501930161033b565b60036000529091507fc2575a0e9e593c00f959f8c92f12db2869c3395a3b0502d05e2516446f71f85b601f840160051c810191602085106103f6575b90601f859493920160051c01905b8181106103e757506100c1565b600081558493506001016103da565b90915081906103cc565b91607f16916100ad565b600080fd5b6040519190601f01601f191682016001600160401b0381118382101761030757604052565b81601f8201121561040a578051906001600160401b03821161030757610463601f8301601f191660200161040f565b928284526020838301011161040a5760005b82811061048a57505060206000918301015290565b80602080928401015182828701015201610475565b51906001600160a01b038216820361040a5756fe608080604052600436101561001357600080fd5b60003560e01c90816306fdde031461054f57508063095ea7b31461049d578063138bbdc71461047f57806318160ddd1461046157806323b872dd14610429578063313ce5671461040d57806342966c68146103f057806348b40561146102f657806370a08231146102bc57806379cc67901461028a57806395d89b4114610169578063a9059cbb14610138578063d03b0e491461010f5763dd62ed3e146100b957600080fd5b3461010a57604036600319011261010a576100d261066b565b6100da610681565b6001600160a01b039182166000908152600160209081526040808320949093168252928352819020549051908152f35b600080fd5b3461010a57600036600319011261010a576005546040516001600160a01b039091168152602090f35b3461010a57604036600319011261010a5761015e61015461066b565b6024359033610742565b602060405160018152f35b3461010a57600036600319011261010a5760405160006004548060011c90600181168015610280575b60208310811461026c5782855290811561025057506001146101f9575b50819003601f01601f191681019067ffffffffffffffff8211818310176101e3576101df82918260405282610622565b0390f35b634e487b7160e01b600052604160045260246000fd5b905060046000527f8a35acfbc15ff81a39ae7d344fd709f28e8600b4aa8c65c6b64bfe7fe36bd19b6000905b82821061023a575060209150820101826101af565b6001816020925483858801015201910190610225565b90506020925060ff191682840152151560051b820101826101af565b634e487b7160e01b84526022600452602484fd5b91607f1691610192565b3461010a57604036600319011261010a576102ba6102a661066b565b602435906102b5823383610697565b6107f1565b005b3461010a57602036600319011261010a576001600160a01b036102dd61066b565b1660005260006020526020604060002054604051908152f35b3461010a57604036600319011261010a5761030f61066b565b60055460243591906001600160a01b031633036103b5576001600160a01b0316801561039f5760025491808301809311610389576020926002557fddf252ad1be2c89b69c2b068fc378daa952ba7f163c4a11628f55a4df523b3ef600093849284845283825260408420818154019055604051908152a380f35b634e487b7160e01b600052601160045260246000fd5b63ec442f0560e01b600052600060045260246000fd5b60405162461bcd60e51b815260206004820152601360248201527227b7363c90333930b1ba34b7b730b634bd32b960691b6044820152606490fd5b3461010a57602036600319011261010a576102ba600435336107f1565b3461010a57600036600319011261010a57602060405160128152f35b3461010a57606036600319011261010a5761015e61044561066b565b61044d610681565b6044359161045c833383610697565b610742565b3461010a57600036600319011261010a576020600254604051908152f35b3461010a57600036600319011261010a576020600654604051908152f35b3461010a57604036600319011261010a576104b661066b565b602435903315610539576001600160a01b031690811561052357336000526001602052604060002082600052602052806040600020556040519081527f8c5be1e5ebec7d5bd14f71427d1e84f3dd0314c0f7b2291e5b200ac8c7c3b92560203392a3602060405160018152f35b634a1406b160e11b600052600060045260246000fd5b63e602df0560e01b600052600060045260246000fd5b3461010a57600036600319011261010a5760006003548060011c90600181168015610618575b60208310811461026c5782855290811561025057506001146105c15750819003601f01601f191681019067ffffffffffffffff8211818310176101e3576101df82918260405282610622565b905060036000527fc2575a0e9e593c00f959f8c92f12db2869c3395a3b0502d05e2516446f71f85b6000905b828210610602575060209150820101826101af565b60018160209254838588010152019101906105ed565b91607f1691610575565b91909160208152825180602083015260005b818110610655575060409293506000838284010152601f8019910116010190565b8060208092870101516040828601015201610634565b600435906001600160a01b038216820361010a57565b602435906001600160a01b038216820361010a57565b6001600160a01b0390811660008181526001602090815260408083209486168352939052919091205492919060001984106106d3575b50505050565b82841061071d578015610539576001600160a01b0382161561052357600052600160205260406000209060018060a01b0316600052602052604060002091039055388080806106cd565b508290637dc7a0d960e11b60005260018060a01b031660045260245260445260646000fd5b6001600160a01b03169081156107db576001600160a01b031691821561039f5760008281528060205260408120548281106107c15791604082827fddf252ad1be2c89b69c2b068fc378daa952ba7f163c4a11628f55a4df523b3ef958760209652828652038282205586815280845220818154019055604051908152a3565b916064928463391434e360e21b8452600452602452604452fd5b634b637e8f60e11b600052600060045260246000fd5b6001600160a01b031680156107db5760009181835282602052604083205481811061085957817fddf252ad1be2c89b69c2b068fc378daa952ba7f163c4a11628f55a4df523b3ef926020928587528684520360408620558060025403600255604051908152a3565b6064939263391434e360e21b8452600452602452604452fdfea26469706673582212206ad9d38ef6a5e94b677164402b63089036955eb87fba13085d5e8bd724156d1264736f6c634300081c0033a26469706673582212203eda1e66720e002b3b9693690094c5ab668014cb5079c4d0e590ef8a5e7840b864736f6c634300081c0033",
  "linkReferences": {},
  "deployedLinkReferences": {}
}