{
  "_format": "hh-sol-artifact-1",
  "contractName": "LicenseNFT",
  "sourceName": "contracts/MarketAsset.sol",
  "abi": [
    {
      "inputs": [
        {
          "internalType": "string",
          "name": "name_",
          "type": "string"
        },
        {
          "internalType": "string",
          "name": "symbol_",
          "type": "string"
        }
      ],
      "stateMutability": "nonpayable",
      "type": "constructor"
    },
    {
      "inputs": [
        {
          "internalType": "address",
          "name": "sender",
          "type": "address"
        },
        {
          "internalType": "uint256",
          "name": "tokenId",
          "type": "uint256"
        },
        {
          "internalType": "address",
          "name": "owner",
          "type": "address"
        }
      ],
      "name": "ERC721IncorrectOwner",
      "type": "error"
    },
    {
      "inputs": [
        {
          "internalType": "address",
          "name": "operator",
          "type": "address"
        },
        {
          "internalType": "uint256",
          "name": "tokenId",
          "type": "uint256"
        }
      ],
      "name": "ERC721InsufficientApproval",
      "type": "error"
    },
    {
      "inputs": [
        {
          "internalType": "address",
          "name": "approver",
          "type": "address"
        }
      ],
      "name": "ERC721InvalidApprover",
      "type": "error"
    },
    {
      "inputs": [
        {
          "internalType": "address",
          "name": "operator",
          "type": "address"
        }
      ],
      "name": "ERC721InvalidOperator",
      "type": "error"
    },
    {
      "inputs": [
        {
          "internalType": "address",
          "name": "owner",
          "type": "address"
        }
      ],
      "name": "ERC721InvalidOwner",
      "type": "error"
    },
    {
      "inputs": [
        {
          "internalType": "address",
          "name": "receiver",
          "type": "address"
        }
      ],
      "name": "ERC721InvalidReceiver",
      "type": "error"
    },
    {
      "inputs": [
        {
          "internalType": "address",
          "name": "sender",
          "type": "address"
        }
      ],
      "name": "ERC721InvalidSender",
      "type": "error"
    },
    {
      "inputs": [
        {
          "internalType": "uint256",
          "name": "tokenId",
          "type": "uint256"
        }
      ],
      "name": "ERC721NonexistentToken",
      "type": "error"
    },
    {
      "inputs": [
        {
          "internalType": "address",
          "name": "owner",
          "type": "address"
        }
      ],
      "name": "OwnableInvalidOwner",
      "type": "error"
    },
    {
      "inputs": [
        {
          "internalType": "address",
          "name": "account",
          "type": "address"
        }
      ],
      "name": "OwnableUnauthorizedAccount",
      "type": "error"
    },
    {
      "anonymous": false,
      "inputs": [
        {
          "indexed": true,
          "internalType": "address",
          "name": "owner",
          "type": "address"
        },
        {
          "indexed": true,
          "internalType": "address",
          "name": "approved",
          "type": "address"
        },
        {
          "indexed": true,
          "internalType": "uint256",
          "name": "tokenId",
          "type": "uint256"
        }
      ],
      "name": "Approval",
      "type": "event"
    },
    {
      "anonymous": false,
      "inputs": [
        {
          "indexed": true,
          "internalType": "address",
          "name": "owner",
          "type": "address"
        },
        {
          "indexed": true,
          "internalType": "address",
          "name": "operator",
          "type": "address"
        },
        {
          "indexed": false,
          "internalType": "bool",
          "name": "approved",
          "type": "bool"
        }
      ],
      "name": "ApprovalForAll",
      "type": "event"
    },
    {
      "anonymous": false,
      "inputs": [
        {
          "indexed": false,
          "internalType": "uint256",
          "name": "_fromTokenId",
          "type": "uint256"
        },
        {
          "indexed": false,
          "internalType": "uint256",
          "name": "_toTokenId",
          "type": "uint256"
        }
      ],
      "name": "BatchMetadataUpdate",
      "type": "event"
    },
    {
      "anonymous": false,
      "inputs": [
        {
          "indexed": false,
          "internalType": "uint256",
          "name": "_tokenId",
          "type": "uint256"
        }
      ],
      "name": "MetadataUpdate",
      "type": "event"
    },
    {
      "anonymous": false,
      "inputs": [
        {
          "indexed": true,
          "internalType": "address",
          "name": "previousOwner",
          "type": "address"
        },
        {
          "indexed": true,
          "internalType": "address",
          "name": "newOwner",
          "type": "address"
        }
      ],
      "name": "OwnershipTransferred",
      "type": "event"
    },
    {
      "anonymous": false,
      "inputs": [
        {
          "indexed": true,
          "internalType": "address",
          "name": "from",
          "type": "address"
        },
        {
          "indexed": true,
          "internalType": "address",
          "name": "to",
          "type": "address"
        },
        {
          "indexed": true,
          "internalType": "uint256",
          "name": "tokenId",
          "type": "uint256"
        }
      ],
      "name": "Transfer",
      "type": "event"
    },
    {
      "inputs": [
        {
          "internalType": "address",
          "name": "to",
          "type": "address"
        },
        {
          "internalType": "uint256",
          "name": "tokenId",
          "type": "uint256"
        }
      ],
      "name": "approve",
      "outputs": [],
      "stateMutability": "nonpayable",
      "type": "function"
    },
    {
      "inputs": [
        {
          "internalType": "address",
          "name": "owner",
          "type": "address"
        }
      ],
      "name": "balanceOf",
      "outputs": [
        {
          "internalType": "uint256",
          "name": "",
          "type": "uint256"
        }
      ],
      "stateMutability": "view",
      "type": "function"
    },
    {
      "inputs": [
        {
          "internalType": "uint256",
          "name": "tokenId",
          "type": "uint256"
        }
      ],
      "name": "getApproved",
      "outputs": [
        {
          "internalType": "address",
          "name": "",
          "type": "address"
        }
      ],
      "stateMutability": "view",
      "type": "function"
    },
    {
      "inputs": [
        {
          "internalType": "address",
          "name": "owner",
          "type": "address"
        },
        {
          "internalType": "address",
          "name": "operator",
          "type": "address"
        }
      ],
      "name": "isApprovedForAll",
      "outputs": [
        {
          "internalType": "bool",
          "name": "",
          "type": "bool"
        }
      ],
      "stateMutability": "view",
      "type": "function"
    },
    {
      "inputs": [],
      "name": "manager",
      "outputs": [
        {
          "internalType": "address",
          "name": "",
          "type": "address"
        }
      ],
      "stateMutability": "view",
      "type": "function"
    },
    {
      "inputs": [
        {
          "internalType": "address",
          "name": "to",
          "type": "address"
        },
        {
          "internalType": "string",
          "name": "uri",
          "type": "string"
        }
      ],
      "name": "mintLicense",
      "outputs": [
        {
          "internalType": "uint256",
          "name": "",
          "type": "uint256"
        }
      ],
      "stateMutability": "nonpayable",
      "type": "function"
    },
    {
      "inputs": [],
      "name": "name",
      "outputs": [
        {
          "internalType": "string",
          "name": "",
          "type": "string"
        }
      ],
      "stateMutability": "view",
      "type": "function"
    },
    {
      "inputs": [],
      "name": "owner",
      "outputs": [
        {
          "internalType": "address",
          "name": "",
          "type": "address"
        }
      ],
      "stateMutability": "view",
      "type": "function"
    },
    {
      "inputs": [
        {
          "internalType": "uint256",
          "name": "tokenId",
          "type": "uint256"
        }
      ],
      "name": "ownerOf",
      "outputs": [
        {
          "internalType": "address",
          "name": "",
          "type": "address"
        }
      ],
      "stateMutability": "view",
      "type": "function"
    },
    {
      "inputs": [],
      "name": "renounceOwnership",
      "outputs": [],
      "stateMutability": "nonpayable",
      "type": "function"
    },
    {
      "inputs": [
        {
          "internalType": "address",
          "name": "from",
          "type": "address"
        },
        {
          "internalType": "address",
          "name": "to",
          "type": "address"
        },
        {
          "internalType": "uint256",
          "name": "tokenId",
          "type": "uint256"
        }
      ],
      "name": "safeTransferFrom",
      "outputs": [],
      "stateMutability": "nonpayable",
      "type": "function"
    },
    {
      "inputs": [
        {
          "internalType": "address",
          "name": "from",
          "type": "address"
        },
        {
          "internalType": "address",
          "name": "to",
          "type": "address"
        },
        {
          "internalType": "uint256",
          "name": "tokenId",
          "type": "uint256"
        },
        {
          "internalType": "bytes",
          "name": "data",
          "type": "bytes"
        }
      ],
      "name": "safeTransferFrom",
      "outputs": [],
      "stateMutability": "nonpayable",
      "type": "function"
    },
    {
      "inputs": [
        {
          "internalType": "address",
          "name": "operator",
          "type": "address"
        },
        {
          "internalType": "bool",
          "name": "approved",
          "type": "bool"
        }
      ],
      "name": "setApprovalForAll",
      "outputs": [],
      "stateMutability": "nonpayable",
      "type": "function"
    },
    {
      "inputs": [
        {
          "internalType": "address",
          "name": "_m",
          "type": "address"
        }
      ],
      "name": "setManager",
      "outputs": [],
      "stateMutability": "nonpayable",
      "type": "function"
    },
    {
      "inputs": [
        {
          "internalType": "bytes4",
          "name": "interfaceId",
          "type": "bytes4"
        }
      ],
      "name": "supportsInterface",
      "outputs": [
        {
          "internalType": "bool",
          "name": "",
          "type": "bool"
        }
      ],
      "stateMutability": "view",
      "type": "function"
    },
    {
      "inputs": [],
      "name": "symbol",
      "outputs": [
        {
          "internalType": "string",
          "name": "",
          "type": "string"
        }
      ],
      "stateMutability": "view",
      "type": "function"
    },
    {
      "inputs": [
        {
          "internalType": "uint256",
          "name": "tokenId",
          "type": "uint256"
        }
      ],
      "name": "tokenURI",
      "outputs": [
        {
          "internalType": "string",
          "name": "",
          "type": "string"
        }
      ],
      "stateMutability": "view",
      "type": "function"
    },
    {
      "inputs": [
        {
          "internalType": "address",
          "name": "from",
          "type": "address"
        },
        {
          "internalType": "address",
          "name": "to",
          "type": "address"
        },
        {
          "internalType": "uint256",
          "name": "tokenId",
          "type": "uint256"
        }
      ],
      "name": "transferFrom",
      "outputs": [],
      "stateMutability": "nonpayable",
      "type": "function"
    },
    {
      "inputs": [
        {
          "internalType": "address",
          "name": "newOwner",
          "type": "address"
        }
      ],
      "name": "transferOwnership",
      "outputs": [],
      "stateMutability": "nonpayable",
      "type": "function"
    }
  ],
  "bytecode": "0x608060405234610395576114c6803803806100198161039a565b9283398101906040818303126103955780516001600160401b03811161039557826100459183016103bf565b60208201519092906001600160401b0381116103955761006592016103bf565b81516001600160401b0381116102a257600054600181811c9116801561038b575b602082101461028257601f8111610327575b50602092601f82116001146102c357928192936000926102b8575b50508160011b916000199060031b1c1916176000555b80516001600160401b0381116102a257600154600181811c91168015610298575b602082101461028257601f811161021d575b50602091601f82116001146101b9579181926000926101ae575b50508160011b916000199060031b1c1916176001555b33156101985760078054336001600160a01b03198216811790925560405191906001600160a01b03167f8be0079c531659141344cd1fd0a4f28419497f9722a3daafe3b4186f6b6457e0600080a3600980546001600160a01b0319163317905561109b908161042b8239f35b631e4fbdf760e01b600052600060045260246000fd5b015190503880610116565b601f198216926001600052806000209160005b858110610205575083600195106101ec575b505050811b0160015561012c565b015160001960f88460031b161c191690553880806101de565b919260206001819286850151815501940192016101cc565b60016000527fb10e2d527612073b26eecdfd717e6a320cf44b4afac2b0732d9fcbe2b7fa0cf6601f830160051c81019160208410610278575b601f0160051c01905b81811061026c57506100fc565b6000815560010161025f565b9091508190610256565b634e487b7160e01b600052602260045260246000fd5b90607f16906100ea565b634e487b7160e01b600052604160045260246000fd5b0151905038806100b3565b601f1982169360008052806000209160005b86811061030f57508360019596106102f6575b505050811b016000556100c9565b015160001960f88460031b161c191690553880806102e8565b919260206001819286850151815501940192016102d5565b600080527f290decd9548b62a8d60345a988386fc84ba6bc95484008f6362f93160ef3e563601f830160051c81019160208410610381575b601f0160051c01905b8181106103755750610098565b60008155600101610368565b909150819061035f565b90607f1690610086565b600080fd5b6040519190601f01601f191682016001600160401b038111838210176102a257604052565b81601f82011215610395578051906001600160401b0382116102a2576103ee601f8301601f191660200161039a565b92828452602083830101116103955760005b82811061041557505060206000918301015290565b8060208092840101518282870101520161040056fe608080604052600436101561001357600080fd5b60003560e01c90816301ffc9a714610a7c5750806306fdde03146109d7578063081812fc14610999578063095ea7b3146108aa57806323b872dd1461089357806342842e0e14610869578063481c6a75146108405780636352211e1461081057806370a08231146107ba578063715018a61461075d5780638da5cb5b14610734578063900d8f3a1461042557806395d89b4114610357578063a22cb465146102b6578063b88d4fde14610254578063c87b56dd1461021d578063d0ebdbe7146101da578063e985e9c51461017f5763f2fde38b146100f057600080fd5b3461017a57602036600319011261017a57610109610b40565b61011161103c565b6001600160a01b0316801561016457600780546001600160a01b0319811683179091556001600160a01b03167f8be0079c531659141344cd1fd0a4f28419497f9722a3daafe3b4186f6b6457e0600080a3005b631e4fbdf760e01b600052600060045260246000fd5b600080fd5b3461017a57604036600319011261017a57610198610b40565b6101a0610b56565b9060018060a01b0316600052600560205260406000209060018060a01b0316600052602052602060ff604060002054166040519015158152f35b3461017a57602036600319011261017a576101f3610b40565b6101fb61103c565b600980546001600160a01b0319166001600160a01b0392909216919091179055005b3461017a57602036600319011261017a5761025061023c600435610f39565b604051918291602083526020830190610b01565b0390f35b3461017a57608036600319011261017a5761026d610b40565b610275610b56565b6064359167ffffffffffffffff831161017a573660238401121561017a576102aa6102b4933690602481600401359101610be4565b9160443591610deb565b005b3461017a57604036600319011261017a576102cf610b40565b6024359081151580920361017a576001600160a01b031690811561034257336000526005602052604060002082600052602052604060002060ff1981541660ff83161790556040519081527f17307eab39ab6107e8899845ad3d59bd9653f200f220920489ca2b5937696c3160203392a3005b50630b61174360e31b60005260045260246000fd5b3461017a57600036600319011261017a57604051600060015461037981610c1b565b808452906001811690811561040157506001146103a1575b6102508361023c81850382610ba6565b91905060016000527fb10e2d527612073b26eecdfd717e6a320cf44b4afac2b0732d9fcbe2b7fa0cf6916000905b8082106103e75750909150810160200161023c610391565b9192600181602092548385880101520191019092916103cf565b60ff191660208086019190915291151560051b8401909101915061023c9050610391565b3461017a57604036600319011261017a5761043e610b40565b60243567ffffffffffffffff811161017a573660238201121561017a5780600401359067ffffffffffffffff821161017a57366024838301011161017a576009546001600160a01b03163303610700576008805460010190819055926001600160a01b031680156106ea5760009084825260026020528460018060a01b0360408420541691827fddf252ad1be2c89b69c2b068fc378daa952ba7f163c4a11628f55a4df523b3ef81151595866106b5575b83815260036020526040812060018154019055848152600260205260408120846bffffffffffffffffffffffff60a01b82541617905580a45061069f5761053a916024369201610be4565b81600052600660205260406000209181519267ffffffffffffffff8411610689576105658154610c1b565b93601f8511610641575b602094508493601f82116001146105de5793819293946000926105d3575b50508160011b916000199060031b1c19161790555b7ff8e1a15aba9398e019f0b49df1a4fde98ee17ae345cb5f6b5e2c27f5033e8ce782604051838152a1604051908152f35b01519050858061058d565b601f1982169483600052806000209160005b87811061062a575083600195969710610611575b505050811b0190556105a2565b015160001960f88460031b161c19169055858080610604565b9192886001819286850151815501940192016105f0565b816000526020600020601f820160051c8101956020831061067f575b601f0160051c01945b858110610673575061056f565b60008155600101610666565b909550859061065d565b634e487b7160e01b600052604160045260246000fd5b6339e3563760e11b600052600060045260246000fd5b600085815260046020526040902080546001600160a01b031916905582815260036020526040812080546000190190556104ef565b633250574960e11b600052600060045260246000fd5b60405162461bcd60e51b815260206004820152600c60248201526b27b7363c9036b0b730b3b2b960a11b6044820152606490fd5b3461017a57600036600319011261017a576007546040516001600160a01b039091168152602090f35b3461017a57600036600319011261017a5761077661103c565b600780546001600160a01b031981169091556000906001600160a01b03167f8be0079c531659141344cd1fd0a4f28419497f9722a3daafe3b4186f6b6457e08280a3005b3461017a57602036600319011261017a576001600160a01b036107db610b40565b1680156107fa5760005260036020526020604060002054604051908152f35b6322718ad960e21b600052600060045260246000fd5b3461017a57602036600319011261017a57602061082e600435611005565b6040516001600160a01b039091168152f35b3461017a57600036600319011261017a576009546040516001600160a01b039091168152602090f35b3461017a576102b461087a36610b6c565b906040519261088a602085610ba6565b60008452610deb565b3461017a576102b46108a436610b6c565b91610c55565b3461017a57604036600319011261017a576108c3610b40565b6024356108cf81611005565b33151580610986575b80610958575b6109435781906001600160a01b0384811691167f8c5be1e5ebec7d5bd14f71427d1e84f3dd0314c0f7b2291e5b200ac8c7c3b925600080a4600090815260046020526040902080546001600160a01b0319166001600160a01b03909216919091179055005b63a9fbf51f60e01b6000523360045260246000fd5b506001600160a01b038116600090815260056020908152604080832033845290915290205460ff16156108de565b506001600160a01b0381163314156108d8565b3461017a57602036600319011261017a576004356109b681611005565b506000526004602052602060018060a01b0360406000205416604051908152f35b3461017a57600036600319011261017a57604051600080546109f881610c1b565b80845290600181169081156104015750600114610a1f576102508361023c81850382610ba6565b60008080527f290decd9548b62a8d60345a988386fc84ba6bc95484008f6362f93160ef3e563939250905b808210610a625750909150810160200161023c610391565b919260018160209254838588010152019101909291610a4a565b3461017a57602036600319011261017a576004359063ffffffff60e01b821680920361017a57602091632483248360e11b8114908115610abe575b5015158152f35b6380ac58cd60e01b811491508115610af0575b8115610adf575b5083610ab7565b6301ffc9a760e01b14905083610ad8565b635b5e139f60e01b81149150610ad1565b919082518082526020808301940160005b828110610b30575050600081602094950152601f8019910116010190565b8181015186820152602001610b12565b600435906001600160a01b038216820361017a57565b602435906001600160a01b038216820361017a57565b606090600319011261017a576004356001600160a01b038116810361017a57906024356001600160a01b038116810361017a579060443590565b90601f8019910116810190811067ffffffffffffffff82111761068957604052565b67ffffffffffffffff811161068957601f01601f191660200190565b929192610bf082610bc8565b91610bfe6040519384610ba6565b82948184528183011161017a578281602093846000960137010152565b90600182811c92168015610c4b575b6020831014610c3557565b634e487b7160e01b600052602260045260246000fd5b91607f1691610c2a565b6001600160a01b03909116919082156106ea576000828152600260205260408120546001600160a01b0316938391859033151580610d53575b507fddf252ad1be2c89b69c2b068fc378daa952ba7f163c4a11628f55a4df523b3ef9082610d1e575b83815260036020526040812060018154019055848152600260205260408120846bffffffffffffffffffffffff60a01b82541617905580a46001600160a01b0316808303610d0457505050565b6364283d7b60e01b60005260045260245260445260646000fd5b600085815260046020526040902080546001600160a01b03191690558281526003602052604081208054600019019055610cb7565b915091925080610d9c575b15610d6d579084849238610c8e565b839085610d8657602491637e27328960e01b8252600452fd5b60449163177e802f60e01b825233600452602452fd5b503385148015610dca575b80610d5e5750838152600460205260408120546001600160a01b03163314610d5e565b5084815260056020908152604080832033845290915281205460ff16610da7565b9291610df8818386610c55565b813b610e05575b50505050565b604051630a85bd0160e11b81523360048201526001600160a01b0394851660248201526044810191909152608060648201529216919060209082908190610e50906084830190610b01565b03816000865af18091600091610eef575b5090610eba57503d15610eb3573d610e7881610bc8565b90610e866040519283610ba6565b81523d6000602083013e5b80519081610eae5782633250574960e11b60005260045260246000fd5b602001fd5b6060610e91565b6001600160e01b03191663757a42ff60e11b01610edb575038808080610dff565b633250574960e11b60005260045260246000fd5b6020813d602011610f31575b81610f0860209383610ba6565b81010312610f2d5751906001600160e01b031982168203610f2a575038610e61565b80fd5b5080fd5b3d9150610efb565b610f4281611005565b506000526006602052604060002060405190816000825492610f6384610c1b565b8084529360018116908115610fe35750600114610f9c575b50610f8892500382610ba6565b6000604051610f98602082610ba6565b5290565b90506000929192526020600020906000915b818310610fc7575050906020610f889282010138610f7b565b6020919350806001915483858801015201910190918392610fae565b905060209250610f8894915060ff191682840152151560051b82010138610f7b565b6000818152600260205260409020546001600160a01b0316908115611028575090565b637e27328960e01b60005260045260246000fd5b6007546001600160a01b0316330361105057565b63118cdaa760e01b6000523360045260246000fdfea264697066735822122097ed9a648cd962cfd968cff6ebd488a0fb1c46407c9c75705671ef2f0cc7665e64736f6c634300081c0033",
  "linkReferences": {},
  "deployedLinkReferences": {}
}