{
  "_format": "hh-sol-artifact-1",
  "contractName": "LicenseManager",
  "sourceName": "contracts/MarketAsset.sol",
  "abi": [
    {
      "inputs": [
        {
          "internalType": "address",
          "name": "_assetRegistry",
          "type": "address"
        },
        {
          "internalType": "address",
          "name": "_licenseNft",
          "type": "address"
        },
        {
          "internalType": "address",
          "name": "_fractionalizer",
          "type": "address"
        }
      ],
      "stateMutability": "nonpayable",
      "type": "constructor"
    },
    {
      "inputs": [
        {
          "internalType": "address",
          "name": "owner",
          "type": "address"
        }
      ],
      "name": "OwnableInvalidOwner",
      "type": "error"
    },
    {
      "inputs": [
        {
          "internalType": "address",
          "name": "account",
          "type": "address"
        }
      ],
      "name": "OwnableUnauthorizedAccount",
      "type": "error"
    },
    {
      "inputs": [],
      "name": "ReentrancyGuardReentrantCall",
      "type": "error"
    },
    {
      "anonymous": false,
      "inputs": [
        {
          "indexed": true,
          "internalType": "uint256",
          "name": "offerId",
          "type": "uint256"
        },
        {
          "indexed": true,
          "internalType": "uint256",
          "name": "assetId",
          "type": "uint256"
        },
        {
          "indexed": false,
          "internalType": "address",
          "name": "seller",
          "type": "address"
        },
        {
          "indexed": false,
          "internalType": "uint256",
          "name": "price",
          "type": "uint256"
        },
        {
          "indexed": false,
          "internalType": "enum LicenseManager.LicenseType",
          "name": "ltype",
          "type": "uint8"
        },
        {
          "indexed": false,
          "internalType": "uint256",
          "name": "maxSupply",
          "type": "uint256"
        }
      ],
      "name": "LicenseOfferCreated",
      "type": "event"
    },
    {
      "anonymous": false,
      "inputs": [
        {
          "indexed": true,
          "internalType": "uint256",
          "name": "offerId",
          "type": "uint256"
        },
        {
          "indexed": true,
          "internalType": "uint256",
          "name": "licenseTokenId",
          "type": "uint256"
        },
        {
          "indexed": false,
          "internalType": "address",
          "name": "buyer",
          "type": "address"
        },
        {
          "indexed": false,
          "internalType": "uint256",
          "name": "price",
          "type": "uint256"
        }
      ],
      "name": "LicensePurchased",
      "type": "event"
    },
    {
      "anonymous": false,
      "inputs": [
        {
          "indexed": true,
          "internalType": "address",
          "name": "previousOwner",
          "type": "address"
        },
        {
          "indexed": true,
          "internalType": "address",
          "name": "newOwner",
          "type": "address"
        }
      ],
      "name": "OwnershipTransferred",
      "type": "event"
    },
    {
      "inputs": [
        {
          "internalType": "uint256",
          "name": "offerId",
          "type": "uint256"
        }
      ],
      "name": "buyLicense",
      "outputs": [
        {
          "internalType": "uint256",
          "name": "",
          "type": "uint256"
        }
      ],
      "stateMutability": "payable",
      "type": "function"
    },
    {
      "inputs": [
        {
          "internalType": "uint256",
          "name": "offerId",
          "type": "uint256"
        }
      ],
      "name": "cancelOffer",
      "outputs": [],
      "stateMutability": "nonpayable",
      "type": "function"
    },
    {
      "inputs": [
        {
          "internalType": "uint256",
          "name": "assetId",
          "type": "uint256"
        },
        {
          "internalType": "uint256",
          "name": "price",
          "type": "uint256"
        },
        {
          "internalType": "uint16",
          "name": "royaltyBPS",
          "type": "uint16"
        },
        {
          "internalType": "enum LicenseManager.LicenseType",
          "name": "ltype",
          "type": "uint8"
        },
        {
          "internalType": "uint256",
          "name": "maxSupply",
          "type": "uint256"
        },
        {
          "internalType": "uint256",
          "name": "duration",
          "type": "uint256"
        },
        {
          "internalType": "string",
          "name": "uri",
          "type": "string"
        }
      ],
      "name": "createOffer",
      "outputs": [
        {
          "internalType": "uint256",
          "name": "",
          "type": "uint256"
        }
      ],
      "stateMutability": "nonpayable",
      "type": "function"
    },
    {
      "inputs": [
        {
          "internalType": "uint256",
          "name": "",
          "type": "uint256"
        }
      ],
      "name": "exclusiveExpiry",
      "outputs": [
        {
          "internalType": "uint256",
          "name": "",
          "type": "uint256"
        }
      ],
      "stateMutability": "view",
      "type": "function"
    },
    {
      "inputs": [],
      "name": "fractionalizer",
      "outputs": [
        {
          "internalType": "contract Fractionalizer",
          "name": "",
          "type": "address"
        }
      ],
      "stateMutability": "view",
      "type": "function"
    },
    {
      "inputs": [],
      "name": "licenseNft",
      "outputs": [
        {
          "internalType": "contract LicenseNFT",
          "name": "",
          "type": "address"
        }
      ],
      "stateMutability": "view",
      "type": "function"
    },
    {
      "inputs": [
        {
          "internalType": "uint256",
          "name": "",
          "type": "uint256"
        }
      ],
      "name": "offers",
      "outputs": [
        {
          "internalType": "uint256",
          "name": "offerId",
          "type": "uint256"
        },
        {
          "internalType": "uint256",
          "name": "assetId",
          "type": "uint256"
        },
        {
          "internalType": "address",
          "name": "seller",
          "type": "address"
        },
        {
          "internalType": "uint256",
          "name": "price",
          "type": "uint256"
        },
        {
          "internalType": "uint16",
          "name": "royaltyBPS",
          "type": "uint16"
        },
        {
          "internalType": "enum LicenseManager.LicenseType",
          "name": "ltype",
          "type": "uint8"
        },
        {
          "internalType": "uint256",
          "name": "maxSupply",
          "type": "uint256"
        },
        {
          "internalType": "uint256",
          "name": "sold",
          "type": "uint256"
        },
        {
          "internalType": "uint256",
          "name": "duration",
          "type": "uint256"
        },
        {
          "internalType": "bool",
          "name": "active",
          "type": "bool"
        },
        {
          "internalType": "string",
          "name": "uri",
          "type": "string"
        }
      ],
      "stateMutability": "view",
      "type": "function"
    },
    {
      "inputs": [],
      "name": "owner",
      "outputs": [
        {
          "internalType": "address",
          "name": "",
          "type": "address"
        }
      ],
      "stateMutability": "view",
      "type": "function"
    },
    {
      "inputs": [],
      "name": "registry",
      "outputs": [
        {
          "internalType": "contract AssetRegistry",
          "name": "",
          "type": "address"
        }
      ],
      "stateMutability": "view",
      "type": "function"
    },
    {
      "inputs": [],
      "name": "renounceOwnership",
      "outputs": [],
      "stateMutability": "nonpayable",
      "type": "function"
    },
    {
      "inputs": [],
      "name": "totalOffers",
      "outputs": [
        {
          "internalType": "uint256",
          "name": "",
          "type": "uint256"
        }
      ],
      "stateMutability": "view",
      "type": "function"
    },
    {
      "inputs": [
        {
          "internalType": "address",
          "name": "newOwner",
          "type": "address"
        }
      ],
      "name": "transferOwnership",
      "outputs": [],
      "stateMutability": "nonpayable",
      "type": "function"
    }
  ],
  "bytecode": "0x60803461011457601f6112cc38819003918201601f19168301916001600160401b0383118484101761011957808492606094604052833981010312610114576100478161012f565b9061006060406100596020840161012f565b920161012f565b9033156100fe5760008054336001600160a01b0319821681178355604051959290916001600160a01b0316907f8be0079c531659141344cd1fd0a4f28419497f9722a3daafe3b4186f6b6457e09080a360018055600580546001600160a01b03199081166001600160a01b03938416179091556006805482169383169390931790925560078054909216921691909117905561118890816101448239f35b631e4fbdf760e01b600052600060045260246000fd5b600080fd5b634e487b7160e01b600052604160045260246000fd5b51906001600160a01b03821682036101145756fe608080604052600436101561001357600080fd5b60003560e01c90816309de38541461099d575080635eb0508714610971578063715018a6146109185780637b103999146108ef5780638a72ea6a146107715780638da5cb5b14610748578063a9fd8ed11461072a578063cae1a69c1461021a578063d03b0e49146101f1578063db50389e146101c8578063ef706adf146101355763f2fde38b146100a357600080fd5b34610130576020366003190112610130576004356001600160a01b03811690819003610130576100d1611129565b801561011a57600080546001600160a01b03198116831782556001600160a01b0316907f8be0079c531659141344cd1fd0a4f28419497f9722a3daafe3b4186f6b6457e09080a3005b631e4fbdf760e01b600052600060045260246000fd5b600080fd5b34610130576020366003190112610130576004356000526003602052604060002060018060a01b03600282015416331480156101b4575b1561017e57600801805460ff19169055005b60405162461bcd60e51b815260206004820152600e60248201526d1b9bdd08185d5d1a1bdc9a5e995960921b6044820152606490fd5b506000546001600160a01b0316331461016c565b34610130576000366003190112610130576006546040516001600160a01b039091168152602090f35b34610130576000366003190112610130576007546040516001600160a01b039091168152602090f35b6020366003190112610130576004356002600154146107195760026001558060005260036020526040600020600881019060ff825416156106e7576003810190815434106106af57600581019283548061066e575b5060ff600483015460101c166003811015610658576001146105f1575b60065460408051634806c79d60e11b815233600482015260248101919091526009840180549196926001600160a01b0316918791600091906102cd82610fe8565b918260448601526001811690816000146105cb575060011461058e575b5050918160008160209503925af19485156105405760009561055a575b50600683019081546001810180911161045b5760019255541461054c575b5060018060a01b036007541690602060018201546024604051809581936223718f60e71b835260048301525afa91821561054057600092610508575b50600091829181156104a7575060018060a01b0360075416908454604051602081019263068b0e0760e41b84526024820152602481526103a2604482611022565b51925af16103ae6110f9565b5015610471575b8054803411610400575b506020927f09ff28da0bf2009cff3b4ec31215473ab1bc2f66a54cf6cd4969c4ccddd4ff60604084935481519033825287820152a360018055604051908152f35b340334811161045b57600080808093335af161041a6110f9565b501561042657836103bf565b60405162461bcd60e51b815260206004820152600d60248201526c1c99599d5b990819985a5b1959609a1b6044820152606490fd5b634e487b7160e01b600052601160045260246000fd5b60405162461bcd60e51b815260206004820152600e60248201526d19195c1bdcda5d0819985a5b195960921b6044820152606490fd5b60020154845483925082916001600160a01b03165af16104c56110f9565b506103b55760405162461bcd60e51b81526020600482015260166024820152751cd95b1b195c881d1c985b9cd9995c8819985a5b195960521b6044820152606490fd5b90916020823d602011610538575b8161052360209383611022565b81010312610535575051906000610361565b80fd5b3d9150610516565b6040513d6000823e3d90fd5b805460ff1916905584610325565b90946020823d602011610586575b8161057560209383611022565b810103126105355750519386610307565b3d9150610568565b6000908152602081209092505b8183106105b157505081016064018160006102ea565b80546064848c01015289935060209092019160010161059b565b60ff191660648087019190915292151560051b85019092019250839150600090506102ea565b6001820180548060005260046020526106116040600020544210156110ba565b6007840180549091901561063f57505442019081421161045b5754600052600460205260406000205561028c565b915050600052600460205260001960406000205561028c565b634e487b7160e01b600052602160045260246000fd5b6006830154101561067f578561026f565b60405162461bcd60e51b81526020600482015260086024820152671cdbdb19081bdd5d60c21b6044820152606490fd5b60405162461bcd60e51b815260206004820152601060248201526f696e73756666696369656e742070617960801b6044820152606490fd5b60405162461bcd60e51b815260206004820152600a6024820152696e6f742061637469766560b01b6044820152606490fd5b633ee5aeb560e01b60005260046000fd5b34610130576000366003190112610130576020600254604051908152f35b34610130576000366003190112610130576000546040516001600160a01b039091168152602090f35b346101305760203660031901126101305760043560005260036020526040600020805460018201549060018060a01b036002840154169260038101549060048101546005820154600683015490600784015492600960ff6008870154169501956040519960008b89549960206107e68c610fe8565b80845292019a600181169081156108d25750600114610893575b5050928b969492610851926108206101809d9e6108859b9997038a611022565b6040519d8e9c8d5260208d015260408c015260608b015261ffff811660808b015260ff60a08b019160101c1661105a565b60c088015260e087015261010086015215156101208501526101606101408501525180928161016086015285850190611067565b601f01601f19168101030190f35b6000908152602081209092505b8183106108b75750508b0160200182610851610800565b6001818f6020868195979697549201015201910191906108a0565b60ff19168c525050151560051b8c01602001905082610851610800565b34610130576000366003190112610130576005546040516001600160a01b039091168152602090f35b3461013057600036600319011261013057610931611129565b600080546001600160a01b0319811682556001600160a01b03167f8be0079c531659141344cd1fd0a4f28419497f9722a3daafe3b4186f6b6457e08280a3005b346101305760203660031901126101305760043560005260046020526020604060002054604051908152f35b346101305760e0366003190112610130576044359061ffff821680920361013057600360643510156101305767ffffffffffffffff60c435116101305736602360c4350112156101305767ffffffffffffffff60c43560040135116101305736602460c4356004013560c43501011161013057600554631d591eb760e31b82526004803590830152600090829060249082906001600160a01b03165afa90811561054057600091610eac575b5060c081015115610e755760018060a01b0360a08201511690602060808201516024604051809581936331a9108f60e11b835260048301525afa91821561054057600092610e39575b50602001516001600160a01b03163314908115610e26575b5015610ded576000600160643514610dce575b600160025401908160025560405192610160840184811067ffffffffffffffff821117610dba576040528284526004356020850152336040850152602435606085015260808401525060643560a083015260843560c0830152600060e083015260a4356101008301526001610120830152610b3d60c4356004013561109e565b610b4a6040519182611022565b60c435600481013580835260009391602401602084013782602060c4356004013584010152610140840191825280835260036020526040832084518155602085015160018201556002810160018060a01b036040870151166bffffffffffffffffffffffff60a01b82541617905560608501516003820155600481019461ffff60808201511695805460a0830151976003891015610da65762ff0000889960099798995060101b169162ffffff19161717905560c0810151600583015560e08101516006830155610100810151600783015561012060088301910151151560ff8019835416911617905501915191825167ffffffffffffffff8111610d9257610c538254610fe8565b601f8111610d4d575b5060209485906001601f841114610ced57948293949592610ce2575b50508160011b916000199060031b1c19161790555b60405133815260243583820152610ca96040820160643561105a565b6084356060820152817fc4781997d23ada25a0cdcee50d2dd985de16265e2e5034d2d727e978636e95ee608060043593a3604051908152f35b015190508580610c78565b90601f19831695848352818320925b878110610d36575083600195969710610d1d575b505050811b019055610c8d565b015160001960f88460031b161c19169055858080610d10565b919288600181928685015181550194019201610cfc565b82865260208620601f830160051c81019160208410610d88575b601f0160051c01905b818110610d7d5750610c5c565b868155600101610d70565b9091508190610d67565b634e487b7160e01b85526041600452602485fd5b634e487b7160e01b88526021600452602488fd5b634e487b7160e01b83526041600452602483fd5b60043581526004602052610de860408220544210156110ba565b610abd565b60405162461bcd60e51b81526020600482015260116024820152703737ba1031b932b0ba37b917b7bbb732b960791b6044820152606490fd5b6001600160a01b03163314905082610aaa565b9091506020813d602011610e6d575b81610e5560209383611022565b8101031261013057610e669061108a565b9083610a92565b3d9150610e48565b60405162461bcd60e51b815260206004820152600f60248201526e185cdcd95d081b9bdd08199bdd5b99608a1b6044820152606490fd5b903d8082843e610ebc8184611022565b820191602081840312610fe45780519067ffffffffffffffff8211610fc4570160e081840312610fe4576040519260e0840184811067ffffffffffffffff821117610fd05760405281518452610f146020830161108a565b6020850152604082015167ffffffffffffffff8111610fcc57820181601f82011215610fcc57805190610f468261109e565b92610f546040519485611022565b82845260208383010111610fc85790610f739160208085019101611067565b6040840152606081015161ffff81168103610fc4579060c091606085015260808101516080850152610fa760a0820161108a565b60a08501520151908115158203610535575060c082015282610a49565b8280fd5b8480fd5b8380fd5b634e487b7160e01b84526041600452602484fd5b5080fd5b90600182811c92168015611018575b602083101461100257565b634e487b7160e01b600052602260045260246000fd5b91607f1691610ff7565b90601f8019910116810190811067ffffffffffffffff82111761104457604052565b634e487b7160e01b600052604160045260246000fd5b9060038210156106585752565b60005b83811061107a5750506000910152565b818101518382015260200161106a565b51906001600160a01b038216820361013057565b67ffffffffffffffff811161104457601f01601f191660200190565b156110c157565b60405162461bcd60e51b815260206004820152601060248201526f6578636c75736976652061637469766560801b6044820152606490fd5b3d15611124573d9061110a8261109e565b916111186040519384611022565b82523d6000602084013e565b606090565b6000546001600160a01b0316330361113d57565b63118cdaa760e01b6000523360045260246000fdfea26469706673582212200b0c1b80ff53a7282fe8c751bda554892df89024a75cf0b61b3707d06fe1153764736f6c634300081c0033",
  "linkReferences": {},
  "deployedLinkReferences": {}
}